:10303F00124388123FD41243F11242991214E8122C
:10304F003D5B1243111242F5123B2312442B122700
:10305F004B12441BD2AF12442F90024EE4F0A374D4
:10306F001EF012442712252B1237D91239F1900274
:10307F0031E0FF7E00EF4E70E990024BE0FF7E00E3
:10308F00EF4E70DE7871E6FFEFC4135407FFEF5475
:10309F0001FF7E00EF64014E70C8900239E0FEA37D
:1030AF00E0FFEF64024E60BA7871E6FFEF5401FF64
:1030BF007E00EF4E70AC7871E6FFEF54DFFF787152
:1030CF00A607C2E8786DE6FFEF4420FF786DA607EC
:1030DF00786DE6FFEFC41313135401FFEF5401FF94
:1030EF007E00EF64014E700512442780E3786DE691
:1030FF00FFEFC41313135401FFEF5401FF7E00EFD2
:10310F004E70CD90023CE0FF7E00C3EF9401EE6461
:10311F0080948040BB90023CE0FF7E00D3EF94048C
:10312F00EE6480948050A912252B12442780A102AF
:03313F00307122CA
:103FD40075E78075E30075E44075E50475E21075D6
:103FE400E64675E6B90075E50075E70075E7807586
:103FF400E30075E44175E50475E20A75E64675E685
:09400400B90075E50075E7002222
:10438800439701E5E154F8FFEF4404F5E143E18088
:0443980043E12022BB
:0444270043E110223B
:103D5B005391F1D291D292D29343B4045395FDD2A5
:103D6B00A14395815395DFD2A543B41043B420C230
:103D7B00A053B1DF43B22043B301C2B4C2A7C2E820
:103D8B00D2B55395A3C2A2C2A3C2A4C2A643B10487
:093D9B0053B2FB53B3FDC2E9224F
:10439C004391B05391BFD29643B40853B1EF43B29B
:0243AC001022DD
:1043AE0053910FC296C294C295C29743B11053B2A5
:0243BE00EF22EC
:0C00160053C13FD28A53A1FD43C1022216
:03000300023F2495
:103F2400C0E0C0F0C083C082C0D075D000C000C063
:103F340001C002C003C004C005C006C0071231425C
:103F4400D007D006D005D004D003D002D001D000D1
:0B3F5400D0D0D082D083D0F0D0E0327B
:03001300023F5F4A
:103F5F00C0E0C0F0C083C082C0D075D000C000C028
:103F6F0001C002C003C004C005C006C00712314221
:103F7F00D007D006D005D004D003D002D001D00096
:0B3F8F00D0D0D082D083D0F0D0E03240
:06441B00120016D2AA22D5
:051B6C004203BC000073
:10429900E58954FCFFEF4401F58953A1EF43A304D9
:1042A9005389FB5389F7758A48758CF4D28CD2A946
:0142B90022E2
:03000B0002372D8C
:10372D00C0E0C083C082C0D075D000C000C006C04C
:10373D0007758CF4758A487871E6FFEF4440FF7881
:10374D0071A607900262E0FFEF6008900262E0143C
:10375D00F080129002627464F07871E6FFEF44809D
:10376D00FF7871A6079003BCE0FEA3E0FFEF4E606B
:10377D000E9003BDE024FFF09003BCE034FFF09009
:10378D000267E0FEA3E0FFEF4E60247872E6FFEFE4
:10379D00C313FFEF5401FF7E00EF64014E701E90C6
:1037AD000268E024FFF0900267E034FFF0800E9095
:1037BD000243E0FFEF6006900243E014F0D007D023
:0C37CD0006D000D0D0D082D083D0E032F3
:103DA400E5D954F1FFEF440AF5D975AC0175DA028F
:103DB40075AC0075AC01E5F244C0F5F275AC005386
:103DC400BC7F75AC01800543F203800975EA127566
:103DD400FAFD53F2FC75AC0075F9FA75E92475CF58
:053DE400FA75CE242257
:04442B00123DA42278
:03443300D2DE22B4
:05000600C2DEC2A022D1
:1043D2008F5BAF5B7E00EF4E60060000155B80F2E4
:0143E20022B8
:104347008F5CAF5C155CEF600C7F641243D27F64B7
:064357001243D280ED22AA
:0E43E300284F4B2928574729000000000000F2
:101B71004103AB004103AD004103A1004103A300B8
:101B81004103A2006029034E000000000000000094
:101B91000000000000000000000000000000000044
:101BA1000000000000000000000000000000000034
:101BB1000060290377000000000000000000000021
:101BC1000000000000000000000000000000000014
:101BD10000000000000000000000000000004403BD
:101BE10048000000004103AF004303A40203004189
:101BF10003A0004103AE004103AC0041034C00418E
:0A1C0100034D004403A7000000009B
:10404600539CEFC29FD29ED29CC2CDC2CC539C7FC2
:10405600438780539CBFE58954CFFFEF4420F58901
:1040660043A3085389BF53897F758DED758BEDD2B8
:044076008ED2AC2218
:05000E00C28EC2AC220D
:030023000235BBE8
:1035BB00C0E0C083C082C0D075D000C000C006C0C0
:0135CB0007F8
:1035CC00787C7600C0AC75AC00309902C29920981A
:1035DC0003023665C298787CA699787CE6FFEFB436
:1035EC002805900224E4F0787CE6FF900224E0FEAB
:1035FC00746D2EF582E43402F583EFF0900224E032
:10360C00FFEF04FFEF541FFF900224EFF0787CE6ED
:10361C00FFEF64297043787C7600900224E0FF78F9
:10362C007CE6FEEEC39F5025787CE6FF746D2FF58B
:10363C0082E43402F583E0FF787CE6FE74522EF5CA
:10364C0082E43402F583EFF0787C0680CD786DE669
:0B365C00FFEF4410FF786DA607D0AC14
:0F366700D007D006D000D0D0D082D083D0E032B0
:024373008F5D5C
:10437500A2AC9200C2AC855D993099FDC299A200AC
:0243850092ACF8
:014387002213
:083E6E008B418A4289438D4417
:103E7600900332E4F0900332E4F0900332E0FFEF77
:103E8600C39544501FAB41AA42A943900332E0FFB9
:103E96008F827583001204BAFF124373900332E0D7
:043EA60004F080D6CE
:013EAA0022F5
:0241D1008F5EFF
:1041D300AF5E7E00C3EF943AEE64809480500CE5AA
:1041E3005E540FFF900333EFF0800AE55E24C9FFAE
:0A41F300900333EFF0900333E0FF78
:0141FD00229F
:024142008F5F8D
:10414400535F0FAF5F7E00C3EF940AEE64809480E8
:10415400500CE55F4430FF900334EFF0800AE55FD4
:0D4164002437FF900334EFF0900334E0FFA8
:01417100222B
:0442BA008F518D5241
:1042BE00AF511241D1EFC454F0FDAF521241D1EFC4
:0942CE00540FFFED2FF553AF531F
:0142D70022C4
:1006F9007BFF7A4379E3C003C002C0017B017A031F
:100709007939A801AC02AD03D001D002D0037E0033
:100719007F0412047B90033DE4F07BFF7A4379E781
:10072900C003C002C0017B017A03793EA801AC0273
:10073900AD03D001D002D0037E007F0A12047B787A
:100749006DE6FFEF20E403020D34786DE6FFEF5408
:10075900EFFF786DA607900253E0FFEF1206D3076B
:10076900EF5207725700000888900254E0FFEF64C7
:10077900476003020888900335E4F0900270E0FFB7
:10078900900271E0FD1242BA900336EFF0900272C6
:10079900E0FF900273E0FD1242BA900337EFF09048
:1007A9000274E0FF900275E0FD1242BA900338EF3F
:1007B900F0900335E0FCA3E0FDA3E0FEA3E0FF9089
:1007C90002181206967B017A037936751E00751F89
:1007D900037FFB7E7F1222FF7B017A0379397D0437
:1007E900123E6E020888900254E0FFEF64476003EE
:1007F90002088890033E7428F090033F7452F090E9
:1008090003407447F09003417429F0900219E0FF06
:10081900EFC4540FFF124142900342EFF0900219C6
:10082900E0FFEF540FFF124142900343EFF09002B3
:100839001AE0FFEFC4540FFF124142900344EFF056
:1008490090021AE0FFEF540FFF124142900345EF67
:10085900F090021BE0FFEFC4540FFF1241429003D6
:1008690046EFF090021BE0FFEF540FFF1241429058
:100879000347EFF07B017A03793E7D0A123E6E90C1
:100889000253E0FFEF6454704E900254E0FFEF64AE
:10089900457044900255E0FFEF6453703A90025658
:1008A900E0FFEF64547030900257E0FFEFB429275E
:1008B900786FE6FFEF4408FF786FA6077872E6FFC6
:1008C900EF547FFF7872A607C2A7C2A07B017A0303
:1008D90079397D04123E6E786FE6FFEF13131354D6
:1008E9001FFFEF5401FF7E00EF64014E6003020D0C
:1008F90034900253E0FFEF1206D3094E450996469C
:100909000BA84B0C8B5009165300000D347872E676
:10091900FFEF547FFF7872A6071243FC900233124F
:1009290006A2196563787B017A0279C775400C7D47
:10093900151211137F00123CBE7B017A0379397DB0
:1009490004123E6E22900254E0FFEF644E600302EF
:100959000D34900255E0FFEF64446003020D3478D2
:100969006FE6FFEF54F7FF786FA6077F0312324453
:100979001243AED2B57872E6FFEF547FFF7872A6C4
:10098900077B017A0379397D04123E6E2290025465
:10099900E0FFEF644D70387872E6FFEF4480FF782E
:1009A90072A6071243FC9002331206A219656378F6
:1009B9007B017A0279C775400C7D151211137F01ED
:1009C900123CBE7B017A0379397D04123E6E229076
:1009D9000254E0FFEF64437051900255E0FFEF6469
:1009E9003F704790033E7428F090033F7446F0909F
:1009F90003407443F09003417429F09002EBE0FF47
:100A0900EFC4540FFF124142900342EFF09002EB02
:100A1900E0FFEF540FFF124142900343EFF07B01D7
:100A29007A03793E7D06123E6E22900254E0FFEF72
:100A390064436003020D347872E6FFEFC4131313A5
:100A49005401FFEF5401FF7E00EF64014E60030281
:100A59000D34900270E0FF900271E0FD1242BA90ED
:100A6900033DEFF07F0312324490033DE0FF7E0027
:100A7900D3EF940AEE64809480507490033DE0FFB4
:100A89009002EBEFF07B017A0279EB751E00751F7E
:100A9900017FFA7E7F1222FF90033DE0FF7E96EFF1
:100AA9008EF0A4FFAEF0E4FCFDEF2478FFEE346392
:100AB900FEED3465FDEC3419FC9003A712069690FF
:100AC90003A7E0FCA3E0FDA3E0FEA3E0FF7B017A1E
:100AD9000279C7121E127B017A0279C77D01122A97
:100AE900B87B017A0379397D04123E6E020BA2901C
:100AF900033DE0FF7E00C3740A9FEE6480F8E4645E
:100B090080984003020BA290033DE0FF7E00D3EFE3
:100B19009414EE648094804003020BA290033DE09C
:100B2900FF9002EBEFF07B017A0279EB751E0075FD
:100B39001F017FFA7E7F1222FF90033DE024F6F029
:100B490090033DE0FF7E96EF8EF0A4FFAEF0AB0779
:100B5900AA06E4F9F8C374789BFF74639AFE746576
:100B690099FD741998FC9003A71206969003A7E0C3
:100B7900FCA3E0FDA3E0FEA3E0FF7B017A0279C7B5
:100B8900121E127B017A0279C77D01122AB87B01F4
:100B99007A0379397D04123E6E7F01123CBE2290A0
:100BA9000254E0FFEF64596003020D34900255E0EE
:100BB900FFEF64296003020D3490033E7428F0901E
:100BC900033F744BF09003407459F090023BE4F0FA
:100BD900A292E433FFEF5401FF90023BE0FEEE5492
:100BE900FEFEEE4FFF90023BEFF0A291E433FFEFE0
:100BF9005401FFEF25E0FF90023BE0FEEE54FDFEBD
:100C0900EE4FFF90023BEFF0A2A5E433FFEF540152
:100C1900FFEF25E025E0FF90023BE0FEEE54FBFEEE
:100C2900EE4FFF90023BEFF0A2A1E433FFEF540136
:100C3900FFEF33333354F8FF90023BE0FEEE54F7F5
:100C4900FEEE4FFF90023BEFF090023BE0FFEF54C6
:100C5900FFFFEFC4540FFF124142900341EFF090A0
:100C6900023BE0FFEF540FFF124142900342EFF0C5
:100C79009003437429F07B017A03793E7D06123E85
:100C89006E22900254E0FFEF6448704C900257E0E6
:100C9900FFEF64297042900255E0FFEFB4321790DC
:100CA9000256E0FFEFB4370ED2A77B017A037939F8
:100CB9007D04123E6E22900255E0FFEF6432706BA4
:100CC900900256E0FFEF64307061D2A07B017A0395
:100CD90079397D04123E6E22900254E0FFEF644C94
:100CE9007049900257E0FFEF6429703F900255E088
:100CF900FFEFB43217900256E0FFEFB4370EC2A7E8
:100D09007B017A0379397D04123E6E22900255E007
:100D1900FFEFB43216900256E0FFEFB4300DC2A0D7
:0B0D29007B017A0379397D04123E6ED5
:010D3400229C
:0B43F10075BF0B7D7C7F031241FE2294
:0441FE008F578D58F2
:10420200A2AF9201C2AF75E3008557E48558E2750B
:10421200E50475E78075E64675E6B90075E5007553
:06422200E700A20192AFCB
:014228002273
:0A22FF008E198F1A8B1B8A1C891D93
:10230900A2AF9202C2AF900202E4F0E51954FEFEB8
:102319007F00900203EEF0A3EFF0900200E4F0A337
:10232900E4F0900200E0FEA3E0FFC3EE94025056F1
:10233900900203E0FF8FE3900204E0FF8FE475E56C
:102349000175E78075E64675E6B975E50075E7003C
:10235900900204E004F07006900203E004F0900299
:1023690000E0FEA3E0FF74002FF58274003EF583C0
:10237900E5E2F0124427900201E004F070069002B1
:1023890000E004F0809CE5195401FEAF1A900200A8
:10239900EEF0A3EFF0E51F451E6041AB1BAA1CA997
:1023A9001D1204A1FF900200E0FCA3E0FD74002DC2
:1023B900F58274003CF583EFF07401251DF51DE4E9
:1023C900351CF51C900201E004F07006900200E053
:1023D90004F0E51F151F7002151E80B9E51954FE9A
:1023E900FE7F00900203EEF0A3EFF0900203E0FFFE
:1023F9008FE375E40075E50375E78075E64675E6D4
:10240900B90075E50075E700900200E4F0A3E4F077
:10241900900200E0FEA3E0FFC3EE94025058900240
:1024290000E0FEA3E0FF74002FF58274003EF583FF
:10243900E0FF8FE2900203E0FF8FE3900204E0FFE8
:102449008FE475E50275E78075E64675E6B90075AE
:10245900E50075E700900204E004F07006900203BD
:10246900E004F0124427900201E004F070069002A3
:1024790000E004F0809AE51954FEFE7F0090020303
:10248900EEF0A3EFF0900200E4F0A3E4F090020074
:10249900E0FEA3E0FFC3EE94025078900203E0FF50
:1024A9008FE3900204E0FF8FE475E50175E780751D
:1024B900E64675E6B975E50075E700900204E004A3
:1024C900F07006900203E004F0124427900200E045
:1024D900FEA3E0FF74002FF58274003EF583E0FF50
:1024E900EF65E2601D900202E004F0900202E0FF55
:1024F9007E00C3EF9403EE64809480501B0223E5B1
:102509008016900201E004F07006900200E004F0E9
:10251900022496900202E4F0A20292AF900202E035
:01252900FFB2
:01252A00228E
:1014E800787D7600907FF9E493FF900222EFF090E8
:1014F8000222E0FF7E00D3EF9401EE6480948040E6
:1015080005900222E4F0900205E4F0907FFBE4935A
:10151800FF900206EFF0907FFCE493FF900207EF44
:10152800F0907FFDE493FF900208EFF07F007E00CB
:101538007D007C00900205E0F8A3E0F9A3E0FAA39F
:10154800E0FBC3120672601C7FFF7EFF7DFF7C00FC
:10155800900205E0F8A3E0F9A3E0FAA3E0FBC312C8
:101568000672700A9002051206A20000000090029E
:1015780005E0FCA3E0FDA3E0FEA3E0FF9002181243
:101588000696907FFAE493FF787DA607787DE6FFBC
:101598007E00C3E49FEE6480F8E464809840030210
:1015A80016F9787DE6FF7E00D3EF940AEE64809406
:1015B8008040030216F9787DE6FF9002EBEFF078A1
:1015C8007DE6FF7E96EF8EF0A4FFAEF0E4FCFDEF23
:1015D8002478FFEE3463FEED3465FDEC3419FC909D
:1015E8000233120696900233E0FCA3E0FDA3E0FE6E
:1015F800A3E0FF7B017A0279C7121E12787DE6FF0D
:101608007E96EF8EF0A4FFAEF0E4FCFDEF2430FFF1
:10161800EE34B0FEED346FFDEC3419FC9002331259
:101628000696900233E0FCA3E0FDA3E0FEA3E0FFF2
:101638007B017A0279BF121E12787DE6FF7E96EF53
:101648008EF0A4FFAEF0E4FCFDEF24D8FFEE34B03A
:10165800FEED3494FDEC3419FC900233120696909A
:101668000233E0FCA3E0FDA3E0FEA3E0FF7B017AE8
:101678000279D7121E12787DE6FF7E96EF8EF0A4CF
:10168800FFAEF0E4FCFDEF2470FFEE345CFEED34B9
:1016980097FDEC3419FC900233120696900233E061
:1016A800FCA3E0FDA3E0FEA3E0FF7B017A0279B78B
:1016B800121E12787DE6FF7E96EF8EF0A4FFAEF044
:1016C800E4FCFDEF24B0FFEE3469FEED349AFDEC46
:1016D8003419FC900233120696900233E0FCA3E022
:1016E800FDA3E0FEA3E0FF7B017A0279CF121E1270
:1016F80022787DE6FF7E00C3740A9FEE6480F8E4DA
:10170800648098400302187D787DE6FF7E00D3EF61
:101718009414EE64809480400302187D787DE6FF7F
:101728009002EBEFF0787D74F626F6787DE6FF7E82
:1017380096EF8EF0A4FFAEF0AB07AA06E4F9F8C363
:1017480074789BFF74639AFE746599FD741998FC0C
:10175800900233120696900233E0FCA3E0FDA3E06A
:10176800FEA3E0FF7B017A0279C7121E12787DE69C
:10177800FF7E96EF8EF0A4FFAEF0AB07AA06E4F961
:10178800F8C374309BFF74B09AFE746F99FD741996
:1017980098FC900233120696900233E0FCA3E0FD19
:1017A800A3E0FEA3E0FF7B017A0279BF121E127844
:1017B8007DE6FF7E96EF8EF0A4FFAEF0AB07AA069B
:1017C800E4F9F8C374D89BFF74B09AFE749499FD39
:1017D800741998FC900233120696900233E0FCA329
:1017E800E0FDA3E0FEA3E0FF7B017A0279D7121E99
:1017F80012787DE6FF7E96EF8EF0A4FFAEF0AB0781
:10180800AA06E4F9F8C374709BFF745C9AFE749797
:1018180099FD741998FC900233120696900233E0F1
:10182800FCA3E0FDA3E0FEA3E0FF7B017A0279B709
:10183800121E12787DE6FF7E96EF8EF0A4FFAEF0C2
:10184800AB07AA06E4F9F8C374B09BFF74699AFE63
:10185800749A99FD741998FC9002331206969002B6
:1018680033E0FCA3E0FDA3E0FEA3E0FF7B017A02E6
:0518780079CF121E12E1
:01187D002248
:0A4407008F60AF601560EF70F922BE
:104311004385404385905385FC7584005385F7534D
:0B43210085DF5385FB53A2DFD29422FE
:10432C008F61E58420E5FB856186E5845480FF7E02
:0B433C0000EF4E60F5438480AF862246
:1040E0008F598D5A7F01124407C2947F01124407F1
:1040F000E55925E0FFEF4401F559AF5912432CAFC4
:104100005A12432C7F01124407D2947F01124407B4
:01411000228C
:023F9A008F6234
:103F9C009003BEE4F07F01124407C2947F011244E7
:103FAC0007E56225E0F562AF6212432C7FFF1243F6
:103FBC002C9003BEEFF07F01124407D2947F0112C4
:073FCC0044079003BEE0FF73
:013FD30022CB
:08397A008F378B388A39893A36
:103982009003BFE4F07F01124407C2947F01124406
:1039920007E53725E0FFEF4401F537AF3712432C37
:1039A200AB38AA39A93A1204A1FF12432C9003BFE3
:1039B2007401F09003BFE0FFEFC3953B50247F02F8
:1039C200124407AB38AA39A93A9003BFE0FF8F82AD
:1039D2007583001204BAFF12432C9003BFE004F077
:0E39E20080D17F01124407D2947F0112440766
:0139F00022B4
:101C0B00016E00016F0041023B0048020A00000018
:101C1B000000000000440233196563780171000174
:101C2B007200017000016D00410244004102460048
:101C3B006028027D00000000000000000000000092
:101C4B000000000000000000000000000000000089
:101C5B00000000000000000000000000440218001B
:101C6B000000004402270000000041024C00420229
:101C7B0012000041023F004102450042022F0000CA
:101C8B00420267000041024300420263000041022E
:101C9B00420041023E004102170041026200410234
:101CAB0031004102240050026D00000000000000D2
:101CBB000000000000000000005002520000000075
:101CCB000000000000000000000000004102320094
:101CDB0041023D0041022D0042023700004202B199
:101CEB00000041023C0041024B0041022E00410228
:101CFB00090042022B000042022500004102220093
:101D0B004202400000420265000041021400410201
:101D1B00A5004902A80000000000000000004102DD
:101D2B004A004202A600004202150000440269006C
:101D3B00000000420247000041024900410223001B
:101D4B0044021E0000000042021C00004202500030
:0F1D5B0000420239000041024D0042024E0000DA
:103B23009002627464F0900244741AF0900244E0CC
:103B3300FFEF14FF900231EFF01243C090022D7497
:103B4300FFF090023274FFF090023DE4F07870E6EB
:103B5300FFEF4440FF7870A6077870E6FFEF547FCD
:103B6300FF7870A607123EAB9002B1E4F0A3E4F035
:093B7300900265E4F0A3E4F022E5
:101D6A004302E70000004802C72308199923079194
:101D7A00114802B7230C7777230BEEEF4802CF23E3
:101D8A000CBBBC230C33334802BF230900002308D1
:101D9A0077774802D7230C3BBC230BB3334102B5F8
:101DAA0000602802ED0000000000000000000000B2
:101DBA000000000000000000000000000000000019
:101DCA00000000000000000000000000004102ECDA
:101DDA00014102B600410331014102B4004102EA65
:101DEA00004102B3004102EB004802DF000000009C
:041DFA0000000000E5
:101113008B3C8A3D893E8D3F12439C1244117F0DC7
:10112300123F9A7E00EF30E0F5800280F17D117F5F
:10113300001240E07DFF7F011240E07D9F7F02129D
:1011430040E07DC37F031240E07D037F041240E053
:101153007D107F051240E07D007F061240E07D1583
:101163007F071240E07D007F081240E07D007F0989
:101173001240E07D187F0A1240E07D887F0B124009
:10118300E07D007F0C1240E07D087F0D1240E07D82
:10119300007F0E1240E07D007F0F1240E07D007F54
:1011A300101240E07D007F111240E07D007F12129B
:1011B30040E07D007F131240E07D007F141240E089
:1011C3007D007F151240E07D007F161240E07D0018
:1011D3007F171240E07D007F181240E07D007F19E9
:1011E3001240E07D007F1A1240E07D067F2D124001
:1011F300E07D057F3F1240E07D8B7F411240E07D23
:10120300007F421240E07D307F431240E07D087F43
:10121300451240E07D007F4E1240E07D007F4F127B
:1012230040E07D007F501240E07D007F511240E09E
:101233007D147F541240E07D067F601240E07D887C
:101243007F631240E07D007F671240E07D007F688E
:101253001240E07D007F691240E07D5B7F6E1240AB
:10126300E07D007F7A1240E07D0C7F7B1240E07DC1
:10127300007F7D1240E0AD407F7E1240E07D227F03
:10128300001240E07D077F021240E07DD07F031211
:1012930040E07D007F041240E07D507F051240E076
:1012A3007D277F111240E07D0C7F131240E07D0209
:1012B3007F1A1240E0AB3CAA3DA93E1204A1FD7F78
:1012C3001B1240E0AB3CAA3DA93E75820175830029
:1012D3001204BAFD7F1C1240E0AB3CAA3DA93E7547
:1012E30082027583001204BAFD7F1D1240E0AB3CFD
:1012F300AA3DA93E7582037583001204BAFD7F1EC1
:101303001240E0AB3CAA3DA93E1204A1FD7F1F128F
:1013130040E0AB3CAA3DA93E7582017583001204EF
:10132300BAFD7F201240E0AB3CAA3DA93E75820284
:101333007583001204BAFD7F211240E0AB3CAA3D45
:10134300A93E7582037583001204BAFD7F22124001
:10135300E07D087F231240E07D887F241240E07DFA
:10136300107F251240E07D0F7F261240E07D007F35
:10137300271240E07D007F281240E07D557F29122F
:1013830040E0AD3F7F2A1240E07D087F2F1240E00E
:101393007D007F301240E07DC07F311240E0AB3CE6
:1013A300AA3DA93E7582047583001204BAFD7F4DE0
:1013B3001240E0AB3CAA3DA93E758205758300123D
:1013C30004BAFD7F4E1240E0AB3CAA3DA93E7582B4
:1013D300067583001204BAFD7F4F1240E0AB3CAAAE
:1013E3003DA93E7582077583001204BAFD7F501232
:1013F30040E07D047F511240E07D5A7F521240E06D
:101403007D667F531240E07D157F5C1240E07D1BBB
:101413007F5D1240E07D057F5E1240E07D677F5F68
:101423001240E07D0C7F601240E01240AE7D447FAD
:10143300001240E07D0F7F2A1240E07D447F0012BE
:1014430040E07D007F4F1240E07D887F001240E046
:101453007D3F7F2F1240E07D417F0C1240E07D33C2
:101463007F0D1240E07D547F0E1240E07D107F140B
:101473001240E07D037F241240E07D007F7E124016
:10148300E07F707E5C7D977C19900233E0F8A3E0E7
:10149300F9A3E0FAA3E0FBC3120672601C7FB07EDF
:1014A300697D9A7C19900233E0F8A3E0F9A3E0FA8E
:1014B300A3E0FBC312067270051234F680031236E2
:1014C300767D117F001240E07D017F6F1240E07F47
:1014D3000D123F9A7E00EF30E1F5800280F1124257
:0514E300D812435D2258
:103CBE008F637D117F001240E0E5631206D33CDC7A
:103CCE00003CE5013CEE023CF70300003D007D2187
:103CDE007F761240E080227D117F761240E08019BF
:103CEE007D097F761240E080107D057F761240E0E0
:0F3CFE0080077D037F761240E07F091232442257
:10314200787E76007F0F123F9A787EA607787EE619
:10315200FFEF5401FF7E00EF64014E600302324331
:10316200787EE6FF7E00EF64FF4E70030232437802
:103172006EE6FFEF4440FF786EA6077F0112400D16
:103182007871E6FFEF5401FF7E00EF64014E6003A9
:1031920002324390023FE0FF7E00C3EF9403EE64ED
:1031A200809480503D786EE6FFEFC413135403FF02
:1031B200EF5401FF7E00EF64014E7026786EE6FF49
:1031C200EF54BFFF786EA6077B017A02797D9002E9
:1031D2002FE0FEA3E0FFAD07123EE890023FE004BD
:1031E200F02290023FE0FF7E00EF64034E705278BF
:1031F2006EE6FFEFC413135403FFEF5401FF7E008A
:10320200EF64014E703B786EE6FFEF54BFFF786EBD
:10321200A6077871E6FFEF54FEFF7871A607786D76
:10322200E6FFEF131313541FFFEF5401FF7E00EF6D
:103232004E7002C2A77F03123244C2B41243AED20E
:01324200B5D6
:013243002268
:0B43FC0030B507C2B57F021243472214
:1041A2008F647D117F001240E0AF647E00EF6410E7
:1041B2004E6014AF647E00EF64124E600AAF647EFC
:0F41C20000EF641A4E7007AD647F0A1240E022CE
:023244008F6594
:103246009003B0E4F07D117F001240E07F0B123F47
:103256009AEFC4540FFF9003B0EFF09003B0E0FF75
:10326600EF6565700302332DAF657E00EF64094E8E
:103276006021AF657E00EF64064E6017AF657E0085
:10328600EF64084E600DAF657E00EF64034E600389
:1032960002332DAD657F0B1240E0123E2D9003B038
:1032A600EFF09003B0E0FF7E00EF4E606BAF657EFF
:1032B60000EF64034E6061900233E0FCA3E0FDA3DF
:1032C600E0FEA3E0FF7B017A0279DF121E121244B0
:1032D600277F407E057D927C19900233E0F8A3E0BB
:1032E600F9A3E0FAA3E0FBC312067250107B017A41
:1032F6000279DF75400C7D55121113800E7B017A21
:103306000279DF75401C7D55121113124427AD65F5
:103316007F0B1240E0123E2D7F0B123F9AEFC454F2
:0C3326000FFF9003B0EFF09003B0E0FF49
:013332002278
:103E2D009003B1E4F0A3E4F07D117F001240E07F38
:103E3D000D123F9AEF30E30A7D007F0D1240E07FB7
:103E4D0000229003B1E475F001120531AFF0FED3FD
:103E5D00EF9488EE941340037F012212442780CF04
:013E6D002232
:10400D008F667D117F001240E0AF667E00EF640188
:10401D004E700F7D007F0F1240E07D817F161240A4
:10402D00E022AF667E00EF4E700E7D007F0E1240D7
:09403D00E07D827F161240E022B2
:1042D8007D117F001240E07D007F0D1240E07D00DF
:0D42E8007F0E1240E07D007F0F1240E022AB
:1034F6007D117F001240E07D227F061240E07D159F
:103506007F071240E07D1E7F661240E07D227F002D
:103516001240E07D937F0C1240E07D357F0D124016
:10352600E07D277F111240E07D0C7F131240E07D85
:10353600087F2F1240E07D507F561240E07D407F8D
:10354600571240E07D017F581240E07D147F5912EA
:1035560040E07D007F5A1240E07D007F5B1240E034
:103566007D157F5C1240E07D0D7F5D1240E07D059C
:103576007F5E1240E07D677F5F1240E07D097F60DD
:103586001240E07D887F001240E07D417F0C1240B2
:10359600E07D337F0D1240E07D547F0E1240E07DCA
:1035A600107F141240E07D037F241240E07D117FDE
:0535B600001240E022BC
:103676007D117F001240E07D007F061240E07D1E36
:103686007F661240E07D227F001240E07D937F0C32
:103696001240E07D357F0D1240E07D277F111240FC
:1036A600E07D0C7F131240E07D087F2F1240E07D05
:1036B600407F571240E07D017F581240E07D147F25
:1036C600591240E07D007F5A1240E07D007F5B1278
:1036D60040E07D157F5C1240E07D1B7F5D1240E07F
:1036E6007D057F5E1240E07D677F5F1240E07D0CC6
:1036F6007F601240E07D887F001240E07D417F0CB4
:103706001240E07D337F0D1240E07D547F0E124063
:10371600E07D107F141240E07D037F241240E07D9F
:07372600117F001240E022B8
:0A441100C2B47F02124347D2B42266
:102AB8008B458A4689478D48786EE6FFEF4408FFC4
:102AC800786EA6077F001232447E00EF64084E60DD
:102AD800057F031232447D227F001240E0AB45AAF5
:102AE80046A9471204A1FD7F1B1240E0AB45AA4648
:102AF800A9477582017583001204BAFD7F1C124034
:102B0800E0AB45AA46A9477582027583001204BA4C
:102B1800FD7F1D1240E0AB45AA46A94775820375A3
:102B280083001204BAFD7F1E1240E0AB45AA46A9F5
:102B3800471204A1FD7F1F1240E0AB45AA46A947F2
:102B48007582017583001204BAFD7F201240E0AB44
:102B580045AA46A9477582027583001204BAFD7F0B
:102B6800211240E0AB45AA46A94775820375830048
:102B78001204BAFD7F221240E0AB45AA46A9477568
:102B880082047583001204BAFD7F4D1240E0AB4504
:102B9800AA46A9477582057583001204BAFD7F4EBF
:102BA8001240E0AB45AA46A9477582067583001214
:102BB80004BAFD7F4F1240E0AB45AA46A94775828B
:102BC800077583001204BAFD7F501240E07D227F12
:102BD800001240E07D087F251240E07D557F2A12D3
:102BE80040E0AF487E00EF64014E700512367680F3
:102BF8000DAF487E00EF64024E70031234F67D017B
:102C08007F6F1240E07F0D123F9A7E00EF30E1F5B2
:102C1800800280F17D117F001240E0786EE6FFEFC0
:082C280054F7FF786EA60722A5
:10435D007D117F001240E07D077F4E1240E07D0110
:06436D007F121240E02265
:103EE8008B498A4A894B8D4CAF4C7E00D3EF944066
:103EF800EE648094804003754C407D117F00124031
:103F0800E0AD4C7F7B1240E07F101241A2AB49AA82
:0C3F18004AA94B854C3B7F7C12397A2271
:0E1E12008F2D8E2C8D2B8C2A8B2E8A2F8930B3
:101E20009003B3E4F09003B41206A2000000009007
:101E300003B81206A2000000007B007A1B79B77875
:101E400000AF2DAE2CAD2BAC2A1205D29003B3EF10
:101E5000F0AF2DAE2CAD2BAC2AE41202EC7B007A55
:101E60001B7937784B12024FC004C005C006C0076B
:101E70009003B3E0FCE41202F6A804A905AA06AB9D
:101E800007D007D006D005D0041200519003B41239
:101E900006967F007E007D807C499003B4E0F8A325
:101EA000E0F9A3E0FAA3E0FB12014612032A900333
:101EB000B81206969003B3E0FFAB2EAA2FA930EF1D
:101EC0001204E79003B8E0FCA3E0FDA3E0FEA3E06A
:101ED000FF7810120683EF54FFFFEE5400FEED541E
:101EE00000FDEC5400FCAB2EAA2FA93075820175C1
:101EF0008300EF1204F99003B8E0FCA3E0FDA3E037
:101F0000FEA3E0FF7808120683EF54FFFFEE5400B3
:101F1000FEED5400FDEC5400FCAB2EAA2FA9307549
:101F20008202758300EF1204F99003B8E0FCA3E08D
:101F3000FDA3E0FEA3E0FFEF54FFFFEE5400FEED33
:101F40005400FDEC5400FCAB2EAA2FA9307582037F
:101F5000758300EF1204F9E52D2480F52DE52C346E
:101F6000E5F52CE52B34F9F52BE52A34FFF52A7B32
:101F7000007A1B79B77800AF2DAE2CAD2BAC2A12AE
:101F800005D29003B3EFF0AF2DAE2CAD2BAC2AE40D
:101F90001202EC7B007A1B7937784B12024FC00497
:101FA000C005C006C0079003B3E0FCE41202F6A827
:101FB00004A905AA06AB07D007D006D005D00412A5
:101FC00000519003B41206967F007E007D807C490C
:101FD0009003B4E0F8A3E0F9A3E0FAA3E0FB120158
:101FE0004612032A9003B81206969003B3E0FFABA3
:101FF0002EAA2FA930758204758300EF1204F99080
:1020000003B8E0FCA3E0FDA3E0FEA3E0FF7810121C
:102010000683EF54FFFFEE5400FEED5400FDEC5438
:1020200000FCAB2EAA2FA930758205758300EF1234
:1020300004F99003B8E0FCA3E0FDA3E0FEA3E0FFF9
:102040007808120683EF54FFFFEE5400FEED5400B3
:10205000FDEC5400FCAB2EAA2FA9307582067583C7
:1020600000EF1204F99003B8E0FCA3E0FDA3E0FE4A
:10207000A3E0FFEF54FFFFEE5400FEED5400FDEC33
:102080005400FCAB2EAA2FA930758207758300EF90
:032090001204F93E
:01209300222A
:1040AE007D227F001240E07D5A7F071240E07D8A1C
:1040BE007F0C1240E07D267F0D1240E07D037F10C5
:1040CE001240E07D837F151240E07D117F0012408B
:0240DE00E022DE
:1042F50043920143C48053C31F53C3FC43C31053AC
:0C430500C3FB53BB9F53C4D843AD02223E
:03004B000233334A
:10333300C0E0C0F0C083C082C0D075D000C000C060
:0D33430001C002C003C004C005C006C007E1
:103350009003C0E5C6F09003C1E5C5F0900269E0B6
:10336000F8A3E0F9A3E0FAA3E0FB9003C0E0FEA31A
:10337000E0FFEE540FFEE4FCFDEB2FFFEA3EFEE91A
:103380003DFDE83CFC900269120696900249E0047B
:10339000F053C4EF43C408900249E0FF7E00C3EF3E
:1033A0009414EE64809480405653ADFD53C47F90D6
:1033B0000249E4F07B147A0079007800900269E019
:1033C000FCA3E0FDA3E0FEA3E0FF1205D2900247BC
:1033D000EEF0A3EFF0900247E0FEA3E0FFAB07AAF8
:1033E00006E4F9F87F007E107D0E7C00123DE99026
:0F33F000021E1206969002691206A2000000004B
:1033FF00D007D006D005D004D003D002D001D00022
:0B340F00D0D0D082D083D0F0D0E032CB
:04442F0043C4082258
:1039F10090024EE0FEA3E0FFEF4E60677F607E091C
:103A01007D007C0090021EE0F8A3E0F9A3E0FAA398
:103A1100E0FBD31206724006900223E4F0227F609D
:103A21007E097D007C0090021EE0F8A3E0F9A3E08E
:103A3100FAA3E0FBD312067250237F987E087D0023
:103A41007C0090021EE0F8A3E0F9A3E0FAA3E0FBFA
:103A5100D312067240079002237401F022900223D0
:043A61007402F022D9
:101DFE001108FBBFDFEFF79FAFB7BBCFDBEBE7F30E
:031E0E00FDFEFFD7
:10252B007871E6FFEF20E60302274A7871E6FFEFAA
:10253B0054BFFF7871A60790024EE0FEA3E0FFEFB9
:10254B004E600E90024FE024FFF090024EE034FFFD
:10255B00F09002A6E0FEA3E0FFEF4E600E9002A704
:10256B00E024FFF09002A6E034FFF0900225E0FE9D
:10257B00A3E0FFEF4E600E900226E024FFF09002E6
:10258B0025E034FFF0900265E0FEA3E0FFEF4E6024
:10259B000E900266E024FFF0900265E034FFF090AD
:1025AB00022BE0FEA3E0FFEF4E601090022CE02424
:1025BB00FFF090022BE034FFF0800C786DE6FFEF1C
:1025CB0054F7FF786DA607786DE6FFEF30E3359093
:1025DB00022BE0FEA3E0FFEF4E6029900241E004E6
:1025EB00F07006900240E004F0900240E0FEA3E0A1
:1025FB00FFC3EF945AEE9400400A900240E4F0A31C
:10260B00E4F0B2A79002B1E0FEA3E0FFEF4E600E44
:10261B009002B2E024FFF09002B1E034FFF09002A0
:10262B0067E0FEA3E0FFEF4E60407872E6FFEFC37A
:10263B0013FFEF5401FF7E00EF4E60030227287853
:10264B0072E6FFEF4402FF7872A6077872E6FFEF9F
:10265B0054FBFF7872A6071244337872E6FFEF2023
:10266B00E303022728D2A7022728900243E0FFEFBB
:10267B00603E7872E6FFEF1313543FFFEF5401FFF8
:10268B007E00EF4E60030227287872E6FFEF4404CA
:10269B00FF7872A6077872E6FFEF54FDFF7872A6FB
:1026AB00071200067872E6FFEF30E371C2A7806D68
:1026BB0090023EE0FFEF605990023EE014F0900272
:1026CB0063E0FEA3E0FF900267EEF0A3EFF0900251
:1026DB0042E0FF900243EFF07872E6FFEFC313FF87
:1026EB00EF5401FF7E00EF4E70337872E6FFEF443C
:1026FB0002FF7872A6077872E6FFEF54FBFF787241
:10270B00A6071244337872E6FFEF30E310D2A780AE
:10271B000C7872E6FFEF54F7FF7872A60712187E5B
:10272B00786DE6FFEFC4135407FFEF5401FF7E00F3
:10273B00EF64014E6009122C30120D351244272222
:1037D9007871E6FFEF30E7497871E6FFEF547FFF34
:1037E9007871A60790024DE0FFEF600690024DE068
:1037F90014F07871E6FFEFC4135407FFEF5401FF8B
:103809007E00EF64014E7019900231E0FFEF601104
:1038190090024BE0FF7E00EF4E7006900231E014FB
:10382900F09003BCE0FEA3E0FFEF4E703F7871E635
:10383900FFEF5401FF7E00EF64014E702F7871E6AF
:10384900FFEF54FEFF7871A607786DE6FFEF1313BB
:1038590013541FFFEF5401FF7E00EF4E7002C2A701
:0D3869007F03123244C2B41243AED2B52226
:10187E0090023DE4F090023274FFF0900223E0FFFC
:10188E007E00EF64024E7003021B6BA292E433FFE4
:10189E00124276A291E433FF124276A2A5E433FF00
:1018AE001242767F01124276A2A1E433FF124276F3
:1018BE007F011242767F0112427690022DE0FF9058
:1018CE000232E0FEEE6F6025900232E0FF90022DB4
:1018DE00EFF01243C0123EAB90021C7413F0A374CF
:1018EE0088F09002507427F0A37474F0229002379F
:1018FE0074FF75F0FF12051BAFF0FEEF4E60030292
:10190E001B6B900237E4F0A37401F0900232E0FFFB
:10191E007E00EF64FF4E7003021A0890021CE0FE78
:10192E00A3E0FFEF4E600E90021DE024FFF0900248
:10193E001CE034FFF0900250E0FEA3E0FFEF4E609B
:10194E000E900251E024FFF0900250E034FFF09030
:10195E000223E0FF7E00EF64014E6017786DE6FF14
:10196E00EF20E60F900250E0FEA3E0FFEF4E600383
:10197E00021A08786DE6FFEFC413135403FFEF54F9
:10198E0001FF7E00EF4E705A786DE6FFEF4440FF88
:10199E00786DA607900250E0FEA3E0FFEF4E7011A7
:1019AE00900263E4F0A37467F09002427467F080D3
:1019BE000F900263E4F0A37428F0900242743CF09E
:1019CE00900263E0FEA3E0FF900267EEF0A3EFF05B
:1019DE00900242E0FF900243EFF090023E7402F05C
:1019EE00801890023EE0FF7E00D3EF9401EE6480FB
:1019FE009480500690023E7402F0787F7600787FD5
:101A0E00E6FF7E00C3EF9411EE648094805023783D
:101A1E007FE6FF74082FF8E6FF900232E0FEEEB587
:101A2E00070B787FE6FF90023CEFF08005787F068B
:101A3E0080CC787FE6FF7E00900239EEF0A3EFF0C7
:101A4E00786DE6FFEFC4135407FFEF5401FF7E00DD
:101A5E00EF64014E7003021B6B787FE6FF7E00EF92
:101A6E0064114E701F7870E6FFEF54BFFF7870A6BA
:101A7E0007123EAB7870E6FFEF4480FF7870A60742
:101A8E00124250227870E6FFEF30E75D900232E0AE
:101A9E00FF7E00EF64FF4E6050787FE6FF7E00EF22
:101AAE0064054E6033787FE6FF7E00EF64064E607D
:101ABE0027787FE6FF7E00EF64074E601B787FE697
:101ACE00FF7E00EF64094E600F787FE6FF7E00EF29
:101ADE00640C4E6003021B6B7871E6FFEF5401FF3E
:101AEE007E00EF4E7077800122787FE6FFEF1206C0
:101AFE00D31B36001B3A011B3A021B3A031B3A0456
:101B0E001B4C051B4C061B4C071B50081B4C091B82
:101B1E00540A1B580B1B4C0C1B5C0D1B600E1B64DC
:101B2E000F1B681000001B6B12341A227871E6FF2F
:101B3E00EF5401FF7E00EF4E7023122094221241CB
:101B4E001122123AC722123C6E22123BCE22123CB6
:0D1B5E001E221200222212443622123B7C6D
:011B6B002257
:1041110012425090023DE4F090023CE0FF90023CDC
:10412100E0FD122908123EAB7870E6FFEF54BFFFA5
:104131007870A6077870E6FFEF4480FF7870A607D5
:01414100225B
:103AC7001242507870E6FFEF54BFFF7870A6077870
:103AD70070E6FFEF20E23F7870E6FFEF4404FF78DF
:103AE70070A6079002B1740BF0A374B8F07871E672
:103AF700FFEFC4135407FFEF5401FF7E00EF4E7032
:103B07001A7871E6FFEF4420FF7871A607D2E89094
:0C3B17000231744EF0227F0812407A2226
:103BCE001242507870E6FFEF20E33F7870E6FFEF89
:103BDE004408FF7870A6079002B1740BF0A374B876
:103BEE00F07871E6FFEFC4135407FFEF5401FF7E28
:103BFE0000EF4E701A7871E6FFEF4420FF7871A641
:103C0E0007D2E8900231744EF0227F0B12407A22D6
:103C1E001242507870E6FFEF20E43F7870E6FFEF37
:103C2E004410FF7870A6079002B1740BF0A374B81D
:103C3E00F07871E6FFEFC4135407FFEF5401FF7ED7
:103C4E0000EF4E701A7871E6FFEF4420FF7871A6F0
:103C5E0007D2E8900231744EF0227F0D12407A2284
:103C6E001242507870E6FFEF20E13F7870E6FFEFEA
:103C7E004402FF7870A6079002B1740BF0A374B8DB
:103C8E00F07871E6FFEFC4135407FFEF5401FF7E87
:103C9E0000EF4E701A7871E6FFEF4420FF7871A6A0
:103CAE0007D2E8900231744EF0227F0A12407A2237
:10407A008F679002B1E0FEA3E0FFEF4E6025900249
:10408A00B174FF75F0FF12051BAFF0FEEF4E70130F
:10409A007D00AF67122908786DE6FFEF4480FF784C
:0440AA006DA60722D6
:10341A001242507870E6FFEF20E6030234B9787062
:10342A00E6FFEF54BFFF7870A60790023D7405F0DF
:10343A00123EAB7870E6FFEF4401FF7870A6079062
:10344A0002B1740BF0A374B8F0900265E0FEA3E039
:10345A00FFEF4E70397871E6FFEFC4135407FFEFA0
:10346A005401FF7E00EF4E70147871E6FFEF44209E
:10347A00FF7871A607D2E89002317433F0900265A2
:10348A007427F0A37410F09002147402F0229002D0
:10349A0014E014FFF0EF70537F0112422990023DAD
:1034AA00E4F07870E6FFEF4480FF7870A607227890
:1034BA0070E6FFEF30E0349002B1E0FEA3E0FFEFE8
:1034CA004E60289002B174FF75F0FF12051BAFF031
:1034DA00FEEF4E70167F0212422990023DE4F07808
:0C34EA0070E6FFEF4480FF7870A6072218
:10209400120026EF70030221AB786DE6FFEF20E01B
:1020A40013786DE6FFEF20E10B786DE6FFEF20E299
:1020B400030222FE9002B1E0FEA3E0FFEF4E6003B4
:1020C4000222FE786DE6FFEFC413135403FFEF54AE
:1020D40001FF7E00EF4E60030222FE90021CE0FE30
:1020E400A3E0FFEF4E60030222FE786DE6FFEF20CF
:1020F400E008786DE6FFEF30E21890024B740AF0C6
:1021040090023DE4F07870E6FFEF4480FF7870A61B
:10211400072290024B7401F07B017D677F677E008C
:10212400123D0D7872E6FFEF4408FF7872A6077837
:1021340071E6FFEFC4135407FFEF5401FF7E00EF75
:102144004E70187871E6FFEF4420FF7871A607D22D
:10215400E8900244E0FF900231EFF0900225740F02
:10216400F0A374A0F090023DE4F07870E6FFEF5421
:10217400BFFF7870A6077870E6FFEF4480FF7870A1
:10218400A6077870E6FFEF4420FF7870A607786D05
:10219400E6FFEF20E0030222FE7870E6FFEF54DF53
:1021A400FF7870A607222290023CE0FF90023DEFE8
:1021B400F090024BE0FFEF60030222FE9002A5E0E4
:1021C400FFEF60012290023DE0FFEF1206D321DF12
:1021D4000121F702220F0300002225786DE6FFEFAC
:1021E4004401FF786DA6079002B17413F0A37488BC
:1021F400F0802E786DE6FFEF4402FF786DA607901D
:1022040002B17413F0A37488F08016786DE6FFEFC2
:102214004404FF786DA6079002B17413F0A3748888
:10222400F0900222E0FFEF600D90023DE0FF7E009F
:10223400EF64044E701912425090023CE0FF900289
:102244003CE0FD122908900265E4F0A3E4F022903A
:10225400024BE0FFEF60030222FE9002A5E0FFEFD5
:1022640060012290023DE0FF7E00EF64024E703771
:1022740012425090023CE0FF90023CE0FD1229081B
:10228400900265E4F0A3E4F0786DE6FFEF4408FF04
:10229400786DA60790022B740BF0A374B8F090022B
:1022A40040E4F0A3E4F02290023DE0FFEF1206D3F5
:1022B40022BE0122BE03000022FE786DE6FFEF304D
:1022C400E33890022BE0FEA3E0FFEF4E602C786D24
:1022D400E6FFEF54F7FF786DA60790022BE4F0A316
:1022E400E4F090023CE0FF90023CE0FD12290890EB
:0B22F4000265E4F0A3E4F01242502267
:0100220022BB
:014436002263
:103B7C00786DE6FFEF54FEFF786DA607786DE6FFD3
:103B8C00EF54FDFF786DA607786DE6FFEF54FBFF51
:103B9C00786DA607786DE6FFEF54BFFF786DA6072A
:103BAC00123EAB7870E6FFEF4440FF7870A60778C2
:103BBC0070E6FFEF547FFF7870A60790023D74FF0C
:023BCC00F022E5
:1043C000900237E4F0A3740AF09002B1E4F0A3E4A1
:0243D000F022D9
:103EAB007870E6FFEF54FEFF7870A6077870E6FF98
:103EBB00EF54FDFF7870A6077870E6FFEF54FBFF19
:103ECB007870A6077870E6FFEF54F7FF7870A607B7
:0D3EDB007870E6FFEF54EFFF7870A6072225
:1042500090024BE4F090022E7402F0900209740276
:10426000F090022BE0FEA3E0FFEF4E600890022BDF
:06427000E4F0A3E4F022DB
:100026007870E6FFEF20E6037F01227870E6FFEFA7
:1000360054BFFF7870A6079002B1E4F0A3E4F01273
:050046003EAB7F00222B
:042908008F548D5506
:10290C00900246E0FF7E00C3EF9445EE6480948015
:10291C00505A7871E6FFEFC4135407FFEF5401FFD0
:10292C007E00EF64014E7044900231E0FF7E00C3E4
:10293C00EF9419EE648094805032900231E0FFC322
:10294C0074199FF556900246E02556F0900246E029
:10295C00FF7E00C374459FFFE49EFEC3EF941BEE05
:10296C006480948040069002317419F0900231E03A
:10297C00FF7E00C3EF9419EE64809480500E900299
:10298C004DE0FF7E00EF4E6003022AB57871E6FF42
:10299C00EFC4135407FFEF5401FF7E00EF4E701885
:1029AC007871E6FFEF4420FF7871A607D2E8900219
:1029BC0044E0FF900231EFF0E5541206D329EB010D
:1029CC0029F30229FB032A03042A13052A1B062ACE
:1029DC0023072A2B092A0B0A2A330C00002A3990C8
:1029EC00024C7408F0804690024C7404F0803E90C7
:1029FC00024C7402F0803690024C7401F0802E90E0
:102A0C00024C7414F0802690024C740CF0801E90D2
:102A1C00024C740AF0801690024C7409F0800E90EF
:102A2C00024C7406F0800690024C7403F0E55512CB
:102A3C0006D32A51012A5E022A6B032A78042A85BE
:102A4C001400002A907B007D677F677E00123D0D8D
:102A5C0080327B017D677F677E00123D0D80257B78
:102A6C00027D677F677E00123D0D80187B007D0A1A
:102A7C007FF47E01123D0D800B7B007D0A7FE87E8A
:102A8C0003123D0D1243FC9002331206A21965632A
:102A9C00787B017A0279C775400C7D1512111312DF
:0B2AAC002F1090024D7419F022C2A7F9
:012AB70022FC
:100D350090024BE0FFEF1206D30D60010D8F020DFF
:100D4500E4030E5E040E95050F1B060F52070FD820
:100D5500080FD80911070A000011127870E6FFEF95
:100D650020E7119002257403F0A374E8F090024B7C
:100D7500E004F022900225E0FEA3E0FFEF4E6003C1
:100D850002111290024B740AF022900225E0FEA394
:100D9500E0FFEF4E702790024BE004F090022574BF
:100DA5000BF0A374B8F07B007D677F677E00123D72
:100DB5000D7872E6FFEF4408FF7872A60790023DB2
:100DC500E0FF7E00EF4E700302111290023DE0FF3E
:100DD5007E00EF64FF4E7003021112124250229002
:100DE5000225E0FEA3E0FFEF4E7004124250229070
:100DF500023DE0FF7E00EF4E700302111290023DAE
:100E0500E0FF7E00EF64FF4E7001227870E6FFEF91
:100E150030E52390023DE0FF7E00EF64024E701145
:100E25009002257403F0A374E8F090024BE004F0FF
:100E350022124250222290023DE0FF7E00EF640123
:100E45004E70119002257403F0A374E8F090024BE4
:100E5500E004F0221242502222900225E0FEA3E097
:100E6500FFEF4E600302111290024BE004F0900276
:100E750025740BF0A374B8F07B007D677F677E0057
:100E8500123D0D7872E6FFEF4408FF7872A607223F
:100E9500900225E0FEA3E0FFEF4E700412425022BF
:100EA50090023DE0FF7E00EF4E70030211129002AA
:100EB5003DE0FF7E00EF64FF4E7001227870E6FF93
:100EC500EF30E52F90023DE0FF7E00EF64024E70AB
:100ED5001D9002257403F0A374E8F090024BE00422
:100EE500F07870E6FFEF4480FF7870A60722124283
:100EF50050222290023DE0FF7E00EF64014E70110A
:100F05009002257403F0A374E8F090024BE004F01E
:100F1500221242502222900225E0FEA3E0FFEF4E6E
:100F2500600302111290024BE004F0900225740B4D
:100F3500F0A374B8F07B027D677F677E00123D0DDC
:100F45007872E6FFEF4408FF7872A6072290022523
:100F5500E0FEA3E0FFEF4E70041242502290023DE6
:100F6500E0FF7E00EF4E700302111290023DE0FF9C
:100F75007E00EF64FF4E7001227870E6FFEF30E5EA
:100F85002F90023DE0FF7E00EF64024E701D90023F
:100F9500257427F0A37410F090024BE004F07870EC
:100FA500E6FFEF4480FF7870A60722124250222206
:100FB50090023DE0FF7E00EF64014E701190022526
:100FC5007427F0A37410F090024BE004F022124253
:100FD500502222900225E0FEA3E0FFEF4E7004129E
:100FE50042502290023DE0FF7E00EF4E7003021159
:100FF5001290023DE0FF7E00EF64FF4E7001227803
:1010050070E6FFEF20E50302108E90023DE0FF7EC3
:1010150000EF64024E706D90024BE0FF7E00EF64BE
:10102500094E7059900222E0FF8F68E568600575EA
:1010350068008003756801900222E568F07B017AFB
:10104500027922751E00751F017FF97E7F1222FF2E
:101055007B047D677F677E00123D0D7872E6FFEFAA
:101065004408FF7872A607786DE6FFEF54F7FF781E
:101075006DA6079002317414F01242502290024B73
:10108500E004F022124250222290023DE0FF7E0051
:10109500EF64014E706790024BE0FF7E00EF64093C
:1010A5004E7053900222E0FF8F68E5686005756811
:1010B500008003756801900222E568F07B017A02E1
:1010C5007922751E00751F017FF97E7F1222FF7B35
:1010D500047D677F677E00123D0D7872E6FFEF4461
:1010E50008FF7872A607786DE6FFEF54F7FF786D75
:1010F500A6071242502290024BE004F02212425001
:0D11050022227870E6FFEF20E7031242502F
:0111120022BA
:102C3000124421EF7003022DA57871E6FFEFC41353
:102C40005407FFEF5401FF7E00EF4E700E7871E6DF
:102C5000FFEF4420FF7871A607D2E89002A6E0FEBD
:102C6000A3E0FFEF4E60319002317433F0900241E7
:102C7000E004F07006900240E004F0900240E0FEB4
:102C8000A3E0FFC3EF94F4EE9401401E900240E4F1
:102C9000F0A3E4F0B2A780127B027DFA7FF47E01FC
:102CA000123D0DC2A79002A5E4F090023DE0FFEFB7
:102CB0001206D32CC3012D04022D36032D4F05001F
:102CC000002DA590024AE0FF74A82FF582E434029B
:102CD000F583E004FFF0EFD39439401290024AE00C
:102CE000FF74A82FF582E43402F5837430F07B0082
:102CF0007D677F677E00123D0D9002A674C3F0A32E
:102D00007450F02290024AE004FFF07E00D3EF946A
:102D100008EE64809480400890024A7408F0800BAA
:102D20007B017D677F677E00123D0D9002A674C314
:102D3000F0A37450F0221241727B007D0A7FE87E7E
:102D400003123D0D9002A674C3F0A37450F02290BC
:102D5000024AE0FF7E00C3EF9408EE648094804056
:102D6000447B017A0279A812390290022712069652
:102D70007FFE7EFF7DFF7C00900227E0F8A3E0F954
:102D8000A3E0FAA3E0FBD3120672400D7B037D643F
:102D90007F647E00123D0D80077D147F1412290888
:062DA0009002A5E4F02200
:063902008B218A228923BB
:10390800752900752800752700752600752400AFF5
:10391800247E00C3EF9408EE64809480504BAB2162
:10392800AA22A923AF248F827583001204BAFFEF5D
:1039380024D0F5257F0A7E007D007C00AB29AA28CB
:10394800A927A826120547A804A905AA06AB07AF08
:1039580025E4FCFDFEEB2FF529EA3EF528E93DF5C7
:1039680027E83CF526052480A6AF29AE28AD27AC6C
:013978002628
:01397900222B
:104229008F69124421EF701E9002A5E569F01241D1
:10423900727B007D0A7FE87E03123D0D9002A67411
:07424900C3F0A37450F02242
:064421009002A5E0FF225D
:1041720090024AE4F0756A00AF6A7E00C3EF9408C9
:10418200EE648094805013AF6A74A82FF582E434F1
:0F41920002F5837430F0056A80DE9002B0E4F02D
:0141A10022FB
:104276008F6B900232E0FFEF25E0FF900232EFF005
:10428600E56B600E900232E0FFEF4401FF900232D0
:03429600EFF02224
:103D0D008E4D8F4E8D4F8B50786DE6FFEFC4131394
:103D1D005403FFEF5401FF7E00EF4E7030900263AD
:103D2D00E54DF0A3E54EF0900242E54FF0900263B1
:103D3D00E0FEA3E0FF900267EEF0A3EFF0900242E9
:0E3D4D00E0FF900243EFF090023EE550F022BE
:10274B003093030228C0786FE6FFEF5401FF7E0041
:10275B00EF4E702A786FE6FFEF4401FF786FA60704
:10276B00D2E8D2A7124046D2AF1244339002437440
:10277B00C8F0786FE6FFEF54DFFF786FA607900283
:10278B0043E0FF7E00EF4E7023786FE6FFEFC4133C
:10279B005407FFEF5401FF7E00EF4E700F786FE68A
:1027AB00FFEF4420FF786FA6071200061244272084
:1027BB00924A7871E6FFEFC313FFEF5401FF7E00DF
:1027CB00EF4E70387871E6FFEF4402FF7871A60781
:1027DB001243FC9002331206A2196563787B017ACF
:1027EB000279C775400C7D151211137872E6FFEF55
:1027FB00547FFF7872A6077F00123CBE30920C7894
:10280B0071E6FFEF54FDFF7871A6072091337871C5
:10281B00E6FFEF1313543FFFEF5401FF7E00EF4E23
:10282B00701F7871E6FFEF4404FF7871A607C2B4FE
:10283B001243AED2B57872E6FFEF547FFF7872A6E3
:10284B000730910C7871E6FFEF54FBFF7871A60708
:10285B0020A54D7871E6FFEF131313541FFFEF54B0
:10286B0001FF7E00EF4E70387871E6FFEF4408FFF2
:10287B007871A6071243FC9002331206A219656306
:10288B00787B017A0279C775400C7D151211137F85
:10289B0001123CBE7872E6FFEF4480FF7872A60708
:1028AB0030A50C7871E6FFEF54F7FF7871A607128D
:1028BB0006F902274B786FE6FFEF5401FF7E00EF1E
:1028CB0064014E700F786FE6FFEF54FEFF786FA632
:1028DB000712000EC2E8C2A77871E6FFEF54FDFFA6
:1028EB007871A6077871E6FFEF54FBFF7871A607A6
:0D28FB007871E6FFEF54F7FF7871A6072211
:102F1000D2A79002A5E0FF7E00EF4E704D7B017AB4
:102F2000027918C003C002C0017B007A007932A880
:102F300001AC02AD03D001D002D0037E007F0412A9
:102F4000047B90024CE0FF8F367F00122DA690028A
:102F50008974FFF090022FE4F0A3740DF09003BC8D
:102F60007402F0A37426F00230197B017A027918FA
:102F7000C003C002C0017B007A007932A801AC0214
:102F8000AD03D001D002D0037E007F0412047B7514
:102F900036807F00122DA69002A5E0FF7E00EF6430
:102FA000014E702F7B017A027927C003C002C00155
:102FB0007B007A007932A801AC02AD03D001D002C7
:102FC000D0037E007F0412047B7536FF7F0C122D28
:102FD000A6802D7B017A027927C003C002C0017B45
:102FE000007A007932A801AC02AD03D001D002D042
:102FF000037E007F0412047B7536007F0C122DA621
:1030000090029574FFF090022FE4F0A37419F090F1
:1030100003BC7403F0A37420F07871E6FFEF440161
:10302000FF7871A6077B017A02797D90022FE0FE7E
:0F303000A3E0FFAD07123EE890023F7401F022CB
:022DA6008F316B
:102DA800AF35123A657873A60608A6077873E6FF6A
:102DB800AE310531747D2EF582E43402F583EFF0EF
:102DC8007874E6FFAE310531747D2EF582E4340265
:102DD800F583EFF0AF34123A657873A60608A607B4
:102DE8007873E6FFAE310531747D2EF582E4340246
:102DF800F583EFF07874E6FFAE310531747D2EF57A
:102E080082E43402F583EFF0AF33123A657873A6A3
:102E18000608A6077873E6FFAE310531747D2EF5F6
:102E280082E43402F583EFF07874E6FFAE310531C1
:102E3800747D2EF582E43402F583EFF0AF36123A52
:102E4800657873A60608A6077873E6FFAE310531E4
:102E5800747D2EF582E43402F583EFF07874E6FF92
:102E6800AE310531747D2EF582E43402F583EFF03E
:102E78007874A6337873A6367876A6357875A6342E
:102E88007875E6FE08E6FF7873E6FC08E6FDED2FA8
:102E9800FFEC3EFE7877A60608A6077878E6FF12CC
:102EA8003A657873A60608A6077873E6FFAE31057B
:102EB80031747D2EF582E43402F583EFF07874E600
:102EC800FFAE310531747D2EF582E43402F583EFCF
:102ED800F07877E6FF123A657873A60608A60778B1
:102EE80073E6FFAE310531747D2EF582E43402F5C8
:102EF80083EFF07874E6FFAE310531747D2EF582EC
:072F0800E43402F583EFF051
:012F0F00229F
:023A65008F6C64
:103A6700787B7600787BE6FF7E00C3EF9408EE64F0
:103A770080948050437879E6FE08E6FFEF7802C32A
:103A870033CE33CED8F9FF7879A60608A607E56CBA
:103A970030E00E787AE6FFEF4402FF787AA60780D7
:103AA7000C787AE6FFEF4401FF787AA607E56CC346
:0F3AB70013F56C787B0680AC7879E6FE08E6FFA5
:013AC60022DD
:10004E00020396E86480F8E933E83360110460F047
:10005E00ED33EC337009E8FCE9FDEAFEEBFF220418
:10006E0060DED3EB9FEA9EE99DE8C2E78CF0C2F713
:10007E0095F0400CE8CCF8E9CDF9EACEFAEBCFFBDF
:10008E0012036185D0F05804700320D5B3E80470D4
:10009E00075002B2D50203A092D5EC0460F7E4CC6F
:1000AE00C0E0C398F8603B94186008400DD0E0FBA8
:1000BE00020378E4FBFAC9FC8028E830E406E4C9C0
:1000CE00FBE4CAFCE830E305E4C9CACBFCE85407FC
:1000DE006010F8C3E913F9EA13FAEB13FBEC13FC07
:1000EE00D8F130F52FC3E49CFCEF9BFFEE9AFEEDAA
:1000FE0099FDD0E0FBEF4E4D4C701222DB03020354
:10010E009DEC2CFCEF33FFEE33FEED33FDED30E7CF
:10011E00EB020378EF2BFFEE3AFEED39FDD0E0FB5C
:10012E0050130BBB00030203A0ED13FDEE13FEEF05
:08013E0013FFEC13FC0203782F
:10014600EC4D6011E8497017ED33EC3304600DE4B3
:10015600FCFFFEFD22E933E8330470F80203961231
:10016600036158046009E4CC248150062850090232
:1001760003A028400302039DC0E0EB4A7044B98007
:1001860006D0E0FB02038CEF4E701CBD8008EBFF2F
:10019600EAFEE9FD80EBE98DF0A4FEE5F002022F10
:1001A600E9CDF9EAFEEBFFEF89F0A4FCE5F0CE8994
:1001B600F0A42EFFE435F0CD89F0A42DFEE435F051
:1001C6008067EF4E7005BD80D780C3EF8BF0A4AC7F
:1001D600F0EE8BF0A42CFCE435F0F8EF8AF0A42CBA
:1001E600E5F038FCE433CB8DF0A42CFCE5F03BF8CD
:1001F600EE8AF0A42CFCE5F038F8E433CF89F0A4BD
:100206002CFCE5F038CF3400CE89F0A42FFFE5F0C2
:100216003EFEE433C98DF0A42EFEE5F039CD8AF01A
:10022600A42FFFE5F03EFEE43DFD33D0E0FB500792
:100236000BBB000F0203A0EC2CFCEF33FFEE33FEEA
:06024600ED33FD02037818
:10024C000203A0EC5D046005E859047003020396F8
:10025C00120361580460F6EC4860F2EC7004FDFE89
:10026C00FF22C860DB2481C85009C3986002500685
:10027C0002039D9850CAF582E9294B4A7005AB825E
:10028C0002038C75F0007C1A7880C3EF9BEE9AED1C
:10029C0099400DC3EF9BFFEE9AFEED99FDE842F0FD
:1002AC00DC23ACF0D0E0FFD0E0FED0E0FDAB822050
:1002BC00E7101BEB60BAEC2CFCEF33FFEE33FEEDDA
:1002CC0033FD020378E803F830E705C0F075F00061
:1002DC00EF2FFFEE33FEED33FD40B830E7C280AABE
:1002EC0075F020800E75F010800575F0087D007E8D
:1002FC00007F003392D530D503120664EC334010E6
:10030C00EF33FFEE33FEED33FDEC33FCD5F0ED2295
:0E031C00E5F0247EA2D513CC92E7CDCEFF22D1
:10032A00EDD2E7CD33EC3392D524814006E4FFFECB
:10033A00FDFC22FCE4CFCECDCC24E0501174FF802A
:10034A00EDC3CC13CCCD13CDCE13CECF13CF0470C7
:07035A00F030D5DE0206645D
:10036100E9D2E7C933E833F892D5EDD2E7CD33ECE2
:0703710033FC5002B2D5225B
:10037800EC30E7100FBF000C0EBE00080DBD0004E6
:100388000BEB6014A2D5EB13FCED92E7FD2274FF92
:10039800FCFDFEFF22E480F8A2D574FF13FC7D80EB
:0303A800E480EFFF
:030000000238764D
:0C387600787FE4F6D8FD75817F0238BD34
:1003AB00E709F608DFFA8046E709F208DFFA803E34
:1003BB0088828C83E709F0A3DFFA8032E309F60821
:1003CB00DFFA8078E309F208DFFA807088828C8389
:1003DB00E309F0A3DFFA806489828A83E0A3F6083D
:1003EB00DFFA805889828A83E0A3F208DFFA804C17
:1003FB0080D280FA80C680D4806980F280338010EE
:10040B0080A680EA809A80A880DA80E280CA803356
:10041B0089828A83ECFAE493A3C8C582C8CCC583CE
:10042B00CCF0A3C8C582C8CCC583CCDFE9DEE7809E
:10043B000D89828A83E493A3F608DFF9ECFAA9F01D
:10044B00EDFB2289828A83ECFAE0A3C8C582C8CC73
:10045B00C583CCF0A3C8C582C8CCC583CCDFEADE8C
:10046B00E880DB89828A83E493A3F208DFF980CCEE
:10047B0088F0EF60010E4E60C388F0ED2402B404E7
:10048B000050B9F582EB2402B4040050AF2323458E
:06049B0082239003FB73B5
:1004A100BB010689828A83E0225002E722BBFE0259
:0904B100E32289828A83E493228C
:1004BA00BB010CE58229F582E5833AF583E02250F7
:1004CA0006E92582F8E622BBFE06E92582F8E22241
:0D04DA00E58229F582E5833AF583E493225B
:1004E700BB010689828A83F0225002F722BBFE01F4
:0204F700F322EE
:1004F900F8BB010DE58229F582E5833AF583E8F039
:10050900225006E92582C8F622BBFE05E92582C8E4
:02051900F222CC
:10051B00C5F0F8A3E028F0C5F0F8E582158270026B
:06052B001583E038F02208
:10053100A3F8E0C5F025F0F0E5821582700215837D
:06054100E0C838F0E822DA
:10054700E88FF0A4CC8BF0A42CFCE98EF0A42CFC53
:100557008AF0EDA42CFCEA8EF0A4CDA8F08BF0A4D1
:100567002DCC3825F0FDE98FF0A42CCD35F0FCEB30
:100577008EF0A4FEA9F0EB8FF0A4CFC5F02ECD39F5
:0F058700FEE43CFCEAA42DCE35F0FDE43CFC2262
:1005960075F008758200EF2FFFEE33FECD33CDCC1C
:1005A60033CCC58233C5829BED9AEC99E58298409F
:1005B6000CF582EE9BFEED9AFDEC99FC0FD5F0D67C
:1005C600E4CEFBE4CDFAE4CCF9A88222B800C1B9A6
:1005D6000059BA002DEC8BF084CFCECDFCE5F0CBE4
:1005E600F97818EF2FFFEE33FEED33FDEC33FCEB1D
:1005F60033FB10D703994004EB99FB0FD8E5E4F9D8
:10060600FA227818EF2FFFEE33FEED33FDEC33FCC4
:10061600C933C910D7059BE99A4007EC9BFCE99AB8
:10062600F90FD8E0E4C9FAE4CCFB2275F010EF2FFD
:10063600FFEE33FEED33FDCC33CCC833C810D707FD
:100646009BEC9AE899400AED9BFDEC9AFCE899F838
:0E0656000FD5F0DAE4CDFBE4CCFAE4C8F922CB
:103DE900C2D5E830E70FB2D5E4C39BFBE49AFAE405
:103DF90099F9E498F8EC30E717B2D5123E1F12058D
:103E0900D2E4C39BFBE49AFAE499F9E498F88003B5
:103E19001205D230D50DE4C39FFFE49EFEE49DFD5B
:043E2900E49CFC22F7
:0E066400C3E49FFFE49EFEE49DFDE49CFC22A7
:10067200EB9FF5F0EA9E42F0E99D42F0E89C45F0DE
:010682002255
:10068300E8600FECC313FCED13FDEE13FEEF13FF55
:03069300D8F12279
:0C069600ECF0A3EDF0A3EEF0A3EFF022D7
:1006A200A8828583F0D083D0821206B91206B912CD
:1006B20006B91206B9E473E493A3C583C5F0C583F2
:1006C200C8C582C8F0A3C583C5F0C583C8C582C8A2
:0106D2002205
:1006D300D083D082F8E4937012740193700DA3A3B6
:1006E30093F8740193F5828883E4737402936860CA
:0606F300EFA3A3A380DFCA
:1038820002303FE493A3F8E493A34003F68001F2ED
:1038920008DFF48029E493A3F85407240CC8C33347
:1038A200C4540F4420C8834004F456800146F6DF16
:1038B200E4800B0102040810204080901B6CE47E1F
:1038C200019360BCA3FF543F30E509541FFEE4930B
:1038D200A360010ECF54C025E060A840B8E493A3D2
:1038E200FAE493A3F8E493A3C8C582C8CAC583CAFD
:1038F200F0A3C8C582C8CAC583CADFE9DEE780BEB5
:011E110000D0
:00000001FF
