:1035A8001247F512441912483A1246DE12189E12B2
:1035B800427512477112473A123CD812487E122BB4
:1035C8003112486ED2AF124882900251E4F0A374CF
:1035D8001EF012487A122911123BAF123E50900287
:1035E80031E0FF7E00EF4E70E990024EE0FF7E0072
:1035F800EF4E70DE7873E6FFEFC4135407FFEF5405
:1036080001FF7E00EF64014E70C8900239E0FEA30E
:10361800E0FFEF64024E60BA7873E6FFEF5401FFF3
:103628007E00EF4E70AC7873E6FFEF54DFFF7873DF
:10363800A607C2E8786EE6FFEF4420FF786EA6077B
:10364800786EE6FFEFC41313135401FFEF5401FF24
:103658007E00EF64014E700512487A80E3786EE6CA
:10366800FFEFC41313135401FFEF5401FF7E00EF63
:103678004E70CD90023CE0FF7E00C3EF9401EE64F3
:1036880080948040BB90023CE0FF7E00D3EF94041E
:10369800EE6480948050A912291112487A80A10200
:0336A80035DA22EE
:1044190075E78075E30075E44075E50475E210758C
:10442900E64675E6B90075E50075E70075E780753C
:10443900E30075E44175E50475E20A75E64675E63B
:09444900B90075E50075E70022D9
:1047F500439701E5E154F8FFEF4404F5E143E18017
:0448050043E1202249
:04487A0043E11022E4
:1042750043B4045395FDD2A14395815395DFD2A54F
:1042850043B41043B420C2A053B1DF43B22043B3BB
:1042950001C2B4C2A7C2E8D2B55395A7C2A3C2A4AE
:0E42A500C2A643B10453B2FB53B3FDC2E922DB
:1047B6004391A04395045391BFD29643B40853B195
:0547C600EF43B21022D8
:1047CB0053911F5395FBC296C2A2C295C29743B198
:0547DB001053B2EF22B3
:0C00160053C13FD28A53A1FD43C1022216
:030003000243694C
:10436900C0E0C0F0C083C082C0D075D000C000C01A
:1043790001C002C003C004C005C006C0071236ABA5
:10438900D007D006D005D004D003D002D001D00088
:0B439900D0D0D082D083D0F0D0E03232
:030013000243A401
:1043A400C0E0C0F0C083C082C0D075D000C000C0DF
:1043B40001C002C003C004C005C006C0071236AB6A
:1043C400D007D006D005D004D003D002D001D0004D
:0B43D400D0D0D082D083D0F0D0E032F7
:06486E00120016D2AA227E
:051F3F004203C3000095
:1046DE00E58954FCFFEF4401F58953A1EF43A30490
:1046EE005389FB5389F7758A48758CF4D28CD2A9FD
:0146FE002299
:03000B0002349A22
:10349A00C0E0C0F0C083C082C0D075D000C000C0F8
:1034AA0001C002C003C004C005C006C007758CF481
:1034BA00758A487873E6FFEF4440FF7873A6079051
:1034CA000269E0FFEF6008900269E014F080129050
:1034DA0002697464F07873E6FFEF4480FF7873A69C
:1034EA00079003C3E0FEA3E0FFEF4E600E9003C413
:1034FA00E024FFF09003C3E034FFF090026EE0FE98
:10350A00A3E0FFEF4E60247874E6FFEFC313FFEFEA
:10351A005401FF7E00EF64014E701E90026FE0249A
:10352A00FFF090026EE034FFF0800E900245E0FF5B
:10353A00EF6006900245E014F090023EE0FEA3E040
:10354A00FFEF4E601090023FE024FFF090023EE051
:10355A0034FFF0802E7871E6FFEFC4135407FFEFB3
:10356A005401FF7E00EF64014E70187871E6FFEF98
:10357A0054DFFF7871A60790023EE4F0A37406F0C8
:10358A00124864D007D006D005D004D003D002D0A8
:0E359A0001D000D0D0D082D083D0F0D0E0326B
:1041AB00E5D954F1FFEF440AF5D975AC0175DA0284
:1041BB0075AC0075AC01E5F244C0F5F275AC00537B
:1041CB00BC7F75AC01800543F203800975EA12755B
:1041DB00FAFD53F2FC75AC0075F9FA75E92475CF4D
:0541EB00FA75CE24224C
:04487E001241AB2216
:03488600D2DE225D
:05000600C2DEC2A022D1
:10481B008F5BAF5B7E00EF4E60060000155B80F296
:01482B00226A
:10478A008F5CAF5C155CEF600C7F6412481B7F6422
:06479A0012481B80ED2215
:0E482C00284F4B2928574729000000000000A4
:101F44004103B2004103B4004103A8004103AA00C5
:101F54004103A900602903550000000000000000AF
:101F6400000000000000000000000000000000006D
:101F7400000000000000000000000000000000005D
:101F8400006029037E000000000000000000000043
:101F9400000000000000000000000000000000003D
:101FA40000000000000000000000000000004403E6
:101FB4004F000000004103B6004303AB020300419D
:101FC40003A7004103B5004103B30041035300419B
:0A1FD4000354004403AE00000000B7
:10448B00539CEFC29FD29ED29CC2CDC2CC539C7F79
:10449B00438780539CBFE58954CFFFEF4420F589B8
:1044AB0043A3085389BF53897F758DED758BEDD26F
:0444BB008ED2AC22CF
:05000E00C28EC2AC220D
:03002300023A3D61
:103A3D00C0E0C083C082C0D075D000C000C006C039
:013A4D000771
:103A4E00787E7600C0AC75AC00309902C299209891
:103A5E0003023AE7C298787EA699787EE6FFEFB425
:103A6E002805900224E4F0787EE6FF900224E0FE22
:103A7E0074742EF582E43402F583EFF0900224E0A4
:103A8E00FFEF04FFEF541FFF900224EFF0787EE665
:103A9E00FFEF64297043787E7600900224E0FF7871
:103AAE007EE6FEEEC39F5025787EE6FF74742FF5FA
:103ABE0082E43402F583E0FF787EE6FE74552EF53F
:103ACE0082E43402F583EFF0787E0680CD786EE6E0
:0B3ADE00FFEF4410FF786EA607D0AC8D
:0F3AE900D007D006D000D0D0D082D083D0E0322A
:0247E0008F5DEB
:1047E200A2AC9200C2AC855D993099FDC299A2003B
:0247F20092AC87
:0147F40022A2
:0842B3008B418A4289438D44CE
:1042BB00900339E4F0900339E4F0900339E0FFEF19
:1042CB00C39544501FAB41AA42A943900339E0FF69
:1042DB008F827583001204BAFF1247E0900339E016
:0442EB0004F080D685
:0142EF0022AC
:024616008F5EB5
:10461800AF5E7E00C3EF943AEE64809480500CE560
:104628005E540FFF90033AEFF0800AE55E24C9FF5D
:0A46380090033AEFF090033AE0FF20
:014642002255
:024587008F5F44
:10458900535F0FAF5F7E00C3EF940AEE648094809F
:10459900500CE55F4430FF90033BEFF0800AE55F84
:0D45A9002437FF90033BEFF090033BE0FF51
:0145B60022E2
:0446FF008F518D52F8
:10470300AF51124616EFC454F0FDAF52124616EFE6
:09471300540FFFED2FF553AF53D5
:01471C00227A
:1006F9007BFF7A48792CC003C002C0017B017A03D1
:100709007940A801AC02AD03D001D002D0037E002C
:100719007F0412047B900344E4F07BFF7A4879302C
:10072900C003C002C0017B017A037945A801AC026C
:10073900AD03D001D002D0037E007F0A12047B787A
:100749006EE6FFEF20E403020D1F786EE6FFEF541B
:10075900EFFF786EA607900256E0FFEF1206D30767
:10076900EF5207725700000888900257E0FFEF64C4
:1007790047600302088890033CE4F0900277E0FFA9
:10078900900278E0FD1246FF90033DEFF090027968
:10079900E0FF90027AE0FD1246FF90033EEFF090F1
:1007A900027BE0FF90027CE0FD1246FF90033FEFE1
:1007B900F090033CE0FCA3E0FDA3E0FEA3E0FF9082
:1007C90002181206967B017A03793D751E00751F82
:1007D900037FFB7E7F1226E57B017A0379407D0446
:1007E9001242B3020888900257E0FFEF64476003A2
:1007F9000208889003457428F09003467452F090DB
:1008090003477447F09003487429F0900219E0FFF8
:10081900EFC4540FFF124587900349EFF090021976
:10082900E0FFEF540FFF12458790034AEFF0900263
:100839001AE0FFEFC4540FFF12458790034BEFF006
:1008490090021AE0FFEF540FFF12458790034CEF17
:10085900F090021BE0FFEFC4540FFF12458790038D
:100869004DEFF090021BE0FFEF540FFF1245879008
:10087900034EEFF07B017A0379457D0A1242B3906A
:100889000256E0FFEF6454704E900257E0FFEF64A8
:10089900457044900258E0FFEF6453703A90025952
:1008A900E0FFEF6454703090025AE0FFEFB429275B
:1008B9007870E6FFEF4408FF7870A6077874E6FFC2
:1008C900EF547FFF7874A607C2A7C2A07B017A0301
:1008D90079407D041242B37870E6FFEF1313135485
:1008E9001FFFEF5401FF7E00EF64014E6003020D0C
:1008F9001F900256E0FFEF1206D3094E45099646AE
:100909000BA84B0C765009165300000D1F7874E69E
:10091900FFEF547FFF7874A60712484590023312FF
:1009290006A2196563787B017A0279CE75400C7D40
:10093900151210FE7F001240C47B017A0379407DB5
:10094900041242B322900257E0FFEF644E600302A3
:100959000D1F900258E0FFEF64446003020D1F78F9
:1009690070E6FFEF54F7FF7870A6077F031237ADE3
:100979001247CBD2B57874E6FFEF547FFF7874A69F
:10098900077B017A0379407D041242B32290025712
:10099900E0FFEF644D70387874E6FFEF4480FF782C
:1009A90074A6071248459002331206A219656378A6
:1009B9007B017A0279CE75400C7D151210FE7F01FC
:1009C9001240C47B017A0379407D041242B322901C
:1009D9000257E0FFEF64437051900258E0FFEF6463
:1009E9003F70479003457428F09003467446F09091
:1009F90003477443F09003487429F09002F2E0FF32
:100A0900EFC4540FFF124587900349EFF09002F2AB
:100A1900E0FFEF540FFF12458790034AEFF07B0187
:100A29007A0379457D061242B322900257E0FFEF1F
:100A390064436003020D1F7874E6FFEFC4131313B8
:100A49005401FFEF5401FF7E00EF64014E60030281
:100A59000D1F900277E0FF900278E0FD1246FF90AB
:100A69000344EFF07F031237AD900344E0FF7E00AB
:100A7900D3EF940AEE648094805074900344E0FFAD
:100A89009002F2EFF07B017A0279F2751E00751F70
:100A9900017FFA7E7F1226E5900344E0FF7E96EF00
:100AA9008EF0A4FFAEF0E4FCFDEF2478FFEE346392
:100AB900FEED3465FDEC3419FC9003AE12069690F8
:100AC90003AEE0FCA3E0FDA3E0FEA3E0FF7B017A17
:100AD9000279CE1221F87B017A0279CE7D01122F9B
:100AE900137B017A0379407D041242B3020BA29071
:100AF9000344E0FF7E00C3740A9FEE6480F8E46457
:100B090080984003020BA2900344E0FF7E00D3EFDC
:100B19009414EE648094804003020BA2900344E095
:100B2900FF9002F2EFF07B017A0279F2751E0075EF
:100B39001F017FFA7E7F1226E5900344E024F6F038
:100B4900900344E0FF7E96EF8EF0A4FFAEF0AB0772
:100B5900AA06E4F9F8C374789BFF74639AFE746576
:100B690099FD741998FC9003AE1206969003AEE0B5
:100B7900FCA3E0FDA3E0FEA3E0FF7B017A0279CEAE
:100B89001221F87B017A0279CE7D01122F137B01A4
:100B99007A0379407D041242B37F011240C4229046
:100BA9000257E0FFEF64596003020D1F900258E0FD
:100BB900FFEF64296003020D1F9003457428F0902C
:100BC9000346744BF09003477459F090023BE4F0EC
:100BD9007871E6FFEF5401FF90023BE0FEEE54FE10
:100BE900FEEE4FFF90023BEFF07871E6FFEF540203
:100BF900FF90023BE0FEEE54FDFEEE4FFF90023BFC
:100C0900EFF07871E6FFEF5404FF90023BE0FEEE4F
:100C190054FBFEEE4FFF90023BEFF07871E6FFEFD9
:100C29005408FF90023BE0FEEE54F7FEEE4FFF90B2
:100C3900023BEFF090023BE0FFEF54FFFFEFC4549B
:100C49000FFF124587900348EFF090023BE0FFEF5A
:100C5900540FFF124587900349EFF090034A742916
:100C6900F07B017A0379457D061242B3229002573F
:100C7900E0FFEF6448704C90025AE0FFEF6429707E
:100C890042900258E0FFEFB43217900259E0FFEFAB
:100C9900B4370ED2A77B017A0379407D041242B39F
:100CA90022900258E0FFEF6432706B900259E0FF26
:100CB900EF64307061D2A07B017A0379407D041220
:100CC90042B322900257E0FFEF644C704990025AF8
:100CD900E0FFEF6429703F900258E0FFEFB432174C
:100CE900900259E0FFEFB4370EC2A77B017A03796E
:100CF900407D041242B322900258E0FFEFB432164D
:100D0900900259E0FFEFB4300DC2A07B017A03795C
:060D1900407D041242B30C
:010D1F0022B1
:0B483A0075BF0B7D7C7F0312464322FC
:044643008F578D58A8
:10464700A2AF9201C2AF75E3008557E48558E275C2
:10465700E50475E78075E64675E6B90075E500750A
:06466700E700A20192AF82
:01466D00222A
:0A26E5008E198F1A8B1B8A1C891DA9
:1026EF00A2AF9202C2AF900202E4F0E51954FEFECF
:1026FF007F00900203EEF0A3EFF0900200E4F0A34E
:10270F00E4F0900200E0FEA3E0FFC3EE9402505607
:10271F00900203E0FF8FE3900204E0FF8FE475E582
:10272F000175E78075E64675E6B975E50075E70052
:10273F00900204E004F07006900203E004F09002AF
:10274F0000E0FEA3E0FF74002FF58274003EF583D6
:10275F00E5E2F012487A900201E004F07006900270
:10276F0000E004F0809CE5195401FEAF1A900200BE
:10277F00EEF0A3EFF0E51F451E6041AB1BAA1CA9AD
:10278F001D1204A1FF900200E0FCA3E0FD74002DD8
:10279F00F58274003CF583EFF07401251DF51DE4FF
:1027AF00351CF51C900201E004F07006900200E069
:1027BF0004F0E51F151F7002151E80B9E51954FEB0
:1027CF00FE7F00900203EEF0A3EFF0900203E0FF14
:1027DF008FE375E40075E50375E78075E64675E6EA
:1027EF00B90075E50075E700900200E4F0A3E4F08E
:1027FF00900200E0FEA3E0FFC3EE94025058900257
:10280F0000E0FEA3E0FF74002FF58274003EF58315
:10281F00E0FF8FE2900203E0FF8FE3900204E0FFFE
:10282F008FE475E50275E78075E64675E6B90075C4
:10283F00E50075E700900204E004F07006900203D3
:10284F00E004F012487A900201E004F07006900262
:10285F0000E004F0809AE51954FEFE7F0090020319
:10286F00EEF0A3EFF0900200E4F0A3E4F09002008A
:10287F00E0FEA3E0FFC3EE94025078900203E0FF66
:10288F008FE3900204E0FF8FE475E50175E7807533
:10289F00E64675E6B975E50075E700900204E004B9
:1028AF00F07006900203E004F012487A900200E004
:1028BF00FEA3E0FF74002FF58274003EF583E0FF66
:1028CF00EF65E2601D900202E004F0900202E0FF6B
:1028DF007E00C3EF9403EE64809480501B0227CBDD
:1028EF008016900201E004F07006900200E004F000
:1028FF0002287C900202E4F0A20292AF900202E062
:01290F00FFC8
:0129100022A4
:10189E00787F7600907FF9E493FF900222EFF0902C
:1018AE000222E0FF7E00D3EF9401EE64809480402C
:1018BE0005900222E4F0900205E4F0907FFBE493A1
:1018CE00FF900206EFF0907FFCE493FF900207EF8B
:1018DE00F0907FFDE493FF900208EFF07F007E0012
:1018EE007D007C00900205E0F8A3E0F9A3E0FAA3E6
:1018FE00E0FBC3120672601C7FFF7EFF7DFF7C0043
:10190E00900205E0F8A3E0F9A3E0FAA3E0FBC3120E
:10191E000672700A9002051206A2000000009002E4
:10192E0005E0FCA3E0FDA3E0FEA3E0FF9002181289
:10193E000696907FFAE493FF787FA607787FE6FFFE
:10194E007E00C3E49FEE6480F8E464809840030256
:10195E001AAF787FE6FF7E00D3EF940AEE64809490
:10196E00804003021AAF787FE6FF9002F2EFF07824
:10197E007FE6FF7E96EF8EF0A4FFAEF0E4FCFDEF67
:10198E002478FFEE3463FEED3465FDEC3419FC90E3
:10199E000233120696900233E0FCA3E0FDA3E0FEB4
:1019AE00A3E0FF7B017A0279CE1221F8787FE6FF61
:1019BE007E96EF8EF0A4FFAEF0E4FCFDEF2430FF38
:1019CE00EE34B0FEED346FFDEC3419FC90023312A0
:1019DE000696900233E0FCA3E0FDA3E0FEA3E0FF39
:1019EE007B017A0279C61221F8787FE6FF7E96EFA8
:1019FE008EF0A4FFAEF0E4FCFDEF24D8FFEE34B081
:101A0E00FEED3494FDEC3419FC90023312069690E0
:101A1E000233E0FCA3E0FDA3E0FEA3E0FF7B017A2E
:101A2E000279DE1221F8787FE6FF7E96EF8EF0A423
:101A3E00FFAEF0E4FCFDEF2470FFEE345CFEED34FF
:101A4E0097FDEC3419FC900233120696900233E0A7
:101A5E00FCA3E0FDA3E0FEA3E0FF7B017A0279BECA
:101A6E001221F8787FE6FF7E96EF8EF0A4FFAEF09F
:101A7E00E4FCFDEF24B0FFEE3469FEED349AFDEC8C
:101A8E003419FC900233120696900233E0FCA3E068
:101A9E00FDA3E0FEA3E0FF7B017A0279D61221F8C6
:101AAE0022787FE6FF7E00C3740A9FEE6480F8E41E
:101ABE006480984003021C33787FE6FF7E00D3EFEC
:101ACE009414EE648094804003021C33787FE6FF0A
:101ADE009002F2EFF0787F74F626F6787FE6FF7EBE
:101AEE0096EF8EF0A4FFAEF0AB07AA06E4F9F8C3AA
:101AFE0074789BFF74639AFE746599FD741998FC53
:101B0E00900233120696900233E0FCA3E0FDA3E0B0
:101B1E00FEA3E0FF7B017A0279CE1221F8787FE6F0
:101B2E00FF7E96EF8EF0A4FFAEF0AB07AA06E4F9A7
:101B3E00F8C374309BFF74B09AFE746F99FD7419DC
:101B4E0098FC900233120696900233E0FCA3E0FD5F
:101B5E00A3E0FEA3E0FF7B017A0279C61221F8789A
:101B6E007FE6FF7E96EF8EF0A4FFAEF0AB07AA06DF
:101B7E00E4F9F8C374D89BFF74B09AFE749499FD7F
:101B8E00741998FC900233120696900233E0FCA36F
:101B9E00E0FDA3E0FEA3E0FF7B017A0279DE1221D5
:101BAE00F8787FE6FF7E96EF8EF0A4FFAEF0AB07DF
:101BBE00AA06E4F9F8C374709BFF745C9AFE7497DE
:101BCE0099FD741998FC900233120696900233E038
:101BDE00FCA3E0FDA3E0FEA3E0FF7B017A0279BE49
:101BEE001221F8787FE6FF7E96EF8EF0A4FFAEF01E
:101BFE00AB07AA06E4F9F8C374B09BFF74699AFEAA
:101C0E00749A99FD741998FC9002331206969002FC
:101C1E0033E0FCA3E0FDA3E0FEA3E0FF7B017A022C
:051C2E0079D61221F837
:011C3300228E
:0A4850008F60AF601560EF70F92271
:104771004385404385905385FC7584005385F753E9
:0947810085DF5385FB53A2DF2202
:104756008F61E58420E5FB856186E5845480FF7ED4
:0B47660000EF4E60F5438480AF862218
:104525008F598D5A7F01124850C2A27F01124850FF
:10453500E55925E0FFEF4401F559AF59124756AF4C
:104545005A1247567F01124850D2A27F0112485095
:014555002243
:0243DF008F62EB
:1043E1009003C5E4F07F01124850C2A27F01124838
:1043F10050E56225E0F562AF621247567FFF124732
:10440100569003C5EFF07F01124850D2A27F0112EE
:0744110048509003C5E0FFD5
:014418002281
:083DD9008F378B388A39893AD3
:103DE1009003C6E4F07F01124850C2A27F0112483D
:103DF10050E53725E0FFEF4401F537AF371247565D
:103E0100AB38AA39A93A1204A1FF1247569003C64A
:103E11007401F09003C6E0FFEFC3953B50247F028D
:103E2100124850AB38AA39A93A9003C6E0FF8F82F5
:103E31007583001204BAFF1247569003C6E004F0DE
:0E3E410080D17F01124850D2A27F011248505A
:013E4F002250
:101FDE00016F0001700001710041023B0041024B94
:101FEE000042023E000048020A000000000000000D
:101FFE0000440233196563780173000174000172A5
:10200E0000016E0041024600410248006028028431
:10201E0000000000000000000000000000000000B2
:10202E0000000000000000000000000000000000A2
:10203E0000000000000000004402180000000044F0
:10204E0002270000000041024F0042021200004130
:10205E000241004102470042022F000042026E0080
:10206E00004102450042026A000041024400410262
:10207E004000410217004102690041023100410255
:10208E002400500274000000000000000000000058
:10209E00000000000050025500000000000000008B
:1020AE0000000000000000004102320041023D002D
:1020BE0041022D0042023700004202B800004102E8
:1020CE003C0041024E0041022E0041020900420234
:1020DE002B00004202250000410222004202420073
:1020EE000042026C0000410214004102AC004902A1
:1020FE00AF00000000000000000041024D0042024F
:10210E00AD000042021500004402700000000042C3
:10211E000249000041024C004102230044021E000D
:10212E000000004402650000000042021C00004254
:10213E000253000042023900004102500042025197
:02214E0000008F
:103CD8009002697464F0900246741AF0900246E00B
:103CE800FFEF14FF900231EFF012480990022D7493
:103CF800FFF090023274FFF090023DE4F07872E633
:103D0800FFEF4440FF7872A6077872E6FFEF547F12
:103D1800FF7872A6071242F09002B8E4F0A3E4F02C
:103D280090026CE4F0A3E4F07871E6FFEF4401FF41
:103D38007871A6077871E6FFEF4402FF7871A6074D
:103D48007871E6FFEF4404FF7871A6077871E6FF03
:093D5800EF4408FF7871A6072270
:102150004302EE0000004802CE230819992307919C
:10216000114802BE230C7777230BEEEF4802D623EB
:102170000CBBBC230C33334802C6230900002308E0
:1021800077774802DE230C3BBC230BB3334102BC00
:1021900000602802F40000000000000000000000C1
:1021A000000000000000000000000000000000002F
:1021B000000000000000000000000000004102F3E9
:1021C000014102BD00410338014102BB004102F15F
:1021D000004102BA004102F2004802E6000000009D
:0421E00000000000FB
:1010FE008B3C8A3D893E8D3F1247B612485A7F0D72
:10110E001243DF7E00EF30E0F5800280F17D117F2B
:10111E00001245257DFF7F011245257D9F7F02121E
:10112E0045257DC37F031245257D037F041245258A
:10113E007D107F051245257D007F061245257D1504
:10114E007F071245257D007F081245257D007F090A
:10115E001245257D187F0A1245257D887F0B124585
:10116E00257D007F0C1245257D087F0D1245257DBE
:10117E00007F0E1245257D007F0F1245257D007FD5
:10118E00101245257D007F111245257D007F12121C
:10119E0045257D007F131245257D007F14124525C0
:1011AE007D007F151245257D007F161245257D0099
:1011BE007F171245257D007F181245257D007F196A
:1011CE001245257D007F1A1245257D067F2D12457D
:1011DE00257D057F3F1245257D8B7F411245257D5F
:1011EE00007F421245257D307F431245257D087FC5
:1011FE00451245257D007F4E1245257D007F4F12FD
:10120E0045257D007F501245257D007F51124525D5
:10121E007D147F541245257D067F601245257D88FD
:10122E007F631245257D007F671245257D007F680F
:10123E001245257D007F691245257D5B7F6E124527
:10124E00257D007F7A1245257D0C7F7B1245257DFD
:10125E00007F7D124525AD407F7E1245257D227F84
:10126E00001245257D077F021245257DD07F031292
:10127E0045257D007F041245257D507F05124525AD
:10128E007D277F111245257D0C7F131245257D028A
:10129E007F1A124525AB3CAA3DA93E1204A1FD7F43
:1012AE001B124525AB3CAA3DA93E758201758300F4
:1012BE001204BAFD7F1C124525AB3CAA3DA93E7512
:1012CE0082027583001204BAFD7F1D124525AB3CC8
:1012DE00AA3DA93E7582037583001204BAFD7F1ED6
:1012EE00124525AB3CAA3DA93E1204A1FD7F1F125B
:1012FE004525AB3CAA3DA93E7582017583001204BB
:10130E00BAFD7F20124525AB3CAA3DA93E7582024F
:10131E007583001204BAFD7F21124525AB3CAA3D10
:10132E00A93E7582037583001204BAFD7F22124511
:10133E00257D087F231245257D887F241245257D36
:10134E00107F251245257D0F7F261245257D007FB6
:10135E00271245257D007F281245257D557F2912B0
:10136E004525AD3F7F2A1245257D087F2F12452545
:10137E007D007F301245257DC07F31124525AB3C67
:10138E00AA3DA93E7582047583001204BAFD7F4DF5
:10139E00124525AB3CAA3DA93E7582057583001208
:1013AE0004BAFD7F4E124525AB3CAA3DA93E75827F
:1013BE00067583001204BAFD7F4F124525AB3CAA79
:1013CE003DA93E7582077583001204BAFD7F501247
:1013DE0045257D047F511245257D5A7F52124525A4
:1013EE007D667F531245257D157F5C1245257D1B3D
:1013FE007F5D1245257D057F5E1245257D677F5FEA
:10140E001245257D0C7F601245251244F37D447FE5
:10141E00001245257D0F7F2A1245257D447F00123F
:10142E0045257D007F4F1245257D887F001245257D
:10143E007D3F7F2F1245257D417F0C1245257D3343
:10144E007F0D1245257D547F0E1245257D107F148C
:10145E001245257D037F241245257D007F7E124592
:10146E00257F707E5C7D977C19900233E0F8A3E0B7
:10147E00F9A3E0FAA3E0FBC3120672601C7FB07EF4
:10148E00697D9A7C19900233E0F8A3E0F9A3E0FAA3
:10149E00A3E0FBC312067270051239788003123A6C
:1014AE00F87D117F001245257D017F6F1245257F46
:1014BE000D1243DF7E00EF30E1F5800280F112471E
:0514CE001D1247A022E1
:1040C4008F637D117F00124525E5631206D340E21C
:1040D4000040EB0140F40240FD03000041067D2155
:1040E4007F7612452580227D117F76124525801921
:1040F4007D097F7612452580107D057F7612452542
:0F41040080077D037F761245257F091237AD2294
:1036AB00788076007F0F1243DF7880A6077880E65C
:1036BB00FFEF5401FF7E00EF64014E60030237AC55
:1036CB007880E6FF7E00EF64FF4E70030237AC7824
:1036DB006FE6FFEF4440FF786FA6077F011244525D
:1036EB007873E6FFEF5401FF7E00EF64014E600339
:1036FB000237AC900241E0FF7E00C3EF9403EE640F
:10370B00809480503D786FE6FFEFC413135403FF92
:10371B00EF5401FF7E00EF64014E7026786FE6FFD9
:10372B00EF54BFFF786FA6077B017A027984900272
:10373B002FE0FEA3E0FFAD0712432D900241E00402
:10374B00F022900241E0FF7E00EF64034E7052784E
:10375B006FE6FFEFC413135403FFEF5401FF7E001A
:10376B00EF64014E703B786FE6FFEF54BFFF786F4D
:10377B00A6077873E6FFEF54FEFF7873A607786E03
:10378B00E6FFEF131313541FFFEF5401FF7E00EFFF
:10379B004E7002C2A77F031237ADC2B41247CBD211
:0137AB00B568
:0137AC0022FA
:0B48450030B507C2B57F0212478A227F
:1045E7008F647D117F00124525AF647E00EF641054
:1045F7004E6014AF647E00EF64124E600AAF647EB3
:0F46070000EF641A4E7007AD647F0A124525223A
:0237AD008F6526
:1037AF009003B7E4F07D117F001245257F0B124384
:1037BF00DFEFC4540FFF9003B7EFF09003B7E0FFB4
:1037CF00EF65657003023896AF657E00EF64094EB2
:1037DF006021AF657E00EF64064E6017AF657E0017
:1037EF00EF64084E600DAF657E00EF64034E60031B
:1037FF00023896AD657F0B1245251242349003B700
:10380F00EFF09003B7E0FF7E00EF4E606BAF657E89
:10381F0000EF64034E6061900233E0FCA3E0FDA370
:10382F00E0FEA3E0FF7B017A0279E61221F812484D
:10383F007A7F407E057D927C19900233E0F8A3E0F9
:10384F00F9A3E0FAA3E0FBC312067250107B017AD2
:10385F000279E675400C7D551210FE800E7B017AC1
:10386F000279E675401C7D551210FE12487AAD653F
:10387F007F0B1245251242347F0B1243DFEFC454E6
:0C388F000FFF9003B7EFF09003B7E0FFCD
:01389B00220A
:104234009003B8E4F0A3E4F07D117F001245257FDC
:104244000D1243DFEF30E30A7D007F0D1245257F19
:1042540000229003B8E475F001120531AFF0FED3EB
:10426400EF9488EE941340037F012212487A80CFA2
:014274002227
:104452008F667D117F00124525AF667E00EF6401F5
:104462004E700F7D007F0F1245257D817F1612450C
:104472002522AF667E00EF4E700E7D007F0E124544
:09448200257D827F1612452522DA
:10471D007D117F001245257D007F0D1245257D0001
:0D472D007F0E1245257D007F0F12452522CD
:103978007D117F001245257D227F061245257D1584
:103988007F071245257D1E7F661245257D227F0013
:103998001245257D937F0C1245257D357F0D1245F7
:1039A800257D277F111245257D0C7F131245257D26
:1039B800087F2F1245257D507F561245257D407F73
:1039C800571245257D017F581245257D147F5912D0
:1039D80045257D007F5A1245257D007F5B124525D0
:1039E8007D157F5C1245257D0D7F5D1245257D0582
:1039F8007F5E1245257D677F5F1245257D097F60C3
:103A08001245257D887F001245257D417F0C124592
:103A1800257D337F0D1245257D547F0E1245257D6A
:103A2800107F141245257D037F241245257D117FC3
:053A38000012452522EB
:103AF8007D117F001245257D007F061245257D1E1C
:103B08007F661245257D227F001245257D937F0C17
:103B18001245257D357F0D1245257D277F111245DC
:103B2800257D0C7F131245257D087F2F1245257DA5
:103B3800407F571245257D017F581245257D147F0A
:103B4800591245257D007F5A1245257D007F5B125D
:103B580045257D157F5C1245257D1B7F5D1245251A
:103B68007D057F5E1245257D677F5F1245257D0CAB
:103B78007F601245257D887F001245257D417F0C99
:103B88001245257D337F0D1245257D547F0E124544
:103B9800257D107F141245257D037F241245257D40
:073BA800117F0012452522E8
:0A485A00C2B47F0212478AD2B422D2
:102F13008B458A4689478D48786FE6FFEF4408FF63
:102F2300786FA6077F001237AD7E00EF64084E600E
:102F3300057F031237AD7D227F00124525AB45AADD
:102F430046A9471204A1FD7F1B124525AB45AA469E
:102F5300A9477582017583001204BAFD7F1C1245CF
:102F630025AB45AA46A9477582027583001204BAA8
:102F7300FD7F1D124525AB45AA46A94775820375FA
:102F830083001204BAFD7F1E124525AB45AA46A94C
:102F9300471204A1FD7F1F124525AB45AA46A94749
:102FA3007582017583001204BAFD7F20124525AB9B
:102FB30045AA46A9477582027583001204BAFD7FAC
:102FC30021124525AB45AA46A9477582037583009F
:102FD3001204BAFD7F22124525AB45AA46A94775BF
:102FE30082047583001204BAFD7F4D124525AB455B
:102FF300AA46A9477582057583001204BAFD7F4E60
:10300300124525AB45AA46A947758206758300126A
:1030130004BAFD7F4F124525AB45AA46A9477582E1
:10302300077583001204BAFD7F501245257D227F68
:10303300001245257D087F251245257D557F2A12DF
:103043004525AF487E00EF64014E7005123AF880C3
:103053000DAF487E00EF64024E70031239787D0194
:103063007F6F1245257F0D1243DF7E00EF30E1F5C0
:10307300800280F17D117F00124525786FE6FFEF16
:0830830054F7FF786FA6072245
:1047A0007D117F001245257D077F4E1245257D0135
:0647B0007F1212452522D4
:10432D008B498A4A894B8D4CAF4C7E00D3EF94401C
:10433D00EE648094804003754C407D117F001245E2
:10434D0025AD4C7F7B1245257F101245E7AB49AA61
:0C435D004AA94B854C3B7F7C123DD922C5
:0E21F8008F2D8E2C8D2B8C2A8B2E8A2F8930CA
:102206009003BAE4F09003BB1206A200000000900F
:1022160003BF1206A2000000007B007A1B79B77884
:1022260000AF2DAE2CAD2BAC2A1205D29003BAEF1F
:10223600F0AF2DAE2CAD2BAC2AE41202EC7B007A6B
:102246001B7937784B12024FC004C005C006C00781
:102256009003BAE0FCE41202F6A804A905AA06ABAC
:1022660007D007D006D005D0041200519003BB1248
:1022760006967F007E007D807C499003BBE0F8A334
:10228600E0F9A3E0FAA3E0FB12014612032A900349
:10229600BF1206969003BAE0FFAB2EAA2FA930EF25
:1022A6001204E79003BFE0FCA3E0FDA3E0FEA3E079
:1022B600FF7810120683EF54FFFFEE5400FEED5434
:1022C60000FDEC5400FCAB2EAA2FA93075820175D7
:1022D6008300EF1204F99003BFE0FCA3E0FDA3E046
:1022E600FEA3E0FF7808120683EF54FFFFEE5400CA
:1022F600FEED5400FDEC5400FCAB2EAA2FA9307560
:102306008202758300EF1204F99003BFE0FCA3E09C
:10231600FDA3E0FEA3E0FFEF54FFFFEE5400FEED49
:102326005400FDEC5400FCAB2EAA2FA93075820395
:10233600758300EF1204F9E52D2480F52DE52C3484
:10234600E5F52CE52B34F9F52BE52A34FFF52A7B48
:10235600007A1B79B77800AF2DAE2CAD2BAC2A12C4
:1023660005D29003BAEFF0AF2DAE2CAD2BAC2AE41C
:102376001202EC7B007A1B7937784B12024FC004AD
:10238600C005C006C0079003BAE0FCE41202F6A836
:1023960004A905AA06AB07D007D006D005D00412BB
:1023A60000519003BB1206967F007E007D807C491B
:1023B6009003BBE0F8A3E0F9A3E0FAA3E0FB120167
:1023C6004612032A9003BF1206969003BAE0FFABAB
:1023D6002EAA2FA930758204758300EF1204F99096
:1023E60003BFE0FCA3E0FDA3E0FEA3E0FF7810122C
:1023F6000683EF54FFFFEE5400FEED5400FDEC544F
:1024060000FCAB2EAA2FA930758205758300EF124A
:1024160004F99003BFE0FCA3E0FDA3E0FEA3E0FF08
:102426007808120683EF54FFFFEE5400FEED5400C9
:10243600FDEC5400FCAB2EAA2FA9307582067583DD
:1024460000EF1204F99003BFE0FCA3E0FDA3E0FE59
:10245600A3E0FFEF54FFFFEE5400FEED5400FDEC49
:102466005400FCAB2EAA2FA930758207758300EFA6
:032476001204F954
:012479002240
:1044F3007D227F001245257D5A7F071245257D8A3F
:104503007F0C1245257D267F0D1245257D037F10E7
:104513001245257D837F151245257D117F001245A8
:0245230025224F
:10473A0043921F43C48053C31F53C3FC43C3105344
:0C474A00C3FB53BB9F53C4D843AD0222F5
:104161008F67E5671206D3417B00417F01418A02D7
:1041710041950341A004000041AA53C4D822E5C4DB
:1041810054D8FFEF4401F5C422E5C454D8FFEF44ED
:1041910002F5C422E5C454D8FFEF4403F5C422E577
:0A41A100C454D8FFEF4404F5C42213
:03004B000214D3C9
:1014D300C0E0C0F0C083C082C0D075D000C000C0DF
:0D14E30001C002C003C004C005C006C00760
:1014F0009003C7E5C6F09003C8E5C5F0900270E020
:10150000F8A3E0F9A3E0FAA3E0FB9003C7E0FEA391
:10151000E0FFEE540FFEE4FCFDEB2FFFEA3EFEE998
:101520003DFDE83CFC90027012069690024CE004EF
:10153000F053C4EF43C40890024CE0FF7E00C3EFB9
:101540009414EE6480948050030218837871E6FF4F
:10155000EF4420FF7871A60753ADFD53C47F90027E
:101560004CE4F07B147A0079007800900270E0FC83
:10157000A3E0FDA3E0FEA3E0FF1205D2900249EE36
:10158000F0A3EFF090024BE0FF7E00EF4E703B9037
:101590000249E0FEA3E0FFAB07AA06E4F9F87F00EA
:1015A0007E107D0E7C001241F090021E1206969075
:1015B00002701206A20000000090024B7401F0902D
:1015C000024BE0FF12416102188390024BE0FF7E64
:1015D00000EF64014E60030216797B147A007900F3
:1015E0007800900270E0FCA3E0FDA3E0FEA3E0FF22
:1015F0001205D2900249EEF0A3EFF0900249E0FE0E
:10160000A3E0FFE4FCFD90021EE0F8A3E0F9A3E0F4
:10161000FAA3E0FB1205477B007A047900780012F8
:1016200005D29002651206967FB07E047D007C0094
:10163000900265E0F8A3E0F9A3E0FAA3E0FBC3128F
:101640000672500E7871E6FFEF54FDFF7871A60721
:10165000800C7871E6FFEF4402FF7871A6079002D4
:10166000701206A20000000090024B7402F090027B
:101670004BE0FF12416102188390024BE0FF7E00B5
:10168000EF64024E60030217287B147A0079007819
:1016900000900270E0FCA3E0FDA3E0FEA3E0FF12D7
:1016A00005D2900249EEF0A3EFF0900249E0FEA3CC
:1016B000E0FFE4FCFD90021EE0F8A3E0F9A3E0FAED
:1016C000A3E0FB1205477B007A047900780012053D
:1016D000D29002651206967FB07E047D007C009059
:1016E0000265E0F8A3E0F9A3E0FAA3E0FBC3120669
:1016F00072500E7871E6FFEF54FEFF7871A60780F6
:101700000C7871E6FFEF4401FF7871A60790027034
:101710001206A20000000090024B7403F090024BEE
:10172000E0FF12416102188390024BE0FF7E00EF60
:1017300064034E60030217D77B147A0079007800A7
:10174000900270E0FCA3E0FDA3E0FEA3E0FF120521
:10175000D2900249EEF0A3EFF0900249E0FEA3E040
:10176000FFE4FCFD90021EE0F8A3E0F9A3E0FAA379
:10177000E0FB1205477B007A04790078001205D25D
:101780009002651206967FB07E047D007C00900278
:1017900065E0F8A3E0F9A3E0FAA3E0FBC312067248
:1017A000500E7871E6FFEF54FBFF7871A607800CAE
:1017B0007871E6FFEF4404FF7871A607900270127B
:1017C00006A20000000090024B7404F090024BE06F
:1017D000FF12416102188390024BE0FF7E00EF642C
:1017E000044E60030218837B147A0079007800901D
:1017F0000270E0FCA3E0FDA3E0FEA3E0FF1205D22F
:10180000900249EEF0A3EFF0900249E0FEA3E0FF62
:10181000E4FCFD90021EE0F8A3E0F9A3E0FAA3E0E7
:10182000FB1205477B007A04790078001205D290FC
:1018300002651206967FB07E047D007C00900265F2
:10184000E0F8A3E0F9A3E0FAA3E0FBC312067250AC
:101850000E7871E6FFEF54F7FF7871A607800C78D9
:1018600071E6FFEF4408FF7871A607900270120638
:10187000A20000000090024B7401F090024BE0FFC8
:03188000124161B1
:10188300D007D006D005D004D003D002D001D000B9
:0B189300D0D0D082D083D0F0D0E03263
:0A48640043C48043AD0212488222D3
:0448820043C4082201
:103E5000900251E0FEA3E0FFEF4E60677F607E09B5
:103E60007D007C0090021EE0F8A3E0F9A3E0FAA335
:103E7000E0FBD31206724006900223E4F0227F603A
:103E80007E097D007C0090021EE0F8A3E0F9A3E02B
:103E9000FAA3E0FBD312067250237F987E087D00C0
:103EA0007C0090021EE0F8A3E0F9A3E0FAA3E0FB97
:103EB000D312067240079002237401F0229002236D
:043EC0007402F02276
:1021E4001108FBBFDFEFF79FAFB7BBCFDBEBE7F324
:0321F400FDFEFFEE
:102911007873E6FFEF20E603022B307873E6FFEFD2
:1029210054BFFF7873A607900251E0FEA3E0FFEFCA
:102931004E600E900252E024FFF0900251E034FF0D
:10294100F09002ADE0FEA3E0FFEF4E600E9002AE0C
:10295100E024FFF09002ADE034FFF0900225E0FEAC
:10296100A3E0FFEF4E600E900226E024FFF09002FC
:1029710025E034FFF090026CE0FEA3E0FFEF4E6033
:102981000E90026DE024FFF090026CE034FFF090B5
:10299100022BE0FEA3E0FFEF4E601090022CE0243A
:1029A100FFF090022BE034FFF0800C786EE6FFEF31
:1029B10054F7FF786EA607786EE6FFEF30E33590A7
:1029C100022BE0FEA3E0FFEF4E6029900243E004FA
:1029D100F07006900242E004F0900242E0FEA3E0B3
:1029E100FFC3EF945AEE9400400A900242E4F0A330
:1029F100E4F0B2A79002B8E0FEA3E0FFEF4E600E54
:102A01009002B9E024FFF09002B8E034FFF09002A8
:102A11006EE0FEA3E0FFEF4E60407874E6FFEFC387
:102A210013FFEF5401FF7E00EF4E6003022B0E787F
:102A310074E6FFEF4402FF7874A6077874E6FFEFAF
:102A410054FBFF7874A6071248867874E6FFEF20DE
:102A5100E303022B0ED2A7022B0E900245E0FFEFFB
:102A6100603E7874E6FFEF1313543FFFEF5401FF0C
:102A71007E00EF4E6003022B0E7874E6FFEF4404F4
:102A8100FF7874A6077874E6FFEF54FDFF7874A60B
:102A9100071200067874E6FFEF30E371C2A7806D7C
:102AA100900240E0FFEF6059900240E014F0900284
:102AB1006AE0FEA3E0FF90026EEEF0A3EFF0900259
:102AC10044E0FF900245EFF07874E6FFEFC313FF97
:102AD100EF5401FF7E00EF4E70337874E6FFEF4450
:102AE10002FF7874A6077874E6FFEF54FBFF787451
:102AF100A6071248867874E6FFEF30E310D2A7806C
:102B01000C7874E6FFEF54F7FF7874A607121C34B3
:102B1100786EE6FFEFC4135407FFEF5401FF7E0008
:102B2100EF64014E600912308B120D2012487A2297
:103BAF007873E6FFEF30E7497873E6FFEF547FFF56
:103BBF007873A607900250E0FFEF6006900250E086
:103BCF0014F07873E6FFEFC4135407FFEF5401FFAF
:103BDF007E00EF64014E7019900231E0FFEF60112B
:103BEF0090024EE0FF7E00EF4E7006900231E0141F
:103BFF00F09003C3E0FEA3E0FFEF4E703F7873E653
:103C0F00FFEF5401FF7E00EF64014E702F7873E6D3
:103C1F00FFEF54FEFF7873A607786EE6FFEF1313DE
:103C2F0013541FFFEF5401FF7E00EF4E7002C2A727
:0D3C3F007F031237ADC2B41247CBD2B522BD
:101C340090023DE4F090023274FFF0900223E0FF42
:101C44007E00EF64024E7003021F3E7871E6FFEFE0
:101C54005401FF1246BB7871E6FFEFC313FFEF5444
:101C640001FF1246BB7871E6FFEF1313543FFFEFF9
:101C74005401FF1246BB7F011246BB7871E6FFEFA9
:101C8400131313541FFFEF5401FF1246BB7F0112BD
:101C940046BB7F011246BB90022DE0FF900232E06A
:101CA400FEEE6F6025900232E0FF90022DEFF012FD
:101CB40048091242F090021C7413F0A37488F09047
:101CC40002537427F0A37474F02290023774FF75E2
:101CD400F0FF12051BAFF0FEEF4E6003021F3E90B3
:101CE4000237E4F0A37401F0900232E0FF7E00EFCB
:101CF40064FF4E7003021DDB90021CE0FEA3E0FFB4
:101D0400EF4E600E90021DE024FFF090021CE034C0
:101D1400FFF0900253E0FEA3E0FFEF4E600E90024E
:101D240054E024FFF0900253E034FFF0900223E0EB
:101D3400FF7E00EF64014E6017786EE6FFEF20E649
:101D44000F900253E0FEA3E0FFEF4E6003021DDBA1
:101D5400786EE6FFEFC413135403FFEF5401FF7EC4
:101D640000EF4E705A786EE6FFEF4440FF786EA69F
:101D740007900253E0FEA3E0FFEF4E701190026A59
:101D8400E4F0A37467F09002447467F0800F90024B
:101D94006AE4F0A37428F0900244743CF090026A60
:101DA400E0FEA3E0FF90026EEEF0A3EFF090024499
:101DB400E0FF900245EFF09002407402F08018902A
:101DC4000240E0FF7E00D3EF9401EE6480948050E3
:101DD400069002407402F0788176007881E6FF7EF6
:101DE40000C3EF9411EE6480948050237881E6FF61
:101DF40074082FF8E6FF900232E0FEEEB5070B7888
:101E040081E6FF90023CEFF0800578810680CC7873
:101E140081E6FF7E00900239EEF0A3EFF0786EE6E3
:101E2400FFEFC4135407FFEF5401FF7E00EF64017A
:101E34004E7003021F3E7881E6FF7E00EF64114E70
:101E4400701F7872E6FFEF54BFFF7872A607124244
:101E5400F07872E6FFEF4480FF7872A60712469589
:101E6400227872E6FFEF30E75D900232E0FF7E00F9
:101E7400EF64FF4E60507881E6FF7E00EF64054E0C
:101E840060337881E6FF7E00EF64064E6027788138
:101E9400E6FF7E00EF64074E601B7881E6FF7E005C
:101EA400EF64094E600F7881E6FF7E00EF640C4E0C
:101EB4006003021F3E7873E6FFEF5401FF7E00EFDC
:101EC4004E70778001227881E6FFEF1206D31F0956
:101ED400001F0D011F0D021F0D031F0D041F1F0501
:101EE4001F1F061F1F071F23081F1F091F270A1F65
:101EF4002B0B1F1F0C1F2F0D1F330E1F370F1F3BE4
:101F04001000001F3E12389C227873E6FFEF540144
:101F1400FF7E00EF4E702312247A221245562212BD
:101F24003F262212407422123FD42212402422124D
:0A1F340000222212488922123F8287
:011F3E002280
:1045560012469590023DE4F090023CE0FF90023C4A
:10456600E0FD122D4D1242F07872E6FFEF54BFFFC8
:104576007872A6077872E6FFEF4480FF7872A60786
:014586002212
:103F26001246957872E6FFEF54BFFF7872A60778BF
:103F360072E6FFEF20E23F7872E6FFEF4404FF7877
:103F460072A6079002B8740BF0A374B8F07873E603
:103F5600FFEFC4135407FFEF5401FF7E00EF4E70CE
:103F66001A7873E6FFEF4420FF7873A607D2E8902D
:0C3F76000231744EF0227F081244BF227A
:103FD4001246957872E6FFEF20E33F7872E6FFEF32
:103FE4004408FF7872A6079002B8740BF0A374B863
:103FF400F07873E6FFEFC4135407FFEF5401FF7E1C
:1040040000EF4E701A7873E6FFEF4420FF7873A632
:1040140007D2E8900231744EF0227F0B1244BF2283
:104024001246957872E6FFEF20E43F7872E6FFEFE0
:104034004410FF7872A6079002B8740BF0A374B80A
:10404400F07873E6FFEFC4135407FFEF5401FF7ECB
:1040540000EF4E701A7873E6FFEF4420FF7873A6E2
:1040640007D2E8900231744EF0227F0D1244BF2231
:104074001246957872E6FFEF20E13F7872E6FFEF93
:104084004402FF7872A6079002B8740BF0A374B8C8
:10409400F07873E6FFEFC4135407FFEF5401FF7E7B
:1040A40000EF4E701A7873E6FFEF4420FF7873A692
:1040B40007D2E8900231744EF0227F0A1244BF22E4
:1044BF008F689002B8E0FEA3E0FFEF4E60259002F8
:1044CF00B874FF75F0FF12051BAFF0FEEF4E7013BF
:1044DF007D00AF68122D4D786EE6FFEF4480FF78B8
:0444EF006EA607228C
:10389C001246957872E6FFEF20E60302393B787208
:1038AC00E6FFEF54BFFF7872A60790023D7405F057
:1038BC001242F07872E6FFEF4401FF7872A607908F
:1038CC0002B8740BF0A374B8F090026CE0FEA3E0A5
:1038DC00FFEF4E70397873E6FFEFC4135407FFEF18
:1038EC005401FF7E00EF4E70147873E6FFEF442016
:1038FC00FF7873A607D2E89002317433F090026C13
:10390C007427F0A37410F09002147402F022900249
:10391C0014E014FFF0EF70537F0112466E90023DDD
:10392C00E4F07872E6FFEF4480FF7872A607227805
:10393C0072E6FFEF30E0349002B8E0FEA3E0FFEF58
:10394C004E60289002B874FF75F0FF12051BAFF0A3
:10395C00FEEF4E70167F0212466E90023DE4F07838
:0C396C0072E6FFEF4480FF7872A607228D
:10247A00120026EF7003022591786EE6FFEF20E046
:10248A0013786EE6FFEF20E10B786EE6FFEF20E2AD
:10249A00030226E49002B8E0FEA3E0FFEF4E6003D9
:1024AA000226E4786EE6FFEFC413135403FFEF54D9
:1024BA0001FF7E00EF4E60030226E490021CE0FE5C
:1024CA00A3E0FFEF4E60030226E4786EE6FFEF20FA
:1024DA00E008786EE6FFEF30E21890024E740AF0D8
:1024EA0090023DE4F07872E6FFEF4480FF7872A62E
:1024FA00072290024E7401F07B017D677F677E00A0
:10250A001241137874E6FFEF4408FF7874A607783F
:10251A0073E6FFEFC4135407FFEF5401FF7E00EF89
:10252A004E70187873E6FFEF4420FF7873A607D23F
:10253A00E8900246E0FF900231EFF0900225740F16
:10254A00F0A374A0F090023DE4F07872E6FFEF5435
:10255A00BFFF7872A6077872E6FFEF4480FF7872B1
:10256A00A6077872E6FFEF4420FF7872A607786E16
:10257A00E6FFEF20E0030226E47872E6FFEF54DF7D
:10258A00FF7872A607222290023CE0FF90023DEFFC
:10259A00F090024EE0FFEF60030226E49002ACE006
:1025AA00FFEF60012290023DE0FFEF1206D325C53E
:1025BA000125DD0225F5030000260B786EE6FFEF04
:1025CA004401FF786EA6079002B87413F0A37488CA
:1025DA00F0802E786EE6FFEF4402FF786EA6079031
:1025EA0002B87413F0A37488F08016786EE6FFEFD1
:1025FA004404FF786EA6079002B87413F0A3748897
:10260A00F0900222E0FFEF600D90023DE0FF7E00B5
:10261A00EF64044E701912469590023CE0FF900256
:10262A003CE0FD122D4D90026CE4F0A3E4F0229000
:10263A00024EE0FFEF60030226E49002ACE0FFEFF7
:10264A0060012290023DE0FF7E00EF64024E703787
:10265A0012469590023CE0FF90023CE0FD122D4D9F
:10266A0090026CE4F0A3E4F0786EE6FFEF4408FF12
:10267A00786EA60790022B740BF0A374B8F0900240
:10268A0042E4F0A3E4F02290023DE0FFEF1206D309
:10269A0026A40126A403000026E4786EE6FFEF30A4
:1026AA00E33890022BE0FEA3E0FFEF4E602C786E39
:1026BA00E6FFEF54F7FF786EA60790022BE4F0A32B
:1026CA00E4F090023CE0FF90023CE0FD122D4D90B8
:0B26DA00026CE4F0A3E4F0124695222D
:0100220022BB
:01488900220C
:103F8200786EE6FFEF54FEFF786EA607786EE6FFC6
:103F9200EF54FDFF786EA607786EE6FFEF54FBFF45
:103FA200786EA607786EE6FFEF54BFFF786EA6071D
:103FB2001242F07872E6FFEF4440FF7872A607786B
:103FC20072E6FFEF547FFF7872A60790023D74FFFE
:023FD200F022DB
:10480900900237E4F0A3740AF09002B8E4F0A3E44C
:02481900F0228B
:1042F0007872E6FFEF54FEFF7872A6077872E6FF49
:10430000EF54FDFF7872A6077872E6FFEF54FBFFCB
:104310007872A6077872E6FFEF54F7FF7872A60767
:0D4320007872E6FFEF54EFFF7872A60722D7
:1046950090024EE4F090022E7402F090020974022A
:1046A500F090022BE0FEA3E0FFEF4E600890022B96
:0646B500E4F0A3E4F02292
:100026007872E6FFEF20E6037F01227872E6FFEFA3
:1000360054BFFF7872A6079002B8E4F0A3E4F0126A
:0500460042F07F0022E2
:042D4D008F548D55BD
:102D5100900248E0FF7E00C3EF9445EE64809480CA
:102D6100505A7873E6FFEFC4135407FFEF5401FF85
:102D71007E00EF64014E7044900231E0FF7E00C39B
:102D8100EF9419EE648094805032900231E0FFC3D9
:102D910074199FF556900248E02556F0900248E0DC
:102DA100FF7E00C374459FFFE49EFEC3EF941BEEBC
:102DB1006480948040069002317419F0900231E0F1
:102DC100FF7E00C3EF9419EE64809480500E900250
:102DD10050E0FF7E00EF4E6003022F107873E6FF94
:102DE100EFC4135407FFEF5401FF7E00EF4E70183C
:102DF1007873E6FFEF4420FF7873A607D2E89002CC
:102E010046E0FF900231EFF0E5541206D32E360171
:102E11002E3E022E46032E4E042E56052E5E062E03
:102E210066072E6E082E76092E7E0A2E860B2E8EB2
:102E31000C00002E9490024F7408F0805690024FBF
:102E41007404F0804E90024F7402F0804690024F5D
:102E51007401F0803E90024F740CF0803690024F66
:102E6100740AF0802E90024F7409F0802690024F70
:102E71007418F0801E90024F7406F0801690024F75
:102E81007414F0800E90024F7412F0800690024F7D
:102E91007403F0E5551206D32EAC012EB9022EC6ED
:102EA100032ED3042EE01400002EEB7B007D677F00
:102EB100677E0012411380327B017D677F677E0050
:102EC10012411380257B027D677F677E00124113CB
:102ED10080187B007D0A7FF47E01124113800B7BF9
:102EE100007D0A7FE87E03124113124845900233A8
:102EF1001206A2196563787B017A0279CE75400CBE
:102F01007D151210FE12336B9002507419F022C21B
:012F1100A718
:012F1200229C
:100D200090024EE0FFEF1206D30D4B010D7A020D3B
:100D3000CF030E49040E80050F06060F3D070FC3B3
:100D4000080FC30910F20A000010FD7872E6FFEFE9
:100D500020E7119002257403F0A374E8F090024E8E
:100D6000E004F022900225E0FEA3E0FFEF4E6003D6
:100D70000210FD90024E740AF022900225E0FEA3BC
:100D8000E0FFEF4E702790024EE004F090022574D1
:100D90000BF0A374B8F07B007D677F677E00124183
:100DA000137874E6FFEF4408FF7874A60790023DBD
:100DB000E0FF7E00EF4E70030210FD90023DE0FF69
:100DC0007E00EF64FF4E70030210FD1246952290E4
:100DD0000225E0FEA3E0FFEF4E700412469522903C
:100DE000023DE0FF7E00EF4E70030210FD90023DD9
:100DF000E0FF7E00EF64FF4E7001227872E6FFEFA5
:100E000030E52390023DE0FF7E00EF64024E70115A
:100E10009002257403F0A374E8F090024EE004F011
:100E200022124695222290023DE0FF7E00EF6401EF
:100E30004E70119002257403F0A374E8F090024EF6
:100E4000E004F0221246952222900225E0FEA3E063
:100E5000FFEF4E60030210FD90024EE004F090029E
:100E600025740BF0A374B8F07B007D677F677E006C
:100E70001241137874E6FFEF4408FF7874A6072246
:100E8000900225E0FEA3E0FFEF4E7004124695228B
:100E900090023DE0FF7E00EF4E70030210FD9002D5
:100EA0003DE0FF7E00EF64FF4E7001227872E6FFA6
:100EB000EF30E52F90023DE0FF7E00EF64024E70C0
:100EC0001D9002257403F0A374E8F090024EE00434
:100ED000F07872E6FFEF4480FF7872A60722124690
:100EE00095222290023DE0FF7E00EF64014E7011DA
:100EF0009002257403F0A374E8F090024EE004F031
:100F0000221246952222900225E0FEA3E0FFEF4E3A
:100F100060030210FD90024EE004F0900225740B75
:100F2000F0A374B8F07B027D677F677E00124113E7
:100F30007874E6FFEF4408FF7874A6072290022534
:100F4000E0FEA3E0FFEF4E70041246952290023DB2
:100F5000E0FF7E00EF4E70030210FD90023DE0FFC7
:100F60007E00EF64FF4E7001227872E6FFEF30E5FD
:100F70002F90023DE0FF7E00EF64024E701D900254
:100F8000257427F0A37410F090024EE004F07872FC
:100F9000E6FFEF4480FF7872A607221246952222D0
:100FA00090023DE0FF7E00EF64014E70119002253B
:100FB0007427F0A37410F090024EE004F022124661
:100FC000952222900225E0FEA3E0FFEF4E7004126E
:100FD00046952290023DE0FF7E00EF4E7003021026
:100FE000FD90023DE0FF7E00EF64FF4E700122782D
:100FF00072E6FFEF20E50302107990023DE0FF7EEC
:1010000000EF64024E706D90024EE0FF7E00EF64D0
:10101000094E7059900222E0FF8F69E569600575FD
:1010200069008003756901900222E569F07B017A0D
:10103000027922751E00751F017FF97E7F1226E559
:101040007B047D677F677E001241137874E6FFEFB3
:101050004408FF7874A607786EE6FFEF54F7FF7830
:101060006EA6079002317414F01246952290024E3B
:10107000E004F022124695222290023DE0FF7E001D
:10108000EF64014E706790024EE0FF7E00EF64094E
:101090004E7053900222E0FF8F69E5696005756923
:1010A000008003756901900222E569F07B017A02F4
:1010B0007922751E00751F017FF97E7F1226E57B60
:1010C000047D677F677E001241137874E6FFEF446A
:1010D00008FF7874A607786EE6FFEF54F7FF786E86
:1010E000A6071246952290024EE004F02212469581
:0D10F00022227872E6FFEF20E703124695FA
:0110FD0022D0
:10308B00124874EF70030232007873E6FFEFC4133B
:10309B005407FFEF5401FF7E00EF4E700E7873E67E
:1030AB00FFEF4420FF7873A607D2E89002ADE0FE55
:1030BB00A3E0FFEF4E60319002317433F090024386
:1030CB00E004F07006900242E004F0900242E0FE51
:1030DB00A3E0FFC3EF94F4EE9401401E900242E490
:1030EB00F0A3E4F0B2A780127B027DFA7FF47E019D
:1030FB00124113C2A79002ACE4F090023DE0FFEF47
:10310B001206D3311E01315F0231910331AA050042
:10311B0000320090024DE0FF74AF2FF582E43402D1
:10312B00F583E004FFF0EFD39439401290024DE0A9
:10313B00FF74AF2FF582E43402F5837430F07B001B
:10314B007D677F677E001241139002AD74C3F0A3BD
:10315B007450F02290024DE004FFF07E00D3EF9408
:10316B0008EE64809480400890024D7408F0800B48
:10317B007B017D677F677E001241139002AD74C3A4
:10318B00F0A37450F0221245B77B007D0A7FE87ED6
:10319B00031241139002AD74C3F0A37450F022904C
:1031AB00024DE0FF7E00C3EF9408EE6480948040F4
:1031BB00447B017A0279AF123D6190022712069689
:1031CB007FFE7EFF7DFF7C00900227E0F8A3E0F9F5
:1031DB00A3E0FAA3E0FBD3120672400D7B037D64E0
:1031EB007F647E0012411380077D147F14122D4DD6
:0631FB009002ACE4F0229A
:063D61008B218A22892358
:103D6700752900752800752700752600752400AF92
:103D7700247E00C3EF9408EE64809480504BAB21FF
:103D8700AA22A923AF248F827583001204BAFFEFFA
:103D970024D0F5257F0A7E007D007C00AB29AA2868
:103DA700A927A826120547A804A905AA06AB07AFA5
:103DB70025E4FCFDFEEB2FF529EA3EF528E93DF564
:103DC70027E83CF526052480A6AF29AE28AD27AC09
:013DD70026C5
:013DD80022C8
:10466E008F6A124874EF701E9002ACE56AF0124524
:10467E00B77B007D0A7FE87E031241139002AD7472
:07468E00C3F0A37450F022F9
:064874009002ACE0FF22FF
:1045B70090024DE4F0756B00AF6B7E00C3EF94087B
:1045C700EE648094805013AF6B74AF2FF582E434A0
:0F45D70002F5837430F0056B80DE9002B7E4F0DC
:0145E60022B2
:1046BB008F6C900232E0FFEF25E0FF900232EFF0BB
:1046CB00E56C600E900232E0FFEF4401FF90023286
:0346DB00EFF022DB
:104113008E4D8F4E8D4F8B50786EE6FFEFC4131389
:104123005403FFEF5401FF7E00EF4E703090026A9C
:10413300E54DF0A3E54EF0900244E54FF090026A9E
:10414300E0FEA3E0FF90026EEEF0A3EFF0900244D6
:0E415300E0FF900245EFF0900240E550F022B0
:102B310030A503022D057870E6FFEF5401FF7E00FA
:102B4100EF4E702D7870E6FFEF4401FF7870A60715
:102B5100D2E8D2A712448BD2AF1248821248869093
:102B6100024574C8F07870E6FFEF54DFFF7870A675
:102B710007900245E0FF7E00EF4E70237870E6FF7C
:102B8100EFC4135407FFEF5401FF7E00EF4E700FA7
:102B91007870E6FFEF4420FF7870A6071200061256
:102BA100487A7871E6FFEF5401FF7E00EF4E704ADC
:102BB1007873E6FFEFC313FFEF5401FF7E00EF4E82
:102BC10070387873E6FFEF4402FF7873A607124866
:102BD100459002331206A2196563787B017A027966
:102BE100CE75400C7D151210FE7874E6FFEF547F10
:102BF100FF7874A6077F001240C47871E6FFEF5496
:102C010001FF7E00EF64014E700C7873E6FFEF5414
:102C1100FDFF7873A6077871E6FFEFC313FFEF544A
:102C210001FF7E00EF4E70337873E6FFEF1313540C
:102C31003FFFEF5401FF7E00EF4E701F7873E6FFF8
:102C4100EF4404FF7873A607C2B41247CBD2B5781C
:102C510074E6FFEF547FFF7874A6077871E6FFEF03
:102C6100C313FFEF5401FF7E00EF64014E700C7837
:102C710073E6FFEF54FBFF7873A6077871E6FFEF69
:102C81001313543FFFEF5401FF7E00EF4E704D7858
:102C910073E6FFEF131313541FFFEF5401FF7E0080
:102CA100EF4E70387873E6FFEF4408FF7873A6079C
:102CB1001248459002331206A2196563787B017AA6
:102CC1000279CE75400C7D151210FE7F011240C4B1
:102CD1007874E6FFEF4480FF7874A6077871E6FF09
:102CE100EF1313543FFFEF5401FF7E00EF64014ED9
:102CF100700C7873E6FFEF54F7FF7873A60712069E
:102D0100F9022B317870E6FFEF5401FF7E00EF648A
:102D1100014E700F7870E6FFEF54FEFF7870A60742
:102D210012000EC2E8C2A77873E6FFEF54FDFF78E8
:102D310073A6077873E6FFEF54FBFF7873A6077855
:0C2D410073E6FFEF54F7FF7873A607223B
:10336B00D2A79002ACE0FF7E00EF4E704D7B017A4E
:10337B00027918C003C002C0017B007A007932A821
:10338B0001AC02AD03D001D002D0037E007F04124A
:10339B00047B90024FE0FF8F367F001232019002C8
:1033AB009074FFF090022FE4F0A3740DF09003C320
:1033BB007402F0A37426F00234747B017A0279183C
:1033CB00C003C002C0017B007A007932A801AC02B5
:1033DB00AD03D001D002D0037E007F0412047B75B5
:1033EB0036807F001232019002ACE0FF7E00EF646A
:1033FB00014E702F7B017A027927C003C002C001F6
:10340B007B007A007932A801AC02AD03D001D00267
:10341B00D0037E007F0412047B7536FF7F0C1232C3
:10342B0001802D7B017A027927C003C002C0017B8A
:10343B00007A007932A801AC02AD03D001D002D0E2
:10344B00037E007F0412047B7536007F0C12320161
:10345B0090029C74FFF090022FE4F0A37419F0908B
:10346B0003C37403F0A37420F07873E6FFEF4401F9
:10347B00FF7873A6077B017A02798490022FE0FE16
:0F348B00A3E0FFAD0712432D9002417401F02220
:023201008F310B
:10320300AF35123EC47875A60608A6077875E6FFA3
:10321300AE31053174842EF582E43402F583EFF088
:103223007876E6FFAE31053174842EF582E43402FC
:10323300F583EFF0AF34123EC47875A60608A607EF
:103243007875E6FFAE31053174842EF582E43402DD
:10325300F583EFF07876E6FFAE31053174842EF511
:1032630082E43402F583EFF0AF33123EC47875A6DF
:103273000608A6077875E6FFAE31053174842EF58E
:1032830082E43402F583EFF07876E6FFAE31053160
:1032930074842EF582E43402F583EFF0AF36123EE8
:1032A300C47875A60608A6077875E6FFAE31053122
:1032B30074842EF582E43402F583EFF07876E6FF2A
:1032C300AE31053174842EF582E43402F583EFF0D8
:1032D3007876A6337875A6367878A6357877A634C7
:1032E3007877E6FE08E6FF7875E6FC08E6FDED2F45
:1032F300FFEC3EFE7879A60608A607787AE6FF1269
:103303003EC47875A60608A6077875E6FFAE3105B4
:103313003174842EF582E43402F583EFF07876E697
:10332300FFAE31053174842EF582E43402F583EF68
:10333300F07879E6FF123EC47875A60608A60778EA
:1033430075E6FFAE31053174842EF582E43402F55F
:1033530083EFF07876E6FFAE31053174842EF58283
:07336300E43402F583EFF0F2
:01336A002240
:023EC4008F6D00
:103EC600787D7600787DE6FF7E00C3EF9408EE6489
:103ED6008094805043787BE6FE08E6FFEF7802C3C5
:103EE60033CE33CED8F9FF787BA60608A607E56D54
:103EF60030E00E787CE6FFEF4402FF787CA6078070
:103F06000C787CE6FFEF4401FF787CA607E56DC3DD
:0F3F160013F56D787D0680AC787BE6FE08E6FF3C
:013F25002279
:10004E00020396E86480F8E933E83360110460F047
:10005E00ED33EC337009E8FCE9FDEAFEEBFF220418
:10006E0060DED3EB9FEA9EE99DE8C2E78CF0C2F713
:10007E0095F0400CE8CCF8E9CDF9EACEFAEBCFFBDF
:10008E0012036185D0F05804700320D5B3E80470D4
:10009E00075002B2D50203A092D5EC0460F7E4CC6F
:1000AE00C0E0C398F8603B94186008400DD0E0FBA8
:1000BE00020378E4FBFAC9FC8028E830E406E4C9C0
:1000CE00FBE4CAFCE830E305E4C9CACBFCE85407FC
:1000DE006010F8C3E913F9EA13FAEB13FBEC13FC07
:1000EE00D8F130F52FC3E49CFCEF9BFFEE9AFEEDAA
:1000FE0099FDD0E0FBEF4E4D4C701222DB03020354
:10010E009DEC2CFCEF33FFEE33FEED33FDED30E7CF
:10011E00EB020378EF2BFFEE3AFEED39FDD0E0FB5C
:10012E0050130BBB00030203A0ED13FDEE13FEEF05
:08013E0013FFEC13FC0203782F
:10014600EC4D6011E8497017ED33EC3304600DE4B3
:10015600FCFFFEFD22E933E8330470F80203961231
:10016600036158046009E4CC248150062850090232
:1001760003A028400302039DC0E0EB4A7044B98007
:1001860006D0E0FB02038CEF4E701CBD8008EBFF2F
:10019600EAFEE9FD80EBE98DF0A4FEE5F002022F10
:1001A600E9CDF9EAFEEBFFEF89F0A4FCE5F0CE8994
:1001B600F0A42EFFE435F0CD89F0A42DFEE435F051
:1001C6008067EF4E7005BD80D780C3EF8BF0A4AC7F
:1001D600F0EE8BF0A42CFCE435F0F8EF8AF0A42CBA
:1001E600E5F038FCE433CB8DF0A42CFCE5F03BF8CD
:1001F600EE8AF0A42CFCE5F038F8E433CF89F0A4BD
:100206002CFCE5F038CF3400CE89F0A42FFFE5F0C2
:100216003EFEE433C98DF0A42EFEE5F039CD8AF01A
:10022600A42FFFE5F03EFEE43DFD33D0E0FB500792
:100236000BBB000F0203A0EC2CFCEF33FFEE33FEEA
:06024600ED33FD02037818
:10024C000203A0EC5D046005E859047003020396F8
:10025C00120361580460F6EC4860F2EC7004FDFE89
:10026C00FF22C860DB2481C85009C3986002500685
:10027C0002039D9850CAF582E9294B4A7005AB825E
:10028C0002038C75F0007C1A7880C3EF9BEE9AED1C
:10029C0099400DC3EF9BFFEE9AFEED99FDE842F0FD
:1002AC00DC23ACF0D0E0FFD0E0FED0E0FDAB822050
:1002BC00E7101BEB60BAEC2CFCEF33FFEE33FEEDDA
:1002CC0033FD020378E803F830E705C0F075F00061
:1002DC00EF2FFFEE33FEED33FD40B830E7C280AABE
:1002EC0075F020800E75F010800575F0087D007E8D
:1002FC00007F003392D530D503120664EC334010E6
:10030C00EF33FFEE33FEED33FDEC33FCD5F0ED2295
:0E031C00E5F0247EA2D513CC92E7CDCEFF22D1
:10032A00EDD2E7CD33EC3392D524814006E4FFFECB
:10033A00FDFC22FCE4CFCECDCC24E0501174FF802A
:10034A00EDC3CC13CCCD13CDCE13CECF13CF0470C7
:07035A00F030D5DE0206645D
:10036100E9D2E7C933E833F892D5EDD2E7CD33ECE2
:0703710033FC5002B2D5225B
:10037800EC30E7100FBF000C0EBE00080DBD0004E6
:100388000BEB6014A2D5EB13FCED92E7FD2274FF92
:10039800FCFDFEFF22E480F8A2D574FF13FC7D80EB
:0303A800E480EFFF
:03000000023C4C73
:0C3C4C00787FE4F6D8FD758181023C937E
:1003AB00E709F608DFFA8046E709F208DFFA803E34
:1003BB0088828C83E709F0A3DFFA8032E309F60821
:1003CB00DFFA8078E309F208DFFA807088828C8389
:1003DB00E309F0A3DFFA806489828A83E0A3F6083D
:1003EB00DFFA805889828A83E0A3F208DFFA804C17
:1003FB0080D280FA80C680D4806980F280338010EE
:10040B0080A680EA809A80A880DA80E280CA803356
:10041B0089828A83ECFAE493A3C8C582C8CCC583CE
:10042B00CCF0A3C8C582C8CCC583CCDFE9DEE7809E
:10043B000D89828A83E493A3F608DFF9ECFAA9F01D
:10044B00EDFB2289828A83ECFAE0A3C8C582C8CC73
:10045B00C583CCF0A3C8C582C8CCC583CCDFEADE8C
:10046B00E880DB89828A83E493A3F208DFF980CCEE
:10047B0088F0EF60010E4E60C388F0ED2402B404E7
:10048B000050B9F582EB2402B4040050AF2323458E
:06049B0082239003FB73B5
:1004A100BB010689828A83E0225002E722BBFE0259
:0904B100E32289828A83E493228C
:1004BA00BB010CE58229F582E5833AF583E02250F7
:1004CA0006E92582F8E622BBFE06E92582F8E22241
:0D04DA00E58229F582E5833AF583E493225B
:1004E700BB010689828A83F0225002F722BBFE01F4
:0204F700F322EE
:1004F900F8BB010DE58229F582E5833AF583E8F039
:10050900225006E92582C8F622BBFE05E92582C8E4
:02051900F222CC
:10051B00C5F0F8A3E028F0C5F0F8E582158270026B
:06052B001583E038F02208
:10053100A3F8E0C5F025F0F0E5821582700215837D
:06054100E0C838F0E822DA
:10054700E88FF0A4CC8BF0A42CFCE98EF0A42CFC53
:100557008AF0EDA42CFCEA8EF0A4CDA8F08BF0A4D1
:100567002DCC3825F0FDE98FF0A42CCD35F0FCEB30
:100577008EF0A4FEA9F0EB8FF0A4CFC5F02ECD39F5
:0F058700FEE43CFCEAA42DCE35F0FDE43CFC2262
:1005960075F008758200EF2FFFEE33FECD33CDCC1C
:1005A60033CCC58233C5829BED9AEC99E58298409F
:1005B6000CF582EE9BFEED9AFDEC99FC0FD5F0D67C
:1005C600E4CEFBE4CDFAE4CCF9A88222B800C1B9A6
:1005D6000059BA002DEC8BF084CFCECDFCE5F0CBE4
:1005E600F97818EF2FFFEE33FEED33FDEC33FCEB1D
:1005F60033FB10D703994004EB99FB0FD8E5E4F9D8
:10060600FA227818EF2FFFEE33FEED33FDEC33FCC4
:10061600C933C910D7059BE99A4007EC9BFCE99AB8
:10062600F90FD8E0E4C9FAE4CCFB2275F010EF2FFD
:10063600FFEE33FEED33FDCC33CCC833C810D707FD
:100646009BEC9AE899400AED9BFDEC9AFCE899F838
:0E0656000FD5F0DAE4CDFBE4CCFAE4C8F922CB
:1041F000C2D5E830E70FB2D5E4C39BFBE49AFAE4FA
:1042000099F9E498F8EC30E717B2D5124226120576
:10421000D2E4C39BFBE49AFAE499F9E498F88003AA
:104220001205D230D50DE4C39FFFE49EFEE49DFD50
:04423000E49CFC22EC
:0E066400C3E49FFFE49EFEE49DFDE49CFC22A7
:10067200EB9FF5F0EA9E42F0E99D42F0E89C45F0DE
:010682002255
:10068300E8600FECC313FCED13FDEE13FEEF13FF55
:03069300D8F12279
:0C069600ECF0A3EDF0A3EEF0A3EFF022D7
:1006A200A8828583F0D083D0821206B91206B912CD
:1006B20006B91206B9E473E493A3C583C5F0C583F2
:1006C200C8C582C8F0A3C583C5F0C583C8C582C8A2
:0106D2002205
:1006D300D083D082F8E4937012740193700DA3A3B6
:1006E30093F8740193F5828883E4737402936860CA
:0606F300EFA3A3A380DFCA
:103C58000235A8E493A3F8E493A34003F68001F2A5
:103C680008DFF48029E493A3F85407240CC8C3336D
:103C7800C4540F4420C8834004F456800146F6DF3C
:103C8800E4800B0102040810204080901F3FE47E6E
:103C9800019360BCA3FF543F30E509541FFEE49331
:103CA800A360010ECF54C025E060A840B8E493A3F8
:103CB800FAE493A3F8E493A3C8C582C8CAC583CA23
:103CC800F0A3C8C582C8CAC583CADFE9DEE780BEDB
:0121F70000E7
:00000001FF
