:102DDF001240E3123B65124140123FDB1212C9123F
:102DEF003A9312405312403712385B12417A12262F
:102DFF00EF12416AD2AF12417E90024DE4F0A374FC
:102E0F001EF01241761220DF1235441236BB9002AB
:102E1F0031E0FF7E00EF4E70E990024AE0FF7E0046
:102E2F00EF4E70DE7871E6FFEFC4135407FFEF54D7
:102E3F0001FF7E00EF64014E70C8900239E0FEA3DF
:102E4F00E0FFEF64024E60BA7871E6FFEF5401FFC6
:102E5F007E00EF4E70AC7871E6FFEF54DFFF7871B4
:102E6F00A607C2E8786DE6FFEF4420FF786DA6074E
:102E7F00786DE6FFEFC41313135401FFEF5401FFF6
:102E8F007E00EF64014E700512417680E3786DE6A7
:102E9F00FFEFC41313135401FFEF5401FF7E00EF34
:102EAF004E70CD90023BE0FF7E00C3EF9401EE64C5
:102EBF0080948040BB90023BE0FF7E00D3EF9404F0
:102ECF00EE6480948050A91220DF12417680A10217
:032EDF002E11228F
:103B650075E78075E30075E44075E50475E2107549
:103B7500E64675E6B90075E50075E7007F64124114
:103B85000975E78075E30075E44175E50475E20A9A
:103B950075E64675E6B90075E50075E7007F6412C0
:033BA500410922B1
:1040E300439701E5E154F8FFEF4404F5E143E18030
:0440F30043E1202263
:0441760043E11022EF
:103A93005391F1D291D292D29343B4045395FDD270
:103AA300A14395815395DFD2A543B41043B420C2FB
:103AB300A053B1CF43B23043B301C2B4C2A7C2E8EB
:103AC300D2B55395A3D2A2D2A3D2A4D2A643B10412
:093AD30053B2FB53B3FDD2E9220A
:0C0016004391B05391BFD29643B408222E
:0C41280053910FD296D294D295D29722D8
:0C41340053C13FD28A53A1FD43C10222B7
:03000300023C9F1D
:103C9F00C0E0C0F0C083C082C0D075D000C000C0EB
:103CAF0001C002C003C004C005C006C007122FD157
:103CBF00D007D006D005D004D003D002D001D00059
:0B3CCF00D0D0D082D083D0F0D0E03203
:03001300023CDAD2
:103CDA00C0E0C0F0C083C082C0D075D000C000C0B0
:103CEA0001C002C003C004C005C006C007122FD11C
:103CFA00D007D006D005D004D003D002D001D0001E
:0B3D0A00D0D0D082D083D0F0D0E032C7
:06416A00124134D2AA222A
:051950004203BB000092
:103FDB00E58954FCFFEF4401F58953A1EF43A3049A
:103FEB005389FB5389F7758A48758CF4D28CD2A907
:013FFB0022A3
:03000B0002372F8A
:10372F00C0E0C083C082C0D075D000C000C006C04A
:10373F0007758CF4758A487871E6FFEF4440FF787F
:10374F0071A607900261E0FFEF6008900261E0143C
:10375F00F080129002617464F07871E6FFEF44809C
:10376F00FF7871A6079003BBE0FEA3E0FFEF4E606A
:10377F000E9003BCE024FFF09003BBE034FFF0D0C9
:0E378F0007D006D000D0D0D082D083D0E03258
:103ADC00E5D954F1FFEF440AF5D975AC0175DA025A
:103AEC0075AC0075AC01E5F244C0F5F275AC005351
:103AFC00BC7F75AC01800543F203800975EA127531
:103B0C00FAFD53F2FC75AC0075F9FA75E92475CF22
:053B1C00FA75CE242221
:04417A00123ADC22F7
:03418200D2DE2268
:05000600C2DEC2A022D1
:104109008F5BAF5B7E00EF4E60060000155B80F2AF
:014119002283
:1040A2008F5CAF5C155CEF600C7F641241097F642A
:0640B20012410980ED221D
:0E411A00284F4B2928574729000000000000BD
:101955004103AA004103AC004103A0004103A200DA
:101965004103A1006029034D0000000000000000B4
:101975000000000000000000000000000000000062
:101985000000000000000000000000000000000052
:101995000060290376000000000000000000000040
:1019A5000000000000000000000000000000000032
:1019B50000000000000000000000000000004403DB
:1019C50047000000004103AE004303A302030041AA
:1019D500039F004103AD004103AB0041034B0041B0
:0A19E500034C004403A600000000BC
:103D8800539CEFC29FD29ED29CC2CDC2CC539C7F83
:103D9800438780539CBFE58954CFFFEF4420F589C2
:103DA80043A3085389BF53897F758DED758BEDD279
:043DB8008ED2AC22D9
:05000E00C28EC2AC220D
:030023000233465F
:10334600C0E0C083C082C0D075D000C000C006C037
:01335600076F
:10335700787C7600C0AC75AC00309902C299209891
:10336700030233F0C298787CA699787CE6FFEFB425
:103377002805900224E4F0787CE6FF900224E0FE22
:10338700746C2EF582E43402F583EFF0900224E0AA
:10339700FFEF04FFEF541FFF900224EFF0787CE665
:1033A700FFEF64297043787C7600900224E0FF7871
:1033B7007CE6FEEEC39F5025787CE6FF746C2FF504
:1033C70082E43402F583E0FF787CE6FE74512EF543
:1033D70082E43402F583EFF0787C0680CD786DE6E1
:0B33E700FFEF4410FF786DA607D0AC8C
:0F33F200D007D006D000D0D0D082D083D0E03228
:0240CE008F5D04
:1040D000A2AC9200C2AC855D993099FDC299A20054
:0240E00092ACA0
:0140E20022BB
:083BE9008B418A4289438D449F
:103BF100900331E4F0900331E4F0900331E0FFEF02
:103C0100C39544501FAB41AA42A943900331E0FF41
:103C11008F827583001204BAFF1240CE900331E007
:043C210004F080D655
:013C2500227C
:023F13008F5EBF
:103F1500AF5E7E00C3EF943AEE64809480500CE56A
:103F25005E540FFF900332EFF0800AE55E24C9FF6F
:0A3F3500900332EFF0900332E0FF3A
:013F3F00225F
:023E84008F5F4E
:103E8600535F0FAF5F7E00C3EF940AEE64809480A9
:103E9600500CE55F4430FF900333EFF0800AE55F96
:0D3EA6002437FF900333EFF0900333E0FF6B
:013EB30022EC
:043FFC008F518D5202
:10400000AF51123F13EFC454F0FDAF52123F13EF04
:09401000540FFFED2FF553AF53DF
:014019002284
:1006F9007BFF7A41791AC003C002C0017B017A03EA
:100709007938A801AC02AD03D001D002D0037E0034
:100719007F0412047B90033CE4F07BFF7A41791E4D
:10072900C003C002C0017B017A03793DA801AC0274
:10073900AD03D001D002D0037E007F0A12047B787A
:100749006DE6FFEF20E403020B15786DE6FFEF5429
:10075900EFFF786DA607900252E0FFEF1206D3086B
:10076900C84509044607F652089053077B5700000D
:100779000B15900253E0FFEF64476003020B1590DD
:100789000334E4F090026FE0FF900270E0FD123F45
:10079900FC900335EFF0900271E0FF900272E0FDEA
:1007A900123FFC900336EFF0900273E0FF90027461
:1007B900E0FD123FFC900337EFF0900334E0FCA317
:1007C900E0FDA3E0FEA3E0FF9002181206967B016C
:1007D9007A037935751E00751F037FFB7E7F12230F
:1007E900137B017A0379387D04123BE92290025385
:1007F900E0FFEF64476003020B1590033D7428F096
:1008090090033E7452F090033F7447F09003407494
:1008190029F0900219E0FFEFC4540FFF123E8490B3
:100829000341EFF0900219E0FFEF540FFF123E84ED
:10083900900342EFF090021AE0FFEFC4540FFF1249
:100849003E84900343EFF090021AE0FFEF540FFF4C
:10085900123E84900344EFF090021BE0FFEFC45472
:100869000FFF123E84900345EFF090021BE0FFEF6B
:10087900540FFF123E84900346EFF07B017A03790F
:100889003D7D0A123BE9227872E6FFEF547FFF783B
:1008990072A60712414B9002331206A21994B0D8DE
:1008A9007B017A0279D675400C7D15120EF47F0012
:1008B9001239F67B017A0379387D04123BE92290DB
:1008C9000253E0FFEF644E6003020B15900254E0FF
:1008D900FFEF64446003020B157F03122EE21241FD
:1008E90028D2B57872E6FFEF547FFF7872A6077BAE
:1008F900017A0379387D04123BE922900253E0FF23
:10090900EF644D70387872E6FFEF4480FF7872A685
:100919000712414B9002331206A21994B0D87B01F9
:100929007A0279D675400C7D15120EF47F011239C1
:10093900F67B017A0379387D04123BE92290025350
:10094900E0FFEF64437051900254E0FFEF643F70A1
:100959004790033D7428F090033E7446F090033F9E
:100969007443F09003407429F09002EAE0FFEFC469
:10097900540FFF123E84900341EFF09002EAE0FF2A
:10098900EF540FFF123E84900342EFF07B017A038C
:10099900793D7D06123BE922900253E0FFEF644363
:1009A9006003020B157872E6FFEFC41313135401A9
:1009B900FFEF5401FF7E00EF64014E6003020B1547
:1009C90090026FE0FF900270E0FD123FFC90033C43
:1009D900EFF07F03122EE290033CE0FF7E00D3EF9D
:1009E900940AEE64809480507490033CE0FF900276
:1009F900EAEFF07B017A0279EA751E00751F017F23
:100A0900FA7E7F12231390033CE0FF7E96EF8EF06F
:100A1900A4FFAEF0E4FCFDEF24D8FFEE34B0FEED08
:100A29003494FDEC3419FC9003A61206969003A6A3
:100A3900E0FCA3E0FDA3E0FEA3E0FF7B017A0279DD
:100A4900D6121BF27B017A0279D67D0112286E7BC0
:100A5900017A0379387D04123BE9020B1090033CBB
:100A6900E0FF7E00C3740A9FEE6480F8E464809816
:100A79004003020B1090033CE0FF7E00D3EF941477
:100A8900EE648094804003020B1090033CE0FF90D9
:100A990002EAEFF07B017A0279EA751E00751F01FF
:100AA9007FFA7E7F12231390033CE024F6F0900333
:100AB9003CE0FF7E96EF8EF0A4FFAEF0AB07AA06EE
:100AC900E4F9F8C374D89BFF74B09AFE749499FD45
:100AD900741998FC9003A61206969003A6E0FCA34D
:100AE900E0FDA3E0FEA3E0FF7B017A0279D6121BA9
:100AF900F27B017A0279D67D0112286E7B017A0395
:0C0B090079387D04123BE97F011239F6B7
:010B150022BD
:0B41400075BF0B7D7C7F03123F402207
:043F40008F578D58B2
:103F4400A2AF9201C2AF75E3008557E48558E275CC
:103F5400E50475E78075E64675E6B90075E5007514
:063F6400E700A20192AF8C
:013F6A002234
:0A2313008E198F1A8B1B8A1C891D7E
:10231D00A2AF9202C2AF900202E4F0E51954FEFEA4
:10232D007F00900203EEF0A3EFF0900200E4F0A323
:10233D00E4F0900200E0FEA3E0FFC3EE94025056DD
:10234D00900203E0FF8FE3900204E0FF8FE475E558
:10235D000175E78075E64675E6B975E50075E70028
:10236D00900204E004F07006900203E004F0900285
:10237D0000E0FEA3E0FF74002FF58274003EF583AC
:10238D00E5E2F0124176900201E004F07006900251
:10239D0000E004F0809CE5195401FEAF1A90020094
:1023AD00EEF0A3EFF0E51F451E6041AB1BAA1CA983
:1023BD001D1204A1FF900200E0FCA3E0FD74002DAE
:1023CD00F58274003CF583EFF07401251DF51DE4D5
:1023DD00351CF51C900201E004F07006900200E03F
:1023ED0004F0E51F151F7002151E80B9E51954FE86
:1023FD00FE7F00900203EEF0A3EFF0900203E0FFEA
:10240D008FE375E40075E50375E78075E64675E6BF
:10241D00B90075E50075E700900200E4F0A3E4F063
:10242D00900200E0FEA3E0FFC3EE9402505890022C
:10243D0000E0FEA3E0FF74002FF58274003EF583EB
:10244D00E0FF8FE2900203E0FF8FE3900204E0FFD4
:10245D008FE475E50275E78075E64675E6B900759A
:10246D00E50075E700900204E004F07006900203A9
:10247D00E004F0124176900201E004F07006900243
:10248D0000E004F0809AE51954FEFE7F00900203EF
:10249D00EEF0A3EFF0900200E4F0A3E4F090020060
:1024AD00E0FEA3E0FFC3EE94025078900203E0FF3C
:1024BD008FE3900204E0FF8FE475E50175E7807509
:1024CD00E64675E6B975E50075E700900204E0048F
:1024DD00F07006900203E004F0124176900200E0E5
:1024ED00FEA3E0FF74002FF58274003EF583E0FF3C
:1024FD00EF65E2601D900202E004F0900202E0FF41
:10250D007E00C3EF9403EE64809480501B0223F988
:10251D008016900201E004F07006900200E004F0D5
:10252D000224AA900202E4F0A20292AF900202E00D
:01253D00FF9E
:01253E00227A
:1012C900787D7600907FF9E493FF900222EFF09009
:1012D9000222E0FF7E00D3EF9401EE648094804007
:1012E90005900222E4F0900205E4F0907FFBE4937C
:1012F900FF900206EFF0907FFCE493FF900207EF66
:10130900F0907FFDE493FF900208EFF07F007E00EC
:101319007D007C00900205E0F8A3E0F9A3E0FAA3C0
:10132900E0FBC3120672601C7FFF7EFF7DFF7C001D
:10133900900205E0F8A3E0F9A3E0FAA3E0FBC312E9
:101349000672700A9002051206A2000000009002BF
:1013590005E0FCA3E0FDA3E0FEA3E0FF9002181264
:101369000696907FFAE493FF787DA607787DE6FFDD
:101379007E00C3E49FEE6480F8E464809840030231
:1013890014DA787DE6FF7E00D3EF940AEE64809448
:101399008040030214DA787DE6FF9002EAEFF078E4
:1013A9007DE6FF7E96EF8EF0A4FFAEF0E4FCFDEF44
:1013B9002478FFEE3463FEED3465FDEC3419FC90BE
:1013C9000233120696900233E0FCA3E0FDA3E0FE8F
:1013D900A3E0FF7B017A0279C6121BF2787DE6FF52
:1013E9007E96EF8EF0A4FFAEF0E4FCFDEF2430FF13
:1013F900EE34B0FEED346FFDEC3419FC900233127B
:101409000696900233E0FCA3E0FDA3E0FEA3E0FF13
:101419007B017A0279BE121BF2787DE6FF7E96EF98
:101429008EF0A4FFAEF0E4FCFDEF24D8FFEE34B05B
:10143900FEED3494FDEC3419FC90023312069690BB
:101449000233E0FCA3E0FDA3E0FEA3E0FF7B017A09
:101459000279D6121BF2787DE6FF7E96EF8EF0A414
:10146900FFAEF0E4FCFDEF2470FFEE345CFEED34DA
:1014790097FDEC3419FC900233120696900233E082
:10148900FCA3E0FDA3E0FEA3E0FF7B017A0279B6AD
:10149900121BF2787DE6FF7E96EF8EF0A4FFAEF088
:1014A900E4FCFDEF24B0FFEE3469FEED349AFDEC67
:1014B9003419FC900233120696900233E0FCA3E043
:1014C900FDA3E0FEA3E0FF7B017A0279CE121BF2B5
:1014D90022787DE6FF7E00C3740A9FEE6480F8E4FB
:1014E900648098400302165E787DE6FF7E00D3EFA4
:1014F9009414EE64809480400302165E787DE6FFC2
:101509009002EAEFF0787D74F626F6787DE6FF7EA4
:1015190096EF8EF0A4FFAEF0AB07AA06E4F9F8C384
:1015290074789BFF74639AFE746599FD741998FC2D
:10153900900233120696900233E0FCA3E0FDA3E08B
:10154900FEA3E0FF7B017A0279C6121BF2787DE6E1
:10155900FF7E96EF8EF0A4FFAEF0AB07AA06E4F982
:10156900F8C374309BFF74B09AFE746F99FD7419B7
:1015790098FC900233120696900233E0FCA3E0FD3A
:10158900A3E0FEA3E0FF7B017A0279BE121BF27889
:101599007DE6FF7E96EF8EF0A4FFAEF0AB07AA06BC
:1015A900E4F9F8C374D89BFF74B09AFE749499FD5A
:1015B900741998FC900233120696900233E0FCA34A
:1015C900E0FDA3E0FEA3E0FF7B017A0279D6121BBE
:1015D900F2787DE6FF7E96EF8EF0A4FFAEF0AB07C2
:1015E900AA06E4F9F8C374709BFF745C9AFE7497B9
:1015F90099FD741998FC900233120696900233E013
:10160900FCA3E0FDA3E0FEA3E0FF7B017A0279B62B
:10161900121BF2787DE6FF7E96EF8EF0A4FFAEF006
:10162900AB07AA06E4F9F8C374B09BFF74699AFE84
:10163900749A99FD741998FC9002331206969002D7
:1016490033E0FCA3E0FDA3E0FEA3E0FF7B017A0207
:0516590079CE121BF226
:01165E002269
:0A4156008F60AF601560EF70F92272
:104053004385404385905385FC7584005385F7530E
:0B40630085DF5385FB53A2DFD29422BF
:10406E008F61E58420E5FB856186E5845480FF7EC3
:0B407E0000EF4E60F5438480AF862207
:103E22008F598D5A7F01124156C2947F0112415619
:103E3200E55925E0FFEF4401F559AF5912406EAF45
:103E42005A12406E7F01124156D2947F011241569E
:013E5200224D
:023D15008F62BB
:103D17009003BDE4F07F01124156C2947F01124126
:103D270056E56225E0F562AF6212406E7FFF1240F2
:103D37006E9003BDEFF07F01124156D2947F0112BE
:073D470041569003BDE0FFAF
:013D4E002252
:083644008F378B388A39893A6F
:10364C009003BEE4F07F01124156C2947F011241F7
:10365C0056E53725E0FFEF4401F537AF3712406EE2
:10366C00AB38AA39A93A1204A1FF12406E9003BEDE
:10367C007401F09003BEE0FFEFC3953B50247F0232
:10368C00124156AB38AA39A93A9003BEE0FF8F829B
:10369C007583001204BAFF12406E9003BEE004F072
:0E36AC0080D17F01124156D2947F0112415607
:0136BA0022ED
:1019EF00016E00016F0048020A00000000000000B5
:1019FF0000440233196563780171000172000170B0
:101A0F0000016D0041024300410245006028027C45
:101A1F0000000000000000000000000000000000B7
:101A2F0000000000000000000000000000000000A7
:101A3F0000000000000000004402180000000044F5
:101A4F0002270000000041024B0042021200004139
:101A5F00023E004102440042022F00004202660093
:101A6F000041024200420262000041024100410275
:101A7F003D00410217004102610041023100410265
:101A8F00240050026C000000000000000000000065
:101A9F000000000000500251000000000000000094
:101AAF0000000000000000004102320041023C0033
:101ABF0041022D0042023700004202B000004102F5
:101ACF003B0041024A0041022E004102090042023E
:101ADF002B000042022500004102220042023F007B
:101AEF00004202640000410214004102A4004902B6
:101AFF00A700000000000000000041024900420260
:101B0F00A5000042021500004402680000000042D8
:101B1F0002460000410248004102230044021E0019
:101B2F0000000042021C000042024F000042023936
:0B1B3F00000041024C0042024D00007B
:10385B009002617464F0900243741AF0900243E09A
:10386B00FFEF14FF900231EFF01240F790022D742E
:10387B00FFF090023274FFF090023CE4F07870E6B7
:10388B00FFEF4440FF7870A6077870E6FFEF547F98
:10389B00FF7870A607123C269002B0E4F0A3E4F088
:0938AB00900264E4F0A3E4F022B1
:101B4A004302E60000004802C623081999230791B8
:101B5A00114802B6230C7777230BEEEF4802CE2307
:101B6A000CBBBC230C33334802BE230900002308F4
:101B7A0077774802D6230C3BBC230BB3334102B41C
:101B8A0000602802EC0000000000000000000000D5
:101B9A00000000000000000000000000000000003B
:101BAA00000000000000000000000000004102EBFD
:101BBA00014102B500410330014102B3004102E98B
:101BCA00004102B2004102EA004802DE00000000C1
:041BDA000000000007
:100EF4008B3C8A3D893E8D3F1200161241607F0D66
:100F0400123D157E00EF30E0F5800280F17D117F07
:100F140000123E227DFF7F01123E227D9F7F02123E
:100F24003E227DC37F03123E227D037F04123E22B4
:100F34007D107F05123E227D007F06123E227D1524
:100F44007F07123E227D007F08123E227D007F092A
:100F5400123E227D187F0A123E227D887F0B123EAC
:100F6400227D007F0C123E227D087F0D123E227DE1
:100F7400007F0E123E227D007F0F123E227D007FF5
:100F840010123E227D007F11123E227D007F12123C
:100F94003E227D007F13123E227D007F14123E22EA
:100FA4007D007F15123E227D007F16123E227D00B9
:100FB4007F17123E227D007F18123E227D007F198A
:100FC400123E227D007F1A123E227D067F2D123EA4
:100FD400227D057F3F123E227D8B7F41123E227D82
:100FE400007F42123E227D347F43123E227D087FE1
:100FF40045123E227D007F4E123E227D007F4F121D
:101004003E227D007F50123E227D007F51123E22FF
:101014007D147F54123E227D067F60123E227D881D
:101024007F63123E227D027F67123E227D107F681D
:10103400123E227D007F69123E227D5B7F6E123E4E
:10104400227D007F7A123E227D0C7F7B123E227D20
:10105400007F7D123E22AD407F7E123E227D227FA4
:1010640000123E227D077F02123E227DD07F0312B2
:101074003E227D007F04123E227D507F05123E22D7
:101084007D277F11123E227D0C7F13123E227D02AA
:101094007F1A123E22AB3CAA3DA93E1204A1FD7F59
:1010A4001B123E22AB3CAA3DA93E7582017583000A
:1010B4001204BAFD7F1C123E22AB3CAA3DA93E7528
:1010C40082027583001204BAFD7F1D123E22AB3CDE
:1010D400AA3DA93E7582037583001204BAFD7F1EE2
:1010E400123E22AB3CAA3DA93E1204A1FD7F1F1271
:1010F4003E22AB3CAA3DA93E7582017583001204D1
:10110400BAFD7F20123E22AB3CAA3DA93E75820265
:101114007583001204BAFD7F21123E22AB3CAA3D26
:10112400A93E7582037583001204BAFD7F22123E24
:10113400227D087F23123E227D887F24123E227D59
:10114400087F25123E227D0F7F26123E227D007FDE
:1011540027123E227D007F28123E227D007F291225
:101164003E22AD3F7F2A123E227D087F2F123E226F
:101174007D007F30123E227DAE7F31123E22AB3C99
:10118400AA3DA93E7582047583001204BAFD7F4D01
:10119400123E22AB3CAA3DA93E758205758300121E
:1011A40004BAFD7F4E123E22AB3CAA3DA93E758295
:1011B400067583001204BAFD7F4F123E22AB3CAA8F
:1011C4003DA93E7582077583001204BAFD7F501253
:1011D4003E227D047F51123E227D5A7F52123E22CE
:1011E4007D667F53123E227D157F5C123E227D1B5D
:1011F4007F5D123E227D057F5E123E227D677F5F0A
:10120400123E227D0C7F60123E22123DF07D447F0F
:1012140000123E227D0F7F2A123E227D447F00125F
:101224003E227D007F4F123E227D887F00123E22A7
:101234007D3F7F2F123E227D417F0C123E227D3363
:101244007F0D123E227D547F0E123E227D107F14AC
:10125400123E227D037F24123E227D007F7E123EB9
:10126400227F707E5C7D977C19900233E0F8A3E0C6
:10127400F9A3E0FAA3E0FBC3120672601C7FB07E00
:10128400697D9A7C19900233E0F8A3E0F9A3E0FAAF
:10129400A3E0FBC31206727005123281800312347C
:1012A400017D117F00123E227D017F6F123E227F5D
:1012B4000D123D157E00EF30E1F5800280F1124001
:0512C4001A1240B822DF
:1039F6008F637D117F00123E22E5631206D33A14CF
:103A0600003A1D013A26023A2F0300003A387D217A
:103A16007F76123E2280227D117F76123E22801909
:103A26007D097F76123E2280107D057F76123E222A
:0F3A360080077D037F76123E227F09122EE22247
:102FD100787E76007F0F123D15787EA607787EE613
:102FE100FFEF5401FF7E00EF64014E60030230BD2C
:102FF100787EE6FF7E00EF64FF4E70030230BD78FD
:103001006EE6FFEF4440FF786EA6077F01123D4F49
:103011007871E6FFEF5401FF7E00EF64014E60031B
:103021000230BD90023EE0FF7E00C3EF9403EE64E8
:10303100809480503D786EE6FFEFC413135403FF74
:10304100EF5401FF7E00EF64014E7026786EE6FFBB
:10305100EF54BFFF786EA6077B017A02797C90025C
:103061002FE0FEA3E0FFAD07123C6390023EE004B7
:10307100F02290023EE0FF7E00EF64034E703D7847
:103081006EE6FFEFC413135403FFEF5401FF7E00FC
:10309100EF64014E7026786EE6FFEF54BFFF786E45
:1030A100A6077871E6FFEF54FEFF7871A607C2A765
:0C30B1007F03122EE2C2B4124128D2B5F7
:0130BD0022F0
:0B414B0030B507C2B57F021240A2226F
:1040890030B515C2B57F021240A27B017A0279C60A
:0940990075400C7D15120EF42295
:103EE4008F647D117F00123E22AF647E00EF641068
:103EF4004E6014AF647E00EF64124E600AAF647EBD
:0F3F040000EF641A4E7007AD647F0A123E22224E
:022EE2008F65FA
:102EE4009003AFE4F07D117F00123E227F0B123D70
:102EF40015EFC4540FFF9003AFEFF09003AFE0FF62
:102F0400EF65657003022FCBAF657E00EF64094E59
:102F14006021AF657E00EF64064E6017AF657E00EA
:102F2400EF64084E600DAF657E00EF64034E6003EE
:102F3400022FCBAD657F0B123E22123BA89003AF4C
:102F4400EFF09003AFE0FF7E00EF4E606BAF657E65
:102F540000EF64034E6061900233E0FCA3E0FDA344
:102F6400E0FEA3E0FF7B017A0279DE121BF212413C
:102F7400767F407E057D927C19900233E0F8A3E0D1
:102F8400F9A3E0FAA3E0FBC312067250107B017AA6
:102F94000279DE75400C7D55120EF4800E7B017AA9
:102FA4000279DE75401C7D55120EF4124176AD6532
:102FB4007F0B123E22123BA87F0B123D15EFC45427
:0C2FC4000FFF9003AFEFF09003AFE0FFB1
:012FD00022DE
:103BA8009003B0E4F0A3E4F07D117F00123E227F81
:103BB8000D123D15EF30E30A7D007F0D123E227F86
:103BC80000229003B0E475F001120531AFF0FED386
:103BD800EF9488EE941340037F012212417680CF40
:013BE80022BA
:103D4F008F667D117F00123E22AF667E00EF640109
:103D5F004E700F7D007F0F123E227D817F16123E27
:103D6F002222AF667E00EF4E700E7D007F0E123E58
:093D7F00227D827F16123E2222F1
:10401A007D117F00123E227D007F0D123E227D001F
:0D402A007F0E123E227D007F0F123E2222EB
:103281007D117F00123E227D227F06123E227D1596
:103291007F07123E227D1E7F66123E227D227F0025
:1032A100123E227D937F0C123E227D357F0D123E10
:1032B100227D277F11123E227D0C7F13123E227D3B
:1032C100087F2F123E227D507F56123E227D407F85
:1032D10057123E227D017F58123E227D147F5912E2
:1032E1003E227D007F5A123E227D007F5B123E22EC
:1032F1007D157F5C123E227D0D7F5D123E227D0594
:103301007F5E123E227D677F5F123E227D097F60D4
:10331100123E227D887F00123E227D417F0C123EAB
:10332100227D337F0D123E227D547F0E123E227D7F
:10333100107F14123E227D037F24123E227D117FD5
:0533410000123E2222F3
:103401007D117F00123E227D007F06123E227D1E2D
:103411007F66123E227D227F00123E227D937F0C29
:10342100123E227D357F0D123E227D277F11123EF5
:10343100227D0C7F13123E227D087F2F123E227DBA
:10344100407F57123E227D017F58123E227D147F1C
:1034510059123E227D007F5A123E227D007F5B126F
:103461003E227D157F5C123E227D1B7F5D123E2236
:103471007D057F5E123E227D677F5F123E227D0CBD
:103481007F60123E227D887F00123E227D417F0CAB
:10349100123E227D337F0D123E227D547F0E123E5D
:1034A100227D107F14123E227D037F24123E227D55
:0734B100117F00123E2222F0
:0A416000C2B47F021240A2D2B422C2
:10286E008B458A4689478D48786EE6FFEF4408FF10
:10287E00786EA6077F00122EE27E00EF64084E608F
:10288E00057F03122EE27D227F00123E22AB45AA67
:10289E0046A9471204A1FD7F1B123E22AB45AA4654
:1028AE00A9477582017583001204BAFD7F1C123E82
:1028BE0022AB45AA46A9477582027583001204BA57
:1028CE00FD7F1D123E22AB45AA46A94775820375B0
:1028DE0083001204BAFD7F1E123E22AB45AA46A902
:1028EE00471204A1FD7F1F123E22AB45AA46A947FF
:1028FE007582017583001204BAFD7F20123E22AB51
:10290E0045AA46A9477582027583001204BAFD7F57
:10291E0021123E22AB45AA46A94775820375830054
:10292E001204BAFD7F22123E22AB45AA46A9477574
:10293E0082047583001204BAFD7F4D123E22AB4510
:10294E00AA46A9477582057583001204BAFD7F4E0B
:10295E00123E22AB45AA46A9477582067583001220
:10296E0004BAFD7F4F123E22AB45AA46A947758297
:10297E00077583001204BAFD7F50123E227D227F1E
:10298E0000123E227D087F25123E227D557F2A129F
:10299E003E22AF487E00EF64014E70051234018076
:1029AE000DAF487E00EF64024E70031232817D013E
:1029BE007F6F123E227F0D123D157E00EF30E1F546
:1029CE00800280F17D117F00123E22786EE6FFEFCD
:0829DE0054F7FF786EA60722F2
:1040B8007D117F00123E227D077F4E123E227D0138
:0640C8007F12123E2222CD
:103C63008B498A4A894B8D4CAF4C7E00D3EF9440ED
:103C7300EE648094804003754C407D117F00123EBA
:103C830022AD4C7F7B123E227F10123EE4AB49AA49
:0C3C93004AA94B854C3B7F7C1236442232
:0E1BF2008F2D8E2C8D2B8C2A8B2E8A2F8930D6
:101C00009003B2E4F09003B31206A200000000902B
:101C100003B71206A2000000007B007A1B79B77898
:101C200000AF2DAE2CAD2BAC2A1205D29003B2EF33
:101C3000F0AF2DAE2CAD2BAC2AE41202EC7B007A77
:101C40001B7937784B12024FC004C005C006C0078D
:101C50009003B2E0FCE41202F6A804A905AA06ABC0
:101C600007D007D006D005D0041200519003B3125C
:101C700006967F007E007D807C499003B3E0F8A348
:101C8000E0F9A3E0FAA3E0FB12014612032A900355
:101C9000B71206969003B2E0FFAB2EAA2FA930EF41
:101CA0001204E79003B7E0FCA3E0FDA3E0FEA3E08D
:101CB000FF7810120683EF54FFFFEE5400FEED5440
:101CC00000FDEC5400FCAB2EAA2FA93075820175E3
:101CD0008300EF1204F99003B7E0FCA3E0FDA3E05A
:101CE000FEA3E0FF7808120683EF54FFFFEE5400D6
:101CF000FEED5400FDEC5400FCAB2EAA2FA930756C
:101D00008202758300EF1204F99003B7E0FCA3E0B0
:101D1000FDA3E0FEA3E0FFEF54FFFFEE5400FEED55
:101D20005400FDEC5400FCAB2EAA2FA930758203A1
:101D3000758300EF1204F9E52D2480F52DE52C3490
:101D4000E5F52CE52B34F9F52BE52A34FFF52A7B54
:101D5000007A1B79B77800AF2DAE2CAD2BAC2A12D0
:101D600005D29003B2EFF0AF2DAE2CAD2BAC2AE430
:101D70001202EC7B007A1B7937784B12024FC004B9
:101D8000C005C006C0079003B2E0FCE41202F6A84A
:101D900004A905AA06AB07D007D006D005D00412C7
:101DA00000519003B31206967F007E007D807C492F
:101DB0009003B3E0F8A3E0F9A3E0FAA3E0FB12017B
:101DC0004612032A9003B71206969003B2E0FFABC7
:101DD0002EAA2FA930758204758300EF1204F990A2
:101DE00003B7E0FCA3E0FDA3E0FEA3E0FF78101240
:101DF0000683EF54FFFFEE5400FEED5400FDEC545B
:101E000000FCAB2EAA2FA930758205758300EF1256
:101E100004F99003B7E0FCA3E0FDA3E0FEA3E0FF1C
:101E20007808120683EF54FFFFEE5400FEED5400D5
:101E3000FDEC5400FCAB2EAA2FA9307582067583E9
:101E400000EF1204F99003B7E0FCA3E0FDA3E0FE6D
:101E5000A3E0FFEF54FFFFEE5400FEED5400FDEC55
:101E60005400FCAB2EAA2FA930758207758300EFB2
:031E70001204F960
:011E7300224C
:103DF0007D227F00123E227D5A7F07123E227D8A5D
:103E00007F0C123E227D267F0D123E227D037F1005
:103E1000123E227D837F15123E227D117F00123ECD
:023E200022225C
:1040370043920143C48053C31F53C3FC43C310536C
:0C404700C3FB53BB9F53C4D843AD0222FF
:03004B000230BEC2
:1030BE00C0E0C0F0C083C082C0D075D000C000C0D8
:0D30CE0001C002C003C004C005C006C00759
:1030DB009003BFE5C6F09003C0E5C5F0900268E031
:1030EB00F8A3E0F9A3E0FAA3E0FB9003BFE0FEA393
:1030FB00E0FFEE540FFEE4FCFDEB2FFFEA3EFEE992
:10310B003DFDE83CFC900268120696900248E004F4
:10311B00F053C4EF43C408900248E0FF7E00C3EFB6
:10312B009414EE64809480405653ADFD53C47F904D
:10313B000248E4F07B147A0079007800900268E092
:10314B00FCA3E0FDA3E0FEA3E0FF1205D290024634
:10315B00EEF0A3EFF0900246E0FEA3E0FFAB07AA70
:10316B0006E4F9F87F007E107D0E7C00123B219067
:0F317B00021E1206969002681206A200000000C3
:10318A00D007D006D005D004D003D002D001D00099
:0B319A00D0D0D082D083D0F0D0E03243
:04417E0043C408220C
:1036BB0090024DE0FEA3E0FFEF4E60677F607E0956
:1036CB007D007C0090021EE0F8A3E0F9A3E0FAA3D2
:1036DB00E0FBD31206724006900223E4F0227F60D7
:1036EB007E097D007C0090021EE0F8A3E0F9A3E0C8
:1036FB00FAA3E0FBD312067250237F987E087D005D
:10370B007C0090021EE0F8A3E0F9A3E0FAA3E0FB33
:10371B00D312067240079002237401F02290022309
:04372B007402F02212
:101BDE001108FBBFDFEFF79FAFB7BBCFDBEBE7F330
:031BEE00FDFEFFFA
:1020DF007871E6FFEF20E6030223127871E6FFEF37
:1020EF0054BFFF7871A60790024DE0FEA3E0FFEF0B
:1020FF004E600E90024EE024FFF090024DE034FF50
:10210F00F09002A5E0FEA3E0FFEF4E600E9002A656
:10211F00E024FFF09002A5E034FFF0900225E0FEEE
:10212F00A3E0FFEF4E600E900226E024FFF0900236
:10213F0025E034FFF0900264E0FEA3E0FFEF4E6075
:10214F000E900265E024FFF0900264E034FFF090FF
:10215F00022BE0FEA3E0FFEF4E601090022CE02474
:10216F00FFF090022BE034FFF0800C786DE6FFEF6C
:10217F0054F7FF786DA607786DE6FFEF30E33590E3
:10218F00022BE0FEA3E0FFEF4E6029900240E00437
:10219F00F0700690023FE004F090023FE0FEA3E0F3
:1021AF00FFC3EF9464EE9400400A90023FE4F0A363
:1021BF00E4F0B2A79002B0E0FEA3E0FFEF4E600E96
:1021CF009002B1E024FFF09002B0E034FFF09002F3
:1021DF0066E0FEA3E0FFEF4E604E900267E024FF43
:1021EF00F0900266E034FFF07872E6FFEFC313FF62
:1021FF00EF5401FF7E00EF4E60030222F07872E68B
:10220F00FFEF4402FF7872A6077872E6FFEF54FBE8
:10221F00FF7872A6071241827872E6FFEF20E30380
:10222F000222F0D2A70222F0900242E0FFEF6044B8
:10223F00900242E014F07872E6FFEF1313543FFF61
:10224F00EF5401FF7E00EF4E60030222F07872E63A
:10225F00FFEF4404FF7872A6077872E6FFEF54FD94
:10226F00FF7872A6071200067872E6FFEF30E3716F
:10227F00C2A7806D90023DE0FFEF605990023DE0F4
:10228F0014F0900262E0FEA3E0FF900266EEF0A36E
:10229F00EFF0900241E0FF900242EFF07872E6FF1C
:1022AF00EFC313FFEF5401FF7E00EF4E70337872D0
:1022BF00E6FFEF4402FF7872A6077872E6FFEF544D
:1022CF00FBFF7872A6071241827872E6FFEF30E3C8
:1022DF0010D2A7800C7872E6FFEF54F7FF7872A642
:1022EF000712165F786DE6FFEFC4135407FFEF5424
:1022FF0001FF7E00EF64014E60091229E6120B16F2
:04230F0012417622DF
:103544007871E6FFEF30E7497871E6FFEF547FFFCB
:103554007871A60790024CE0FFEF600690024CE001
:1035640014F07871E6FFEFC4135407FFEF5401FF22
:103574007E00EF64014E7019900231E0FFEF60119C
:1035840090024AE0FF7E00EF4E7006900231E01494
:10359400F09003BBE0FEA3E0FFEF4E702A7871E6E3
:1035A400FFEF5401FF7E00EF64014E701A7871E65C
:1035B400FFEF54FEFF7871A607C2A77F03122EE225
:0835C400C2B4124128D2B52265
:10165F0090023CE4F090023274FFF0900223E0FF1E
:10166F007E00EF64024E700302194FA292E433FF23
:10167F00123FB8A291E433FF123FB8A2A5E433FFA3
:10168F00123FB87F01123FB8A2A1E433FF123FB857
:10169F007F01123FB87F01123FB890022DE0FF90FB
:1016AF000232E0FEEE6F6025900232E0FF90022DD5
:1016BF00EFF01240F7123C2690021C7413F0A37443
:1016CF0088F090024F7427F0A37474F022900237C1
:1016DF0074FF75F0FF12051BAFF0FEEF4E600302B3
:1016EF00194F900237E4F0A37401F0900232E0FF3B
:1016FF007E00EF64FF4E70030217EC90021CE0FEB9
:10170F00A3E0FFEF4E600E90021DE024FFF0900269
:10171F001CE034FFF090024FE0FEA3E0FFEF4E60BD
:10172F000E900250E024FFF090024FE034FFF012D1
:10173F004089900223E0FF7E00EF64014E6017782E
:10174F006DE6FFEF20E60F90024FE0FEA3E0FFEF04
:10175F004E60030217EC786DE6FFEFC413135403CA
:10176F00FFEF5401FF7E00EF4E705A786DE6FFEFEA
:10177F004440FF786DA60790024FE0FEA3E0FFEF15
:10178F004E7011900262E4F0A37467F090024174FE
:10179F0067F0800F900262E4F0A37428F09002418A
:1017AF00743CF0900262E0FEA3E0FF900266EEF060
:1017BF00A3EFF0900241E0FF900242EFF090023D64
:1017CF007402F0801890023DE0FF7E00D3EF940189
:1017DF00EE64809480500690023D7402F0787F761C
:1017EF0000787FE6FF7E00C3EF9411EE6480948053
:1017FF005023787FE6FF74082FF8E6FF900232E05F
:10180F00FEEEB5070B787FE6FF90023BEFF0800509
:10181F00787F0680CC787FE6FF7E00900239EEF06D
:10182F00A3EFF0786DE6FFEFC4135407FFEF5401F9
:10183F00FF7E00EF64014E700302194F787FE6FFC1
:10184F007E00EF64114E701F7870E6FFEF54BFFFFC
:10185F007870A607123C267870E6FFEF4480FF7879
:10186F0070A607123F92227870E6FFEF30E75D9087
:10187F000232E0FF7E00EF64FF4E6050787FE6FF9C
:10188F007E00EF64054E6033787FE6FF7E00EF64E5
:10189F00064E6027787FE6FF7E00EF64074E601BE1
:1018AF00787FE6FF7E00EF64094E600F787FE6FFDA
:1018BF007E00EF640C4E600302194F7871E6FFEF64
:1018CF005401FF7E00EF4E7077800122787FE6FF94
:1018DF00EF1206D3191A00191E01191E02191E0341
:1018EF00191E041930051930061930071934081953
:1018FF00300919380A193C0B19300C19400D1944CD
:10190F000E19480F194C100000194F1231A52278EB
:10191F0071E6FFEF5401FF7E00EF4E7023121E742D
:10192F0022123E53221237FF221239A622123906F3
:10193F00221239562212002222124185221238B465
:01194F002275
:103E5300123F9290023CE4F090023BE0FF90023B61
:103E6300E0FD12253F123C267870E6FFEF54BFFFBA
:103E73007870A6077870E6FFEF4480FF7870A60796
:013E8300221C
:1037FF00123F927870E6FFEF54BFFF7870A60778FC
:10380F0070E6FFEF20E23F7870E6FFEF4404FF78A9
:10381F0070A6079002B0740BF0A374B8F07871E63D
:10382F00FFEFC4135407FFEF5401FF7E00EF4E70FC
:10383F001A7871E6FFEF4420FF7871A607D2E8905F
:0C384F000231744EF0227F08123DBC22B2
:10390600123F927870E6FFEF20E33F7870E6FFEF14
:103916004408FF7870A6079002B0740BF0A374B841
:10392600F07871E6FFEFC4135407FFEF5401FF7EF2
:1039360000EF4E701A7871E6FFEF4420FF7871A60B
:1039460007D2E8900231744EF0227F0B123DBC2262
:10395600123F927870E6FFEF20E43F7870E6FFEFC3
:103966004410FF7870A6079002B0740BF0A374B8E9
:10397600F07871E6FFEFC4135407FFEF5401FF7EA2
:1039860000EF4E701A7871E6FFEF4420FF7871A6BB
:1039960007D2E8900231744EF0227F0D123DBC2210
:1039A600123F927870E6FFEF20E13F7870E6FFEF76
:1039B6004402FF7870A6079002B0740BF0A374B8A7
:1039C600F07871E6FFEFC4135407FFEF5401FF7E52
:1039D60000EF4E701A7871E6FFEF4420FF7871A66B
:1039E60007D2E8900231744EF0227F0A123DBC22C3
:103DBC008F679002B0E0FEA3E0FFEF4E602590020B
:103DCC00B074FF75F0FF12051BAFF0FEEF4E7013D1
:103DDC007D00AF6712253F786DE6FFEF4480FF78DA
:043DEC006DA6072297
:1031A500123F927870E6FFEF20E603023244787012
:1031B500E6FFEF54BFFF7870A60790023C7405F058
:1031C500123C267870E6FFEF4401FF7870A6079061
:1031D50002B0740BF0A374B8F0900264E0FEA3E0B3
:1031E500FFEF4E70397871E6FFEFC4135407FFEF18
:1031F5005401FF7E00EF4E70147871E6FFEF442016
:10320500FF7871A607D2E89002317433F09002641A
:103215007427F0A37410F09002147402F022900247
:1032250014E014FFF0EF70537F01123F6B90023CE6
:10323500E4F07870E6FFEF4480FF7870A607227807
:1032450070E6FFEF30E0349002B0E0FEA3E0FFEF60
:103255004E60289002B074FF75F0FF12051BAFF0A9
:10326500FEEF4E70167F02123F6B90023CE4F07841
:0C32750070E6FFEF4480FF7870A607228F
:101E7400120026EF7003021F8B786DE6FFEF20E05F
:101E840013786DE6FFEF20E10B786DE6FFEF20E2BB
:101E9400030220DE9002B0E0FEA3E0FFEF4E6003F9
:101EA4000220DE786DE6FFEFC413135403FFEF54F2
:101EB40001FF7E00EF4E60030220DE90021CE0FE74
:101EC400A3E0FFEF4E60030220DE786DE6FFEF2013
:101ED400E008786DE6FFEF30E21890024A740AF0E9
:101EE40090023CE4F07870E6FFEF4480FF7870A63F
:101EF400072290024A7401F07B017D677F677E00B0
:101F0400123A457872E6FFEF4408FF7872A6077824
:101F140071E6FFEFC4135407FFEF5401FF7E00EF97
:101F24004E70187871E6FFEF4420FF7871A607D24F
:101F3400E8900243E0FF900231EFF0900225740F25
:101F4400F0A374A0F090023CE4F07870E6FFEF5444
:101F5400BFFF7870A6077870E6FFEF4480FF7870C3
:101F6400A6077870E6FFEF4420FF7870A607786D27
:101F7400E6FFEF20E0030220DE7870E6FFEF54DF97
:101F8400FF7870A607222290023BE0FF90023CEF0C
:101F9400F090024AE0FFEF60030220DE9002A4E02A
:101FA400FFEF60012290023CE0FFEF1206D31FBF57
:101FB400011FD7021FEF0300002005786DE6FFEF35
:101FC4004401FF786DA6079002B07413F0A37488DF
:101FD400F0802E786DE6FFEF4402FF786DA607903F
:101FE40002B07413F0A37488F08016786DE6FFEFE6
:101FF4004404FF786DA6079002B07413F0A37488AC
:10200400F0900222E0FFEF600D90023CE0FF7E00C2
:10201400EF64044E7019123F9290023BE0FF90026D
:102024003BE0FD12253F900264E4F0A3E4F022902B
:10203400024AE0FFEF60030220DE9002A4E0FFEF1B
:1020440060012290023CE0FF7E00EF64024E703794
:10205400123F9290023BE0FF90023BE0FD12253FCD
:10206400900264E4F0A3E4F0786DE6FFEF4408FF27
:10207400786DA60790022B740BF0A374B8F090024D
:102084003FE4F0A3E4F02290023CE0FFEF1206D319
:10209400209E01209E03000020DE786DE6FFEF30D5
:1020A400E33890022BE0FEA3E0FFEF4E602C786D46
:1020B400E6FFEF54F7FF786DA60790022BE4F0A338
:1020C400E4F090023BE0FF90023BE0FD12253F90DC
:0B20D4000264E4F0A3E4F0123F92224B
:0100220022BB
:014185002217
:1038B400786DE6FFEF54FEFF786DA607786DE6FF9E
:1038C400EF54FDFF786DA607786DE6FFEF54FBFF1C
:1038D400786DA607786DE6FFEF54BFFF786DA607F5
:1038E400123C267870E6FFEF4440FF7870A6077814
:1038F40070E6FFEF547FFF7870A60790023C74FFD8
:02390400F022AF
:1040F700900237E4F0A37432F09002B0E4F0A3E446
:02410700F022A4
:103C26007870E6FFEF54FEFF7870A6077870E6FF1F
:103C3600EF54FDFF7870A6077870E6FFEF54FBFFA0
:103C46007870A6077870E6FFEF54F7FF7870A6073E
:0D3C56007870E6FFEF54EFFF7870A60722AC
:103F920090024AE4F090022E7402F0900209740238
:103FA200F090022BE0FEA3E0FFEF4E600890022BA0
:063FB200E4F0A3E4F0229C
:100026007870E6FFEF20E6037F01227870E6FFEFA7
:1000360054BFFF7870A6079002B0E4F0A3E4F01274
:050046003C267F0022B2
:04253F008F548D55D3
:10254300900245E0FF7E00C3EF9445EE64809480E3
:10255300505A7871E6FFEFC4135407FFEF5401FF9D
:102563007E00EF64014E7044900231E0FF7E00C3B1
:10257300EF9419EE648094805032900231E0FFC3EF
:1025830074199FF556900245E02556F0900245E0F8
:10259300FF7E00C374459FFFE49EFEC3EF941BEED2
:1025A3006480948040069002317419F0900231E007
:1025B300FF7E00C3EF9419EE64809480500E900266
:1025C3004CE0FF7E00EF4E60030226EC7871E6FFDD
:1025D300EFC4135407FFEF5401FF7E00EF4E701852
:1025E3007871E6FFEF4420FF7871A607D2E89002E6
:1025F30043E0FF900231EFF0E5541206D3262201A7
:10260300262A02263203263A04264A05265206269D
:102613005A0726620926420A266A0C000026709091
:10262300024B7408F0804690024B7404F0803E9095
:10263300024B7402F0803690024B7401F0802E90AE
:10264300024B7414F0802690024B740CF0801E90A1
:10265300024B740AF0801690024B7409F0800E90BE
:10266300024B7406F0800690024B7403F0E555129A
:1026730006D326880126950226A20326AF0426BC8C
:1026830014000026C77B007D677F677E00123A45F2
:1026930080327B017D677F677E00123A4580257B10
:1026A300027D677F677E00123A4580187B007D01BB
:1026B3007FF47E01123A45800B7B007D017FE87E2B
:1026C30003123A4512414B9002331206A219656375
:1026D300787B017A0279C675400C7D15120EF412CF
:0B26E3002CC690024C7419F022C2A714
:0126EE0022C9
:100B160090024AE0FFEF1206D30B41010B70020B65
:100B2600C5030C3F040C76050CFC060D33070DB906
:100B3600080DB9090EE80A00000EF37870E6FFEF1B
:100B460020E7119002257403F0A374E8F090024A9E
:100B5600E004F022900225E0FEA3E0FFEF4E6003E2
:100B6600020EF390024A740AF022900225E0FEA3D8
:100B7600E0FFEF4E702790024AE004F090022574E1
:100B86000BF0A374B8F07B007D677F677E00123A96
:100B9600457872E6FFEF4408FF7872A60790023C9C
:100BA600E0FF7E00EF4E7003020EF390023CE0FF82
:100BB6007E00EF64FF4E7003020EF3123F92229006
:100BC6000225E0FEA3E0FFEF4E7004123F92229052
:100BD600023CE0FF7E00EF4E7003020EF390023CF3
:100BE600E0FF7E00EF64FF4E7001227870E6FFEFB3
:100BF60030E52390023CE0FF7E00EF64024E701168
:100C06009002257403F0A374E8F090024AE004F021
:100C160022123F92222290023CE0FF7E00EF640106
:100C26004E70119002257403F0A374E8F090024A06
:100C3600E004F022123F922222900225E0FEA3E079
:100C4600FFEF4E6003020EF390024AE004F09002BA
:100C560025740BF0A374B8F07B007D677F677E0078
:100C6600123A457872E6FFEF4408FF7872A607222B
:100C7600900225E0FEA3E0FFEF4E7004123F9222A1
:100C860090023CE0FF7E00EF4E7003020EF39002EE
:100C96003CE0FF7E00EF64FF4E7001227870E6FFB5
:100CA600EF30E52F90023CE0FF7E00EF64024E70CD
:100CB6001D9002257403F0A374E8F090024AE00444
:100CC600F07870E6FFEF4480FF7870A60722123FA7
:100CD60092222290023CE0FF7E00EF64014E7011EA
:100CE6009002257403F0A374E8F090024AE004F041
:100CF60022123F922222900225E0FEA3E0FFEF4E51
:100D06006003020EF390024AE004F0900225740B91
:100D1600F0A374B8F07B027D677F677E00123A45C8
:100D26007872E6FFEF4408FF7872A6072290022544
:100D3600E0FEA3E0FFEF4E7004123F922290023CC9
:100D4600E0FF7E00EF4E7003020EF390023CE0FFE0
:100D56007E00EF64FF4E7001227870E6FFEF30E50B
:100D66002F90023CE0FF7E00EF64024E701D900261
:100D7600257427F0A37410F090024AE004F078700E
:100D8600E6FFEF4480FF7870A60722123F922222E8
:100D960090023CE0FF7E00EF64014E701190022548
:100DA6007427F0A37410F090024AE004F022123F78
:100DB600922222900225E0FEA3E0FFEF4E7004127D
:100DC6003F922290023CE0FF7E00EF4E7003020E3F
:100DD600F390023CE0FF7E00EF64FF4E7001227844
:100DE60070E6FFEF20E503020E6F90023CE0FF7E07
:100DF60000EF64024E706D90024AE0FF7E00EF64E1
:100E0600094E7059900222E0FF8F68E5686005750B
:100E160068008003756801900222E568F07B017A1C
:100E2600027922751E00751F017FF97E7F1223133A
:100E36007B047D677F677E00123A457872E6FFEF96
:100E46004408FF7872A607786DE6FFEF54F7FF783F
:100E56006DA6079002317414F0123F922290024A56
:100E6600E004F022123F92222290023CE0FF7E0034
:100E7600EF64014E706790024AE0FF7E00EF64095E
:100E86004E7053900222E0FF8F68E5686005756832
:100E9600008003756801900222E568F07B017A0202
:100EA6007922751E00751F017FF97E7F1223137B41
:100EB600047D677F677E00123A457872E6FFEF444D
:100EC60008FF7872A607786DE6FFEF54F7FF786D96
:100ED600A607123F922290024AE004F022123F92A5
:0D0EE60022227870E6FFEF20E703123F9212
:010EF30022DC
:1029E600124170EF7003022B5B7871E6FFEFC413A0
:1029F6005407FFEF5401FF7E00EF4E700E7871E62C
:102A0600FFEF4420FF7871A607D2E89002A5E0FE0A
:102A1600A3E0FFEF4E60319002317433F090024034
:102A2600E004F0700690023FE004F090023FE0FE02
:102A3600A3E0FFC3EF94F4EE9401401E90023FE43E
:102A4600F0A3E4F0B2A780127B027DFA7FF47E0148
:102A5600123A45C2A79002A4E4F090023CE0FFEFD0
:102A66001206D32A79012ABA022AEC032B0505009D
:102A7600002B5B900249E0FF74A72FF582E4340235
:102A8600F583E004FFF0EFD394394012900249E059
:102A9600FF74A72FF582E43402F5837430F07B00CF
:102AA6007D677F677E00123A459002A574EAF0A31F
:102AB6007460F022900249E004FFF07E00D3EF94A8
:102AC60008EE6480948040089002497408F0800BF8
:102AD6007B017D677F677E00123A459002A574EA06
:102AE600F0A37460F022123EB47B007D017FE87E85
:102AF60003123A459002A574EAF0A37460F022909E
:102B06000249E0FF7E00C3EF9408EE6480948040A3
:102B1600447B017A0279A71235CC900227120696D9
:102B26007FFE7EFF7DFF7C00900227E0F8A3E0F9A0
:102B3600A3E0FAA3E0FBD3120672400D7B037D648B
:102B46007F647E00123A4580077D147F1412253F6C
:062B56009002A4E4F0224D
:0635CC008B218A228923F5
:1035D200752900752800752700752600752400AF2F
:1035E200247E00C3EF9408EE64809480504BAB219C
:1035F200AA22A923AF248F827583001204BAFFEF97
:1036020024D0F5257F0A7E007D007C00AB29AA2804
:10361200A927A826120547A804A905AA06AB07AF41
:1036220025E4FCFDFEEB2FF529EA3EF528E93DF500
:1036320027E83CF526052480A6AF29AE28AD27ACA5
:013642002661
:013643002264
:103F6B008F69124170EF701E9002A4E569F0123E4A
:103F7B00B47B007D017FE87E03123A459002A57465
:073F8B00EAF0A37460F022CC
:064170009002A4E0FF2212
:103EB400900249E4F0756A00AF6A7E00C3EF94088B
:103EC400EE648094805013AF6A74A72FF582E434B3
:0F3ED40002F5837430F0056A80DE9002AFE4F0EF
:013EE30022BC
:103FB8008F6B900232E0FFEF25E0FF900232EFF0C6
:103FC800E56B600E900232E0FFEF4401FF90023291
:033FD800EFF022E5
:103A45008E4D8F4E8D4F8B50786DE6FFEFC413135F
:103A55005403FFEF5401FF7E00EF4E703090026279
:103A6500E54DF0A3E54EF0900241E54FF09002627E
:103A7500E0FEA3E0FF900266EEF0A3EFF0900241B6
:0E3A8500E0FF900242EFF090023DE550F0228B
:1026EF00309303022826786FE6FFEF5401FF7E0038
:1026FF00EF4E7015786FE6FFEF4401FF786FA60776
:10270F00D2E8D2A7123D88D2AF12417620924F78ED
:10271F0071E6FFEFC313FFEF5401FF7E00EF4E7022
:10272F003D7871E6FFEF4402FF7871A60712414B27
:10273F009002331206A21994B0D87B017A0279D68F
:10274F0075400C7D15120EF47872E6FFEF547FFF83
:10275F007872A6077F03122EE27F001239F63092AD
:10276F000C7871E6FFEF54FDFF7871A607209133C7
:10277F007871E6FFEF1313543FFFEF5401FF7E0014
:10278F00EF4E701F7871E6FFEF4404FF7871A607D4
:10279F00C2B4124128D2B57872E6FFEF547FFF78AA
:1027AF0072A60730910C7871E6FFEF54FBFF78713A
:1027BF00A60720A54D7871E6FFEF131313541FFFE3
:1027CF00EF5401FF7E00EF4E70387871E6FFEF4453
:1027DF0008FF7871A60712414B9002331206A21917
:1027EF0094B0D87B017A0279D675400C7D15120E04
:1027FF00F47F011239F67872E6FFEF4480FF7872AA
:10280F00A60730A50C7871E6FFEF54F7FF7871A695
:10281F00071206F90226EF786FE6FFEF5401FF7EED
:10282F0000EF64014E700F786FE6FFEF54FEFF78F4
:10283F006FA60712000EC2E8C2A77871E6FFEF5429
:10284F00FDFF7871A6077871E6FFEF54FBFF7871F3
:0F285F00A6077871E6FFEF54F7FF7871A60722FE
:102CC600D2A79002A4E0FF7E00EF4E703D7B017A12
:102CD600027918C003C002C0017B007A007932A8CD
:102CE60001AC02AD03D001D002D0037E007F0412F6
:102CF600047B90024BE0FF8F367F00122B5C900224
:102D06002FE4F0A3740CF0022DAF7B017A02791840
:102D1600C003C002C0017B007A007932A801AC0270
:102D2600AD03D001D002D0037E007F0412047B7570
:102D360036807F00122B5C9002A4E0FF7E00EF64D9
:102D4600014E702F7B017A027927C003C002C001B1
:102D56007B007A007932A801AC02AD03D001D00223
:102D6600D0037E007F0412047B7536FF7F0C122B86
:102D76005C802D7B017A027927C003C002C0017BEB
:102D8600007A007932A801AC02AD03D001D002D09E
:102D9600037E007F0412047B7536007F0C122B5CC9
:102DA60090022FE4F0A37418F07871E6FFEF440167
:102DB600FF7871A6077B017A02797C90022FE0FEEC
:102DC600A3E0FFAD07123C639003BB7402F0A3744B
:092DD60026F090023E7401F02287
:022B5C008F31B7
:102B5E00AF3512379D7873A60608A6077873E6FF81
:102B6E00AE310531747C2EF582E43402F583EFF03C
:102B7E007874E6FFAE310531747C2EF582E43402B2
:102B8E00F583EFF0AF3412379D7873A60608A607CB
:102B9E007873E6FFAE310531747C2EF582E4340293
:102BAE00F583EFF07874E6FFAE310531747C2EF5C7
:102BBE0082E43402F583EFF0AF3312379D7873A6BB
:102BCE000608A6077873E6FFAE310531747C2EF544
:102BDE0082E43402F583EFF07874E6FFAE3105310E
:102BEE00747C2EF582E43402F583EFF0AF361237A3
:102BFE009D7873A60608A6077873E6FFAE310531F9
:102C0E00747C2EF582E43402F583EFF07874E6FFDF
:102C1E00AE310531747C2EF582E43402F583EFF08B
:102C2E007874A6337873A6367876A6357875A6347A
:102C3E007875E6FE08E6FF7873E6FC08E6FDED2FF4
:102C4E00FFEC3EFE7877A60608A6077878E6FF1218
:102C5E00379D7873A60608A6077873E6FFAE310592
:102C6E0031747C2EF582E43402F583EFF07874E64D
:102C7E00FFAE310531747C2EF582E43402F583EF1C
:102C8E00F07877E6FF12379D7873A60608A60778C8
:102C9E0073E6FFAE310531747C2EF582E43402F515
:102CAE0083EFF07874E6FFAE310531747C2EF58239
:072CBE00E43402F583EFF09E
:012CC50022EC
:02379D008F6C2F
:10379F00787B7600787BE6FF7E00C3EF9408EE64BB
:1037AF0080948050437879E6FE08E6FFEF7802C3F5
:1037BF0033CE33CED8F9FF7879A60608A607E56C85
:1037CF0030E00E787AE6FFEF4402FF787AA60780A2
:1037DF000C787AE6FFEF4401FF787AA607E56CC311
:0F37EF0013F56C787B0680AC7879E6FE08E6FF70
:0137FE0022A8
:10004E00020396E86480F8E933E83360110460F047
:10005E00ED33EC337009E8FCE9FDEAFEEBFF220418
:10006E0060DED3EB9FEA9EE99DE8C2E78CF0C2F713
:10007E0095F0400CE8CCF8E9CDF9EACEFAEBCFFBDF
:10008E0012036185D0F05804700320D5B3E80470D4
:10009E00075002B2D50203A092D5EC0460F7E4CC6F
:1000AE00C0E0C398F8603B94186008400DD0E0FBA8
:1000BE00020378E4FBFAC9FC8028E830E406E4C9C0
:1000CE00FBE4CAFCE830E305E4C9CACBFCE85407FC
:1000DE006010F8C3E913F9EA13FAEB13FBEC13FC07
:1000EE00D8F130F52FC3E49CFCEF9BFFEE9AFEEDAA
:1000FE0099FDD0E0FBEF4E4D4C701222DB03020354
:10010E009DEC2CFCEF33FFEE33FEED33FDED30E7CF
:10011E00EB020378EF2BFFEE3AFEED39FDD0E0FB5C
:10012E0050130BBB00030203A0ED13FDEE13FEEF05
:08013E0013FFEC13FC0203782F
:10014600EC4D6011E8497017ED33EC3304600DE4B3
:10015600FCFFFEFD22E933E8330470F80203961231
:10016600036158046009E4CC248150062850090232
:1001760003A028400302039DC0E0EB4A7044B98007
:1001860006D0E0FB02038CEF4E701CBD8008EBFF2F
:10019600EAFEE9FD80EBE98DF0A4FEE5F002022F10
:1001A600E9CDF9EAFEEBFFEF89F0A4FCE5F0CE8994
:1001B600F0A42EFFE435F0CD89F0A42DFEE435F051
:1001C6008067EF4E7005BD80D780C3EF8BF0A4AC7F
:1001D600F0EE8BF0A42CFCE435F0F8EF8AF0A42CBA
:1001E600E5F038FCE433CB8DF0A42CFCE5F03BF8CD
:1001F600EE8AF0A42CFCE5F038F8E433CF89F0A4BD
:100206002CFCE5F038CF3400CE89F0A42FFFE5F0C2
:100216003EFEE433C98DF0A42EFEE5F039CD8AF01A
:10022600A42FFFE5F03EFEE43DFD33D0E0FB500792
:100236000BBB000F0203A0EC2CFCEF33FFEE33FEEA
:06024600ED33FD02037818
:10024C000203A0EC5D046005E859047003020396F8
:10025C00120361580460F6EC4860F2EC7004FDFE89
:10026C00FF22C860DB2481C85009C3986002500685
:10027C0002039D9850CAF582E9294B4A7005AB825E
:10028C0002038C75F0007C1A7880C3EF9BEE9AED1C
:10029C0099400DC3EF9BFFEE9AFEED99FDE842F0FD
:1002AC00DC23ACF0D0E0FFD0E0FED0E0FDAB822050
:1002BC00E7101BEB60BAEC2CFCEF33FFEE33FEEDDA
:1002CC0033FD020378E803F830E705C0F075F00061
:1002DC00EF2FFFEE33FEED33FD40B830E7C280AABE
:1002EC0075F020800E75F010800575F0087D007E8D
:1002FC00007F003392D530D503120664EC334010E6
:10030C00EF33FFEE33FEED33FDEC33FCD5F0ED2295
:0E031C00E5F0247EA2D513CC92E7CDCEFF22D1
:10032A00EDD2E7CD33EC3392D524814006E4FFFECB
:10033A00FDFC22FCE4CFCECDCC24E0501174FF802A
:10034A00EDC3CC13CCCD13CDCE13CECF13CF0470C7
:07035A00F030D5DE0206645D
:10036100E9D2E7C933E833F892D5EDD2E7CD33ECE2
:0703710033FC5002B2D5225B
:10037800EC30E7100FBF000C0EBE00080DBD0004E6
:100388000BEB6014A2D5EB13FCED92E7FD2274FF92
:10039800FCFDFEFF22E480F8A2D574FF13FC7D80EB
:0303A800E480EFFF
:030000000234B80F
:0C34B800787FE4F6D8FD75817F0234FFB8
:1003AB00E709F608DFFA8046E709F208DFFA803E34
:1003BB0088828C83E709F0A3DFFA8032E309F60821
:1003CB00DFFA8078E309F208DFFA807088828C8389
:1003DB00E309F0A3DFFA806489828A83E0A3F6083D
:1003EB00DFFA805889828A83E0A3F208DFFA804C17
:1003FB0080D280FA80C680D4806980F280338010EE
:10040B0080A680EA809A80A880DA80E280CA803356
:10041B0089828A83ECFAE493A3C8C582C8CCC583CE
:10042B00CCF0A3C8C582C8CCC583CCDFE9DEE7809E
:10043B000D89828A83E493A3F608DFF9ECFAA9F01D
:10044B00EDFB2289828A83ECFAE0A3C8C582C8CC73
:10045B00C583CCF0A3C8C582C8CCC583CCDFEADE8C
:10046B00E880DB89828A83E493A3F208DFF980CCEE
:10047B0088F0EF60010E4E60C388F0ED2402B404E7
:10048B000050B9F582EB2402B4040050AF2323458E
:06049B0082239003FB73B5
:1004A100BB010689828A83E0225002E722BBFE0259
:0904B100E32289828A83E493228C
:1004BA00BB010CE58229F582E5833AF583E02250F7
:1004CA0006E92582F8E622BBFE06E92582F8E22241
:0D04DA00E58229F582E5833AF583E493225B
:1004E700BB010689828A83F0225002F722BBFE01F4
:0204F700F322EE
:1004F900F8BB010DE58229F582E5833AF583E8F039
:10050900225006E92582C8F622BBFE05E92582C8E4
:02051900F222CC
:10051B00C5F0F8A3E028F0C5F0F8E582158270026B
:06052B001583E038F02208
:10053100A3F8E0C5F025F0F0E5821582700215837D
:06054100E0C838F0E822DA
:10054700E88FF0A4CC8BF0A42CFCE98EF0A42CFC53
:100557008AF0EDA42CFCEA8EF0A4CDA8F08BF0A4D1
:100567002DCC3825F0FDE98FF0A42CCD35F0FCEB30
:100577008EF0A4FEA9F0EB8FF0A4CFC5F02ECD39F5
:0F058700FEE43CFCEAA42DCE35F0FDE43CFC2262
:1005960075F008758200EF2FFFEE33FECD33CDCC1C
:1005A60033CCC58233C5829BED9AEC99E58298409F
:1005B6000CF582EE9BFEED9AFDEC99FC0FD5F0D67C
:1005C600E4CEFBE4CDFAE4CCF9A88222B800C1B9A6
:1005D6000059BA002DEC8BF084CFCECDFCE5F0CBE4
:1005E600F97818EF2FFFEE33FEED33FDEC33FCEB1D
:1005F60033FB10D703994004EB99FB0FD8E5E4F9D8
:10060600FA227818EF2FFFEE33FEED33FDEC33FCC4
:10061600C933C910D7059BE99A4007EC9BFCE99AB8
:10062600F90FD8E0E4C9FAE4CCFB2275F010EF2FFD
:10063600FFEE33FEED33FDCC33CCC833C810D707FD
:100646009BEC9AE899400AED9BFDEC9AFCE899F838
:0E0656000FD5F0DAE4CDFBE4CCFAE4C8F922CB
:103B2100C2D5E830E70FB2D5E4C39BFBE49AFAE4CF
:103B310099F9E498F8EC30E717B2D5123B57120522
:103B4100D2E4C39BFBE49AFAE499F9E498F8800380
:103B51001205D230D50DE4C39FFFE49EFEE49DFD26
:043B6100E49CFC22C2
:0E066400C3E49FFFE49EFEE49DFDE49CFC22A7
:10067200EB9FF5F0EA9E42F0E99D42F0E89C45F0DE
:010682002255
:10068300E8600FECC313FCED13FDEE13FEEF13FF55
:03069300D8F12279
:0C069600ECF0A3EDF0A3EEF0A3EFF022D7
:1006A200A8828583F0D083D0821206B91206B912CD
:1006B20006B91206B9E473E493A3C583C5F0C583F2
:1006C200C8C582C8F0A3C583C5F0C583C8C582C8A2
:0106D2002205
:1006D300D083D082F8E4937012740193700DA3A3B6
:1006E30093F8740193F5828883E4737402936860CA
:0606F300EFA3A3A380DFCA
:1034C400022DDFE493A3F8E493A34003F68001F212
:1034D40008DFF48029E493A3F85407240CC8C33309
:1034E400C4540F4420C8834004F456800146F6DFD8
:1034F400E4800B0102040810204080901950E47EFF
:10350400019360BCA3FF543F30E509541FFEE493CC
:10351400A360010ECF54C025E060A840B8E493A393
:10352400FAE493A3F8E493A3C8C582C8CAC583CABE
:10353400F0A3C8C582C8CAC583CADFE9DEE780BE76
:011BF10000F3
:00000001FF
