:102DDA001240D4123D0712413D123FCC1212C912C1
:102DEA003A8E12404412402812385612417712265F
:102DFA00EF124167D2AF12417B90024DE4F0A37407
:102E0A001EF01241731220DF12353F1236B69002BD
:102E1A0031E0FF7E00EF4E70E990024AE0FF7E004B
:102E2A00EF4E70DE7871E6FFEFC4135407FFEF54DC
:102E3A0001FF7E00EF64014E70C8900239E0FEA3E4
:102E4A00E0FFEF64024E60BA7871E6FFEF5401FFCB
:102E5A007E00EF4E70AC7871E6FFEF54DFFF7871B9
:102E6A00A607C2E8786DE6FFEF4420FF786DA60753
:102E7A00786DE6FFEFC41313135401FFEF5401FFFB
:102E8A007E00EF64014E700512417380E3786DE6AF
:102E9A00FFEFC41313135401FFEF5401FF7E00EF39
:102EAA004E70CD90023BE0FF7E00C3EF9401EE64CA
:102EBA0080948040BB90023BE0FF7E00D3EF9404F5
:102ECA00EE6480948050A91220DF12417380A1021F
:032EDA002E0C2299
:103D070075E78075E30075E44075E50475E21075A5
:103D1700E64675E6B90075E50075E70075E7807555
:103D2700E30075E44175E50475E20A75E64675E654
:093D3700B90075E50075E70022F2
:1040D400439701E5E154F8FFEF4404F5E143E1803F
:0440E40043E1202272
:0441730043E11022F2
:103A8E005391F1D291D292D29343B4045395FDD275
:103A9E00A14395815395DFD2A543B41043B420C200
:103AAE00A053B1DF43B22043B301C2B4C2A7C2E8F0
:103ABE00D2B55395A3D2A2D2A3D2A4D2A643B10417
:093ACE0053B2FB53B3FDD2E9220F
:1040E8004391B05391BFD29643B40853B1EF43B252
:0240F800102294
:1040FA0053910FC296C294C295C29743B11053B25C
:02410A00EF22A2
:0C00160053C13FD28A53A1FD43C1022216
:03000300023C5765
:103C5700C0E0C0F0C083C082C0D075D000C000C033
:103C670001C002C003C004C005C006C007122FCCA4
:103C7700D007D006D005D004D003D002D001D000A1
:0B3C8700D0D0D082D083D0F0D0E0324B
:03001300023C921A
:103C9200C0E0C0F0C083C082C0D075D000C000C0F8
:103CA20001C002C003C004C005C006C007122FCC69
:103CB200D007D006D005D004D003D002D001D00066
:0B3CC200D0D0D082D083D0F0D0E03210
:06416700120016D2AA228C
:051950004203BB000092
:103FCC00E58954FCFFEF4401F58953A1EF43A304A9
:103FDC005389FB5389F7758A48758CF4D28CD2A916
:013FEC0022B2
:03000B0002372A8F
:10372A00C0E0C083C082C0D075D000C000C006C04F
:10373A0007758CF4758A487871E6FFEF4440FF7884
:10374A0071A607900261E0FFEF6008900261E01441
:10375A00F080129002617464F07871E6FFEF4480A1
:10376A00FF7871A6079003BBE0FEA3E0FFEF4E606F
:10377A000E9003BCE024FFF09003BBE034FFF0D0CE
:0E378A0007D006D000D0D0D082D083D0E0325D
:103AD700E5D954F1FFEF440AF5D975AC0175DA025F
:103AE70075AC0075AC01E5F244C0F5F275AC005356
:103AF700BC7F75AC01800543F203800975EA127536
:103B0700FAFD53F2FC75AC0075F9FA75E92475CF27
:053B1700FA75CE242226
:04417700123AD722FF
:03417F00D2DE226B
:05000600C2DEC2A022D1
:10411E008F5BAF5B7E00EF4E60060000155B80F29A
:01412E00226E
:104093008F5CAF5C155CEF600C7F6412411E7F6424
:0640A30012411E80ED2217
:0E412F00284F4B2928574729000000000000A8
:101955004103AA004103AC004103A0004103A200DA
:101965004103A1006029034D0000000000000000B4
:101975000000000000000000000000000000000062
:101985000000000000000000000000000000000052
:101995000060290376000000000000000000000040
:1019A5000000000000000000000000000000000032
:1019B50000000000000000000000000000004403DB
:1019C50047000000004103AE004303A302030041AA
:1019D500039F004103AD004103AB0041034B0041B0
:0A19E500034C004403A600000000BC
:103D7900539CEFC29FD29ED29CC2CDC2CC539C7F92
:103D8900438780539CBFE58954CFFFEF4420F589D1
:103D990043A3085389BF53897F758DED758BEDD288
:043DA9008ED2AC22E8
:05000E00C28EC2AC220D
:0300230002334164
:10334100C0E0C083C082C0D075D000C000C006C03C
:013351000774
:10335200787C7600C0AC75AC00309902C299209896
:10336200030233EBC298787CA699787CE6FFEFB42F
:103372002805900224E4F0787CE6FF900224E0FE27
:10338200746C2EF582E43402F583EFF0900224E0AF
:10339200FFEF04FFEF541FFF900224EFF0787CE66A
:1033A200FFEF64297043787C7600900224E0FF7876
:1033B2007CE6FEEEC39F5025787CE6FF746C2FF509
:1033C20082E43402F583E0FF787CE6FE74512EF548
:1033D20082E43402F583EFF0787C0680CD786DE6E6
:0B33E200FFEF4410FF786DA607D0AC91
:0F33ED00D007D006D000D0D0D082D083D0E0322D
:0240BF008F5D13
:1040C100A2AC9200C2AC855D993099FDC299A20063
:0240D10092ACAF
:0140D30022CA
:083BA1008B418A4289438D44E7
:103BA900900331E4F0900331E4F0900331E0FFEF4A
:103BB900C39544501FAB41AA42A943900331E0FF8A
:103BC9008F827583001204BAFF1240BF900331E05F
:043BD90004F080D69E
:013BDD0022C5
:023F04008F5ECE
:103F0600AF5E7E00C3EF943AEE64809480500CE579
:103F16005E540FFF900332EFF0800AE55E24C9FF7E
:0A3F2600900332EFF0900332E0FF49
:013F3000226E
:023E75008F5F5D
:103E7700535F0FAF5F7E00C3EF940AEE64809480B8
:103E8700500CE55F4430FF900333EFF0800AE55FA5
:0D3E97002437FF900333EFF0900333E0FF7A
:013EA40022FB
:043FED008F518D5211
:103FF100AF51123F04EFC454F0FDAF52123F04EF32
:09400100540FFFED2FF553AF53EE
:01400A002293
:1006F9007BFF7A41792FC003C002C0017B017A03D5
:100709007938A801AC02AD03D001D002D0037E0034
:100719007F0412047B90033CE4F07BFF7A41793338
:10072900C003C002C0017B017A03793DA801AC0274
:10073900AD03D001D002D0037E007F0A12047B787A
:100749006DE6FFEF20E403020B15786DE6FFEF5429
:10075900EFFF786DA607900252E0FFEF1206D3086B
:10076900C84509044607F652089053077B5700000D
:100779000B15900253E0FFEF64476003020B1590DD
:100789000334E4F090026FE0FF900270E0FD123F45
:10079900ED900335EFF0900271E0FF900272E0FDF9
:1007A900123FED900336EFF0900273E0FF90027470
:1007B900E0FD123FED900337EFF0900334E0FCA326
:1007C900E0FDA3E0FEA3E0FF9002181206967B016C
:1007D9007A037935751E00751F037FFB7E7F12230F
:1007E900137B017A0379387D04123BA122900253CD
:1007F900E0FFEF64476003020B1590033D7428F096
:1008090090033E7452F090033F7447F09003407494
:1008190029F0900219E0FFEFC4540FFF123E7590C2
:100829000341EFF0900219E0FFEF540FFF123E75FC
:10083900900342EFF090021AE0FFEFC4540FFF1249
:100849003E75900343EFF090021AE0FFEF540FFF5B
:10085900123E75900344EFF090021BE0FFEFC45481
:100869000FFF123E75900345EFF090021BE0FFEF7A
:10087900540FFF123E75900346EFF07B017A03791E
:100889003D7D0A123BA1227872E6FFEF547FFF7883
:1008990072A6071241489002331206A219656378BD
:1008A9007B017A0279C675400C7D15120EF47F0022
:1008B9001239F17B017A0379387D04123BA1229028
:1008C9000253E0FFEF644E6003020B15900254E0FF
:1008D900FFEF64446003020B157F03122EDD124003
:1008E900FAD2B57872E6FFEF547FFF7872A6077BDC
:1008F900017A0379387D04123BA122900253E0FF6B
:10090900EF644D70387872E6FFEF4480FF7872A685
:10091900071241489002331206A2196563787B01D8
:100929007A0279C675400C7D15120EF47F011239D1
:10093900F17B017A0379387D04123BA1229002539D
:10094900E0FFEF64437051900254E0FFEF643F70A1
:100959004790033D7428F090033E7446F090033F9E
:100969007443F09003407429F09002EAE0FFEFC469
:10097900540FFF123E75900341EFF09002EAE0FF39
:10098900EF540FFF123E75900342EFF07B017A039B
:10099900793D7D06123BA122900253E0FFEF6443AB
:1009A9006003020B157872E6FFEFC41313135401A9
:1009B900FFEF5401FF7E00EF64014E6003020B1547
:1009C90090026FE0FF900270E0FD123FED90033C52
:1009D900EFF07F03122EDD90033CE0FF7E00D3EFA2
:1009E900940AEE64809480507490033CE0FF900276
:1009F900EAEFF07B017A0279EA751E00751F017F23
:100A0900FA7E7F12231390033CE0FF7E96EF8EF06F
:100A1900A4FFAEF0E4FCFDEF2478FFEE3463FEEDB5
:100A29003465FDEC3419FC9003A61206969003A6D2
:100A3900E0FCA3E0FDA3E0FEA3E0FF7B017A0279DD
:100A4900C6121BF27B017A0279C67D011228697BE5
:100A5900017A0379387D04123BA1020B1090033C03
:100A6900E0FF7E00C3740A9FEE6480F8E464809816
:100A79004003020B1090033CE0FF7E00D3EF941477
:100A8900EE648094804003020B1090033CE0FF90D9
:100A990002EAEFF07B017A0279EA751E00751F01FF
:100AA9007FFA7E7F12231390033CE024F6F0900333
:100AB9003CE0FF7E96EF8EF0A4FFAEF0AB07AA06EE
:100AC900E4F9F8C374789BFF74639AFE746599FD21
:100AD900741998FC9003A61206969003A6E0FCA34D
:100AE900E0FDA3E0FEA3E0FF7B017A0279C6121BB9
:100AF900F27B017A0279C67D011228697B017A03AA
:0C0B090079387D04123BA17F011239F104
:010B150022BD
:0B413D0075BF0B7D7C7F03123F312219
:043F31008F578D58C1
:103F3500A2AF9201C2AF75E3008557E48558E275DB
:103F4500E50475E78075E64675E6B90075E5007523
:063F5500E700A20192AF9B
:013F5B002243
:0A2313008E198F1A8B1B8A1C891D7E
:10231D00A2AF9202C2AF900202E4F0E51954FEFEA4
:10232D007F00900203EEF0A3EFF0900200E4F0A323
:10233D00E4F0900200E0FEA3E0FFC3EE94025056DD
:10234D00900203E0FF8FE3900204E0FF8FE475E558
:10235D000175E78075E64675E6B975E50075E70028
:10236D00900204E004F07006900203E004F0900285
:10237D0000E0FEA3E0FF74002FF58274003EF583AC
:10238D00E5E2F0124173900201E004F07006900254
:10239D0000E004F0809CE5195401FEAF1A90020094
:1023AD00EEF0A3EFF0E51F451E6041AB1BAA1CA983
:1023BD001D1204A1FF900200E0FCA3E0FD74002DAE
:1023CD00F58274003CF583EFF07401251DF51DE4D5
:1023DD00351CF51C900201E004F07006900200E03F
:1023ED0004F0E51F151F7002151E80B9E51954FE86
:1023FD00FE7F00900203EEF0A3EFF0900203E0FFEA
:10240D008FE375E40075E50375E78075E64675E6BF
:10241D00B90075E50075E700900200E4F0A3E4F063
:10242D00900200E0FEA3E0FFC3EE9402505890022C
:10243D0000E0FEA3E0FF74002FF58274003EF583EB
:10244D00E0FF8FE2900203E0FF8FE3900204E0FFD4
:10245D008FE475E50275E78075E64675E6B900759A
:10246D00E50075E700900204E004F07006900203A9
:10247D00E004F0124173900201E004F07006900246
:10248D0000E004F0809AE51954FEFE7F00900203EF
:10249D00EEF0A3EFF0900200E4F0A3E4F090020060
:1024AD00E0FEA3E0FFC3EE94025078900203E0FF3C
:1024BD008FE3900204E0FF8FE475E50175E7807509
:1024CD00E64675E6B975E50075E700900204E0048F
:1024DD00F07006900203E004F0124173900200E0E8
:1024ED00FEA3E0FF74002FF58274003EF583E0FF3C
:1024FD00EF65E2601D900202E004F0900202E0FF41
:10250D007E00C3EF9403EE64809480501B0223F988
:10251D008016900201E004F07006900200E004F0D5
:10252D000224AA900202E4F0A20292AF900202E00D
:01253D00FF9E
:01253E00227A
:1012C900787D7600907FF9E493FF900222EFF09009
:1012D9000222E0FF7E00D3EF9401EE648094804007
:1012E90005900222E4F0900205E4F0907FFBE4937C
:1012F900FF900206EFF0907FFCE493FF900207EF66
:10130900F0907FFDE493FF900208EFF07F007E00EC
:101319007D007C00900205E0F8A3E0F9A3E0FAA3C0
:10132900E0FBC3120672601C7FFF7EFF7DFF7C001D
:10133900900205E0F8A3E0F9A3E0FAA3E0FBC312E9
:101349000672700A9002051206A2000000009002BF
:1013590005E0FCA3E0FDA3E0FEA3E0FF9002181264
:101369000696907FFAE493FF787DA607787DE6FFDD
:101379007E00C3E49FEE6480F8E464809840030231
:1013890014DA787DE6FF7E00D3EF940AEE64809448
:101399008040030214DA787DE6FF9002EAEFF078E4
:1013A9007DE6FF7E96EF8EF0A4FFAEF0E4FCFDEF44
:1013B9002478FFEE3463FEED3465FDEC3419FC90BE
:1013C9000233120696900233E0FCA3E0FDA3E0FE8F
:1013D900A3E0FF7B017A0279C6121BF2787DE6FF52
:1013E9007E96EF8EF0A4FFAEF0E4FCFDEF2430FF13
:1013F900EE34B0FEED346FFDEC3419FC900233127B
:101409000696900233E0FCA3E0FDA3E0FEA3E0FF13
:101419007B017A0279BE121BF2787DE6FF7E96EF98
:101429008EF0A4FFAEF0E4FCFDEF24D8FFEE34B05B
:10143900FEED3494FDEC3419FC90023312069690BB
:101449000233E0FCA3E0FDA3E0FEA3E0FF7B017A09
:101459000279D6121BF2787DE6FF7E96EF8EF0A414
:10146900FFAEF0E4FCFDEF2470FFEE345CFEED34DA
:1014790097FDEC3419FC900233120696900233E082
:10148900FCA3E0FDA3E0FEA3E0FF7B017A0279B6AD
:10149900121BF2787DE6FF7E96EF8EF0A4FFAEF088
:1014A900E4FCFDEF24B0FFEE3469FEED349AFDEC67
:1014B9003419FC900233120696900233E0FCA3E043
:1014C900FDA3E0FEA3E0FF7B017A0279CE121BF2B5
:1014D90022787DE6FF7E00C3740A9FEE6480F8E4FB
:1014E900648098400302165E787DE6FF7E00D3EFA4
:1014F9009414EE64809480400302165E787DE6FFC2
:101509009002EAEFF0787D74F626F6787DE6FF7EA4
:1015190096EF8EF0A4FFAEF0AB07AA06E4F9F8C384
:1015290074789BFF74639AFE746599FD741998FC2D
:10153900900233120696900233E0FCA3E0FDA3E08B
:10154900FEA3E0FF7B017A0279C6121BF2787DE6E1
:10155900FF7E96EF8EF0A4FFAEF0AB07AA06E4F982
:10156900F8C374309BFF74B09AFE746F99FD7419B7
:1015790098FC900233120696900233E0FCA3E0FD3A
:10158900A3E0FEA3E0FF7B017A0279BE121BF27889
:101599007DE6FF7E96EF8EF0A4FFAEF0AB07AA06BC
:1015A900E4F9F8C374D89BFF74B09AFE749499FD5A
:1015B900741998FC900233120696900233E0FCA34A
:1015C900E0FDA3E0FEA3E0FF7B017A0279D6121BBE
:1015D900F2787DE6FF7E96EF8EF0A4FFAEF0AB07C2
:1015E900AA06E4F9F8C374709BFF745C9AFE7497B9
:1015F90099FD741998FC900233120696900233E013
:10160900FCA3E0FDA3E0FEA3E0FF7B017A0279B62B
:10161900121BF2787DE6FF7E96EF8EF0A4FFAEF006
:10162900AB07AA06E4F9F8C374B09BFF74699AFE84
:10163900749A99FD741998FC9002331206969002D7
:1016490033E0FCA3E0FDA3E0FEA3E0FF7B017A0207
:0516590079CE121BF226
:01165E002269
:0A4153008F60AF601560EF70F92275
:104044004385404385905385FC7584005385F7531D
:0B40540085DF5385FB53A2DFD29422CE
:10405F008F61E58420E5FB856186E5845480FF7ED2
:0B406F0000EF4E60F5438480AF862216
:103E13008F598D5A7F01124153C2947F011241532E
:103E2300E55925E0FFEF4401F559AF5912405FAF63
:103E33005A12405F7F01124153D2947F01124153C2
:013E4300225C
:023CCD008F6204
:103CCF009003BDE4F07F01124153C2947F01124172
:103CDF0053E56225E0F562AF6212405F7FFF12404D
:103CEF005F9003BDEFF07F01124153D2947F011219
:073CFF0041539003BDE0FFFB
:013D0600229A
:08363F008F378B388A39893A74
:103647009003BEE4F07F01124153C2947F011241FF
:1036570053E53725E0FFEF4401F537AF3712405FF9
:10366700AB38AA39A93A1204A1FF12405F9003BEF2
:103677007401F09003BEE0FFEFC3953B50247F0237
:10368700124153AB38AA39A93A9003BEE0FF8F82A3
:103697007583001204BAFF12405F9003BEE004F086
:0E36A70080D17F01124153D2947F0112415312
:0136B50022F2
:1019EF00016E00016F0048020A00000000000000B5
:1019FF0000440233196563780171000172000170B0
:101A0F0000016D0041024300410245006028027C45
:101A1F0000000000000000000000000000000000B7
:101A2F0000000000000000000000000000000000A7
:101A3F0000000000000000004402180000000044F5
:101A4F0002270000000041024B0042021200004139
:101A5F00023E004102440042022F00004202660093
:101A6F000041024200420262000041024100410275
:101A7F003D00410217004102610041023100410265
:101A8F00240050026C000000000000000000000065
:101A9F000000000000500251000000000000000094
:101AAF0000000000000000004102320041023C0033
:101ABF0041022D0042023700004202B000004102F5
:101ACF003B0041024A0041022E004102090042023E
:101ADF002B000042022500004102220042023F007B
:101AEF00004202640000410214004102A4004902B6
:101AFF00A700000000000000000041024900420260
:101B0F00A5000042021500004402680000000042D8
:101B1F0002460000410248004102230044021E0019
:101B2F0000000042021C000042024F000042023936
:0B1B3F00000041024C0042024D00007B
:103856009002617464F0900243741AF0900243E09F
:10386600FFEF14FF900231EFF012410C90022D741D
:10387600FFF090023274FFF090023CE4F07870E6BC
:10388600FFEF4440FF7870A6077870E6FFEF547F9D
:10389600FF7870A607123BDE9002B0E4F0A3E4F0D6
:0938A600900264E4F0A3E4F022B6
:101B4A004302E60000004802C623081999230791B8
:101B5A00114802B6230C7777230BEEEF4802CE2307
:101B6A000CBBBC230C33334802BE230900002308F4
:101B7A0077774802D6230C3BBC230BB3334102B41C
:101B8A0000602802EC0000000000000000000000D5
:101B9A00000000000000000000000000000000003B
:101BAA00000000000000000000000000004102EBFD
:101BBA00014102B500410330014102B3004102E98B
:101BCA00004102B2004102EA004802DE00000000C1
:041BDA000000000007
:100EF4008B3C8A3D893E8D3F1240E812415D7F0D57
:100F0400123CCD7E00EF30E0F5800280F17D117F50
:100F140000123E137DFF7F01123E137D9F7F02125C
:100F24003E137DC37F03123E137D037F04123E13E1
:100F34007D107F05123E137D007F06123E137D1542
:100F44007F07123E137D007F08123E137D007F0948
:100F5400123E137D187F0A123E137D887F0B123ECA
:100F6400137D007F0C123E137D087F0D123E137D0E
:100F7400007F0E123E137D007F0F123E137D007F13
:100F840010123E137D007F11123E137D007F12125A
:100F94003E137D007F13123E137D007F14123E1317
:100FA4007D007F15123E137D007F16123E137D00D7
:100FB4007F17123E137D007F18123E137D007F19A8
:100FC400123E137D007F1A123E137D067F2D123EC2
:100FD400137D057F3F123E137D8B7F41123E137DAF
:100FE400007F42123E137D347F43123E137D087FFF
:100FF40045123E137D007F4E123E137D007F4F123B
:101004003E137D007F50123E137D007F51123E132C
:101014007D147F54123E137D067F60123E137D883B
:101024007F63123E137D027F67123E137D107F683B
:10103400123E137D007F69123E137D5B7F6E123E6C
:10104400137D007F7A123E137D0C7F7B123E137D4D
:10105400007F7D123E13AD407F7E123E137D227FC2
:1010640000123E137D077F02123E137DD07F0312D0
:101074003E137D007F04123E137D507F05123E1304
:101084007D277F11123E137D0C7F13123E137D02C8
:101094007F1A123E13AB3CAA3DA93E1204A1FD7F68
:1010A4001B123E13AB3CAA3DA93E75820175830019
:1010B4001204BAFD7F1C123E13AB3CAA3DA93E7537
:1010C40082027583001204BAFD7F1D123E13AB3CED
:1010D400AA3DA93E7582037583001204BAFD7F1EE2
:1010E400123E13AB3CAA3DA93E1204A1FD7F1F1280
:1010F4003E13AB3CAA3DA93E7582017583001204E0
:10110400BAFD7F20123E13AB3CAA3DA93E75820274
:101114007583001204BAFD7F21123E13AB3CAA3D35
:10112400A93E7582037583001204BAFD7F22123E24
:10113400137D087F23123E137D887F24123E137D86
:10114400087F25123E137D0F7F26123E137D007FFC
:1011540027123E137D007F28123E137D007F291243
:101164003E13AD3F7F2A123E137D087F2F123E139C
:101174007D007F30123E137DC07F31123E13AB3CA5
:10118400AA3DA93E7582047583001204BAFD7F4D01
:10119400123E13AB3CAA3DA93E758205758300122D
:1011A40004BAFD7F4E123E13AB3CAA3DA93E7582A4
:1011B400067583001204BAFD7F4F123E13AB3CAA9E
:1011C4003DA93E7582077583001204BAFD7F501253
:1011D4003E137D047F51123E137D5A7F52123E13FB
:1011E4007D667F53123E137D157F5C123E137D1B7B
:1011F4007F5D123E137D057F5E123E137D677F5F28
:10120400123E137D0C7F60123E13123DE17D447F3C
:1012140000123E137D0F7F2A123E137D447F00127D
:101224003E137D007F4F123E137D887F00123E13D4
:101234007D3F7F2F123E137D417F0C123E137D3381
:101244007F0D123E137D547F0E123E137D107F14CA
:10125400123E137D037F24123E137D007F7E123ED7
:10126400137F707E5C7D977C19900233E0F8A3E0D5
:10127400F9A3E0FAA3E0FBC3120672601C7FB07E00
:10128400697D9A7C19900233E0F8A3E0F9A3E0FAAF
:10129400A3E0FBC3120672700512327C8003123382
:1012A400FC7D117F00123E137D017F6F123E137F80
:1012B4000D123CCD7E00EF30E1F5800280F112404A
:0512C4000B1240A922FD
:1039F1008F637D117F00123E13E5631206D33A0FE8
:103A0100003A18013A21023A2A0300003A337D2193
:103A11007F76123E1380227D117F76123E1380192C
:103A21007D097F76123E1380107D057F76123E134D
:0F3A310080077D037F76123E137F09122EDD2260
:102FCC00787E76007F0F123CCD787EA607787EE661
:102FDC00FFEF5401FF7E00EF64014E60030230B836
:102FEC00787EE6FF7E00EF64FF4E70030230B87807
:102FFC006EE6FFEF4440FF786EA6077F01123D405E
:10300C007871E6FFEF5401FF7E00EF64014E600320
:10301C000230B890023EE0FF7E00C3EF9403EE64F2
:10302C00809480503D786EE6FFEFC413135403FF79
:10303C00EF5401FF7E00EF64014E7026786EE6FFC0
:10304C00EF54BFFF786EA6077B017A02797C900261
:10305C002FE0FEA3E0FFAD07123C1B90023EE00404
:10306C00F02290023EE0FF7E00EF64034E703D784C
:10307C006EE6FFEFC413135403FFEF5401FF7E0001
:10308C00EF64014E7026786EE6FFEF54BFFF786E4A
:10309C00A6077871E6FFEF54FEFF7871A607C2A76A
:0C30AC007F03122EDDC2B41240FAD2B530
:0130B80022F5
:0B41480030B507C2B57F021240932281
:10407A0030B515C2B57F021240937B017A0279C628
:09408A0075400C7D15120EF422A4
:103ED5008F647D117F00123E13AF647E00EF641086
:103EE5004E6014AF647E00EF64124E600AAF647ECC
:0F3EF50000EF641A4E7007AD647F0A123E13226D
:022EDD008F65FF
:102EDF009003AFE4F07D117F00123E137F0B123C85
:102EEF00CDEFC4540FFF9003AFEFF09003AFE0FFAF
:102EFF00EF65657003022FC6AF657E00EF64094E64
:102F0F006021AF657E00EF64064E6017AF657E00EF
:102F1F00EF64084E600DAF657E00EF64034E6003F3
:102F2F00022FC6AD657F0B123E13123B609003AFAD
:102F3F00EFF09003AFE0FF7E00EF4E606BAF657E6A
:102F4F0000EF64034E6061900233E0FCA3E0FDA349
:102F5F00E0FEA3E0FF7B017A0279DE121BF2124141
:102F6F00737F407E057D927C19900233E0F8A3E0D9
:102F7F00F9A3E0FAA3E0FBC312067250107B017AAB
:102F8F000279DE75400C7D55120EF4800E7B017AAE
:102F9F000279DE75401C7D55120EF4124173AD653A
:102FAF007F0B123E13123B607F0B123CCDEFC454CC
:0C2FBF000FFF9003AFEFF09003AFE0FFB6
:012FCB0022E3
:103B60009003B0E4F0A3E4F07D117F00123E137FD8
:103B70000D123CCDEF30E30A7D007F0D123E137F26
:103B800000229003B0E475F001120531AFF0FED3CE
:103B9000EF9488EE941340037F012212417380CF8B
:013BA0002202
:103D40008F667D117F00123E13AF667E00EF640127
:103D50004E700F7D007F0F123E137D817F16123E45
:103D60001322AF667E00EF4E700E7D007F0E123E76
:093D7000137D827F16123E13221E
:10400B007D117F00123E137D007F0D123E137D004C
:0D401B007F0E123E137D007F0F123E132218
:10327C007D117F00123E137D227F06123E137D15B9
:10328C007F07123E137D1E7F66123E137D227F0048
:10329C00123E137D937F0C123E137D357F0D123E33
:1032AC00137D277F11123E137D0C7F13123E137D6D
:1032BC00087F2F123E137D507F56123E137D407FA8
:1032CC0057123E137D017F58123E137D147F591205
:1032DC003E137D007F5A123E137D007F5B123E131E
:1032EC007D157F5C123E137D0D7F5D123E137D05B7
:1032FC007F5E123E137D677F5F123E137D097F60F8
:10330C00123E137D887F00123E137D417F0C123ECE
:10331C00137D337F0D123E137D547F0E123E137DB1
:10332C00107F14123E137D037F24123E137D117FF8
:05333C0000123E132207
:1033FC007D117F00123E137D007F06123E137D1E51
:10340C007F66123E137D227F00123E137D937F0C4C
:10341C00123E137D357F0D123E137D277F11123E18
:10342C00137D0C7F13123E137D087F2F123E137DEC
:10343C00407F57123E137D017F58123E137D147F3F
:10344C0059123E137D007F5A123E137D007F5B1292
:10345C003E137D157F5C123E137D1B7F5D123E1368
:10346C007D057F5E123E137D677F5F123E137D0CE0
:10347C007F60123E137D887F00123E137D417F0CCE
:10348C00123E137D337F0D123E137D547F0E123E80
:10349C00137D107F14123E137D037F24123E137D87
:0734AC00117F00123E132204
:0A415D00C2B47F02124093D2B422D4
:102869008B458A4689478D48786EE6FFEF4408FF15
:10287900786EA6077F00122EDD7E00EF64084E6099
:10288900057F03122EDD7D227F00123E13AB45AA80
:1028990046A9471204A1FD7F1B123E13AB45AA4668
:1028A900A9477582017583001204BAFD7F1C123E87
:1028B90013AB45AA46A9477582027583001204BA6B
:1028C900FD7F1D123E13AB45AA46A94775820375C4
:1028D90083001204BAFD7F1E123E13AB45AA46A916
:1028E900471204A1FD7F1F123E13AB45AA46A94713
:1028F9007582017583001204BAFD7F20123E13AB65
:1029090045AA46A9477582027583001204BAFD7F5C
:1029190021123E13AB45AA46A94775820375830068
:102929001204BAFD7F22123E13AB45AA46A9477588
:1029390082047583001204BAFD7F4D123E13AB4524
:10294900AA46A9477582057583001204BAFD7F4E10
:10295900123E13AB45AA46A9477582067583001234
:1029690004BAFD7F4F123E13AB45AA46A9477582AB
:10297900077583001204BAFD7F50123E137D227F32
:1029890000123E137D087F25123E137D557F2A12C2
:102999003E13AF487E00EF64014E70051233FC8090
:1029A9000DAF487E00EF64024E700312327C7D0148
:1029B9007F6F123E137F0D123CCD7E00EF30E1F5A3
:1029C900800280F17D117F00123E13786EE6FFEFE1
:0829D90054F7FF786EA60722F7
:1040A9007D117F00123E137D077F4E123E137D0165
:0640B9007F12123E1322EB
:103C1B008B498A4A894B8D4CAF4C7E00D3EF944035
:103C2B00EE648094804003754C407D117F00123E02
:103C3B0013AD4C7F7B123E137F10123ED5AB49AABE
:0C3C4B004AA94B854C3B7F7C12363F227F
:0E1BF2008F2D8E2C8D2B8C2A8B2E8A2F8930D6
:101C00009003B2E4F09003B31206A200000000902B
:101C100003B71206A2000000007B007A1B79B77898
:101C200000AF2DAE2CAD2BAC2A1205D29003B2EF33
:101C3000F0AF2DAE2CAD2BAC2AE41202EC7B007A77
:101C40001B7937784B12024FC004C005C006C0078D
:101C50009003B2E0FCE41202F6A804A905AA06ABC0
:101C600007D007D006D005D0041200519003B3125C
:101C700006967F007E007D807C499003B3E0F8A348
:101C8000E0F9A3E0FAA3E0FB12014612032A900355
:101C9000B71206969003B2E0FFAB2EAA2FA930EF41
:101CA0001204E79003B7E0FCA3E0FDA3E0FEA3E08D
:101CB000FF7810120683EF54FFFFEE5400FEED5440
:101CC00000FDEC5400FCAB2EAA2FA93075820175E3
:101CD0008300EF1204F99003B7E0FCA3E0FDA3E05A
:101CE000FEA3E0FF7808120683EF54FFFFEE5400D6
:101CF000FEED5400FDEC5400FCAB2EAA2FA930756C
:101D00008202758300EF1204F99003B7E0FCA3E0B0
:101D1000FDA3E0FEA3E0FFEF54FFFFEE5400FEED55
:101D20005400FDEC5400FCAB2EAA2FA930758203A1
:101D3000758300EF1204F9E52D2480F52DE52C3490
:101D4000E5F52CE52B34F9F52BE52A34FFF52A7B54
:101D5000007A1B79B77800AF2DAE2CAD2BAC2A12D0
:101D600005D29003B2EFF0AF2DAE2CAD2BAC2AE430
:101D70001202EC7B007A1B7937784B12024FC004B9
:101D8000C005C006C0079003B2E0FCE41202F6A84A
:101D900004A905AA06AB07D007D006D005D00412C7
:101DA00000519003B31206967F007E007D807C492F
:101DB0009003B3E0F8A3E0F9A3E0FAA3E0FB12017B
:101DC0004612032A9003B71206969003B2E0FFABC7
:101DD0002EAA2FA930758204758300EF1204F990A2
:101DE00003B7E0FCA3E0FDA3E0FEA3E0FF78101240
:101DF0000683EF54FFFFEE5400FEED5400FDEC545B
:101E000000FCAB2EAA2FA930758205758300EF1256
:101E100004F99003B7E0FCA3E0FDA3E0FEA3E0FF1C
:101E20007808120683EF54FFFFEE5400FEED5400D5
:101E3000FDEC5400FCAB2EAA2FA9307582067583E9
:101E400000EF1204F99003B7E0FCA3E0FDA3E0FE6D
:101E5000A3E0FFEF54FFFFEE5400FEED5400FDEC55
:101E60005400FCAB2EAA2FA930758207758300EFB2
:031E70001204F960
:011E7300224C
:103DE1007D227F00123E137D5A7F07123E137D8A8A
:103DF1007F0C123E137D267F0D123E137D037F1033
:103E0100123E137D837F15123E137D117F00123EFA
:023E110013227A
:1040280043920143C48053C31F53C3FC43C310537B
:0C403800C3FB53BB9F53C4D843AD02220E
:03004B000230B9C7
:1030B900C0E0C0F0C083C082C0D075D000C000C0DD
:0D30C90001C002C003C004C005C006C0075E
:1030D6009003BFE5C6F09003C0E5C5F0900268E036
:1030E600F8A3E0F9A3E0FAA3E0FB9003BFE0FEA398
:1030F600E0FFEE540FFEE4FCFDEB2FFFEA3EFEE997
:103106003DFDE83CFC900268120696900248E004F9
:10311600F053C4EF43C408900248E0FF7E00C3EFBB
:103126009414EE64809480405653ADFD53C47F9052
:103136000248E4F07B147A0079007800900268E097
:10314600FCA3E0FDA3E0FEA3E0FF1205D290024639
:10315600EEF0A3EFF0900246E0FEA3E0FFAB07AA75
:1031660006E4F9F87F007E107D0E7C00123B1C9071
:0F317600021E1206969002681206A200000000C8
:10318500D007D006D005D004D003D002D001D0009E
:0B319500D0D0D082D083D0F0D0E03248
:04417B0043C408220F
:1036B60090024DE0FEA3E0FFEF4E60677F607E095B
:1036C6007D007C0090021EE0F8A3E0F9A3E0FAA3D7
:1036D600E0FBD31206724006900223E4F0227F60DC
:1036E6007E097D007C0090021EE0F8A3E0F9A3E0CD
:1036F600FAA3E0FBD312067250237F987E087D0062
:103706007C0090021EE0F8A3E0F9A3E0FAA3E0FB38
:10371600D312067240079002237401F0229002230E
:043726007402F02217
:101BDE001108FBBFDFEFF79FAFB7BBCFDBEBE7F330
:031BEE00FDFEFFFA
:1020DF007871E6FFEF20E6030223127871E6FFEF37
:1020EF0054BFFF7871A60790024DE0FEA3E0FFEF0B
:1020FF004E600E90024EE024FFF090024DE034FF50
:10210F00F09002A5E0FEA3E0FFEF4E600E9002A656
:10211F00E024FFF09002A5E034FFF0900225E0FEEE
:10212F00A3E0FFEF4E600E900226E024FFF0900236
:10213F0025E034FFF0900264E0FEA3E0FFEF4E6075
:10214F000E900265E024FFF0900264E034FFF090FF
:10215F00022BE0FEA3E0FFEF4E601090022CE02474
:10216F00FFF090022BE034FFF0800C786DE6FFEF6C
:10217F0054F7FF786DA607786DE6FFEF30E33590E3
:10218F00022BE0FEA3E0FFEF4E6029900240E00437
:10219F00F0700690023FE004F090023FE0FEA3E0F3
:1021AF00FFC3EF9464EE9400400A90023FE4F0A363
:1021BF00E4F0B2A79002B0E0FEA3E0FFEF4E600E96
:1021CF009002B1E024FFF09002B0E034FFF09002F3
:1021DF0066E0FEA3E0FFEF4E604E900267E024FF43
:1021EF00F0900266E034FFF07872E6FFEFC313FF62
:1021FF00EF5401FF7E00EF4E60030222F07872E68B
:10220F00FFEF4402FF7872A6077872E6FFEF54FBE8
:10221F00FF7872A60712417F7872E6FFEF20E30383
:10222F000222F0D2A70222F0900242E0FFEF6044B8
:10223F00900242E014F07872E6FFEF1313543FFF61
:10224F00EF5401FF7E00EF4E60030222F07872E63A
:10225F00FFEF4404FF7872A6077872E6FFEF54FD94
:10226F00FF7872A6071200067872E6FFEF30E3716F
:10227F00C2A7806D90023DE0FFEF605990023DE0F4
:10228F0014F0900262E0FEA3E0FF900266EEF0A36E
:10229F00EFF0900241E0FF900242EFF07872E6FF1C
:1022AF00EFC313FFEF5401FF7E00EF4E70337872D0
:1022BF00E6FFEF4402FF7872A6077872E6FFEF544D
:1022CF00FBFF7872A60712417F7872E6FFEF30E3CB
:1022DF0010D2A7800C7872E6FFEF54F7FF7872A642
:1022EF000712165F786DE6FFEFC4135407FFEF5424
:1022FF0001FF7E00EF64014E60091229E1120B16F7
:04230F0012417322E2
:10353F007871E6FFEF30E7497871E6FFEF547FFFD0
:10354F007871A60790024CE0FFEF600690024CE006
:10355F0014F07871E6FFEFC4135407FFEF5401FF27
:10356F007E00EF64014E7019900231E0FFEF6011A1
:10357F0090024AE0FF7E00EF4E7006900231E01499
:10358F00F09003BBE0FEA3E0FFEF4E702A7871E6E8
:10359F00FFEF5401FF7E00EF64014E701A7871E661
:1035AF00FFEF54FEFF7871A607C2A77F03122EDD2F
:0835BF00C2B41240FAD2B52299
:10165F0090023CE4F090023274FFF0900223E0FF1E
:10166F007E00EF64024E700302194FA292E433FF23
:10167F00123FA9A291E433FF123FA9A2A5E433FFC1
:10168F00123FA97F01123FA9A2A1E433FF123FA984
:10169F007F01123FA97F01123FA990022DE0FF9019
:1016AF000232E0FEEE6F6025900232E0FF90022DD5
:1016BF00EFF012410C123BDE90021C7413F0A37476
:1016CF0088F090024F7427F0A37474F022900237C1
:1016DF0074FF75F0FF12051BAFF0FEEF4E600302B3
:1016EF00194F900237E4F0A37401F0900232E0FF3B
:1016FF007E00EF64FF4E70030217EC90021CE0FEB9
:10170F00A3E0FFEF4E600E90021DE024FFF0900269
:10171F001CE034FFF090024FE0FEA3E0FFEF4E60BD
:10172F000E900250E024FFF090024FE034FFF012D1
:10173F00407A900223E0FF7E00EF64014E6017783D
:10174F006DE6FFEF20E60F90024FE0FEA3E0FFEF04
:10175F004E60030217EC786DE6FFEFC413135403CA
:10176F00FFEF5401FF7E00EF4E705A786DE6FFEFEA
:10177F004440FF786DA60790024FE0FEA3E0FFEF15
:10178F004E7011900262E4F0A37467F090024174FE
:10179F0067F0800F900262E4F0A37428F09002418A
:1017AF00743CF0900262E0FEA3E0FF900266EEF060
:1017BF00A3EFF0900241E0FF900242EFF090023D64
:1017CF007402F0801890023DE0FF7E00D3EF940189
:1017DF00EE64809480500690023D7402F0787F761C
:1017EF0000787FE6FF7E00C3EF9411EE6480948053
:1017FF005023787FE6FF74082FF8E6FF900232E05F
:10180F00FEEEB5070B787FE6FF90023BEFF0800509
:10181F00787F0680CC787FE6FF7E00900239EEF06D
:10182F00A3EFF0786DE6FFEFC4135407FFEF5401F9
:10183F00FF7E00EF64014E700302194F787FE6FFC1
:10184F007E00EF64114E701F7870E6FFEF54BFFFFC
:10185F007870A607123BDE7870E6FFEF4480FF78C2
:10186F0070A607123F83227870E6FFEF30E75D9096
:10187F000232E0FF7E00EF64FF4E6050787FE6FF9C
:10188F007E00EF64054E6033787FE6FF7E00EF64E5
:10189F00064E6027787FE6FF7E00EF64074E601BE1
:1018AF00787FE6FF7E00EF64094E600F787FE6FFDA
:1018BF007E00EF640C4E600302194F7871E6FFEF64
:1018CF005401FF7E00EF4E7077800122787FE6FF94
:1018DF00EF1206D3191A00191E01191E02191E0341
:1018EF00191E041930051930061930071934081953
:1018FF00300919380A193C0B19300C19400D1944CD
:10190F000E19480F194C100000194F1231A02278F0
:10191F0071E6FFEF5401FF7E00EF4E7023121E742D
:10192F0022123E44221237FA221239A12212390111
:10193F00221239512212002222124182221238AF72
:01194F002275
:103E4400123F8390023CE4F090023BE0FF90023B7F
:103E5400E0FD12253F123BDE7870E6FFEF54BFFF12
:103E64007870A6077870E6FFEF4480FF7870A607A5
:013E7400222B
:1037FA00123F837870E6FFEF54BFFF7870A6077810
:10380A0070E6FFEF20E23F7870E6FFEF4404FF78AE
:10381A0070A6079002B0740BF0A374B8F07871E642
:10382A00FFEFC4135407FFEF5401FF7E00EF4E7001
:10383A001A7871E6FFEF4420FF7871A607D2E89064
:0C384A000231744EF0227F08123DAD22C6
:10390100123F837870E6FFEF20E33F7870E6FFEF28
:103911004408FF7870A6079002B0740BF0A374B846
:10392100F07871E6FFEFC4135407FFEF5401FF7EF7
:1039310000EF4E701A7871E6FFEF4420FF7871A610
:1039410007D2E8900231744EF0227F0B123DAD2276
:10395100123F837870E6FFEF20E43F7870E6FFEFD7
:103961004410FF7870A6079002B0740BF0A374B8EE
:10397100F07871E6FFEFC4135407FFEF5401FF7EA7
:1039810000EF4E701A7871E6FFEF4420FF7871A6C0
:1039910007D2E8900231744EF0227F0D123DAD2224
:1039A100123F837870E6FFEF20E13F7870E6FFEF8A
:1039B1004402FF7870A6079002B0740BF0A374B8AC
:1039C100F07871E6FFEFC4135407FFEF5401FF7E57
:1039D10000EF4E701A7871E6FFEF4420FF7871A670
:1039E10007D2E8900231744EF0227F0A123DAD22D7
:103DAD008F679002B0E0FEA3E0FFEF4E602590021A
:103DBD00B074FF75F0FF12051BAFF0FEEF4E7013E0
:103DCD007D00AF6712253F786DE6FFEF4480FF78E9
:043DDD006DA60722A6
:1031A000123F837870E6FFEF20E60302323F78702B
:1031B000E6FFEF54BFFF7870A60790023C7405F05D
:1031C000123BDE7870E6FFEF4401FF7870A60790AF
:1031D00002B0740BF0A374B8F0900264E0FEA3E0B8
:1031E000FFEF4E70397871E6FFEFC4135407FFEF1D
:1031F0005401FF7E00EF4E70147871E6FFEF44201B
:10320000FF7871A607D2E89002317433F09002641F
:103210007427F0A37410F09002147402F02290024C
:1032200014E014FFF0EF70537F01123F5C90023CFA
:10323000E4F07870E6FFEF4480FF7870A60722780C
:1032400070E6FFEF30E0349002B0E0FEA3E0FFEF65
:103250004E60289002B074FF75F0FF12051BAFF0AE
:10326000FEEF4E70167F02123F5C90023CE4F07855
:0C32700070E6FFEF4480FF7870A6072294
:101E7400120026EF7003021F8B786DE6FFEF20E05F
:101E840013786DE6FFEF20E10B786DE6FFEF20E2BB
:101E9400030220DE9002B0E0FEA3E0FFEF4E6003F9
:101EA4000220DE786DE6FFEFC413135403FFEF54F2
:101EB40001FF7E00EF4E60030220DE90021CE0FE74
:101EC400A3E0FFEF4E60030220DE786DE6FFEF2013
:101ED400E008786DE6FFEF30E21890024A740AF0E9
:101EE40090023CE4F07870E6FFEF4480FF7870A63F
:101EF400072290024A7401F07B017D677F677E00B0
:101F0400123A407872E6FFEF4408FF7872A6077829
:101F140071E6FFEFC4135407FFEF5401FF7E00EF97
:101F24004E70187871E6FFEF4420FF7871A607D24F
:101F3400E8900243E0FF900231EFF0900225740F25
:101F4400F0A374A0F090023CE4F07870E6FFEF5444
:101F5400BFFF7870A6077870E6FFEF4480FF7870C3
:101F6400A6077870E6FFEF4420FF7870A607786D27
:101F7400E6FFEF20E0030220DE7870E6FFEF54DF97
:101F8400FF7870A607222290023BE0FF90023CEF0C
:101F9400F090024AE0FFEF60030220DE9002A4E02A
:101FA400FFEF60012290023CE0FFEF1206D31FBF57
:101FB400011FD7021FEF0300002005786DE6FFEF35
:101FC4004401FF786DA6079002B07413F0A37488DF
:101FD400F0802E786DE6FFEF4402FF786DA607903F
:101FE40002B07413F0A37488F08016786DE6FFEFE6
:101FF4004404FF786DA6079002B07413F0A37488AC
:10200400F0900222E0FFEF600D90023CE0FF7E00C2
:10201400EF64044E7019123F8390023BE0FF90027C
:102024003BE0FD12253F900264E4F0A3E4F022902B
:10203400024AE0FFEF60030220DE9002A4E0FFEF1B
:1020440060012290023CE0FF7E00EF64024E703794
:10205400123F8390023BE0FF90023BE0FD12253FDC
:10206400900264E4F0A3E4F0786DE6FFEF4408FF27
:10207400786DA60790022B740BF0A374B8F090024D
:102084003FE4F0A3E4F02290023CE0FFEF1206D319
:10209400209E01209E03000020DE786DE6FFEF30D5
:1020A400E33890022BE0FEA3E0FFEF4E602C786D46
:1020B400E6FFEF54F7FF786DA60790022BE4F0A338
:1020C400E4F090023BE0FF90023BE0FD12253F90DC
:0B20D4000264E4F0A3E4F0123F83225A
:0100220022BB
:01418200221A
:1038AF00786DE6FFEF54FEFF786DA607786DE6FFA3
:1038BF00EF54FDFF786DA607786DE6FFEF54FBFF21
:1038CF00786DA607786DE6FFEF54BFFF786DA607FA
:1038DF00123BDE7870E6FFEF4440FF7870A6077862
:1038EF0070E6FFEF547FFF7870A60790023C74FFDD
:0238FF00F022B5
:10410C00900237E4F0A3740AF09002B0E4F0A3E458
:02411C00F0228F
:103BDE007870E6FFEF54FEFF7870A6077870E6FF68
:103BEE00EF54FDFF7870A6077870E6FFEF54FBFFE9
:103BFE007870A6077870E6FFEF54F7FF7870A60787
:0D3C0E007870E6FFEF54EFFF7870A60722F4
:103F830090024AE4F090022E7402F0900209740247
:103F9300F090022BE0FEA3E0FFEF4E600890022BAF
:063FA300E4F0A3E4F022AB
:100026007870E6FFEF20E6037F01227870E6FFEFA7
:1000360054BFFF7870A6079002B0E4F0A3E4F01274
:050046003BDE7F0022FB
:04253F008F548D55D3
:10254300900245E0FF7E00C3EF9445EE64809480E3
:10255300505A7871E6FFEFC4135407FFEF5401FF9D
:102563007E00EF64014E7044900231E0FF7E00C3B1
:10257300EF9419EE648094805032900231E0FFC3EF
:1025830074199FF556900245E02556F0900245E0F8
:10259300FF7E00C374459FFFE49EFEC3EF941BEED2
:1025A3006480948040069002317419F0900231E007
:1025B300FF7E00C3EF9419EE64809480500E900266
:1025C3004CE0FF7E00EF4E60030226EC7871E6FFDD
:1025D300EFC4135407FFEF5401FF7E00EF4E701852
:1025E3007871E6FFEF4420FF7871A607D2E89002E6
:1025F30043E0FF900231EFF0E5541206D3262201A7
:10260300262A02263203263A04264A05265206269D
:102613005A0726620926420A266A0C000026709091
:10262300024B7408F0804690024B7404F0803E9095
:10263300024B7402F0803690024B7401F0802E90AE
:10264300024B7414F0802690024B740CF0801E90A1
:10265300024B740AF0801690024B7409F0800E90BE
:10266300024B7406F0800690024B7403F0E555129A
:1026730006D326880126950226A20326AF0426BC8C
:1026830014000026C77B007D677F677E00123A40F7
:1026930080327B017D677F677E00123A4080257B15
:1026A300027D677F677E00123A4080187B007D01C0
:1026B3007FF47E01123A40800B7B007D017FE87E30
:1026C30003123A401241489002331206A21965637D
:1026D300787B017A0279C675400C7D15120EF412CF
:0B26E3002CC190024C7419F022C2A719
:0126EE0022C9
:100B160090024AE0FFEF1206D30B41010B70020B65
:100B2600C5030C3F040C76050CFC060D33070DB906
:100B3600080DB9090EE80A00000EF37870E6FFEF1B
:100B460020E7119002257403F0A374E8F090024A9E
:100B5600E004F022900225E0FEA3E0FFEF4E6003E2
:100B6600020EF390024A740AF022900225E0FEA3D8
:100B7600E0FFEF4E702790024AE004F090022574E1
:100B86000BF0A374B8F07B007D677F677E00123A96
:100B9600407872E6FFEF4408FF7872A60790023CA1
:100BA600E0FF7E00EF4E7003020EF390023CE0FF82
:100BB6007E00EF64FF4E7003020EF3123F83229015
:100BC6000225E0FEA3E0FFEF4E7004123F83229061
:100BD600023CE0FF7E00EF4E7003020EF390023CF3
:100BE600E0FF7E00EF64FF4E7001227870E6FFEFB3
:100BF60030E52390023CE0FF7E00EF64024E701168
:100C06009002257403F0A374E8F090024AE004F021
:100C160022123F83222290023CE0FF7E00EF640115
:100C26004E70119002257403F0A374E8F090024A06
:100C3600E004F022123F832222900225E0FEA3E088
:100C4600FFEF4E6003020EF390024AE004F09002BA
:100C560025740BF0A374B8F07B007D677F677E0078
:100C6600123A407872E6FFEF4408FF7872A6072230
:100C7600900225E0FEA3E0FFEF4E7004123F8322B0
:100C860090023CE0FF7E00EF4E7003020EF39002EE
:100C96003CE0FF7E00EF64FF4E7001227870E6FFB5
:100CA600EF30E52F90023CE0FF7E00EF64024E70CD
:100CB6001D9002257403F0A374E8F090024AE00444
:100CC600F07870E6FFEF4480FF7870A60722123FA7
:100CD60083222290023CE0FF7E00EF64014E7011F9
:100CE6009002257403F0A374E8F090024AE004F041
:100CF60022123F832222900225E0FEA3E0FFEF4E60
:100D06006003020EF390024AE004F0900225740B91
:100D1600F0A374B8F07B027D677F677E00123A40CD
:100D26007872E6FFEF4408FF7872A6072290022544
:100D3600E0FEA3E0FFEF4E7004123F832290023CD8
:100D4600E0FF7E00EF4E7003020EF390023CE0FFE0
:100D56007E00EF64FF4E7001227870E6FFEF30E50B
:100D66002F90023CE0FF7E00EF64024E701D900261
:100D7600257427F0A37410F090024AE004F078700E
:100D8600E6FFEF4480FF7870A60722123F832222F7
:100D960090023CE0FF7E00EF64014E701190022548
:100DA6007427F0A37410F090024AE004F022123F78
:100DB600832222900225E0FEA3E0FFEF4E7004128C
:100DC6003F832290023CE0FF7E00EF4E7003020E4E
:100DD600F390023CE0FF7E00EF64FF4E7001227844
:100DE60070E6FFEF20E503020E6F90023CE0FF7E07
:100DF60000EF64024E706D90024AE0FF7E00EF64E1
:100E0600094E7059900222E0FF8F68E5686005750B
:100E160068008003756801900222E568F07B017A1C
:100E2600027922751E00751F017FF97E7F1223133A
:100E36007B047D677F677E00123A407872E6FFEF9B
:100E46004408FF7872A607786DE6FFEF54F7FF783F
:100E56006DA6079002317414F0123F832290024A65
:100E6600E004F022123F83222290023CE0FF7E0043
:100E7600EF64014E706790024AE0FF7E00EF64095E
:100E86004E7053900222E0FF8F68E5686005756832
:100E9600008003756801900222E568F07B017A0202
:100EA6007922751E00751F017FF97E7F1223137B41
:100EB600047D677F677E00123A407872E6FFEF4452
:100EC60008FF7872A607786DE6FFEF54F7FF786D96
:100ED600A607123F832290024AE004F022123F83C3
:0D0EE60022227870E6FFEF20E703123F8321
:010EF30022DC
:1029E10012416DEF7003022B567871E6FFEFC413AD
:1029F1005407FFEF5401FF7E00EF4E700E7871E631
:102A0100FFEF4420FF7871A607D2E89002A5E0FE0F
:102A1100A3E0FFEF4E60319002317433F090024039
:102A2100E004F0700690023FE004F090023FE0FE07
:102A3100A3E0FFC3EF94F4EE9401401E90023FE443
:102A4100F0A3E4F0B2A780127B027DFA7FF47E014D
:102A5100123A40C2A79002A4E4F090023CE0FFEFDA
:102A61001206D32A74012AB5022AE7032B000500B6
:102A7100002B56900249E0FF74A72FF582E434023F
:102A8100F583E004FFF0EFD394394012900249E05E
:102A9100FF74A72FF582E43402F5837430F07B00D4
:102AA1007D677F677E00123A409002A574EAF0A329
:102AB1007460F022900249E004FFF07E00D3EF94AD
:102AC10008EE6480948040089002497408F0800BFD
:102AD1007B017D677F677E00123A409002A574EA10
:102AE100F0A37460F022123EA57B007D017FE87E99
:102AF10003123A409002A574EAF0A37460F02290A8
:102B01000249E0FF7E00C3EF9408EE6480948040A8
:102B1100447B017A0279A71235C7900227120696E3
:102B21007FFE7EFF7DFF7C00900227E0F8A3E0F9A5
:102B3100A3E0FAA3E0FBD3120672400D7B037D6490
:102B41007F647E00123A4080077D147F1412253F76
:062B51009002A4E4F02252
:0635C7008B218A228923FA
:1035CD00752900752800752700752600752400AF34
:1035DD00247E00C3EF9408EE64809480504BAB21A1
:1035ED00AA22A923AF248F827583001204BAFFEF9C
:1035FD0024D0F5257F0A7E007D007C00AB29AA280A
:10360D00A927A826120547A804A905AA06AB07AF46
:10361D0025E4FCFDFEEB2FF529EA3EF528E93DF505
:10362D0027E83CF526052480A6AF29AE28AD27ACAA
:01363D002666
:01363E002269
:103F5C008F6912416DEF701E9002A4E569F0123E5C
:103F6C00A57B007D017FE87E03123A409002A57488
:073F7C00EAF0A37460F022DB
:06416D009002A4E0FF2215
:103EA500900249E4F0756A00AF6A7E00C3EF94089A
:103EB500EE648094805013AF6A74A72FF582E434C2
:0F3EC50002F5837430F0056A80DE9002AFE4F0FE
:013ED40022CB
:103FA9008F6B900232E0FFEF25E0FF900232EFF0D5
:103FB900E56B600E900232E0FFEF4401FF900232A0
:033FC900EFF022F4
:103A40008E4D8F4E8D4F8B50786DE6FFEFC4131364
:103A50005403FFEF5401FF7E00EF4E70309002627E
:103A6000E54DF0A3E54EF0900241E54FF090026283
:103A7000E0FEA3E0FF900266EEF0A3EFF0900241BB
:0E3A8000E0FF900242EFF090023DE550F02290
:1026EF00309303022821786FE6FFEF5401FF7E003D
:1026FF00EF4E7015786FE6FFEF4401FF786FA60776
:10270F00D2E8D2A7123D79D2AF12417320924A7804
:10271F0071E6FFEFC313FFEF5401FF7E00EF4E7022
:10272F00387871E6FFEF4402FF7871A6071241482F
:10273F009002331206A2196563787B017A0279C67B
:10274F0075400C7D15120EF47872E6FFEF547FFF83
:10275F007872A6077F001239F130920C7871E6FF7C
:10276F00EF54FDFF7871A6072091337871E6FFEFE4
:10277F001313543FFFEF5401FF7E00EF4E701F788D
:10278F0071E6FFEF4404FF7871A607C2B41240FA56
:10279F00D2B57872E6FFEF547FFF7872A6073091BB
:1027AF000C7871E6FFEF54FBFF7871A60720A54D5B
:1027BF007871E6FFEF131313541FFFEF5401FF7EE1
:1027CF0000EF4E70387871E6FFEF4408FF7871A67E
:1027DF00071241489002331206A2196563787B01F4
:1027EF007A0279C675400C7D15120EF47F011239ED
:1027FF00F17872E6FFEF4480FF7872A60730A50CE0
:10280F007871E6FFEF54F7FF7871A6071206F90209
:10281F0026EF786FE6FFEF5401FF7E00EF64014E65
:10282F00700F786FE6FFEF54FEFF786FA607120068
:10283F000EC2E8C2A77871E6FFEF54FDFF7871A6CC
:10284F00077871E6FFEF54FBFF7871A6077871E602
:0A285F00FFEF54F7FF7871A607227F
:102CC100D2A79002A4E0FF7E00EF4E703D7B017A17
:102CD100027918C003C002C0017B007A007932A8D2
:102CE10001AC02AD03D001D002D0037E007F0412FB
:102CF100047B90024BE0FF8F367F00122B5790022E
:102D01002FE4F0A3740CF0022DAA7B017A0279184A
:102D1100C003C002C0017B007A007932A801AC0275
:102D2100AD03D001D002D0037E007F0412047B7575
:102D310036807F00122B579002A4E0FF7E00EF64E3
:102D4100014E702F7B017A027927C003C002C001B6
:102D51007B007A007932A801AC02AD03D001D00228
:102D6100D0037E007F0412047B7536FF7F0C122B8B
:102D710057802D7B017A027927C003C002C0017BF5
:102D8100007A007932A801AC02AD03D001D002D0A3
:102D9100037E007F0412047B7536007F0C122B57D3
:102DA10090022FE4F0A37418F07871E6FFEF44016C
:102DB100FF7871A6077B017A02797C90022FE0FEF1
:102DC100A3E0FFAD07123C1B9003BB7402F0A37498
:092DD10026F090023E7401F0228C
:022B57008F31BC
:102B5900AF351237987873A60608A6077873E6FF8B
:102B6900AE310531747C2EF582E43402F583EFF041
:102B79007874E6FFAE310531747C2EF582E43402B7
:102B8900F583EFF0AF341237987873A60608A607D5
:102B99007873E6FFAE310531747C2EF582E4340298
:102BA900F583EFF07874E6FFAE310531747C2EF5CC
:102BB90082E43402F583EFF0AF331237987873A6C5
:102BC9000608A6077873E6FFAE310531747C2EF549
:102BD90082E43402F583EFF07874E6FFAE31053113
:102BE900747C2EF582E43402F583EFF0AF361237A8
:102BF900987873A60608A6077873E6FFAE31053103
:102C0900747C2EF582E43402F583EFF07874E6FFE4
:102C1900AE310531747C2EF582E43402F583EFF090
:102C29007874A6337873A6367876A6357875A6347F
:102C39007875E6FE08E6FF7873E6FC08E6FDED2FF9
:102C4900FFEC3EFE7877A60608A6077878E6FF121D
:102C590037987873A60608A6077873E6FFAE31059C
:102C690031747C2EF582E43402F583EFF07874E652
:102C7900FFAE310531747C2EF582E43402F583EF21
:102C8900F07877E6FF1237987873A60608A60778D2
:102C990073E6FFAE310531747C2EF582E43402F51A
:102CA90083EFF07874E6FFAE310531747C2EF5823E
:072CB900E43402F583EFF0A3
:012CC00022F1
:023798008F6C34
:10379A00787B7600787BE6FF7E00C3EF9408EE64C0
:1037AA0080948050437879E6FE08E6FFEF7802C3FA
:1037BA0033CE33CED8F9FF7879A60608A607E56C8A
:1037CA0030E00E787AE6FFEF4402FF787AA60780A7
:1037DA000C787AE6FFEF4401FF787AA607E56CC316
:0F37EA0013F56C787B0680AC7879E6FE08E6FF75
:0137F90022AD
:10004E00020396E86480F8E933E83360110460F047
:10005E00ED33EC337009E8FCE9FDEAFEEBFF220418
:10006E0060DED3EB9FEA9EE99DE8C2E78CF0C2F713
:10007E0095F0400CE8CCF8E9CDF9EACEFAEBCFFBDF
:10008E0012036185D0F05804700320D5B3E80470D4
:10009E00075002B2D50203A092D5EC0460F7E4CC6F
:1000AE00C0E0C398F8603B94186008400DD0E0FBA8
:1000BE00020378E4FBFAC9FC8028E830E406E4C9C0
:1000CE00FBE4CAFCE830E305E4C9CACBFCE85407FC
:1000DE006010F8C3E913F9EA13FAEB13FBEC13FC07
:1000EE00D8F130F52FC3E49CFCEF9BFFEE9AFEEDAA
:1000FE0099FDD0E0FBEF4E4D4C701222DB03020354
:10010E009DEC2CFCEF33FFEE33FEED33FDED30E7CF
:10011E00EB020378EF2BFFEE3AFEED39FDD0E0FB5C
:10012E0050130BBB00030203A0ED13FDEE13FEEF05
:08013E0013FFEC13FC0203782F
:10014600EC4D6011E8497017ED33EC3304600DE4B3
:10015600FCFFFEFD22E933E8330470F80203961231
:10016600036158046009E4CC248150062850090232
:1001760003A028400302039DC0E0EB4A7044B98007
:1001860006D0E0FB02038CEF4E701CBD8008EBFF2F
:10019600EAFEE9FD80EBE98DF0A4FEE5F002022F10
:1001A600E9CDF9EAFEEBFFEF89F0A4FCE5F0CE8994
:1001B600F0A42EFFE435F0CD89F0A42DFEE435F051
:1001C6008067EF4E7005BD80D780C3EF8BF0A4AC7F
:1001D600F0EE8BF0A42CFCE435F0F8EF8AF0A42CBA
:1001E600E5F038FCE433CB8DF0A42CFCE5F03BF8CD
:1001F600EE8AF0A42CFCE5F038F8E433CF89F0A4BD
:100206002CFCE5F038CF3400CE89F0A42FFFE5F0C2
:100216003EFEE433C98DF0A42EFEE5F039CD8AF01A
:10022600A42FFFE5F03EFEE43DFD33D0E0FB500792
:100236000BBB000F0203A0EC2CFCEF33FFEE33FEEA
:06024600ED33FD02037818
:10024C000203A0EC5D046005E859047003020396F8
:10025C00120361580460F6EC4860F2EC7004FDFE89
:10026C00FF22C860DB2481C85009C3986002500685
:10027C0002039D9850CAF582E9294B4A7005AB825E
:10028C0002038C75F0007C1A7880C3EF9BEE9AED1C
:10029C0099400DC3EF9BFFEE9AFEED99FDE842F0FD
:1002AC00DC23ACF0D0E0FFD0E0FED0E0FDAB822050
:1002BC00E7101BEB60BAEC2CFCEF33FFEE33FEEDDA
:1002CC0033FD020378E803F830E705C0F075F00061
:1002DC00EF2FFFEE33FEED33FD40B830E7C280AABE
:1002EC0075F020800E75F010800575F0087D007E8D
:1002FC00007F003392D530D503120664EC334010E6
:10030C00EF33FFEE33FEED33FDEC33FCD5F0ED2295
:0E031C00E5F0247EA2D513CC92E7CDCEFF22D1
:10032A00EDD2E7CD33EC3392D524814006E4FFFECB
:10033A00FDFC22FCE4CFCECDCC24E0501174FF802A
:10034A00EDC3CC13CCCD13CDCE13CECF13CF0470C7
:07035A00F030D5DE0206645D
:10036100E9D2E7C933E833F892D5EDD2E7CD33ECE2
:0703710033FC5002B2D5225B
:10037800EC30E7100FBF000C0EBE00080DBD0004E6
:100388000BEB6014A2D5EB13FCED92E7FD2274FF92
:10039800FCFDFEFF22E480F8A2D574FF13FC7D80EB
:0303A800E480EFFF
:030000000234B314
:0C34B300787FE4F6D8FD75817F0234FAC2
:1003AB00E709F608DFFA8046E709F208DFFA803E34
:1003BB0088828C83E709F0A3DFFA8032E309F60821
:1003CB00DFFA8078E309F208DFFA807088828C8389
:1003DB00E309F0A3DFFA806489828A83E0A3F6083D
:1003EB00DFFA805889828A83E0A3F208DFFA804C17
:1003FB0080D280FA80C680D4806980F280338010EE
:10040B0080A680EA809A80A880DA80E280CA803356
:10041B0089828A83ECFAE493A3C8C582C8CCC583CE
:10042B00CCF0A3C8C582C8CCC583CCDFE9DEE7809E
:10043B000D89828A83E493A3F608DFF9ECFAA9F01D
:10044B00EDFB2289828A83ECFAE0A3C8C582C8CC73
:10045B00C583CCF0A3C8C582C8CCC583CCDFEADE8C
:10046B00E880DB89828A83E493A3F208DFF980CCEE
:10047B0088F0EF60010E4E60C388F0ED2402B404E7
:10048B000050B9F582EB2402B4040050AF2323458E
:06049B0082239003FB73B5
:1004A100BB010689828A83E0225002E722BBFE0259
:0904B100E32289828A83E493228C
:1004BA00BB010CE58229F582E5833AF583E02250F7
:1004CA0006E92582F8E622BBFE06E92582F8E22241
:0D04DA00E58229F582E5833AF583E493225B
:1004E700BB010689828A83F0225002F722BBFE01F4
:0204F700F322EE
:1004F900F8BB010DE58229F582E5833AF583E8F039
:10050900225006E92582C8F622BBFE05E92582C8E4
:02051900F222CC
:10051B00C5F0F8A3E028F0C5F0F8E582158270026B
:06052B001583E038F02208
:10053100A3F8E0C5F025F0F0E5821582700215837D
:06054100E0C838F0E822DA
:10054700E88FF0A4CC8BF0A42CFCE98EF0A42CFC53
:100557008AF0EDA42CFCEA8EF0A4CDA8F08BF0A4D1
:100567002DCC3825F0FDE98FF0A42CCD35F0FCEB30
:100577008EF0A4FEA9F0EB8FF0A4CFC5F02ECD39F5
:0F058700FEE43CFCEAA42DCE35F0FDE43CFC2262
:1005960075F008758200EF2FFFEE33FECD33CDCC1C
:1005A60033CCC58233C5829BED9AEC99E58298409F
:1005B6000CF582EE9BFEED9AFDEC99FC0FD5F0D67C
:1005C600E4CEFBE4CDFAE4CCF9A88222B800C1B9A6
:1005D6000059BA002DEC8BF084CFCECDFCE5F0CBE4
:1005E600F97818EF2FFFEE33FEED33FDEC33FCEB1D
:1005F60033FB10D703994004EB99FB0FD8E5E4F9D8
:10060600FA227818EF2FFFEE33FEED33FDEC33FCC4
:10061600C933C910D7059BE99A4007EC9BFCE99AB8
:10062600F90FD8E0E4C9FAE4CCFB2275F010EF2FFD
:10063600FFEE33FEED33FDCC33CCC833C810D707FD
:100646009BEC9AE899400AED9BFDEC9AFCE899F838
:0E0656000FD5F0DAE4CDFBE4CCFAE4C8F922CB
:103B1C00C2D5E830E70FB2D5E4C39BFBE49AFAE4D4
:103B2C0099F9E498F8EC30E717B2D5123B5212052C
:103B3C00D2E4C39BFBE49AFAE499F9E498F8800385
:103B4C001205D230D50DE4C39FFFE49EFEE49DFD2B
:043B5C00E49CFC22C7
:0E066400C3E49FFFE49EFEE49DFDE49CFC22A7
:10067200EB9FF5F0EA9E42F0E99D42F0E89C45F0DE
:010682002255
:10068300E8600FECC313FCED13FDEE13FEEF13FF55
:03069300D8F12279
:0C069600ECF0A3EDF0A3EEF0A3EFF022D7
:1006A200A8828583F0D083D0821206B91206B912CD
:1006B20006B91206B9E473E493A3C583C5F0C583F2
:1006C200C8C582C8F0A3C583C5F0C583C8C582C8A2
:0106D2002205
:1006D300D083D082F8E4937012740193700DA3A3B6
:1006E30093F8740193F5828883E4737402936860CA
:0606F300EFA3A3A380DFCA
:1034BF00022DDAE493A3F8E493A34003F68001F21C
:1034CF0008DFF48029E493A3F85407240CC8C3330E
:1034DF00C4540F4420C8834004F456800146F6DFDD
:1034EF00E4800B0102040810204080901950E47E04
:1034FF00019360BCA3FF543F30E509541FFEE493D2
:10350F00A360010ECF54C025E060A840B8E493A398
:10351F00FAE493A3F8E493A3C8C582C8CAC583CAC3
:10352F00F0A3C8C582C8CAC583CADFE9DEE780BE7B
:011BF10000F3
:00000001FF
