:102ED700124220123E6C1242891241311213AF1274
:102EE7003BF31241A912418D1239BB1242C312277B
:102EF700C21242B3D2AF1242C790024EE4F0A3749B
:102F07001EF01242BF1223F2123671123889900254
:102F170031E0FF7E00EF4E70E990024BE0FF7E004C
:102F2700EF4E70DE7871E6FFEFC4135407FFEF54DE
:102F370001FF7E00EF64014E70C8900239E0FEA3E6
:102F4700E0FFEF64024E60BA7871E6FFEF5401FFCD
:102F57007E00EF4E70AC7871E6FFEF54DFFF7871BB
:102F6700A607C2E8786DE6FFEF4420FF786DA60755
:102F7700786DE6FFEFC41313135401FFEF5401FFFD
:102F87007E00EF64014E70051242BF80E3786DE664
:102F9700FFEFC41313135401FFEF5401FF7E00EF3B
:102FA7004E70CD90023CE0FF7E00C3EF9401EE64CB
:102FB70080948040BB90023CE0FF7E00D3EF9404F6
:102FC700EE6480948050A91223F21242BF80A102BE
:032FD7002F09229D
:103E6C0075E78075E30075E44075E50475E210753F
:103E7C00E64675E6B90075E50075E70075E78075EF
:103E8C00E30075E44175E50475E20A75E64675E6EE
:093E9C00B90075E50075E700228C
:10422000439701E5E154F8FFEF4404F5E143E180F1
:0442300043E1202224
:0442BF0043E11022A5
:103BF3005391F1D291D292D29343B4045395FDD20F
:103C0300A14395815395DFD2A543B41043B420C299
:103C1300A053B1DF43B22043B301C2B4C2A7C2E889
:103C2300D2B55395A3C2A2C2A3C2A4C2A643B104F0
:093C330053B2FB53B3FDC2E922B8
:104234004391B05391BFD29643B40853B1EF43B204
:02424400102246
:1042460053910FC296C294C295C29743B11053B20E
:02425600EF2255
:0C00160053C13FD28A53A1FD43C1022216
:03000300023DBCFF
:103DBC00C0E0C0F0C083C082C0D075D000C000C0CD
:103DCC0001C002C003C004C005C006C007122FDA30
:103DDC00D007D006D005D004D003D002D001D0003B
:0B3DEC00D0D0D082D083D0F0D0E032E5
:03001300023DF7B4
:103DF700C0E0C0F0C083C082C0D075D000C000C092
:103E070001C002C003C004C005C006C007122FDAF4
:103E1700D007D006D005D004D003D002D001D000FF
:0B3E2700D0D0D082D083D0F0D0E032A9
:0642B300120016D2AA223F
:051A33004203BC0000AD
:10413100E58954FCFFEF4401F58953A1EF43A30442
:104141005389FB5389F7758A48758CF4D28CD2A9AF
:01415100224B
:03000B000235C5F6
:1035C500C0E0C083C082C0D075D000C000C006C0B6
:1035D50007758CF4758A487871E6FFEF4440FF78EB
:1035E50071A607900262E0FFEF6008900262E014A6
:1035F500F080129002627464F07871E6FFEF448007
:10360500FF7871A6079003BCE0FEA3E0FFEF4E60D4
:103615000E9003BDE024FFF09003BCE034FFF09072
:103625000267E0FEA3E0FFEF4E60247872E6FFEF4D
:10363500C313FFEF5401FF7E00EF64014E701E902F
:103645000268E024FFF0900267E034FFF0800E90FE
:103655000243E0FFEF6006900243E014F0D007D08C
:0C36650006D000D0D0D082D083D0E0325C
:103C3C00E5D954F1FFEF440AF5D975AC0175DA02F8
:103C4C0075AC0075AC01E5F244C0F5F275AC0053EF
:103C5C00BC7F75AC01800543F203800975EA1275CF
:103C6C00FAFD53F2FC75AC0075F9FA75E92475CFC1
:053C7C00FA75CE2422C0
:0442C300123C3C224B
:0342CB00D2DE221E
:05000600C2DEC2A022D1
:10426A008F5BAF5B7E00EF4E60060000155B80F24D
:01427A002221
:1041DF008F5CAF5C155CEF600C7F6412426A7F648A
:0641EF0012426A80ED227D
:0E427B00284F4B29285747290000000000005B
:101A38004103AB004103AD004103A1004103A300F2
:101A48004103A2006029034E0000000000000000CE
:101A5800000000000000000000000000000000007E
:101A6800000000000000000000000000000000006E
:101A7800006029037700000000000000000000005B
:101A8800000000000000000000000000000000004E
:101A980000000000000000000000000000004403F7
:101AA80048000000004103AF004303A402030041C3
:101AB80003A0004103AE004103AC0041034C0041C8
:0A1AC800034D004403A700000000D6
:103EDE00539CEFC29FD29ED29CC2CDC2CC539C7F2C
:103EEE00438780539CBFE58954CFFFEF4420F5896B
:103EFE0043A3085389BF53897F758DED758BEDD222
:043F0E008ED2AC2281
:05000E00C28EC2AC220D
:0300230002345351
:10345300C0E0C083C082C0D075D000C000C006C029
:013463000761
:10346400787C7600C0AC75AC00309902C299209883
:10347400030234FDC298787CA699787CE6FFEFB409
:103484002805900224E4F0787CE6FF900224E0FE14
:10349400746D2EF582E43402F583EFF0900224E09B
:1034A400FFEF04FFEF541FFF900224EFF0787CE657
:1034B400FFEF64297043787C7600900224E0FF7863
:1034C4007CE6FEEEC39F5025787CE6FF746D2FF5F5
:1034D40082E43402F583E0FF787CE6FE74522EF534
:1034E40082E43402F583EFF0787C0680CD786DE6D3
:0B34F400FFEF4410FF786DA607D0AC7E
:0F34FF00D007D006D000D0D0D082D083D0E0321A
:02420B008F5DC5
:10420D00A2AC9200C2AC855D993099FDC299A20015
:02421D0092AC61
:01421F00227C
:083D06008B418A4289438D4480
:103D0E00900332E4F0900332E4F0900332E0FFEFE0
:103D1E00C39544501FAB41AA42A943900332E0FF22
:103D2E008F827583001204BAFF12420B900332E0A9
:043D3E0004F080D637
:013D4200225E
:024069008F5E68
:10406B00AF5E7E00C3EF943AEE64809480500CE513
:10407B005E540FFF900333EFF0800AE55E24C9FF17
:0A408B00900333EFF0900333E0FFE1
:014095002208
:023FDA008F5FF7
:103FDC00535F0FAF5F7E00C3EF940AEE6480948052
:103FEC00500CE55F4430FF900334EFF0800AE55F3E
:0D3FFC002437FF900334EFF0900334E0FF12
:014009002294
:044152008F518D52AA
:10415600AF51124069EFC454F0FDAF52124069EFFF
:09416600540FFFED2FF553AF5388
:01416F00222D
:1006F9007BFF7A42797BC003C002C0017B017A0388
:100709007939A801AC02AD03D001D002D0037E0033
:100719007F0412047B90033DE4F07BFF7A42797FEA
:10072900C003C002C0017B017A03793EA801AC0273
:10073900AD03D001D002D0037E007F0A12047B787A
:100749006DE6FFEF20E403020BFB786DE6FFEF5443
:10075900EFFF786DA607900253E0FFEF1206D3086A
:10076900CB450907460B194B07F952089353077EE6
:100779005700000BFB900254E0FFEF64476003024F
:100789000BFB900335E4F0900270E0FF900271E0FA
:10079900FD124152900336EFF0900272E0FF900291
:1007A90073E0FD124152900337EFF0900274E0FFBD
:1007B900900275E0FD124152900338EFF090033535
:1007C900E0FCA3E0FDA3E0FEA3E0FF9002181206FF
:1007D900967B017A037936751E00751F037FFB7EB0
:1007E9007F1221C67B017A0379397D04123D0622E5
:1007F900900254E0FFEF64476003020BFB90033E55
:100809007428F090033F7452F09003407447F090BD
:1008190003417429F0900219E0FFEFC4540FFF124D
:100829003FDA900342EFF0900219E0FFEF540FFF17
:10083900123FDA900343EFF090021AE0FFEFC4543D
:100849000FFF123FDA900344EFF090021AE0FFEF36
:10085900540FFF123FDA900345EFF090021BE0FFBF
:10086900EFC4540FFF123FDA900346EFF090021BDA
:10087900E0FFEF540FFF123FDA900347EFF07B01DF
:100889007A03793E7D0A123D06227872E6FFEF541B
:100899007FFF7872A6071242949002331206A219BA
:1008A9006563787B017A0279C775400C7D15120F53
:1008B900DA7F00123B567B017A0379397D04123DB8
:1008C9000622900254E0FFEF644E6003020BFB9096
:1008D9000255E0FFEF64446003020BFB7F03123013
:1008E900DC124246D2B57872E6FFEF547FFF787288
:1008F900A6077B017A0379397D04123D062290020D
:1009090054E0FFEF644D70387872E6FFEF4480FFE2
:100919007872A6071242949002331206A2196563EF
:10092900787B017A0279C775400C7D15120FDA7F41
:1009390001123B567B017A0379397D04123D062267
:10094900900254E0FFEF64437051900255E0FFEFCD
:10095900643F704790033E7428F090033F7446F05B
:100969009003407443F09003417429F09002EBE046
:10097900FFEFC4540FFF123FDA900342EFF09002E9
:10098900EBE0FFEF540FFF123FDA900343EFF07BE8
:10099900017A03793E7D06123D0622900254E0FF5A
:1009A900EF64436003020BFB7872E6FFEFC4131395
:1009B900135401FFEF5401FF7E00EF64014E600301
:1009C900020BFB900270E0FF900271E0FD124152B0
:1009D90090033DEFF07F031230DC90033DE0FF7E92
:1009E90000D3EF940AEE64809480507490033DE044
:1009F900FF9002EBEFF07B017A0279EB751E00752F
:100A09001F017FFA7E7F1221C690033DE0FF7E968B
:100A1900EF8EF0A4FFAEF0E4FCFDEF2478FFEE3496
:100A290063FEED3465FDEC3419FC9003A7120696BC
:100A39009003A7E0FCA3E0FDA3E0FEA3E0FF7B0198
:100A49007A0279C7121CD97B017A0279C77D011212
:100A590029507B017A0379397D04123D06020B1373
:100A690090033DE0FF7E00C3740A9FEE6480F8E4C2
:100A79006480984003020B1390033DE0FF7E00D38E
:100A8900EF9414EE648094804003020B1390033DAD
:100A9900E0FF9002EBEFF07B017A0279EB751E0023
:100AA900751F017FFA7E7F1221C690033DE024F66F
:100AB900F090033DE0FF7E96EF8EF0A4FFAEF0AB21
:100AC90007AA06E4F9F8C374789BFF74639AFE7465
:100AD9006599FD741998FC9003A71206969003A7CF
:100AE900E0FCA3E0FDA3E0FEA3E0FF7B017A02792D
:100AF900C7121CD97B017A0279C77D011229507B63
:100B0900017A0379397D04123D067F01123B562291
:100B1900900254E0FFEF64596003020BFB90025509
:100B2900E0FFEF64296003020BFB90033E7428F099
:100B390090033F744BF09003407459F090023BE4EA
:100B4900F0A292E433FFEF5401FF90023BE0FEEE86
:100B590054FEFEEE4FFF90023BEFF0A291E433FF0B
:100B6900EF5401FFEF25E0FF90023BE0FEEE54FD5C
:100B7900FEEE4FFF90023BEFF0A2A5E433FFEF54E6
:100B890001FFEF25E025E0FF90023BE0FEEE54FB7C
:100B9900FEEE4FFF90023BEFF0A2A1E433FFEF54CA
:100BA90001FFEF33333354F8FF90023BE0FEEE547C
:100BB900F7FEEE4FFF90023BEFF090023BE0FFEFB4
:100BC90054FFFFEFC4540FFF123FDA900341EFF0D7
:100BD90090023BE0FFEF540FFF123FDA900342EF20
:100BE900F09003437429F07B017A03793E7D061264
:020BF9003D06B7
:010BFB0022D7
:0B42890075BF0B7D7C7F031240962266
:044096008F578D585B
:10409A00A2AF9201C2AF75E3008557E48558E27575
:1040AA00E50475E78075E64675E6B90075E50075BD
:0640BA00E700A20192AF35
:0140C00022DD
:0A21C6008E198F1A8B1B8A1C891DCD
:1021D000A2AF9202C2AF900202E4F0E51954FEFEF3
:1021E0007F00900203EEF0A3EFF0900200E4F0A372
:1021F000E4F0900200E0FEA3E0FFC3EE940250562C
:10220000900203E0FF8FE3900204E0FF8FE475E5A6
:102210000175E78075E64675E6B975E50075E70076
:10222000900204E004F07006900203E004F09002D3
:1022300000E0FEA3E0FF74002FF58274003EF583FA
:10224000E5E2F01242BF900201E004F07006900255
:1022500000E004F0809CE5195401FEAF1A900200E2
:10226000EEF0A3EFF0E51F451E6041AB1BAA1CA9D1
:102270001D1204A1FF900200E0FCA3E0FD74002DFC
:10228000F58274003CF583EFF07401251DF51DE423
:10229000351CF51C900201E004F07006900200E08D
:1022A00004F0E51F151F7002151E80B9E51954FED4
:1022B000FE7F00900203EEF0A3EFF0900203E0FF38
:1022C0008FE375E40075E50375E78075E64675E60E
:1022D000B90075E50075E700900200E4F0A3E4F0B2
:1022E000900200E0FEA3E0FFC3EE9402505890027B
:1022F00000E0FEA3E0FF74002FF58274003EF5833A
:10230000E0FF8FE2900203E0FF8FE3900204E0FF22
:102310008FE475E50275E78075E64675E6B90075E8
:10232000E50075E700900204E004F07006900203F7
:10233000E004F01242BF900201E004F07006900247
:1023400000E004F0809AE51954FEFE7F009002033D
:10235000EEF0A3EFF0900200E4F0A3E4F0900200AE
:10236000E0FEA3E0FFC3EE94025078900203E0FF8A
:102370008FE3900204E0FF8FE475E50175E7807557
:10238000E64675E6B975E50075E700900204E004DD
:10239000F07006900203E004F01242BF900200E0E9
:1023A000FEA3E0FF74002FF58274003EF583E0FF8A
:1023B000EF65E2601D900202E004F0900202E0FF8F
:1023C0007E00C3EF9403EE64809480501B0222AC25
:1023D0008016900201E004F07006900200E004F024
:1023E00002235D900202E4F0A20292AF900202E0AA
:0123F000FFED
:0123F10022C9
:1013AF00787D7600907FF9E493FF900222EFF09022
:1013BF000222E0FF7E00D3EF9401EE648094804020
:1013CF0005900222E4F0900205E4F0907FFBE49395
:1013DF00FF900206EFF0907FFCE493FF900207EF7F
:1013EF00F0907FFDE493FF900208EFF07F007E0006
:1013FF007D007C00900205E0F8A3E0F9A3E0FAA3DA
:10140F00E0FBC3120672601C7FFF7EFF7DFF7C0036
:10141F00900205E0F8A3E0F9A3E0FAA3E0FBC31202
:10142F000672700A9002051206A2000000009002D8
:10143F0005E0FCA3E0FDA3E0FEA3E0FF900218127D
:10144F000696907FFAE493FF787DA607787DE6FFF6
:10145F007E00C3E49FEE6480F8E46480984003024A
:10146F0015C0787DE6FF7E00D3EF940AEE6480947A
:10147F008040030215C0787DE6FF9002EBEFF07815
:10148F007DE6FF7E96EF8EF0A4FFAEF0E4FCFDEF5D
:10149F002478FFEE3463FEED3465FDEC3419FC90D7
:1014AF000233120696900233E0FCA3E0FDA3E0FEA8
:1014BF00A3E0FF7B017A0279C7121CD9787DE6FF82
:1014CF007E96EF8EF0A4FFAEF0E4FCFDEF2430FF2C
:1014DF00EE34B0FEED346FFDEC3419FC9002331294
:1014EF000696900233E0FCA3E0FDA3E0FEA3E0FF2D
:1014FF007B017A0279BF121CD9787DE6FF7E96EFC9
:10150F008EF0A4FFAEF0E4FCFDEF24D8FFEE34B074
:10151F00FEED3494FDEC3419FC90023312069690D4
:10152F000233E0FCA3E0FDA3E0FEA3E0FF7B017A22
:10153F000279D7121CD9787DE6FF7E96EF8EF0A444
:10154F00FFAEF0E4FCFDEF2470FFEE345CFEED34F3
:10155F0097FDEC3419FC900233120696900233E09B
:10156F00FCA3E0FDA3E0FEA3E0FF7B017A0279B7C5
:10157F00121CD9787DE6FF7E96EF8EF0A4FFAEF0B9
:10158F00E4FCFDEF24B0FFEE3469FEED349AFDEC80
:10159F003419FC900233120696900233E0FCA3E05C
:1015AF00FDA3E0FEA3E0FF7B017A0279CF121CD9E5
:1015BF0022787DE6FF7E00C3740A9FEE6480F8E414
:1015CF006480984003021744787DE6FF7E00D3EFD6
:1015DF009414EE648094804003021744787DE6FFF4
:1015EF009002EBEFF0787D74F626F6787DE6FF7EBD
:1015FF0096EF8EF0A4FFAEF0AB07AA06E4F9F8C39E
:10160F0074789BFF74639AFE746599FD741998FC46
:10161F00900233120696900233E0FCA3E0FDA3E0A4
:10162F00FEA3E0FF7B017A0279C7121CD9787DE611
:10163F00FF7E96EF8EF0A4FFAEF0AB07AA06E4F99B
:10164F00F8C374309BFF74B09AFE746F99FD7419D0
:10165F0098FC900233120696900233E0FCA3E0FD53
:10166F00A3E0FEA3E0FF7B017A0279BF121CD978B9
:10167F007DE6FF7E96EF8EF0A4FFAEF0AB07AA06D5
:10168F00E4F9F8C374D89BFF74B09AFE749499FD73
:10169F00741998FC900233120696900233E0FCA363
:1016AF00E0FDA3E0FEA3E0FF7B017A0279D7121CD5
:1016BF00D9787DE6FF7E96EF8EF0A4FFAEF0AB07F4
:1016CF00AA06E4F9F8C374709BFF745C9AFE7497D2
:1016DF0099FD741998FC900233120696900233E02C
:1016EF00FCA3E0FDA3E0FEA3E0FF7B017A0279B744
:1016FF00121CD9787DE6FF7E96EF8EF0A4FFAEF038
:10170F00AB07AA06E4F9F8C374B09BFF74699AFE9D
:10171F00749A99FD741998FC9002331206969002F0
:10172F0033E0FCA3E0FDA3E0FEA3E0FF7B017A0220
:05173F0079CF121CD956
:011744002282
:0A429F008F60AF601560EF70F92228
:1041A9004385404385905385FC7584005385F753B7
:0B41B90085DF5385FB53A2DFD2942268
:1041C4008F61E58420E5FB856186E5845480FF7E6C
:0B41D40000EF4E60F5438480AF8622B0
:103F78008F598D5A7F0112429FC2947F0112429F2E
:103F8800E55925E0FFEF4401F559AF591241C4AF97
:103F98005A1241C47F0112429FD2947F0112429F5C
:013FA80022F6
:023E32008F629D
:103E34009003BEE4F07F0112429FC2947F011242BC
:103E44009FE56225E0F562AF621241C47FFF124133
:103E5400C49003BEEFF07F0112429FD2947F0112FF
:073E6400429F9003BEE0FF46
:013E6B002234
:083812008F378B388A39893A9F
:10381A009003BFE4F07F0112429FC2947F011242DB
:10382A009FE53725E0FFEF4401F537AF371241C472
:10383A00AB38AA39A93A1204A1FF1241C49003BFB6
:10384A007401F09003BFE0FFEFC3953B50247F0261
:10385A0012429FAB38AA39A93A9003BFE0FF8F8280
:10386A007583001204BAFF1241C49003BFE004F04A
:0E387A0080D17F0112429FD2947F0112429FA3
:01388800221D
:101AD200016E00016F0041023B0048020A00000053
:101AE20000000000004402331965637801710001AF
:101AF2007200017000016D00410244004102460083
:101B02006028027D000000000000000000000000CC
:101B120000000000000000000000000000000000C3
:101B22000000000000000000000000004402180055
:101B32000000004402270000000041024C00420263
:101B420012000041023F004102450042022F000004
:101B52004202670000410243004202630000410268
:101B6200420041023E00410217004102620041026E
:101B720031004102240050026D000000000000000C
:101B820000000000000000000050025200000000AF
:101B920000000000000000000000000041023200CE
:101BA20041023D0041022D0042023700004202B1D3
:101BB200000041023C0041024B0041022E00410262
:101BC200090042022B0000420225000041022200CD
:101BD200420240000042026500004102140041023C
:101BE200A5004902A8000000000000000000410218
:101BF2004A004202A60000420215000044026900A7
:101C02000000004202470000410249004102230055
:101C120044021E0000000042021C0000420250006A
:0F1C220000420239000041024D0042024E000014
:1039BB009002627464F0900244741AF0900244E036
:1039CB00FFEF14FF900231EFF012425890022D746A
:1039DB00FFF090023274FFF090023DE4F07870E655
:1039EB00FFEF4440FF7870A6077870E6FFEF547F37
:1039FB00FF7870A607123D439002B1E4F0A3E4F008
:093A0B00900265E4F0A3E4F0224E
:101C31004302E70000004802C723081999230791CE
:101C4100114802B7230C7777230BEEEF4802CF231D
:101C51000CBBBC230C33334802BF2309000023080B
:101C610077774802D7230C3BBC230BB3334102B532
:101C710000602802ED0000000000000000000000EC
:101C81000000000000000000000000000000000053
:101C9100000000000000000000000000004102EC14
:101CA100014102B600410331014102B4004102EA9F
:101CB100004102B3004102EB004802DF00000000D6
:041CC100000000001F
:100FDA008B3C8A3D893E8D3F1242341242A97F0DD5
:100FEA00123E327E00EF30E0F5800280F17D117F03
:100FFA0000123F787DFF7F01123F787D9F7F0212AA
:10100A003F787DC37F03123F787D037F04123F78C8
:10101A007D107F05123F787D007F06123F787D158F
:10102A007F07123F787D007F08123F787D007F0995
:10103A00123F787D187F0A123F787D887F0B123F16
:10104A00787D007F0C123F787D087F0D123F787DF6
:10105A00007F0E123F787D007F0F123F787D007F60
:10106A0010123F787D007F11123F787D007F1212A7
:10107A003F787D007F13123F787D007F14123F78FE
:10108A007D007F15123F787D007F16123F787D0024
:10109A007F17123F787D007F18123F787D007F19F5
:1010AA00123F787D007F1A123F787D067F2D123F0E
:1010BA00787D057F3F123F787D8B7F41123F787D97
:1010CA00007F42123F787D347F43123F787D087F4C
:1010DA0045123F787D007F4E123F787D007F4F1288
:1010EA003F787D007F50123F787D007F51123F7814
:1010FA007D147F54123F787D067F60123F787D8889
:10110A007F63123F787D027F67123F787D107F6888
:10111A00123F787D007F69123F787D5B7F6E123FB8
:10112A00787D007F7A123F787D0C7F7B123F787D35
:10113A00007F7D123F78AD407F7E123F787D227F0F
:10114A0000123F787D077F02123F787DD07F03121D
:10115A003F787D007F04123F787D507F05123F78EB
:10116A007D277F11123F787D0C7F13123F787D0215
:10117A007F1A123F78AB3CAA3DA93E1204A1FD7F1B
:10118A001B123F78AB3CAA3DA93E758201758300CC
:10119A001204BAFD7F1C123F78AB3CAA3DA93E75EA
:1011AA0082027583001204BAFD7F1D123F78AB3CA0
:1011BA00AA3DA93E7582037583001204BAFD7F1EFB
:1011CA00123F78AB3CAA3DA93E1204A1FD7F1F1233
:1011DA003F78AB3CAA3DA93E758201758300120493
:1011EA00BAFD7F20123F78AB3CAA3DA93E75820228
:1011FA007583001204BAFD7F21123F78AB3CAA3DE9
:10120A00A93E7582037583001204BAFD7F22123F3C
:10121A00787D087F23123F787D887F24123F787D6E
:10122A00087F25123F787D0F7F26123F787D007F49
:10123A0027123F787D007F28123F787D007F291290
:10124A003F78AD3F7F2A123F787D087F2F123F7883
:10125A007D007F30123F787DC07F31123F78AB3CF2
:10126A00AA3DA93E7582047583001204BAFD7F4D1A
:10127A00123F78AB3CAA3DA93E75820575830012E0
:10128A0004BAFD7F4E123F78AB3CAA3DA93E758257
:10129A00067583001204BAFD7F4F123F78AB3CAA51
:1012AA003DA93E7582077583001204BAFD7F50126C
:1012BA003F787D047F51123F787D5A7F52123F78E2
:1012CA007D667F53123F787D157F5C123F787D1BC8
:1012DA007F5D123F787D057F5E123F787D677F5F75
:1012EA00123F787D0C7F60123F78123F467D447F23
:1012FA0000123F787D0F7F2A123F787D447F0012CB
:10130A003F787D007F4F123F787D887F00123F78BB
:10131A007D3F7F2F123F787D417F0C123F787D33CE
:10132A007F0D123F787D547F0E123F787D107F1417
:10133A00123F787D037F24123F787D007F7E123F23
:10134A00787F707E5C7D977C19900233E0F8A3E089
:10135A00F9A3E0FAA3E0FBC3120672601C7FB07E19
:10136A00697D9A7C19900233E0F8A3E0F9A3E0FAC8
:10137A00A3E0FBC3120672700512338E8003123586
:10138A000E7D117F00123F787D017F6F123F787FBB
:10139A000D123E327E00EF30E1F5800280F11241FB
:0513AA00701241F52264
:103B56008F637D117F00123F78E5631206D33B74B5
:103B6600003B7D013B86023B8F0300003B987D2195
:103B76007F76123F7880227D117F76123F788019FA
:103B86007D097F76123F7880107D057F76123F781B
:0F3B960080077D037F76123F787F091230DC2293
:102FDA00787E76007F0F123E32787EA607787EE6EC
:102FEA00FFEF5401FF7E00EF64014E60030230DB05
:102FFA00787EE6FF7E00EF64FF4E70030230DB78D6
:10300A006EE6FFEF4440FF786EA6077F01123EA5E9
:10301A007871E6FFEF5401FF7E00EF64014E600312
:10302A000230DB90023FE0FF7E00C3EF9403EE64C0
:10303A00809480503D786EE6FFEFC413135403FF6B
:10304A00EF5401FF7E00EF64014E7026786EE6FFB2
:10305A00EF54BFFF786EA6077B017A02797D900252
:10306A002FE0FEA3E0FFAD07123D8090023FE0048F
:10307A00F02290023FE0FF7E00EF64034E70527828
:10308A006EE6FFEFC413135403FFEF5401FF7E00F3
:10309A00EF64014E703B786EE6FFEF54BFFF786E27
:1030AA00A6077871E6FFEF54FEFF7871A607786DE0
:1030BA00E6FFEF131313541FFFEF5401FF7E00EFD7
:1030CA004E7002C2A77F031230DCC2B4124246D24B
:0130DA00B540
:0130DB0022D2
:0B42940030B507C2B57F021241DF22E7
:10403A008F647D117F00123F78AF647E00EF6410B9
:10404A004E6014AF647E00EF64124E600AAF647E65
:0F405A0000EF641A4E7007AD647F0A123F7822A0
:0230DC008F65FE
:1030DE009003B0E4F07D117F00123F787F0B123E1B
:1030EE0032EFC4540FFF9003B0EFF09003B0E0FF47
:1030FE00EF656570030231C5AF657E00EF64094E62
:10310E006021AF657E00EF64064E6017AF657E00EE
:10311E00EF64084E600DAF657E00EF64034E6003F2
:10312E000231C5AD657F0B123F78123CC59003B0DE
:10313E00EFF09003B0E0FF7E00EF4E606BAF657E68
:10314E0000EF64034E6061900233E0FCA3E0FDA348
:10315E00E0FEA3E0FF7B017A0279DF121CD9124256
:10316E00BF7F407E057D927C19900233E0F8A3E08C
:10317E00F9A3E0FAA3E0FBC312067250107B017AAA
:10318E000279DF75400C7D55120FDA800E7B017AC5
:10319E000279DF75401C7D55120FDA1242BFAD6504
:1031AE007F0B123F78123CC57F0B123E32EFC45498
:0C31BE000FFF9003B0EFF09003B0E0FFB3
:0131CA0022E2
:103CC5009003B1E4F0A3E4F07D117F00123F787F0B
:103CD5000D123E32EF30E30A7D007F0D123F787FF3
:103CE50000229003B1E475F001120531AFF0FED367
:103CF500EF9488EE941340037F01221242BF80CFD8
:013D0500229B
:103EA5008F667D117F00123F78AF667E00EF64015B
:103EB5004E700F7D007F0F123F787D817F16123F78
:103EC5007822AF667E00EF4E700E7D007F0E123FAA
:093ED500787D827F16123F7822ED
:104170007D117F00123F787D007F0D123F787D001A
:0D4180007F0E123F787D007F0F123F7822E6
:10338E007D117F00123F787D227F06123F787D15DA
:10339E007F07123F787D1E7F66123F787D227F0069
:1033AE00123F787D937F0C123F787D357F0D123F53
:1033BE00787D277F11123F787D0C7F13123F787D29
:1033CE00087F2F123F787D507F56123F787D407FC9
:1033DE0057123F787D017F58123F787D147F591226
:1033EE003F787D007F5A123F787D007F5B123F78D9
:1033FE007D157F5C123F787D0D7F5D123F787D05D8
:10340E007F5E123F787D677F5F123F787D097F6018
:10341E00123F787D887F00123F787D417F0C123FEE
:10342E00787D337F0D123F787D547F0E123F787D6D
:10343E00107F14123F787D037F24123F787D117F19
:05344E0000123F78228E
:10350E007D117F00123F787D007F06123F787D1E71
:10351E007F66123F787D227F00123F787D937F0C6D
:10352E00123F787D357F0D123F787D277F11123F38
:10353E00787D0C7F13123F787D087F2F123F787DA8
:10354E00407F57123F787D017F58123F787D147F60
:10355E0059123F787D007F5A123F787D007F5B12B3
:10356E003F787D157F5C123F787D1B7F5D123F7823
:10357E007D057F5E123F787D677F5F123F787D0C01
:10358E007F60123F787D887F00123F787D417F0CEF
:10359E00123F787D337F0D123F787D547F0E123FA0
:1035AE00787D107F14123F787D037F24123F787D43
:0735BE00117F00123F78228B
:0A42A900C2B47F021241DFD2B4223A
:102950008B458A4689478D48786EE6FFEF4408FF2D
:10296000786EA6077F001230DC7E00EF64084E60B0
:10297000057F031230DC7D227F00123F78AB45AA31
:1029800046A9471204A1FD7F1B123F78AB45AA461A
:10299000A9477582017583001204BAFD7F1C123F9E
:1029A00078AB45AA46A9477582027583001204BA1E
:1029B000FD7F1D123F78AB45AA46A9477582037576
:1029C00083001204BAFD7F1E123F78AB45AA46A9C8
:1029D000471204A1FD7F1F123F78AB45AA46A947C5
:1029E0007582017583001204BAFD7F20123F78AB17
:1029F00045AA46A9477582027583001204BAFD7F75
:102A000021123F78AB45AA46A9477582037583001A
:102A10001204BAFD7F22123F78AB45AA46A947753A
:102A200082047583001204BAFD7F4D123F78AB45D6
:102A3000AA46A9477582057583001204BAFD7F4E28
:102A4000123F78AB45AA46A94775820675830012E6
:102A500004BAFD7F4F123F78AB45AA46A94775825D
:102A6000077583001204BAFD7F50123F787D227FE4
:102A700000123F787D087F25123F787D557F2A120E
:102A80003F78AF487E00EF64014E700512350E802E
:102A90000DAF487E00EF64024E700312338E7D014D
:102AA0007F6F123F787F0D123E327E00EF30E1F5EE
:102AB000800280F17D117F00123F78786EE6FFEF93
:082AC00054F7FF786EA607220F
:1041F5007D117F00123F787D077F4E123F787D014C
:064205007F12123F782237
:103D80008B498A4A894B8D4CAF4C7E00D3EF9440CF
:103D9000EE648094804003754C407D117F00123F9B
:103DA00078AD4C7F7B123F787F1012403AAB49AA26
:0C3DB0004AA94B854C3B7F7C1238122244
:0E1CD9008F2D8E2C8D2B8C2A8B2E8A2F8930EE
:101CE7009003B3E4F09003B41206A2000000009042
:101CF70003B81206A2000000007B007A1B79B778B0
:101D070000AF2DAE2CAD2BAC2A1205D29003B3EF4A
:101D1700F0AF2DAE2CAD2BAC2AE41202EC7B007A8F
:101D27001B7937784B12024FC004C005C006C007A5
:101D37009003B3E0FCE41202F6A804A905AA06ABD7
:101D470007D007D006D005D0041200519003B41273
:101D570006967F007E007D807C499003B4E0F8A35F
:101D6700E0F9A3E0FAA3E0FB12014612032A90036D
:101D7700B81206969003B3E0FFAB2EAA2FA930EF57
:101D87001204E79003B8E0FCA3E0FDA3E0FEA3E0A4
:101D9700FF7810120683EF54FFFFEE5400FEED5458
:101DA70000FDEC5400FCAB2EAA2FA93075820175FB
:101DB7008300EF1204F99003B8E0FCA3E0FDA3E071
:101DC700FEA3E0FF7808120683EF54FFFFEE5400EE
:101DD700FEED5400FDEC5400FCAB2EAA2FA9307584
:101DE7008202758300EF1204F99003B8E0FCA3E0C8
:101DF700FDA3E0FEA3E0FFEF54FFFFEE5400FEED6E
:101E07005400FDEC5400FCAB2EAA2FA930758203B9
:101E1700758300EF1204F9E52D2480F52DE52C34A8
:101E2700E5F52CE52B34F9F52BE52A34FFF52A7B6C
:101E3700007A1B79B77800AF2DAE2CAD2BAC2A12E8
:101E470005D29003B3EFF0AF2DAE2CAD2BAC2AE447
:101E57001202EC7B007A1B7937784B12024FC004D1
:101E6700C005C006C0079003B3E0FCE41202F6A861
:101E770004A905AA06AB07D007D006D005D00412DF
:101E870000519003B41206967F007E007D807C4946
:101E97009003B4E0F8A3E0F9A3E0FAA3E0FB120192
:101EA7004612032A9003B81206969003B3E0FFABDD
:101EB7002EAA2FA930758204758300EF1204F990BA
:101EC70003B8E0FCA3E0FDA3E0FEA3E0FF78101257
:101ED7000683EF54FFFFEE5400FEED5400FDEC5473
:101EE70000FCAB2EAA2FA930758205758300EF126F
:101EF70004F99003B8E0FCA3E0FDA3E0FEA3E0FF34
:101F07007808120683EF54FFFFEE5400FEED5400ED
:101F1700FDEC5400FCAB2EAA2FA930758206758301
:101F270000EF1204F99003B8E0FCA3E0FDA3E0FE84
:101F3700A3E0FFEF54FFFFEE5400FEED5400FDEC6D
:101F47005400FCAB2EAA2FA930758207758300EFCA
:031F57001204F978
:011F5A002264
:103F46007D227F00123F787D5A7F07123F787D8A57
:103F56007F0C123F787D267F0D123F787D037F1000
:103F6600123F787D837F15123F787D117F00123FC7
:023F76007822AF
:10418D0043920143C48053C31F53C3FC43C3105315
:0C419D00C3FB53BB9F53C4D843AD0222A8
:03004B000231CBB4
:1031CB00C0E0C0F0C083C082C0D075D000C000C0CA
:0D31DB0001C002C003C004C005C006C0074B
:1031E8009003C0E5C6F09003C1E5C5F0900269E020
:1031F800F8A3E0F9A3E0FAA3E0FB9003C0E0FEA384
:10320800E0FFEE540FFEE4FCFDEB2FFFEA3EFEE983
:103218003DFDE83CFC900269120696900249E004E4
:10322800F053C4EF43C408900249E0FF7E00C3EFA7
:103238009414EE64809480405653ADFD53C47F903F
:103248000249E4F07B147A0079007800900269E082
:10325800FCA3E0FDA3E0FEA3E0FF1205D290024725
:10326800EEF0A3EFF0900247E0FEA3E0FFAB07AA61
:1032780006E4F9F87F007E107D0E7C00123C8190F8
:0F328800021E1206969002691206A200000000B4
:10329700D007D006D005D004D003D002D001D0008B
:0B32A700D0D0D082D083D0F0D0E03235
:0442C70043C40822C2
:1038890090024EE0FEA3E0FFEF4E60677F607E0985
:103899007D007C0090021EE0F8A3E0F9A3E0FAA302
:1038A900E0FBD31206724006900223E4F0227F6007
:1038B9007E097D007C0090021EE0F8A3E0F9A3E0F8
:1038C900FAA3E0FBD312067250237F987E087D008D
:1038D9007C0090021EE0F8A3E0F9A3E0FAA3E0FB64
:1038E900D312067240079002237401F0229002233A
:0438F9007402F02243
:101CC5001108FBBFDFEFF79FAFB7BBCFDBEBE7F348
:031CD500FDFEFF12
:1023F2007871E6FFEF20E6030226117871E6FFEF1F
:1024020054BFFF7871A60790024EE0FEA3E0FFEFF3
:102412004E600E90024FE024FFF090024EE034FF37
:10242200F09002A6E0FEA3E0FFEF4E600E9002A73E
:10243200E024FFF09002A6E034FFF0900225E0FED7
:10244200A3E0FFEF4E600E900226E024FFF0900220
:1024520025E034FFF0900265E0FEA3E0FFEF4E605E
:102462000E900266E024FFF0900265E034FFF090E7
:10247200022BE0FEA3E0FFEF4E601090022CE0245E
:10248200FFF090022BE034FFF0800C786DE6FFEF56
:1024920054F7FF786DA607786DE6FFEF30E33590CD
:1024A200022BE0FEA3E0FFEF4E6029900241E00420
:1024B200F07006900240E004F0900240E0FEA3E0DB
:1024C200FFC3EF945AEE9400400A900240E4F0A356
:1024D200E4F0B2A79002B1E0FEA3E0FFEF4E600E7F
:1024E2009002B2E024FFF09002B1E034FFF09002DB
:1024F20067E0FEA3E0FFEF4E60407872E6FFEFC3B5
:1025020013FFEF5401FF7E00EF4E60030225EF78C8
:1025120072E6FFEF4402FF7872A6077872E6FFEFD9
:1025220054FBFF7872A6071242CB7872E6FFEF20C7
:10253200E3030225EFD2A70225EF900243E0FFEF6B
:10254200603E7872E6FFEF1313543FFFEF5401FF32
:102552007E00EF4E60030225EF7872E6FFEF44043F
:10256200FF7872A6077872E6FFEF54FDFF7872A635
:10257200071200067872E6FFEF30E371C2A7806DA2
:1025820090023EE0FFEF605990023EE014F09002AC
:1025920063E0FEA3E0FF900267EEF0A3EFF090028B
:1025A20042E0FF900243EFF07872E6FFEFC313FFC1
:1025B200EF5401FF7E00EF4E70337872E6FFEF4476
:1025C20002FF7872A6077872E6FFEF54FBFF78727B
:1025D200A6071242CB7872E6FFEF30E310D2A78053
:1025E2000C7872E6FFEF54F7FF7872A607121745D0
:1025F200786DE6FFEFC4135407FFEF5401FF7E002E
:10260200EF64014E6009122AC8120BFC1242BF226B
:103671007871E6FFEF30E7497871E6FFEF547FFF9D
:103681007871A60790024DE0FFEF600690024DE0D1
:1036910014F07871E6FFEFC4135407FFEF5401FFF4
:1036A1007E00EF64014E7019900231E0FFEF60116E
:1036B10090024BE0FF7E00EF4E7006900231E01465
:1036C100F09003BCE0FEA3E0FFEF4E703F7871E69F
:1036D100FFEF5401FF7E00EF64014E702F7871E619
:1036E100FFEF54FEFF7871A607786DE6FFEF131325
:1036F10013541FFFEF5401FF7E00EF4E7002C2A76B
:0D3701007F031230DCC2B4124246D2B52262
:1017450090023DE4F090023274FFF0900223E0FF36
:101755007E00EF64024E7003021A32A292E433FF58
:1017650012410EA291E433FF12410EA2A5E433FF0C
:1017750012410E7F0112410EA2A1E433FF12410E68
:101785007F0112410E7F0112410E90022DE0FF9064
:101795000232E0FEEE6F6025900232E0FF90022DEE
:1017A500EFF0124258123D4390021C7413F0A374DB
:1017B50088F09002507427F0A37474F022900237D9
:1017C50074FF75F0FF12051BAFF0FEEF4E600302CC
:1017D5001A32900237E4F0A37401F0900232E0FF70
:1017E5007E00EF64FF4E70030218CF90021CE0FEEE
:1017F500A3E0FFEF4E600E90021DE024FFF0900283
:101805001CE034FFF0900250E0FEA3E0FFEF4E60D5
:101815000E900251E024FFF0900250E034FFF0906A
:101825000223E0FF7E00EF64014E6017786DE6FF4E
:10183500EF20E60F900250E0FEA3E0FFEF4E6003BD
:101845000218CF786DE6FFEFC413135403FFEF546E
:1018550001FF7E00EF4E705A786DE6FFEF4440FFC2
:10186500786DA607900250E0FEA3E0FFEF4E7011E1
:10187500900263E4F0A37467F09002427467F0800D
:101885000F900263E4F0A37428F0900242743CF0D8
:10189500900263E0FEA3E0FF900267EEF0A3EFF095
:1018A500900242E0FF900243EFF090023E7402F096
:1018B500801890023EE0FF7E00D3EF9401EE648035
:1018C5009480500690023E7402F0787F7600787F0F
:1018D500E6FF7E00C3EF9411EE6480948050237878
:1018E5007FE6FF74082FF8E6FF900232E0FEEEB5C2
:1018F500070B787FE6FF90023CEFF08005787F06C6
:1019050080CC787FE6FF7E00900239EEF0A3EFF001
:10191500786DE6FFEFC4135407FFEF5401FF7E0017
:10192500EF64014E7003021A32787FE6FF7E00EF06
:1019350064114E701F7870E6FFEF54BFFF7870A6F4
:1019450007123D437870E6FFEF4480FF7870A607E5
:101955001240E8227870E6FFEF30E75D900232E052
:10196500FF7E00EF64FF4E6050787FE6FF7E00EF5C
:1019750064054E6033787FE6FF7E00EF64064E60B7
:1019850027787FE6FF7E00EF64074E601B787FE6D1
:10199500FF7E00EF64094E600F787FE6FF7E00EF63
:1019A500640C4E6003021A327871E6FFEF5401FFB2
:1019B5007E00EF4E7077800122787FE6FFEF1206FA
:1019C500D319FD001A01011A01021A01031A0104B3
:1019D5001A13051A13061A13071A17081A13091AE0
:1019E5001B0A1A1F0B1A130C1A230D1A270E1A2B72
:1019F5000F1A2F1000001A321232B2227871E6FF48
:101A0500EF5401FF7E00EF4E7023121F5B22123F41
:101A1500A92212395F22123B0622123A6622123A95
:0D1A2500B622120022221242CE22123A14E2
:011A32002291
:103FA9001240E890023DE4F090023CE0FF90023CB0
:103FB900E0FD122612123D437870E6FFEF54BFFF71
:103FC9007870A6077870E6FFEF4480FF7870A6073F
:013FD90022C5
:10395F001240E87870E6FFEF54BFFF7870A6077843
:10396F0070E6FFEF20E23F7870E6FFEF4404FF7848
:10397F0070A6079002B1740BF0A374B8F07871E6DB
:10398F00FFEFC4135407FFEF5401FF7E00EF4E709B
:10399F001A7871E6FFEF4420FF7871A607D2E890FE
:0C39AF000231744EF0227F08123F1222F9
:103A66001240E87870E6FFEF20E33F7870E6FFEF5C
:103A76004408FF7870A6079002B1740BF0A374B8DF
:103A8600F07871E6FFEFC4135407FFEF5401FF7E91
:103A960000EF4E701A7871E6FFEF4420FF7871A6AA
:103AA60007D2E8900231744EF0227F0B123F1222A9
:103AB6001240E87870E6FFEF20E43F7870E6FFEF0B
:103AC6004410FF7870A6079002B1740BF0A374B887
:103AD600F07871E6FFEFC4135407FFEF5401FF7E41
:103AE60000EF4E701A7871E6FFEF4420FF7871A65A
:103AF60007D2E8900231744EF0227F0D123F122257
:103B06001240E87870E6FFEF20E13F7870E6FFEFBD
:103B16004402FF7870A6079002B1740BF0A374B844
:103B2600F07871E6FFEFC4135407FFEF5401FF7EF0
:103B360000EF4E701A7871E6FFEF4420FF7871A609
:103B460007D2E8900231744EF0227F0A123F122209
:103F12008F679002B1E0FEA3E0FFEF4E60259002B2
:103F2200B174FF75F0FF12051BAFF0FEEF4E701378
:103F32007D00AF67122612786DE6FFEF4480FF78AE
:043F42006DA607223F
:1032B2001240E87870E6FFEF20E60302335178709F
:1032C200E6FFEF54BFFF7870A60790023D7405F049
:1032D200123D437870E6FFEF4401FF7870A6079035
:1032E20002B1740BF0A374B8F0900265E0FEA3E0A3
:1032F200FFEF4E70397871E6FFEFC4135407FFEF0A
:103302005401FF7E00EF4E70147871E6FFEF442007
:10331200FF7871A607D2E89002317433F09002650B
:103322007427F0A37410F09002147402F022900239
:1033320014E014FFF0EF70537F011240C190023D80
:10334200E4F07870E6FFEF4480FF7870A6072278F9
:1033520070E6FFEF30E0349002B1E0FEA3E0FFEF51
:103362004E60289002B174FF75F0FF12051BAFF09A
:10337200FEEF4E70167F021240C190023DE4F078DB
:0C33820070E6FFEF4480FF7870A6072281
:101F5B00120026EF7003022072786DE6FFEF20E08F
:101F6B0013786DE6FFEF20E10B786DE6FFEF20E2D3
:101F7B00030221C59002B1E0FEA3E0FFEF4E600328
:101F8B000221C5786DE6FFEFC413135403FFEF5422
:101F9B0001FF7E00EF4E60030221C590021CE0FEA4
:101FAB00A3E0FFEF4E60030221C5786DE6FFEF2043
:101FBB00E008786DE6FFEF30E21890024B740AF000
:101FCB0090023DE4F07870E6FFEF4480FF7870A656
:101FDB00072290024B7401F07B017D677F677E00C7
:101FEB00123BA57872E6FFEF4408FF7872A60778DC
:101FFB0071E6FFEFC4135407FFEF5401FF7E00EFB0
:10200B004E70187871E6FFEF4420FF7871A607D267
:10201B00E8900244E0FF900231EFF0900225740F3C
:10202B00F0A374A0F090023DE4F07870E6FFEF545B
:10203B00BFFF7870A6077870E6FFEF4480FF7870DB
:10204B00A6077870E6FFEF4420FF7870A607786D3F
:10205B00E6FFEF20E0030221C57870E6FFEF54DFC7
:10206B00FF7870A607222290023CE0FF90023DEF22
:10207B00F090024BE0FFEF60030221C59002A5E058
:10208B00FFEF60012290023DE0FFEF1206D320A686
:10209B000120BE0220D603000020EC786DE6FFEF96
:1020AB004401FF786DA6079002B17413F0A37488F6
:1020BB00F0802E786DE6FFEF4402FF786DA6079057
:1020CB0002B17413F0A37488F08016786DE6FFEFFD
:1020DB004404FF786DA6079002B17413F0A37488C3
:1020EB00F0900222E0FFEF600D90023DE0FF7E00DA
:1020FB00EF64044E70191240E890023CE0FF90022E
:10210B003CE0FD122612900265E4F0A3E4F022906D
:10211B00024BE0FFEF60030221C59002A5E0FFEF49
:10212B0060012290023DE0FF7E00EF64024E7037AB
:10213B001240E890023CE0FF90023CE0FD122612B8
:10214B00900265E4F0A3E4F0786DE6FFEF4408FF3E
:10215B00786DA60790022B740BF0A374B8F0900265
:10216B0040E4F0A3E4F02290023DE0FFEF1206D32F
:10217B00218501218503000021C5786DE6FFEF3035
:10218B00E33890022BE0FEA3E0FFEF4E602C786D5E
:10219B00E6FFEF54F7FF786DA60790022BE4F0A350
:1021AB00E4F090023CE0FF90023CE0FD122612901E
:0B21BB000265E4F0A3E4F01240E8220B
:0100220022BB
:0142CE0022CD
:103A1400786DE6FFEF54FEFF786DA607786DE6FF3C
:103A2400EF54FDFF786DA607786DE6FFEF54FBFFBA
:103A3400786DA607786DE6FFEF54BFFF786DA60793
:103A4400123D437870E6FFEF4440FF7870A6077894
:103A540070E6FFEF547FFF7870A60790023D74FF75
:023A6400F0224E
:10425800900237E4F0A3740AF09002B1E4F0A3E40A
:02426800F02242
:103D43007870E6FFEF54FEFF7870A6077870E6FF01
:103D5300EF54FDFF7870A6077870E6FFEF54FBFF82
:103D63007870A6077870E6FFEF54F7FF7870A60720
:0D3D73007870E6FFEF54EFFF7870A607228E
:1040E80090024BE4F090022E7402F09002097402E0
:1040F800F090022BE0FEA3E0FFEF4E600890022B49
:06410800E4F0A3E4F02244
:100026007870E6FFEF20E6037F01227870E6FFEFA7
:1000360054BFFF7870A6079002B1E4F0A3E4F01273
:050046003D437F002294
:042612008F548D55FF
:10261600900246E0FF7E00C3EF9445EE648094800E
:10262600505A7871E6FFEFC4135407FFEF5401FFC9
:102636007E00EF64014E7044900231E0FF7E00C3DD
:10264600EF9419EE648094805032900231E0FFC31B
:1026560074199FF556900246E02556F0900246E022
:10266600FF7E00C374459FFFE49EFEC3EF941BEEFE
:102676006480948040069002317419F0900231E033
:10268600FF7E00C3EF9419EE64809480500E900292
:102696004DE0FF7E00EF4E60030227BF7871E6FF34
:1026A600EFC4135407FFEF5401FF7E00EF4E70187E
:1026B6007871E6FFEF4420FF7871A607D2E8900212
:1026C60044E0FF900231EFF0E5541206D326F501FF
:1026D60026FD02270503270D04271D0527250627A6
:1026E6002D0727350927150A273D0C00002743909B
:1026F600024C7408F0804690024C7404F0803E90C0
:10270600024C7402F0803690024C7401F0802E90D8
:10271600024C7414F0802690024C740CF0801E90CB
:10272600024C740AF0801690024C7409F0800E90E8
:10273600024C7406F0800690024C7403F0E55512C4
:1027460006D3275B01276802277503278204278F94
:10275600140000279A7B007D677F677E00123BA5E9
:1027660080327B017D677F677E00123BA580257BDB
:10277600027D677F677E00123BA580187B007D0A7D
:102786007FF47E01123BA5800B7B007D0A7FE87EED
:1027960003123BA51242949002331206A2196563F6
:1027A600787B017A0279C775400C7D15120FDA1213
:0B27B6002DA890024D7419F022C2A75C
:0127C10022F5
:100BFC0090024BE0FFEF1206D30C27010C56020CAF
:100C0C00AB030D25040D5C050DE2060E19070E9FB6
:100C1C00080E9F090FCE0A00000FD97870E6FFEF7F
:100C2C0020E7119002257403F0A374E8F090024BB6
:100C3C00E004F022900225E0FEA3E0FFEF4E6003FB
:100C4C00020FD990024B740AF022900225E0FEA309
:100C5C00E0FFEF4E702790024BE004F090022574F9
:100C6C000BF0A374B8F07B007D677F677E00123BAE
:100C7C00A57872E6FFEF4408FF7872A60790023D54
:100C8C00E0FF7E00EF4E7003020FD990023DE0FFB3
:100C9C007E00EF64FF4E7003020FD91240E82290E1
:100CAC000225E0FEA3E0FFEF4E70041240E8229014
:100CBC00023DE0FF7E00EF4E7003020FD990023D23
:100CCC00E0FF7E00EF64FF4E7001227870E6FFEFCC
:100CDC0030E52390023DE0FF7E00EF64024E701180
:100CEC009002257403F0A374E8F090024BE004F03A
:100CFC00221240E8222290023DE0FF7E00EF6401C8
:100D0C004E70119002257403F0A374E8F090024B1E
:100D1C00E004F0221240E82222900225E0FEA3E03B
:100D2C00FFEF4E6003020FD990024BE004F09002EB
:100D3C0025740BF0A374B8F07B007D677F677E0091
:100D4C00123BA57872E6FFEF4408FF7872A60722E3
:100D5C00900225E0FEA3E0FFEF4E70041240E82263
:100D6C0090023DE0FF7E00EF4E7003020FD990021F
:100D7C003DE0FF7E00EF64FF4E7001227870E6FFCD
:100D8C00EF30E52F90023DE0FF7E00EF64024E70E5
:100D9C001D9002257403F0A374E8F090024BE0045C
:100DAC00F07870E6FFEF4480FF7870A607221240BF
:100DBC00E8222290023DE0FF7E00EF64014E7011AC
:100DCC009002257403F0A374E8F090024BE004F059
:100DDC00221240E82222900225E0FEA3E0FFEF4E13
:100DEC006003020FD990024BE004F0900225740BC3
:100DFC00F0A374B8F07B027D677F677E00123BA581
:100E0C007872E6FFEF4408FF7872A607229002255D
:100E1C00E0FEA3E0FFEF4E70041240E82290023D8A
:100E2C00E0FF7E00EF4E7003020FD990023DE0FF11
:100E3C007E00EF64FF4E7001227870E6FFEF30E524
:100E4C002F90023DE0FF7E00EF64024E701D900279
:100E5C00257427F0A37410F090024BE004F0787026
:100E6C00E6FFEF4480FF7870A607221240E82222AA
:100E7C0090023DE0FF7E00EF64014E701190022560
:100E8C007427F0A37410F090024BE004F02212408F
:100E9C00E82222900225E0FEA3E0FFEF4E70041240
:100EAC0040E82290023DE0FF7E00EF4E7003020FFF
:100EBC00D990023DE0FF7E00EF64FF4E7001227876
:100ECC0070E6FFEF20E503020F5590023DE0FF7E38
:100EDC0000EF64024E706D90024BE0FF7E00EF64F9
:100EEC00094E7059900222E0FF8F68E56860057525
:100EFC0068008003756801900222E568F07B017A36
:100F0C00027922751E00751F017FF97E7F1221C6A2
:100F1C007B047D677F677E00123BA57872E6FFEF4E
:100F2C004408FF7872A607786DE6FFEF54F7FF7858
:100F3C006DA6079002317414F01240E82290024B17
:100F4C00E004F0221240E8222290023DE0FF7E00F5
:100F5C00EF64014E706790024BE0FF7E00EF640976
:100F6C004E7053900222E0FF8F68E568600575684B
:100F7C00008003756801900222E568F07B017A021B
:100F8C007922751E00751F017FF97E7F1221C67BA9
:100F9C00047D677F677E00123BA57872E6FFEF4405
:100FAC0008FF7872A607786DE6FFEF54F7FF786DAF
:100FBC00A6071240E82290024BE004F0221240E80F
:0D0FCC0022227870E6FFEF20E7031240E8D4
:010FD90022F5
:102AC8001242B9EF7003022C3D7871E6FFEFC41390
:102AD8005407FFEF5401FF7E00EF4E700E7871E649
:102AE800FFEF4420FF7871A607D2E89002A6E0FE27
:102AF800A3E0FFEF4E60319002317433F090024151
:102B0800E004F07006900240E004F0900240E0FE1D
:102B1800A3E0FFC3EF94F4EE9401401E900240E45A
:102B2800F0A3E4F0B2A780127B027DFA7FF47E0165
:102B3800123BA5C2A79002A5E4F090023DE0FFEF8A
:102B48001206D32B5B012B9C022BCE032BE705002F
:102B5800002C3D90024AE0FF74A82FF582E434026D
:102B6800F583E004FFF0EFD39439401290024AE075
:102B7800FF74A82FF582E43402F5837430F07B00EB
:102B88007D677F677E00123BA59002A674C3F0A301
:102B98007450F02290024AE004FFF07E00D3EF94D4
:102BA80008EE64809480400890024A7408F0800B14
:102BB8007B017D677F677E00123BA59002A674C3E8
:102BC800F0A37450F02212400A7B007D0A7FE87E51
:102BD80003123BA59002A674C3F0A37450F0229090
:102BE800024AE0FF7E00C3EF9408EE6480948040C0
:102BF800447B017A0279A812379A90022712069626
:102C08007FFE7EFF7DFF7C00900227E0F8A3E0F9BD
:102C1800A3E0FAA3E0FBD3120672400D7B037D64A8
:102C28007F647E00123BA580077D147F1412261254
:062C38009002A5E4F02269
:06379A008B218A22892325
:1037A000752900752800752700752600752400AF5F
:1037B000247E00C3EF9408EE64809480504BAB21CC
:1037C000AA22A923AF248F827583001204BAFFEFC7
:1037D00024D0F5257F0A7E007D007C00AB29AA2835
:1037E000A927A826120547A804A905AA06AB07AF72
:1037F00025E4FCFDFEEB2FF529EA3EF528E93DF531
:1038000027E83CF526052480A6AF29AE28AD27ACD5
:013810002691
:013811002294
:1040C1008F691242B9EF701E9002A5E569F01240A6
:1040D1000A7B007D0A7FE87E03123BA59002A6744D
:0740E100C3F0A37450F022AC
:0642B9009002A5E0FF22C7
:10400A0090024AE4F0756A00AF6A7E00C3EF940832
:10401A00EE648094805013AF6A74A82FF582E4345A
:0F402A0002F5837430F0056A80DE9002B0E4F096
:014039002264
:10410E008F6B900232E0FFEF25E0FF900232EFF06E
:10411E00E56B600E900232E0FFEF4401FF90023239
:03412E00EFF0228D
:103BA5008E4D8F4E8D4F8B50786DE6FFEFC41313FE
:103BB5005403FFEF5401FF7E00EF4E703090026317
:103BC500E54DF0A3E54EF0900242E54FF09002631B
:103BD500E0FEA3E0FF900267EEF0A3EFF090024253
:0E3BE500E0FF900243EFF090023EE550F02228
:1027C200309303022908786FE6FFEF5401FF7E0081
:1027D200EF4E7029786FE6FFEF4401FF786FA6078E
:1027E200D2E8D2A7123EDED2AF1242CB900243749D
:1027F200C8F0900243E0FFEF70F81200061242BFE9
:1028020020924A7871E6FFEFC313FFEF5401FF7E77
:1028120000EF4E70387871E6FFEF4402FF7871A640
:10282200071242949002331206A2196563787B0163
:102832007A0279C775400C7D15120FDA7872E6FFBD
:10284200EF547FFF7872A6077F00123B5630920C3E
:102852007871E6FFEF54FDFF7871A6072091337877
:1028620071E6FFEF1313543FFFEF5401FF7E00EFB9
:102872004E701F7871E6FFEF4404FF7871A607C21D
:10288200B4124246D2B57872E6FFEF547FFF7872F7
:10289200A60730910C7871E6FFEF54FBFF7871A622
:1028A2000720A54D7871E6FFEF131313541FFFEFB6
:1028B2005401FF7E00EF4E70387871E6FFEF440856
:1028C200FF7871A6071242949002331206A219658C
:1028D20063787B017A0279C775400C7D15120FDA95
:1028E2007F01123B567872E6FFEF4480FF7872A6B2
:1028F2000730A50C7871E6FFEF54F7FF7871A60751
:102902001206F90227C2786FE6FFEF5401FF7E003C
:10291200EF64014E700F786FE6FFEF54FEFF786FA1
:10292200A60712000EC2E8C2A77871E6FFEF54FDB7
:10293200FF7871A6077871E6FFEF54FBFF7871A666
:0E294200077871E6FFEF54F7FF7871A60722C1
:102DA800D2A79002A5E0FF7E00EF4E704D7B017A1E
:102DB800027918C003C002C0017B007A007932A8EA
:102DC80001AC02AD03D001D002D0037E007F041213
:102DD800047B90024CE0FF8F367F00122C3E90025D
:102DE8008974FFF090022FE4F0A3740DF09003BCF7
:102DF8007402F0A37426F0022EB17B017A027918CE
:102E0800C003C002C0017B007A007932A801AC027D
:102E1800AD03D001D002D0037E007F0412047B757D
:102E280036807F00122C3E9002A5E0FF7E00EF6402
:102E3800014E702F7B017A027927C003C002C001BE
:102E48007B007A007932A801AC02AD03D001D00230
:102E5800D0037E007F0412047B7536FF7F0C122C92
:102E68003E802D7B017A027927C003C002C0017B16
:102E7800007A007932A801AC02AD03D001D002D0AB
:102E8800037E007F0412047B7536007F0C122C3EF3
:102E980090029574FFF090022FE4F0A37419F0905B
:102EA80003BC7403F0A37420F07871E6FFEF4401CB
:102EB800FF7871A6077B017A02797D90022FE0FEE8
:0F2EC800A3E0FFAD07123D8090023F7401F0229E
:022C3E008F31D4
:102C4000AF351238FD7873A60608A6077873E6FF3D
:102C5000AE310531747D2EF582E43402F583EFF058
:102C60007874E6FFAE310531747D2EF582E43402CE
:102C7000F583EFF0AF341238FD7873A60608A60787
:102C80007873E6FFAE310531747D2EF582E43402AF
:102C9000F583EFF07874E6FFAE310531747D2EF5E3
:102CA00082E43402F583EFF0AF331238FD7873A677
:102CB0000608A6077873E6FFAE310531747D2EF560
:102CC00082E43402F583EFF07874E6FFAE3105312B
:102CD000747D2EF582E43402F583EFF0AF361238BE
:102CE000FD7873A60608A6077873E6FFAE310531B6
:102CF000747D2EF582E43402F583EFF07874E6FFFC
:102D0000AE310531747D2EF582E43402F583EFF0A7
:102D10007874A6337873A6367876A6357875A63497
:102D20007875E6FE08E6FF7873E6FC08E6FDED2F11
:102D3000FFEC3EFE7877A60608A6077878E6FF1235
:102D400038FD7873A60608A6077873E6FFAE31054E
:102D500031747D2EF582E43402F583EFF07874E669
:102D6000FFAE310531747D2EF582E43402F583EF38
:102D7000F07877E6FF1238FD7873A60608A6077884
:102D800073E6FFAE310531747D2EF582E43402F531
:102D900083EFF07874E6FFAE310531747D2EF58255
:072DA000E43402F583EFF0BB
:012DA7002209
:0238FD008F6CCE
:1038FF00787B7600787BE6FF7E00C3EF9408EE645A
:10390F0080948050437879E6FE08E6FFEF7802C393
:10391F0033CE33CED8F9FF7879A60608A607E56C23
:10392F0030E00E787AE6FFEF4402FF787AA6078040
:10393F000C787AE6FFEF4401FF787AA607E56CC3AF
:0F394F0013F56C787B0680AC7879E6FE08E6FF0E
:01395E002246
:10004E00020396E86480F8E933E83360110460F047
:10005E00ED33EC337009E8FCE9FDEAFEEBFF220418
:10006E0060DED3EB9FEA9EE99DE8C2E78CF0C2F713
:10007E0095F0400CE8CCF8E9CDF9EACEFAEBCFFBDF
:10008E0012036185D0F05804700320D5B3E80470D4
:10009E00075002B2D50203A092D5EC0460F7E4CC6F
:1000AE00C0E0C398F8603B94186008400DD0E0FBA8
:1000BE00020378E4FBFAC9FC8028E830E406E4C9C0
:1000CE00FBE4CAFCE830E305E4C9CACBFCE85407FC
:1000DE006010F8C3E913F9EA13FAEB13FBEC13FC07
:1000EE00D8F130F52FC3E49CFCEF9BFFEE9AFEEDAA
:1000FE0099FDD0E0FBEF4E4D4C701222DB03020354
:10010E009DEC2CFCEF33FFEE33FEED33FDED30E7CF
:10011E00EB020378EF2BFFEE3AFEED39FDD0E0FB5C
:10012E0050130BBB00030203A0ED13FDEE13FEEF05
:08013E0013FFEC13FC0203782F
:10014600EC4D6011E8497017ED33EC3304600DE4B3
:10015600FCFFFEFD22E933E8330470F80203961231
:10016600036158046009E4CC248150062850090232
:1001760003A028400302039DC0E0EB4A7044B98007
:1001860006D0E0FB02038CEF4E701CBD8008EBFF2F
:10019600EAFEE9FD80EBE98DF0A4FEE5F002022F10
:1001A600E9CDF9EAFEEBFFEF89F0A4FCE5F0CE8994
:1001B600F0A42EFFE435F0CD89F0A42DFEE435F051
:1001C6008067EF4E7005BD80D780C3EF8BF0A4AC7F
:1001D600F0EE8BF0A42CFCE435F0F8EF8AF0A42CBA
:1001E600E5F038FCE433CB8DF0A42CFCE5F03BF8CD
:1001F600EE8AF0A42CFCE5F038F8E433CF89F0A4BD
:100206002CFCE5F038CF3400CE89F0A42FFFE5F0C2
:100216003EFEE433C98DF0A42EFEE5F039CD8AF01A
:10022600A42FFFE5F03EFEE43DFD33D0E0FB500792
:100236000BBB000F0203A0EC2CFCEF33FFEE33FEEA
:06024600ED33FD02037818
:10024C000203A0EC5D046005E859047003020396F8
:10025C00120361580460F6EC4860F2EC7004FDFE89
:10026C00FF22C860DB2481C85009C3986002500685
:10027C0002039D9850CAF582E9294B4A7005AB825E
:10028C0002038C75F0007C1A7880C3EF9BEE9AED1C
:10029C0099400DC3EF9BFFEE9AFEED99FDE842F0FD
:1002AC00DC23ACF0D0E0FFD0E0FED0E0FDAB822050
:1002BC00E7101BEB60BAEC2CFCEF33FFEE33FEEDDA
:1002CC0033FD020378E803F830E705C0F075F00061
:1002DC00EF2FFFEE33FEED33FD40B830E7C280AABE
:1002EC0075F020800E75F010800575F0087D007E8D
:1002FC00007F003392D530D503120664EC334010E6
:10030C00EF33FFEE33FEED33FDEC33FCD5F0ED2295
:0E031C00E5F0247EA2D513CC92E7CDCEFF22D1
:10032A00EDD2E7CD33EC3392D524814006E4FFFECB
:10033A00FDFC22FCE4CFCECDCC24E0501174FF802A
:10034A00EDC3CC13CCCD13CDCE13CECF13CF0470C7
:07035A00F030D5DE0206645D
:10036100E9D2E7C933E833F892D5EDD2E7CD33ECE2
:0703710033FC5002B2D5225B
:10037800EC30E7100FBF000C0EBE00080DBD0004E6
:100388000BEB6014A2D5EB13FCED92E7FD2274FF92
:10039800FCFDFEFF22E480F8A2D574FF13FC7D80EB
:0303A800E480EFFF
:0300000002370EB6
:0C370E00787FE4F6D8FD75817F02375506
:1003AB00E709F608DFFA8046E709F208DFFA803E34
:1003BB0088828C83E709F0A3DFFA8032E309F60821
:1003CB00DFFA8078E309F208DFFA807088828C8389
:1003DB00E309F0A3DFFA806489828A83E0A3F6083D
:1003EB00DFFA805889828A83E0A3F208DFFA804C17
:1003FB0080D280FA80C680D4806980F280338010EE
:10040B0080A680EA809A80A880DA80E280CA803356
:10041B0089828A83ECFAE493A3C8C582C8CCC583CE
:10042B00CCF0A3C8C582C8CCC583CCDFE9DEE7809E
:10043B000D89828A83E493A3F608DFF9ECFAA9F01D
:10044B00EDFB2289828A83ECFAE0A3C8C582C8CC73
:10045B00C583CCF0A3C8C582C8CCC583CCDFEADE8C
:10046B00E880DB89828A83E493A3F208DFF980CCEE
:10047B0088F0EF60010E4E60C388F0ED2402B404E7
:10048B000050B9F582EB2402B4040050AF2323458E
:06049B0082239003FB73B5
:1004A100BB010689828A83E0225002E722BBFE0259
:0904B100E32289828A83E493228C
:1004BA00BB010CE58229F582E5833AF583E02250F7
:1004CA0006E92582F8E622BBFE06E92582F8E22241
:0D04DA00E58229F582E5833AF583E493225B
:1004E700BB010689828A83F0225002F722BBFE01F4
:0204F700F322EE
:1004F900F8BB010DE58229F582E5833AF583E8F039
:10050900225006E92582C8F622BBFE05E92582C8E4
:02051900F222CC
:10051B00C5F0F8A3E028F0C5F0F8E582158270026B
:06052B001583E038F02208
:10053100A3F8E0C5F025F0F0E5821582700215837D
:06054100E0C838F0E822DA
:10054700E88FF0A4CC8BF0A42CFCE98EF0A42CFC53
:100557008AF0EDA42CFCEA8EF0A4CDA8F08BF0A4D1
:100567002DCC3825F0FDE98FF0A42CCD35F0FCEB30
:100577008EF0A4FEA9F0EB8FF0A4CFC5F02ECD39F5
:0F058700FEE43CFCEAA42DCE35F0FDE43CFC2262
:1005960075F008758200EF2FFFEE33FECD33CDCC1C
:1005A60033CCC58233C5829BED9AEC99E58298409F
:1005B6000CF582EE9BFEED9AFDEC99FC0FD5F0D67C
:1005C600E4CEFBE4CDFAE4CCF9A88222B800C1B9A6
:1005D6000059BA002DEC8BF084CFCECDFCE5F0CBE4
:1005E600F97818EF2FFFEE33FEED33FDEC33FCEB1D
:1005F60033FB10D703994004EB99FB0FD8E5E4F9D8
:10060600FA227818EF2FFFEE33FEED33FDEC33FCC4
:10061600C933C910D7059BE99A4007EC9BFCE99AB8
:10062600F90FD8E0E4C9FAE4CCFB2275F010EF2FFD
:10063600FFEE33FEED33FDCC33CCC833C810D707FD
:100646009BEC9AE899400AED9BFDEC9AFCE899F838
:0E0656000FD5F0DAE4CDFBE4CCFAE4C8F922CB
:103C8100C2D5E830E70FB2D5E4C39BFBE49AFAE46E
:103C910099F9E498F8EC30E717B2D5123CB7120560
:103CA100D2E4C39BFBE49AFAE499F9E498F880031F
:103CB1001205D230D50DE4C39FFFE49EFEE49DFDC5
:043CC100E49CFC2261
:0E066400C3E49FFFE49EFEE49DFDE49CFC22A7
:10067200EB9FF5F0EA9E42F0E99D42F0E89C45F0DE
:010682002255
:10068300E8600FECC313FCED13FDEE13FEEF13FF55
:03069300D8F12279
:0C069600ECF0A3EDF0A3EEF0A3EFF022D7
:1006A200A8828583F0D083D0821206B91206B912CD
:1006B20006B91206B9E473E493A3C583C5F0C583F2
:1006C200C8C582C8F0A3C583C5F0C583C8C582C8A2
:0106D2002205
:1006D300D083D082F8E4937012740193700DA3A3B6
:1006E30093F8740193F5828883E4737402936860CA
:0606F300EFA3A3A380DFCA
:10371A00022ED7E493A3F8E493A34003F68001F2C0
:10372A0008DFF48029E493A3F85407240CC8C333B0
:10373A00C4540F4420C8834004F456800146F6DF7F
:10374A00E4800B0102040810204080901A33E47EC2
:10375A00019360BCA3FF543F30E509541FFEE49374
:10376A00A360010ECF54C025E060A840B8E493A33B
:10377A00FAE493A3F8E493A3C8C582C8CAC583CA66
:10378A00F0A3C8C582C8CAC583CADFE9DEE780BE1E
:011CD800000B
:00000001FF
