:102DD20012410A123D3D1241731240021212C912EF
:102DE2003AC412407A12405E12388C1241AD122659
:102DF200DB12419DD2AF1241B190024DE4F0A374B7
:102E02001EF01241A912230B1235E312375A900217
:102E120031E0FF7E00EF4E70E990024AE0FF7E0053
:102E2200EF4E70DE7871E6FFEFC4135407FFEF54E4
:102E320001FF7E00EF64014E70C8900239E0FEA3EC
:102E4200E0FFEF64024E60BA7871E6FFEF5401FFD3
:102E52007E00EF4E70AC7871E6FFEF54DFFF7871C1
:102E6200A607C2E8786DE6FFEF4420FF786DA6075B
:102E7200786DE6FFEFC41313135401FFEF5401FF03
:102E82007E00EF64014E70051241A980E3786DE681
:102E9200FFEFC41313135401FFEF5401FF7E00EF41
:102EA2004E70CD90023BE0FF7E00C3EF9401EE64D2
:102EB20080948040BB90023BE0FF7E00D3EF9404FD
:102EC200EE6480948050A912230B1241A980A102C2
:032ED2002E0422A9
:103D3D0075E78075E30075E44075E50475E210756F
:103D4D00E64675E6B90075E50075E70075E780751F
:103D5D00E30075E44175E50475E20A75E64675E61E
:093D6D00B90075E50075E70022BC
:10410A00439701E5E154F8FFEF4404F5E143E18008
:04411A0043E120223B
:0441A90043E11022BC
:103AC4005391F1D291D292D29343B4045395FDD23F
:103AD400A14395815395DFD2A543B41043B420C2CA
:103AE400A053B1DF43B22043B301C2B4C2A7C2E8BA
:103AF400D2B55395A3C2A2C2A3C2A4C2A643B10421
:093B040053B2FB53B3FDC2E922E8
:10411E004391B05391BFD29643B40853B1EF43B21B
:02412E0010225D
:1041300053910FC296C294C295C29743B11053B225
:02414000EF226C
:0C00160053C13FD28A53A1FD43C1022216
:03000300023C8D2F
:103C8D00C0E0C0F0C083C082C0D075D000C000C0FD
:103C9D0001C002C003C004C005C006C007122FC476
:103CAD00D007D006D005D004D003D002D001D0006B
:0B3CBD00D0D0D082D083D0F0D0E03215
:03001300023CC8E4
:103CC800C0E0C0F0C083C082C0D075D000C000C0C2
:103CD80001C002C003C004C005C006C007122FC43B
:103CE800D007D006D005D004D003D002D001D00030
:0B3CF800D0D0D082D083D0F0D0E032DA
:06419D00120016D2AA2256
:051950004203BB000092
:10400200E58954FCFFEF4401F58953A1EF43A30472
:104012005389FB5389F7758A48758CF4D28CD2A9DF
:01402200227B
:03000B000234AB11
:1034AB00C0E0C083C082C0D075D000C000C006C0D1
:1034BB0007758CF4758A487871E6FFEF4440FF7806
:1034CB0071A607900261E0FFEF6008900261E014C3
:1034DB00F080129002617464F07871E6FFEF448023
:1034EB00FF7871A6079003BBE0FEA3E0FFEF4E60F1
:1034FB000E9003BCE024FFF09003BBE034FFF09090
:10350B000266E0FEA3E0FFEF4E60247872E6FFEF69
:10351B00C313FFEF5401FF7E00EF64014E701E904A
:10352B000267E024FFF0900266E034FFF0800E901B
:10353B000242E0FFEF6006900242E014F0D007D0A9
:0C354B0006D000D0D0D082D083D0E03277
:103B0D00E5D954F1FFEF440AF5D975AC0175DA0228
:103B1D0075AC0075AC01E5F244C0F5F275AC00531F
:103B2D00BC7F75AC01800543F203800975EA1275FF
:103B3D00FAFD53F2FC75AC0075F9FA75E92475CFF1
:053B4D00FA75CE2422F0
:0441AD00123B0D2292
:0341B500D2DE2235
:05000600C2DEC2A022D1
:104154008F5BAF5B7E00EF4E60060000155B80F264
:014164002238
:1040C9008F5CAF5C155CEF600C7F641241547F64B8
:0640D90012415480ED22AB
:0E416500284F4B292857472900000000000072
:101955004103AA004103AC004103A0004103A200DA
:101965004103A1006029034D0000000000000000B4
:101975000000000000000000000000000000000062
:101985000000000000000000000000000000000052
:101995000060290376000000000000000000000040
:1019A5000000000000000000000000000000000032
:1019B50000000000000000000000000000004403DB
:1019C50047000000004103AE004303A302030041AA
:1019D500039F004103AD004103AB0041034B0041B0
:0A19E500034C004403A600000000BC
:103DAF00539CEFC29FD29ED29CC2CDC2CC539C7F5C
:103DBF00438780539CBFE58954CFFFEF4420F5899B
:103DCF0043A3085389BF53897F758DED758BEDD252
:043DDF008ED2AC22B2
:05000E00C28EC2AC220D
:030023000233396C
:10333900C0E0C083C082C0D075D000C000C006C044
:01334900077C
:10334A00787C7600C0AC75AC00309902C29920989E
:10335A00030233E3C298787CA699787CE6FFEFB43F
:10336A002805900224E4F0787CE6FF900224E0FE2F
:10337A00746C2EF582E43402F583EFF0900224E0B7
:10338A00FFEF04FFEF541FFF900224EFF0787CE672
:10339A00FFEF64297043787C7600900224E0FF787E
:1033AA007CE6FEEEC39F5025787CE6FF746C2FF511
:1033BA0082E43402F583E0FF787CE6FE74512EF550
:1033CA0082E43402F583EFF0787C0680CD786DE6EE
:0B33DA00FFEF4410FF786DA607D0AC99
:0F33E500D007D006D000D0D0D082D083D0E03235
:0240F5008F5DDD
:1040F700A2AC9200C2AC855D993099FDC299A2002D
:0241070092AC78
:014109002293
:083BD7008B418A4289438D44B1
:103BDF00900331E4F0900331E4F0900331E0FFEF14
:103BEF00C39544501FAB41AA42A943900331E0FF54
:103BFF008F827583001204BAFF1240F5900331E0F3
:043C0F0004F080D667
:013C1300228E
:023F3A008F5E98
:103F3C00AF5E7E00C3EF943AEE64809480500CE543
:103F4C005E540FFF900332EFF0800AE55E24C9FF48
:0A3F5C00900332EFF0900332E0FF13
:013F66002238
:023EAB008F5F27
:103EAD00535F0FAF5F7E00C3EF940AEE6480948082
:103EBD00500CE55F4430FF900333EFF0800AE55F6F
:0D3ECD002437FF900333EFF0900333E0FF44
:013EDA0022C5
:044023008F518D52DA
:10402700AF51123F3AEFC454F0FDAF52123F3AEF8F
:09403700540FFFED2FF553AF53B8
:01404000225D
:1006F9007BFF7A417965C003C002C0017B017A039F
:100709007938A801AC02AD03D001D002D0037E0034
:100719007F0412047B90033CE4F07BFF7A41796902
:10072900C003C002C0017B017A03793DA801AC0274
:10073900AD03D001D002D0037E007F0A12047B787A
:100749006DE6FFEF20E403020B15786DE6FFEF5429
:10075900EFFF786DA607900252E0FFEF1206D3086B
:10076900C84509044607F652089053077B5700000D
:100779000B15900253E0FFEF64476003020B1590DD
:100789000334E4F090026FE0FF900270E0FD124044
:1007990023900335EFF0900271E0FF900272E0FDC3
:1007A900124023900336EFF0900273E0FF90027439
:1007B900E0FD124023900337EFF0900334E0FCA3EF
:1007C900E0FDA3E0FEA3E0FF9002181206967B016C
:1007D9007A037935751E00751F037FFB7E7F122012
:1007E900DF7B017A0379387D04123BD722900253CB
:1007F900E0FFEF64476003020B1590033D7428F096
:1008090090033E7452F090033F7447F09003407494
:1008190029F0900219E0FFEFC4540FFF123EAB908C
:100829000341EFF0900219E0FFEF540FFF123EABC6
:10083900900342EFF090021AE0FFEFC4540FFF1249
:100849003EAB900343EFF090021AE0FFEF540FFF25
:10085900123EAB900344EFF090021BE0FFEFC4544B
:100869000FFF123EAB900345EFF090021BE0FFEF44
:10087900540FFF123EAB900346EFF07B017A0379E8
:100889003D7D0A123BD7227872E6FFEF547FFF784D
:1008990072A60712417E9002331206A21965637887
:1008A9007B017A0279C675400C7D15120EF47F0022
:1008B900123A277B017A0379387D04123BD72290BB
:1008C9000253E0FFEF644E6003020B15900254E0FF
:1008D900FFEF64446003020B157F03122ED512410A
:1008E90030D2B57872E6FFEF547FFF7872A6077BA6
:1008F900017A0379387D04123BD722900253E0FF35
:10090900EF644D70387872E6FFEF4480FF7872A685
:100919000712417E9002331206A2196563787B01A2
:100929007A0279C675400C7D15120EF47F01123AD0
:10093900277B017A0379387D04123BD72290025331
:10094900E0FFEF64437051900254E0FFEF643F70A1
:100959004790033D7428F090033E7446F090033F9E
:100969007443F09003407429F09002EAE0FFEFC469
:10097900540FFF123EAB900341EFF09002EAE0FF03
:10098900EF540FFF123EAB900342EFF07B017A0365
:10099900793D7D06123BD722900253E0FFEF644375
:1009A9006003020B157872E6FFEFC41313135401A9
:1009B900FFEF5401FF7E00EF64014E6003020B1547
:1009C90090026FE0FF900270E0FD12402390033C1B
:1009D900EFF07F03122ED590033CE0FF7E00D3EFAA
:1009E900940AEE64809480507490033CE0FF900276
:1009F900EAEFF07B017A0279EA751E00751F017F23
:100A0900FA7E7F1220DF90033CE0FF7E96EF8EF0A6
:100A1900A4FFAEF0E4FCFDEF2478FFEE3463FEEDB5
:100A29003465FDEC3419FC9003A61206969003A6D2
:100A3900E0FCA3E0FDA3E0FEA3E0FF7B017A0279DD
:100A4900C6121BF27B017A0279C67D011228557BF9
:100A5900017A0379387D04123BD7020B1090033CCD
:100A6900E0FF7E00C3740A9FEE6480F8E464809816
:100A79004003020B1090033CE0FF7E00D3EF941477
:100A8900EE648094804003020B1090033CE0FF90D9
:100A990002EAEFF07B017A0279EA751E00751F01FF
:100AA9007FFA7E7F1220DF90033CE024F6F090036A
:100AB9003CE0FF7E96EF8EF0A4FFAEF0AB07AA06EE
:100AC900E4F9F8C374789BFF74639AFE746599FD21
:100AD900741998FC9003A61206969003A6E0FCA34D
:100AE900E0FDA3E0FEA3E0FF7B017A0279C6121BB9
:100AF900F27B017A0279C67D011228557B017A03BE
:0C0B090079387D04123BD77F01123A2797
:010B150022BD
:0B41730075BF0B7D7C7F03123F6722AD
:043F67008F578D588B
:103F6B00A2AF9201C2AF75E3008557E48558E275A5
:103F7B00E50475E78075E64675E6B90075E50075ED
:063F8B00E700A20192AF65
:013F9100220D
:0A20DF008E198F1A8B1B8A1C891DB5
:1020E900A2AF9202C2AF900202E4F0E51954FEFEDB
:1020F9007F00900203EEF0A3EFF0900200E4F0A35A
:10210900E4F0900200E0FEA3E0FFC3EE9402505613
:10211900900203E0FF8FE3900204E0FF8FE475E58E
:102129000175E78075E64675E6B975E50075E7005E
:10213900900204E004F07006900203E004F09002BB
:1021490000E0FEA3E0FF74002FF58274003EF583E2
:10215900E5E2F01241A9900201E004F07006900254
:1021690000E004F0809CE5195401FEAF1A900200CA
:10217900EEF0A3EFF0E51F451E6041AB1BAA1CA9B9
:102189001D1204A1FF900200E0FCA3E0FD74002DE4
:10219900F58274003CF583EFF07401251DF51DE40B
:1021A900351CF51C900201E004F07006900200E075
:1021B90004F0E51F151F7002151E80B9E51954FEBC
:1021C900FE7F00900203EEF0A3EFF0900203E0FF20
:1021D9008FE375E40075E50375E78075E64675E6F6
:1021E900B90075E50075E700900200E4F0A3E4F09A
:1021F900900200E0FEA3E0FFC3EE94025058900263
:1022090000E0FEA3E0FF74002FF58274003EF58321
:10221900E0FF8FE2900203E0FF8FE3900204E0FF0A
:102229008FE475E50275E78075E64675E6B90075D0
:10223900E50075E700900204E004F07006900203DF
:10224900E004F01241A9900201E004F07006900246
:1022590000E004F0809AE51954FEFE7F0090020325
:10226900EEF0A3EFF0900200E4F0A3E4F090020096
:10227900E0FEA3E0FFC3EE94025078900203E0FF72
:102289008FE3900204E0FF8FE475E50175E780753F
:10229900E64675E6B975E50075E700900204E004C5
:1022A900F07006900203E004F01241A9900200E0E8
:1022B900FEA3E0FF74002FF58274003EF583E0FF72
:1022C900EF65E2601D900202E004F0900202E0FF77
:1022D9007E00C3EF9403EE64809480501B0221C5F5
:1022E9008016900201E004F07006900200E004F00C
:1022F900022276900202E4F0A20292AF900202E07A
:01230900FFD4
:01230A0022B0
:1012C900787D7600907FF9E493FF900222EFF09009
:1012D9000222E0FF7E00D3EF9401EE648094804007
:1012E90005900222E4F0900205E4F0907FFBE4937C
:1012F900FF900206EFF0907FFCE493FF900207EF66
:10130900F0907FFDE493FF900208EFF07F007E00EC
:101319007D007C00900205E0F8A3E0F9A3E0FAA3C0
:10132900E0FBC3120672601C7FFF7EFF7DFF7C001D
:10133900900205E0F8A3E0F9A3E0FAA3E0FBC312E9
:101349000672700A9002051206A2000000009002BF
:1013590005E0FCA3E0FDA3E0FEA3E0FF9002181264
:101369000696907FFAE493FF787DA607787DE6FFDD
:101379007E00C3E49FEE6480F8E464809840030231
:1013890014DA787DE6FF7E00D3EF940AEE64809448
:101399008040030214DA787DE6FF9002EAEFF078E4
:1013A9007DE6FF7E96EF8EF0A4FFAEF0E4FCFDEF44
:1013B9002478FFEE3463FEED3465FDEC3419FC90BE
:1013C9000233120696900233E0FCA3E0FDA3E0FE8F
:1013D900A3E0FF7B017A0279C6121BF2787DE6FF52
:1013E9007E96EF8EF0A4FFAEF0E4FCFDEF2430FF13
:1013F900EE34B0FEED346FFDEC3419FC900233127B
:101409000696900233E0FCA3E0FDA3E0FEA3E0FF13
:101419007B017A0279BE121BF2787DE6FF7E96EF98
:101429008EF0A4FFAEF0E4FCFDEF24D8FFEE34B05B
:10143900FEED3494FDEC3419FC90023312069690BB
:101449000233E0FCA3E0FDA3E0FEA3E0FF7B017A09
:101459000279D6121BF2787DE6FF7E96EF8EF0A414
:10146900FFAEF0E4FCFDEF2470FFEE345CFEED34DA
:1014790097FDEC3419FC900233120696900233E082
:10148900FCA3E0FDA3E0FEA3E0FF7B017A0279B6AD
:10149900121BF2787DE6FF7E96EF8EF0A4FFAEF088
:1014A900E4FCFDEF24B0FFEE3469FEED349AFDEC67
:1014B9003419FC900233120696900233E0FCA3E043
:1014C900FDA3E0FEA3E0FF7B017A0279CE121BF2B5
:1014D90022787DE6FF7E00C3740A9FEE6480F8E4FB
:1014E900648098400302165E787DE6FF7E00D3EFA4
:1014F9009414EE64809480400302165E787DE6FFC2
:101509009002EAEFF0787D74F626F6787DE6FF7EA4
:1015190096EF8EF0A4FFAEF0AB07AA06E4F9F8C384
:1015290074789BFF74639AFE746599FD741998FC2D
:10153900900233120696900233E0FCA3E0FDA3E08B
:10154900FEA3E0FF7B017A0279C6121BF2787DE6E1
:10155900FF7E96EF8EF0A4FFAEF0AB07AA06E4F982
:10156900F8C374309BFF74B09AFE746F99FD7419B7
:1015790098FC900233120696900233E0FCA3E0FD3A
:10158900A3E0FEA3E0FF7B017A0279BE121BF27889
:101599007DE6FF7E96EF8EF0A4FFAEF0AB07AA06BC
:1015A900E4F9F8C374D89BFF74B09AFE749499FD5A
:1015B900741998FC900233120696900233E0FCA34A
:1015C900E0FDA3E0FEA3E0FF7B017A0279D6121BBE
:1015D900F2787DE6FF7E96EF8EF0A4FFAEF0AB07C2
:1015E900AA06E4F9F8C374709BFF745C9AFE7497B9
:1015F90099FD741998FC900233120696900233E013
:10160900FCA3E0FDA3E0FEA3E0FF7B017A0279B62B
:10161900121BF2787DE6FF7E96EF8EF0A4FFAEF006
:10162900AB07AA06E4F9F8C374B09BFF74699AFE84
:10163900749A99FD741998FC9002331206969002D7
:1016490033E0FCA3E0FDA3E0FEA3E0FF7B017A0207
:0516590079CE121BF226
:01165E002269
:0A4189008F60AF601560EF70F9223F
:10407A004385404385905385FC7584005385F753E7
:0B408A0085DF5385FB53A2DFD2942298
:104095008F61E58420E5FB856186E5845480FF7E9C
:0B40A50000EF4E60F5438480AF8622E0
:103E49008F598D5A7F01124189C2947F011241898C
:103E5900E55925E0FFEF4401F559AF59124095AFF7
:103E69005A1240957F01124189D2947F01124189EA
:013E79002226
:023D03008F62CD
:103D05009003BDE4F07F01124189C2947F01124105
:103D150089E56225E0F562AF621240957FFF1240AA
:103D2500959003BDEFF07F01124189D2947F011276
:073D350041899003BDE0FF8E
:013D3C002264
:0836E3008F378B388A39893AD0
:1036EB009003BEE4F07F01124189C2947F01124125
:1036FB0089E53725E0FFEF4401F537AF37124095E9
:10370B00AB38AA39A93A1204A1FF1240959003BE17
:10371B007401F09003BEE0FFEFC3953B50247F0292
:10372B00124189AB38AA39A93A9003BEE0FF8F82C8
:10373B007583001204BAFF1240959003BEE004F0AB
:0E374B0080D17F01124189D2947F0112418901
:01375900224D
:1019EF00016E00016F0048020A00000000000000B5
:1019FF0000440233196563780171000172000170B0
:101A0F0000016D0041024300410245006028027C45
:101A1F0000000000000000000000000000000000B7
:101A2F0000000000000000000000000000000000A7
:101A3F0000000000000000004402180000000044F5
:101A4F0002270000000041024B0042021200004139
:101A5F00023E004102440042022F00004202660093
:101A6F000041024200420262000041024100410275
:101A7F003D00410217004102610041023100410265
:101A8F00240050026C000000000000000000000065
:101A9F000000000000500251000000000000000094
:101AAF0000000000000000004102320041023C0033
:101ABF0041022D0042023700004202B000004102F5
:101ACF003B0041024A0041022E004102090042023E
:101ADF002B000042022500004102220042023F007B
:101AEF00004202640000410214004102A4004902B6
:101AFF00A700000000000000000041024900420260
:101B0F00A5000042021500004402680000000042D8
:101B1F0002460000410248004102230044021E0019
:101B2F0000000042021C000042024F000042023936
:0B1B3F00000041024C0042024D00007B
:10388C009002617464F0900243741AF0900243E069
:10389C00FFEF14FF900231EFF012414290022D74B1
:1038AC00FFF090023274FFF090023CE4F07870E686
:1038BC00FFEF4440FF7870A6077870E6FFEF547F67
:1038CC00FF7870A607123C149002B0E4F0A3E4F069
:0938DC00900264E4F0A3E4F02280
:101B4A004302E60000004802C623081999230791B8
:101B5A00114802B6230C7777230BEEEF4802CE2307
:101B6A000CBBBC230C33334802BE230900002308F4
:101B7A0077774802D6230C3BBC230BB3334102B41C
:101B8A0000602802EC0000000000000000000000D5
:101B9A00000000000000000000000000000000003B
:101BAA00000000000000000000000000004102EBFD
:101BBA00014102B500410330014102B3004102E98B
:101BCA00004102B2004102EA004802DE00000000C1
:041BDA000000000007
:100EF4008B3C8A3D893E8D3F12411E1241937F0DEA
:100F0400123D037E00EF30E0F5800280F17D117F19
:100F140000123E497DFF7F01123E497D9F7F0212F0
:100F24003E497DC37F03123E497D037F04123E493F
:100F34007D107F05123E497D007F06123E497D15D6
:100F44007F07123E497D007F08123E497D007F09DC
:100F5400123E497D187F0A123E497D887F0B123E5E
:100F6400497D007F0C123E497D087F0D123E497D6C
:100F7400007F0E123E497D007F0F123E497D007FA7
:100F840010123E497D007F11123E497D007F1212EE
:100F94003E497D007F13123E497D007F14123E4975
:100FA4007D007F15123E497D007F16123E497D006B
:100FB4007F17123E497D007F18123E497D007F193C
:100FC400123E497D007F1A123E497D067F2D123E56
:100FD400497D057F3F123E497D8B7F41123E497D0D
:100FE400007F42123E497D347F43123E497D087F93
:100FF40045123E497D007F4E123E497D007F4F12CF
:101004003E497D007F50123E497D007F51123E498A
:101014007D147F54123E497D067F60123E497D88CF
:101024007F63123E497D027F67123E497D107F68CF
:10103400123E497D007F69123E497D5B7F6E123E00
:10104400497D007F7A123E497D0C7F7B123E497DAB
:10105400007F7D123E49AD407F7E123E497D227F56
:1010640000123E497D077F02123E497DD07F031264
:101074003E497D007F04123E497D507F05123E4962
:101084007D277F11123E497D0C7F13123E497D025C
:101094007F1A123E49AB3CAA3DA93E1204A1FD7F32
:1010A4001B123E49AB3CAA3DA93E758201758300E3
:1010B4001204BAFD7F1C123E49AB3CAA3DA93E7501
:1010C40082027583001204BAFD7F1D123E49AB3CB7
:1010D400AA3DA93E7582037583001204BAFD7F1EE2
:1010E400123E49AB3CAA3DA93E1204A1FD7F1F124A
:1010F4003E49AB3CAA3DA93E7582017583001204AA
:10110400BAFD7F20123E49AB3CAA3DA93E7582023E
:101114007583001204BAFD7F21123E49AB3CAA3DFF
:10112400A93E7582037583001204BAFD7F22123E24
:10113400497D087F23123E497D887F24123E497DE4
:10114400087F25123E497D0F7F26123E497D007F90
:1011540027123E497D007F28123E497D007F2912D7
:101164003E49AD3F7F2A123E497D087F2F123E49FA
:101174007D007F30123E497DC07F31123E49AB3C39
:10118400AA3DA93E7582047583001204BAFD7F4D01
:10119400123E49AB3CAA3DA93E75820575830012F7
:1011A40004BAFD7F4E123E49AB3CAA3DA93E75826E
:1011B400067583001204BAFD7F4F123E49AB3CAA68
:1011C4003DA93E7582077583001204BAFD7F501253
:1011D4003E497D047F51123E497D5A7F52123E4959
:1011E4007D667F53123E497D157F5C123E497D1B0F
:1011F4007F5D123E497D057F5E123E497D677F5FBC
:10120400123E497D0C7F60123E49123E177D447F99
:1012140000123E497D0F7F2A123E497D447F001211
:101224003E497D007F4F123E497D887F00123E4932
:101234007D3F7F2F123E497D417F0C123E497D3315
:101244007F0D123E497D547F0E123E497D107F145E
:10125400123E497D037F24123E497D007F7E123E6B
:10126400497F707E5C7D977C19900233E0F8A3E09F
:10127400F9A3E0FAA3E0FBC3120672601C7FB07E00
:10128400697D9A7C19900233E0F8A3E0F9A3E0FAAF
:10129400A3E0FBC31206727005123274800312338A
:1012A400F47D117F00123E497D017F6F123E497F1C
:1012B4000D123D037E00EF30E1F5800280F1124013
:0512C400411240DF2291
:103A27008F637D117F00123E49E5631206D33A4545
:103A3700003A4E013A57023A600300003A697D2185
:103A47007F76123E4980227D117F76123E4980198A
:103A57007D097F76123E4980107D057F76123E49AB
:0F3A670080077D037F76123E497F09122ED522FC
:102FC400787E76007F0F123D03787EA607787EE632
:102FD400FFEF5401FF7E00EF64014E60030230B046
:102FE400787EE6FF7E00EF64FF4E70030230B07817
:102FF4006EE6FFEF4440FF786EA6077F01123D7630
:103004007871E6FFEF5401FF7E00EF64014E600328
:103014000230B090023EE0FF7E00C3EF9403EE6402
:10302400809480503D786EE6FFEFC413135403FF81
:10303400EF5401FF7E00EF64014E7026786EE6FFC8
:10304400EF54BFFF786EA6077B017A02797C900269
:103054002FE0FEA3E0FFAD07123C5190023EE004D6
:10306400F02290023EE0FF7E00EF64034E703D7854
:103074006EE6FFEFC413135403FFEF5401FF7E0009
:10308400EF64014E7026786EE6FFEF54BFFF786E52
:10309400A6077871E6FFEF54FEFF7871A607C2A772
:0C30A4007F03122ED5C2B4124130D2B509
:0130B00022FD
:0B417E0030B507C2B57F021240C92215
:1040B00030B515C2B57F021240C97B017A0279C6BC
:0940C00075400C7D15120EF4226E
:103F0B008F647D117F00123E49AF647E00EF641019
:103F1B004E6014AF647E00EF64124E600AAF647E95
:0F3F2B0000EF641A4E7007AD647F0A123E492200
:022ED5008F6507
:102ED7009003AFE4F07D117F00123E497F0B123D56
:102EE70003EFC4540FFF9003AFEFF09003AFE0FF81
:102EF700EF65657003022FBEAF657E00EF64094E74
:102F07006021AF657E00EF64064E6017AF657E00F7
:102F1700EF64084E600DAF657E00EF64034E6003FB
:102F2700022FBEAD657F0B123E49123B969003AF51
:102F3700EFF09003AFE0FF7E00EF4E606BAF657E72
:102F470000EF64034E6061900233E0FCA3E0FDA351
:102F5700E0FEA3E0FF7B017A0279DE121BF2124149
:102F6700A97F407E057D927C19900233E0F8A3E0AB
:102F7700F9A3E0FAA3E0FBC312067250107B017AB3
:102F87000279DE75400C7D55120EF4800E7B017AB6
:102F97000279DE75401C7D55120EF41241A9AD650C
:102FA7007F0B123E49123B967F0B123D03EFC45431
:0C2FB7000FFF9003AFEFF09003AFE0FFBE
:012FC30022EB
:103B96009003B0E4F0A3E4F07D117F00123E497F6C
:103BA6000D123D03EF30E30A7D007F0D123E497F83
:103BB60000229003B0E475F001120531AFF0FED398
:103BC600EF9488EE941340037F01221241A980CF1F
:013BD60022CC
:103D76008F667D117F00123E49AF667E00EF6401BB
:103D86004E700F7D007F0F123E497D817F16123ED9
:103D96004922AF667E00EF4E700E7D007F0E123E0A
:093DA600497D827F16123E49227C
:104041007D117F00123E497D007F0D123E497D00AA
:0D4051007F0E123E497D007F0F123E492276
:103274007D117F00123E497D227F06123E497D1555
:103284007F07123E497D1E7F66123E497D227F00E4
:10329400123E497D937F0C123E497D357F0D123ECF
:1032A400497D277F11123E497D0C7F13123E497DD3
:1032B400087F2F123E497D507F56123E497D407F44
:1032C40057123E497D017F58123E497D147F5912A1
:1032D4003E497D007F5A123E497D007F5B123E4984
:1032E4007D157F5C123E497D0D7F5D123E497D0553
:1032F4007F5E123E497D677F5F123E497D097F6094
:10330400123E497D887F00123E497D417F0C123E6A
:10331400497D337F0D123E497D547F0E123E497D17
:10332400107F14123E497D037F24123E497D117F94
:0533340000123E4922D9
:1033F4007D117F00123E497D007F06123E497D1EED
:103404007F66123E497D227F00123E497D937F0CE8
:10341400123E497D357F0D123E497D277F11123EB4
:10342400497D0C7F13123E497D087F2F123E497D52
:10343400407F57123E497D017F58123E497D147FDB
:1034440059123E497D007F5A123E497D007F5B122E
:103454003E497D157F5C123E497D1B7F5D123E49CE
:103464007D057F5E123E497D677F5F123E497D0C7C
:103474007F60123E497D887F00123E497D417F0C6A
:10348400123E497D337F0D123E497D547F0E123E1C
:10349400497D107F14123E497D037F24123E497DED
:0734A400117F00123E4922D6
:0A419300C2B47F021240C9D2B42268
:102855008B458A4689478D48786EE6FFEF4408FF29
:10286500786EA6077F00122ED57E00EF64084E60B5
:10287500057F03122ED57D227F00123E49AB45AA66
:1028850046A9471204A1FD7F1B123E49AB45AA4646
:10289500A9477582017583001204BAFD7F1C123E9B
:1028A50049AB45AA46A9477582027583001204BA49
:1028B500FD7F1D123E49AB45AA46A94775820375A2
:1028C50083001204BAFD7F1E123E49AB45AA46A9F4
:1028D500471204A1FD7F1F123E49AB45AA46A947F1
:1028E5007582017583001204BAFD7F20123E49AB43
:1028F50045AA46A9477582027583001204BAFD7F71
:1029050021123E49AB45AA46A94775820375830046
:102915001204BAFD7F22123E49AB45AA46A9477566
:1029250082047583001204BAFD7F4D123E49AB4502
:10293500AA46A9477582057583001204BAFD7F4E24
:10294500123E49AB45AA46A9477582067583001212
:1029550004BAFD7F4F123E49AB45AA46A947758289
:10296500077583001204BAFD7F50123E497D227F10
:1029750000123E497D087F25123E497D557F2A126A
:102985003E49AF487E00EF64014E70051233F48076
:102995000DAF487E00EF64024E70031232747D0164
:1029A5007F6F123E497F0D123D037E00EF30E1F54A
:1029B500800280F17D117F00123E49786EE6FFEFBF
:0829C50054F7FF786EA607220B
:1040DF007D117F00123E497D077F4E123E497D01C3
:0640EF007F12123E49227F
:103C51008B498A4A894B8D4CAF4C7E00D3EF9440FF
:103C6100EE648094804003754C407D117F00123ECC
:103C710049AD4C7F7B123E497F10123F0BAB49AAE5
:0C3C81004AA94B854C3B7F7C1236E322A5
:0E1BF2008F2D8E2C8D2B8C2A8B2E8A2F8930D6
:101C00009003B2E4F09003B31206A200000000902B
:101C100003B71206A2000000007B007A1B79B77898
:101C200000AF2DAE2CAD2BAC2A1205D29003B2EF33
:101C3000F0AF2DAE2CAD2BAC2AE41202EC7B007A77
:101C40001B7937784B12024FC004C005C006C0078D
:101C50009003B2E0FCE41202F6A804A905AA06ABC0
:101C600007D007D006D005D0041200519003B3125C
:101C700006967F007E007D807C499003B3E0F8A348
:101C8000E0F9A3E0FAA3E0FB12014612032A900355
:101C9000B71206969003B2E0FFAB2EAA2FA930EF41
:101CA0001204E79003B7E0FCA3E0FDA3E0FEA3E08D
:101CB000FF7810120683EF54FFFFEE5400FEED5440
:101CC00000FDEC5400FCAB2EAA2FA93075820175E3
:101CD0008300EF1204F99003B7E0FCA3E0FDA3E05A
:101CE000FEA3E0FF7808120683EF54FFFFEE5400D6
:101CF000FEED5400FDEC5400FCAB2EAA2FA930756C
:101D00008202758300EF1204F99003B7E0FCA3E0B0
:101D1000FDA3E0FEA3E0FFEF54FFFFEE5400FEED55
:101D20005400FDEC5400FCAB2EAA2FA930758203A1
:101D3000758300EF1204F9E52D2480F52DE52C3490
:101D4000E5F52CE52B34F9F52BE52A34FFF52A7B54
:101D5000007A1B79B77800AF2DAE2CAD2BAC2A12D0
:101D600005D29003B2EFF0AF2DAE2CAD2BAC2AE430
:101D70001202EC7B007A1B7937784B12024FC004B9
:101D8000C005C006C0079003B2E0FCE41202F6A84A
:101D900004A905AA06AB07D007D006D005D00412C7
:101DA00000519003B31206967F007E007D807C492F
:101DB0009003B3E0F8A3E0F9A3E0FAA3E0FB12017B
:101DC0004612032A9003B71206969003B2E0FFABC7
:101DD0002EAA2FA930758204758300EF1204F990A2
:101DE00003B7E0FCA3E0FDA3E0FEA3E0FF78101240
:101DF0000683EF54FFFFEE5400FEED5400FDEC545B
:101E000000FCAB2EAA2FA930758205758300EF1256
:101E100004F99003B7E0FCA3E0FDA3E0FEA3E0FF1C
:101E20007808120683EF54FFFFEE5400FEED5400D5
:101E3000FDEC5400FCAB2EAA2FA9307582067583E9
:101E400000EF1204F99003B7E0FCA3E0FDA3E0FE6D
:101E5000A3E0FFEF54FFFFEE5400FEED5400FDEC55
:101E60005400FCAB2EAA2FA930758207758300EFB2
:031E70001204F960
:011E7300224C
:103E17007D227F00123E497D5A7F07123E497D8AE7
:103E27007F0C123E497D267F0D123E497D037F1090
:103E3700123E497D837F15123E497D117F00123E58
:023E470049220E
:10405E0043920143C48053C31F53C3FC43C3105345
:0C406E00C3FB53BB9F53C4D843AD0222D8
:03004B000230B1CF
:1030B100C0E0C0F0C083C082C0D075D000C000C0E5
:0D30C10001C002C003C004C005C006C00766
:1030CE009003BFE5C6F09003C0E5C5F0900268E03E
:1030DE00F8A3E0F9A3E0FAA3E0FB9003BFE0FEA3A0
:1030EE00E0FFEE540FFEE4FCFDEB2FFFEA3EFEE99F
:1030FE003DFDE83CFC900268120696900248E00402
:10310E00F053C4EF43C408900248E0FF7E00C3EFC3
:10311E009414EE64809480405653ADFD53C47F905A
:10312E000248E4F07B147A0079007800900268E09F
:10313E00FCA3E0FDA3E0FEA3E0FF1205D290024641
:10314E00EEF0A3EFF0900246E0FEA3E0FFAB07AA7D
:10315E0006E4F9F87F007E107D0E7C00123B529043
:0F316E00021E1206969002681206A200000000D0
:10317D00D007D006D005D004D003D002D001D000A6
:0B318D00D0D0D082D083D0F0D0E03250
:0441B10043C40822D9
:10375A0090024DE0FEA3E0FFEF4E60677F607E09B6
:10376A007D007C0090021EE0F8A3E0F9A3E0FAA332
:10377A00E0FBD31206724006900223E4F0227F6037
:10378A007E097D007C0090021EE0F8A3E0F9A3E028
:10379A00FAA3E0FBD312067250237F987E087D00BD
:1037AA007C0090021EE0F8A3E0F9A3E0FAA3E0FB94
:1037BA00D312067240079002237401F0229002236A
:0437CA007402F02273
:101BDE001108FBBFDFEFF79FAFB7BBCFDBEBE7F330
:031BEE00FDFEFFFA
:10230B007871E6FFEF20E60302252A7871E6FFEFEE
:10231B0054BFFF7871A60790024DE0FEA3E0FFEFDC
:10232B004E600E90024EE024FFF090024DE034FF21
:10233B00F09002A5E0FEA3E0FFEF4E600E9002A628
:10234B00E024FFF09002A5E034FFF0900225E0FEC0
:10235B00A3E0FFEF4E600E900226E024FFF0900208
:10236B0025E034FFF0900264E0FEA3E0FFEF4E6047
:10237B000E900265E024FFF0900264E034FFF090D1
:10238B00022BE0FEA3E0FFEF4E601090022CE02446
:10239B00FFF090022BE034FFF0800C786DE6FFEF3E
:1023AB0054F7FF786DA607786DE6FFEF30E33590B5
:1023BB00022BE0FEA3E0FFEF4E6029900240E00409
:1023CB00F0700690023FE004F090023FE0FEA3E0C5
:1023DB00FFC3EF9464EE9400400A90023FE4F0A335
:1023EB00E4F0B2A79002B0E0FEA3E0FFEF4E600E68
:1023FB009002B1E024FFF09002B0E034FFF09002C5
:10240B0066E0FEA3E0FFEF4E60407872E6FFEFC39D
:10241B0013FFEF5401FF7E00EF4E60030225087897
:10242B0072E6FFEF4402FF7872A6077872E6FFEFC1
:10243B0054FBFF7872A6071241B57872E6FFEF20C6
:10244B00E303022508D2A7022508900242E0FFEF22
:10245B00603E7872E6FFEF1313543FFFEF5401FF1A
:10246B007E00EF4E60030225087872E6FFEF44040E
:10247B00FF7872A6077872E6FFEF54FDFF7872A61D
:10248B00071200067872E6FFEF30E371C2A7806D8A
:10249B0090023DE0FFEF605990023DE014F0900296
:1024AB0062E0FEA3E0FF900266EEF0A3EFF0900275
:1024BB0041E0FF900242EFF07872E6FFEFC313FFAB
:1024CB00EF5401FF7E00EF4E70337872E6FFEF445E
:1024DB0002FF7872A6077872E6FFEF54FBFF787263
:1024EB00A6071241B57872E6FFEF30E310D2A78052
:1024FB000C7872E6FFEF54F7FF7872A60712165F9F
:10250B00786DE6FFEFC4135407FFEF5401FF7E0015
:10251B00EF64014E60091229CD120B161241A9224C
:1035E3007871E6FFEF30E7497871E6FFEF547FFF2C
:1035F3007871A60790024CE0FFEF600690024CE062
:1036030014F07871E6FFEFC4135407FFEF5401FF82
:103613007E00EF64014E7019900231E0FFEF6011FC
:1036230090024AE0FF7E00EF4E7006900231E014F4
:10363300F09003BBE0FEA3E0FFEF4E702A7871E643
:10364300FFEF5401FF7E00EF64014E701A7871E6BC
:10365300FFEF54FEFF7871A607C2A77F03122ED592
:08366300C2B4124130D2B522BD
:10165F0090023CE4F090023274FFF0900223E0FF1E
:10166F007E00EF64024E700302194FA292E433FF23
:10167F00123FDFA291E433FF123FDFA2A5E433FF55
:10168F00123FDF7F01123FDFA2A1E433FF123FDFE2
:10169F007F01123FDF7F01123FDF90022DE0FF90AD
:1016AF000232E0FEEE6F6025900232E0FF90022DD5
:1016BF00EFF0124142123C1490021C7413F0A37409
:1016CF0088F090024F7427F0A37474F022900237C1
:1016DF0074FF75F0FF12051BAFF0FEEF4E600302B3
:1016EF00194F900237E4F0A37401F0900232E0FF3B
:1016FF007E00EF64FF4E70030217EC90021CE0FEB9
:10170F00A3E0FFEF4E600E90021DE024FFF0900269
:10171F001CE034FFF090024FE0FEA3E0FFEF4E60BD
:10172F000E900250E024FFF090024FE034FFF012D1
:10173F0040B0900223E0FF7E00EF64014E60177807
:10174F006DE6FFEF20E60F90024FE0FEA3E0FFEF04
:10175F004E60030217EC786DE6FFEFC413135403CA
:10176F00FFEF5401FF7E00EF4E705A786DE6FFEFEA
:10177F004440FF786DA60790024FE0FEA3E0FFEF15
:10178F004E7011900262E4F0A37467F090024174FE
:10179F0067F0800F900262E4F0A37428F09002418A
:1017AF00743CF0900262E0FEA3E0FF900266EEF060
:1017BF00A3EFF0900241E0FF900242EFF090023D64
:1017CF007402F0801890023DE0FF7E00D3EF940189
:1017DF00EE64809480500690023D7402F0787F761C
:1017EF0000787FE6FF7E00C3EF9411EE6480948053
:1017FF005023787FE6FF74082FF8E6FF900232E05F
:10180F00FEEEB5070B787FE6FF90023BEFF0800509
:10181F00787F0680CC787FE6FF7E00900239EEF06D
:10182F00A3EFF0786DE6FFEFC4135407FFEF5401F9
:10183F00FF7E00EF64014E700302194F787FE6FFC1
:10184F007E00EF64114E701F7870E6FFEF54BFFFFC
:10185F007870A607123C147870E6FFEF4480FF788B
:10186F0070A607123FB9227870E6FFEF30E75D9060
:10187F000232E0FF7E00EF64FF4E6050787FE6FF9C
:10188F007E00EF64054E6033787FE6FF7E00EF64E5
:10189F00064E6027787FE6FF7E00EF64074E601BE1
:1018AF00787FE6FF7E00EF64094E600F787FE6FFDA
:1018BF007E00EF640C4E600302194F7871E6FFEF64
:1018CF005401FF7E00EF4E7077800122787FE6FF94
:1018DF00EF1206D3191A00191E01191E02191E0341
:1018EF00191E041930051930061930071934081953
:1018FF00300919380A193C0B19300C19400D1944CD
:10190F000E19480F194C100000194F1231982278F8
:10191F0071E6FFEF5401FF7E00EF4E7023121E742D
:10192F0022123E7A22123830221239D72212393738
:10193F002212398722120022221241B8221238E5D0
:01194F002275
:103E7A00123FB990023CE4F090023BE0FF90023B13
:103E8A00E0FD12252B123C147870E6FFEF54BFFFB9
:103E9A007870A6077870E6FFEF4480FF7870A6076F
:013EAA0022F5
:10383000123FB97870E6FFEF54BFFF7870A60778A3
:1038400070E6FFEF20E23F7870E6FFEF4404FF7878
:1038500070A6079002B0740BF0A374B8F07871E60C
:10386000FFEFC4135407FFEF5401FF7E00EF4E70CB
:103870001A7871E6FFEF4420FF7871A607D2E8902E
:0C3880000231744EF0227F08123DE3225A
:10393700123FB97870E6FFEF20E33F7870E6FFEFBC
:103947004408FF7870A6079002B0740BF0A374B810
:10395700F07871E6FFEFC4135407FFEF5401FF7EC1
:1039670000EF4E701A7871E6FFEF4420FF7871A6DA
:1039770007D2E8900231744EF0227F0B123DE3220A
:10398700123FB97870E6FFEF20E43F7870E6FFEF6B
:103997004410FF7870A6079002B0740BF0A374B8B8
:1039A700F07871E6FFEFC4135407FFEF5401FF7E71
:1039B70000EF4E701A7871E6FFEF4420FF7871A68A
:1039C70007D2E8900231744EF0227F0D123DE322B8
:1039D700123FB97870E6FFEF20E13F7870E6FFEF1E
:1039E7004402FF7870A6079002B0740BF0A374B876
:1039F700F07871E6FFEFC4135407FFEF5401FF7E21
:103A070000EF4E701A7871E6FFEF4420FF7871A639
:103A170007D2E8900231744EF0227F0A123DE3226A
:103DE3008F679002B0E0FEA3E0FFEF4E60259002E4
:103DF300B074FF75F0FF12051BAFF0FEEF4E7013AA
:103E03007D00AF6712252B786DE6FFEF4480FF78C6
:043E13006DA607226F
:10319800123FB97870E6FFEF20E603023237787005
:1031A800E6FFEF54BFFF7870A60790023C7405F065
:1031B800123C147870E6FFEF4401FF7870A6079080
:1031C80002B0740BF0A374B8F0900264E0FEA3E0C0
:1031D800FFEF4E70397871E6FFEFC4135407FFEF25
:1031E8005401FF7E00EF4E70147871E6FFEF442023
:1031F800FF7871A607D2E89002317433F090026428
:103208007427F0A37410F09002147402F022900254
:1032180014E014FFF0EF70537F01123F9290023CCC
:10322800E4F07870E6FFEF4480FF7870A607227814
:1032380070E6FFEF30E0349002B0E0FEA3E0FFEF6D
:103248004E60289002B074FF75F0FF12051BAFF0B6
:10325800FEEF4E70167F02123F9290023CE4F07827
:0C32680070E6FFEF4480FF7870A607229C
:101E7400120026EF7003021F8B786DE6FFEF20E05F
:101E840013786DE6FFEF20E10B786DE6FFEF20E2BB
:101E9400030220DE9002B0E0FEA3E0FFEF4E6003F9
:101EA4000220DE786DE6FFEFC413135403FFEF54F2
:101EB40001FF7E00EF4E60030220DE90021CE0FE74
:101EC400A3E0FFEF4E60030220DE786DE6FFEF2013
:101ED400E008786DE6FFEF30E21890024A740AF0E9
:101EE40090023CE4F07870E6FFEF4480FF7870A63F
:101EF400072290024A7401F07B017D677F677E00B0
:101F0400123A767872E6FFEF4408FF7872A60778F3
:101F140071E6FFEFC4135407FFEF5401FF7E00EF97
:101F24004E70187871E6FFEF4420FF7871A607D24F
:101F3400E8900243E0FF900231EFF0900225740F25
:101F4400F0A374A0F090023CE4F07870E6FFEF5444
:101F5400BFFF7870A6077870E6FFEF4480FF7870C3
:101F6400A6077870E6FFEF4420FF7870A607786D27
:101F7400E6FFEF20E0030220DE7870E6FFEF54DF97
:101F8400FF7870A607222290023BE0FF90023CEF0C
:101F9400F090024AE0FFEF60030220DE9002A4E02A
:101FA400FFEF60012290023CE0FFEF1206D31FBF57
:101FB400011FD7021FEF0300002005786DE6FFEF35
:101FC4004401FF786DA6079002B07413F0A37488DF
:101FD400F0802E786DE6FFEF4402FF786DA607903F
:101FE40002B07413F0A37488F08016786DE6FFEFE6
:101FF4004404FF786DA6079002B07413F0A37488AC
:10200400F0900222E0FFEF600D90023CE0FF7E00C2
:10201400EF64044E7019123FB990023BE0FF900246
:102024003BE0FD12252B900264E4F0A3E4F022903F
:10203400024AE0FFEF60030220DE9002A4E0FFEF1B
:1020440060012290023CE0FF7E00EF64024E703794
:10205400123FB990023BE0FF90023BE0FD12252BBA
:10206400900264E4F0A3E4F0786DE6FFEF4408FF27
:10207400786DA60790022B740BF0A374B8F090024D
:102084003FE4F0A3E4F02290023CE0FFEF1206D319
:10209400209E01209E03000020DE786DE6FFEF30D5
:1020A400E33890022BE0FEA3E0FFEF4E602C786D46
:1020B400E6FFEF54F7FF786DA60790022BE4F0A338
:1020C400E4F090023BE0FF90023BE0FD12252B90F0
:0B20D4000264E4F0A3E4F0123FB92224
:0100220022BB
:0141B80022E4
:1038E500786DE6FFEF54FEFF786DA607786DE6FF6D
:1038F500EF54FDFF786DA607786DE6FFEF54FBFFEB
:10390500786DA607786DE6FFEF54BFFF786DA607C3
:10391500123C147870E6FFEF4440FF7870A60778F4
:1039250070E6FFEF547FFF7870A60790023C74FFA6
:02393500F0227E
:10414200900237E4F0A3740AF09002B0E4F0A3E422
:02415200F02259
:103C14007870E6FFEF54FEFF7870A6077870E6FF31
:103C2400EF54FDFF7870A6077870E6FFEF54FBFFB2
:103C34007870A6077870E6FFEF54F7FF7870A60750
:0D3C44007870E6FFEF54EFFF7870A60722BE
:103FB90090024AE4F090022E7402F0900209740211
:103FC900F090022BE0FEA3E0FFEF4E600890022B79
:063FD900E4F0A3E4F02275
:100026007870E6FFEF20E6037F01227870E6FFEFA7
:1000360054BFFF7870A6079002B0E4F0A3E4F01274
:050046003C147F0022C4
:04252B008F548D55E7
:10252F00900245E0FF7E00C3EF9445EE64809480F7
:10253F00505A7871E6FFEFC4135407FFEF5401FFB1
:10254F007E00EF64014E7044900231E0FF7E00C3C5
:10255F00EF9419EE648094805032900231E0FFC303
:10256F0074199FF556900245E02556F0900245E00C
:10257F00FF7E00C374459FFFE49EFEC3EF941BEEE6
:10258F006480948040069002317419F0900231E01B
:10259F00FF7E00C3EF9419EE64809480500E90027A
:1025AF004CE0FF7E00EF4E60030226D87871E6FF05
:1025BF00EFC4135407FFEF5401FF7E00EF4E701866
:1025CF007871E6FFEF4420FF7871A607D2E89002FA
:1025DF0043E0FF900231EFF0E5541206D3260E01CF
:1025EF00261602261E03262604263605263E062616
:1025FF004607264E09262E0A26560C0000265C900A
:10260F00024B7408F0804690024B7404F0803E90A9
:10261F00024B7402F0803690024B7401F0802E90C2
:10262F00024B7414F0802690024B740CF0801E90B5
:10263F00024B740AF0801690024B7409F0800E90D2
:10264F00024B7406F0800690024B7403F0E55512AE
:10265F0006D3267401268102268E03269B0426A804
:10266F0014000026B37B007D677F677E00123A76E9
:10267F0080327B017D677F677E00123A7680257BF3
:10268F00027D677F677E00123A7680187B007D0A95
:10269F007FF47E01123A76800B7B007D0A7FE87E05
:1026AF0003123A7612417E9002331206A219656325
:1026BF00787B017A0279C675400C7D15120EF412E3
:0B26CF002CAD90024C7419F022C2A741
:0126DA0022DD
:100B160090024AE0FFEF1206D30B41010B70020B65
:100B2600C5030C3F040C76050CFC060D33070DB906
:100B3600080DB9090EE80A00000EF37870E6FFEF1B
:100B460020E7119002257403F0A374E8F090024A9E
:100B5600E004F022900225E0FEA3E0FFEF4E6003E2
:100B6600020EF390024A740AF022900225E0FEA3D8
:100B7600E0FFEF4E702790024AE004F090022574E1
:100B86000BF0A374B8F07B007D677F677E00123A96
:100B9600767872E6FFEF4408FF7872A60790023C6B
:100BA600E0FF7E00EF4E7003020EF390023CE0FF82
:100BB6007E00EF64FF4E7003020EF3123FB92290DF
:100BC6000225E0FEA3E0FFEF4E7004123FB922902B
:100BD600023CE0FF7E00EF4E7003020EF390023CF3
:100BE600E0FF7E00EF64FF4E7001227870E6FFEFB3
:100BF60030E52390023CE0FF7E00EF64024E701168
:100C06009002257403F0A374E8F090024AE004F021
:100C160022123FB9222290023CE0FF7E00EF6401DF
:100C26004E70119002257403F0A374E8F090024A06
:100C3600E004F022123FB92222900225E0FEA3E052
:100C4600FFEF4E6003020EF390024AE004F09002BA
:100C560025740BF0A374B8F07B007D677F677E0078
:100C6600123A767872E6FFEF4408FF7872A60722FA
:100C7600900225E0FEA3E0FFEF4E7004123FB9227A
:100C860090023CE0FF7E00EF4E7003020EF39002EE
:100C96003CE0FF7E00EF64FF4E7001227870E6FFB5
:100CA600EF30E52F90023CE0FF7E00EF64024E70CD
:100CB6001D9002257403F0A374E8F090024AE00444
:100CC600F07870E6FFEF4480FF7870A60722123FA7
:100CD600B9222290023CE0FF7E00EF64014E7011C3
:100CE6009002257403F0A374E8F090024AE004F041
:100CF60022123FB92222900225E0FEA3E0FFEF4E2A
:100D06006003020EF390024AE004F0900225740B91
:100D1600F0A374B8F07B027D677F677E00123A7697
:100D26007872E6FFEF4408FF7872A6072290022544
:100D3600E0FEA3E0FFEF4E7004123FB92290023CA2
:100D4600E0FF7E00EF4E7003020EF390023CE0FFE0
:100D56007E00EF64FF4E7001227870E6FFEF30E50B
:100D66002F90023CE0FF7E00EF64024E701D900261
:100D7600257427F0A37410F090024AE004F078700E
:100D8600E6FFEF4480FF7870A60722123FB92222C1
:100D960090023CE0FF7E00EF64014E701190022548
:100DA6007427F0A37410F090024AE004F022123F78
:100DB600B92222900225E0FEA3E0FFEF4E70041256
:100DC6003FB92290023CE0FF7E00EF4E7003020E18
:100DD600F390023CE0FF7E00EF64FF4E7001227844
:100DE60070E6FFEF20E503020E6F90023CE0FF7E07
:100DF60000EF64024E706D90024AE0FF7E00EF64E1
:100E0600094E7059900222E0FF8F68E5686005750B
:100E160068008003756801900222E568F07B017A1C
:100E2600027922751E00751F017FF97E7F1220DF71
:100E36007B047D677F677E00123A767872E6FFEF65
:100E46004408FF7872A607786DE6FFEF54F7FF783F
:100E56006DA6079002317414F0123FB92290024A2F
:100E6600E004F022123FB9222290023CE0FF7E000D
:100E7600EF64014E706790024AE0FF7E00EF64095E
:100E86004E7053900222E0FF8F68E5686005756832
:100E9600008003756801900222E568F07B017A0202
:100EA6007922751E00751F017FF97E7F1220DF7B78
:100EB600047D677F677E00123A767872E6FFEF441C
:100EC60008FF7872A607786DE6FFEF54F7FF786D96
:100ED600A607123FB92290024AE004F022123FB957
:0D0EE60022227870E6FFEF20E703123FB9EB
:010EF30022DC
:1029CD001241A3EF7003022B427871E6FFEFC4139F
:1029DD005407FFEF5401FF7E00EF4E700E7871E645
:1029ED00FFEF4420FF7871A607D2E89002A5E0FE24
:1029FD00A3E0FFEF4E60319002317433F09002404E
:102A0D00E004F0700690023FE004F090023FE0FE1B
:102A1D00A3E0FFC3EF94F4EE9401401E90023FE457
:102A2D00F0A3E4F0B2A780127B027DFA7FF47E0161
:102A3D00123A76C2A79002A4E4F090023CE0FFEFB8
:102A4D001206D32A60012AA1022AD3032AEC05001B
:102A5D00002B42900249E0FF74A72FF582E4340267
:102A6D00F583E004FFF0EFD394394012900249E072
:102A7D00FF74A72FF582E43402F5837430F07B00E8
:102A8D007D677F677E00123A769002A574EAF0A307
:102A9D007460F022900249E004FFF07E00D3EF94C1
:102AAD0008EE6480948040089002497408F0800B11
:102ABD007B017D677F677E00123A769002A574EAEE
:102ACD00F0A37460F022123EDB7B007D0A7FE87E6E
:102ADD0003123A769002A574EAF0A37460F0229086
:102AED000249E0FF7E00C3EF9408EE6480948040BD
:102AFD00447B017A0279A712366B90022712069653
:102B0D007FFE7EFF7DFF7C00900227E0F8A3E0F9B9
:102B1D00A3E0FAA3E0FBD3120672400D7B037D64A4
:102B2D007F647E00123A7680077D147F1412252B68
:062B3D009002A4E4F02266
:06366B008B218A22892355
:10367100752900752800752700752600752400AF8F
:10368100247E00C3EF9408EE64809480504BAB21FC
:10369100AA22A923AF248F827583001204BAFFEFF7
:1036A10024D0F5257F0A7E007D007C00AB29AA2865
:1036B100A927A826120547A804A905AA06AB07AFA2
:1036C10025E4FCFDFEEB2FF529EA3EF528E93DF561
:1036D10027E83CF526052480A6AF29AE28AD27AC06
:0136E10026C2
:0136E20022C5
:103F92008F691241A3EF701E9002A4E569F0123EF0
:103FA200DB7B007D0A7FE87E03123A769002A574DD
:073FB200EAF0A37460F022A5
:0641A3009002A4E0FF22DF
:103EDB00900249E4F0756A00AF6A7E00C3EF940864
:103EEB00EE648094805013AF6A74A72FF582E4348C
:0F3EFB0002F5837430F0056A80DE9002AFE4F0C8
:013F0A002294
:103FDF008F6B900232E0FFEF25E0FF900232EFF09F
:103FEF00E56B600E900232E0FFEF4401FF9002326A
:033FFF00EFF022BE
:103A76008E4D8F4E8D4F8B50786DE6FFEFC413132E
:103A86005403FFEF5401FF7E00EF4E703090026248
:103A9600E54DF0A3E54EF0900241E54FF09002624D
:103AA600E0FEA3E0FF900266EEF0A3EFF090024185
:0E3AB600E0FF900242EFF090023DE550F0225A
:1026DB0030930302280D786FE6FFEF5401FF7E0065
:1026EB00EF4E7015786FE6FFEF4401FF786FA6078A
:1026FB00D2E8D2A7123DAFD2AF1241A920924A78AD
:10270B0071E6FFEFC313FFEF5401FF7E00EF4E7036
:10271B00387871E6FFEF4402FF7871A60712417E0D
:10272B009002331206A2196563787B017A0279C68F
:10273B0075400C7D15120EF47872E6FFEF547FFF97
:10274B007872A6077F00123A2730920C7871E6FF59
:10275B00EF54FDFF7871A6072091337871E6FFEFF8
:10276B001313543FFFEF5401FF7E00EF4E701F78A1
:10277B0071E6FFEF4404FF7871A607C2B412413033
:10278B00D2B57872E6FFEF547FFF7872A6073091CF
:10279B000C7871E6FFEF54FBFF7871A60720A54D6F
:1027AB007871E6FFEF131313541FFFEF5401FF7EF5
:1027BB0000EF4E70387871E6FFEF4408FF7871A692
:1027CB000712417E9002331206A2196563787B01D2
:1027DB007A0279C675400C7D15120EF47F01123A00
:1027EB00277872E6FFEF4480FF7872A60730A50CBE
:1027FB007871E6FFEF54F7FF7871A6071206F9021E
:10280B0026DB786FE6FFEF5401FF7E00EF64014E8D
:10281B00700F786FE6FFEF54FEFF786FA60712007C
:10282B000EC2E8C2A77871E6FFEF54FDFF7871A6E0
:10283B00077871E6FFEF54FBFF7871A6077871E616
:0A284B00FFEF54F7FF7871A6072293
:102CAD00D2A79002A4E0FF7E00EF4E70437B017A25
:102CBD00027918C003C002C0017B007A007932A8E6
:102CCD0001AC02AD03D001D002D0037E007F04120F
:102CDD00047B90024BE0FF8F367F00122B43900256
:102CED008874FFF090022FE4F0A3740DF0022DA272
:102CFD007B017A027918C003C002C0017B007A0003
:102D0D007932A801AC02AD03D001D002D0037E0010
:102D1D007F0412047B7536807F00122B439002A432
:102D2D00E0FF7E00EF64014E702F7B017A02792760
:102D3D00C003C002C0017B007A007932A801AC0249
:102D4D00AD03D001D002D0037E007F0412047B7549
:102D5D0036FF7F0C122B43802D7B017A027927C021
:102D6D0003C002C0017B007A007932A801AC02AD2C
:102D7D0003D001D002D0037E007F0412047B753690
:102D8D00007F0C122B4390029474FFF090022FE4FD
:102D9D00F0A37419F07871E6FFEF4401FF7871A686
:102DAD00077B017A02797C90022FE0FEA3E0FFAD54
:102DBD0007123C519003BB7402F0A37426F09002ED
:052DCD003E7401F0223C
:022B43008F31D0
:102B4500AF351237CE7873A60608A6077873E6FF69
:102B5500AE310531747C2EF582E43402F583EFF055
:102B65007874E6FFAE310531747C2EF582E43402CB
:102B7500F583EFF0AF341237CE7873A60608A607B3
:102B85007873E6FFAE310531747C2EF582E43402AC
:102B9500F583EFF07874E6FFAE310531747C2EF5E0
:102BA50082E43402F583EFF0AF331237CE7873A6A3
:102BB5000608A6077873E6FFAE310531747C2EF55D
:102BC50082E43402F583EFF07874E6FFAE31053127
:102BD500747C2EF582E43402F583EFF0AF361237BC
:102BE500CE7873A60608A6077873E6FFAE310531E1
:102BF500747C2EF582E43402F583EFF07874E6FFF9
:102C0500AE310531747C2EF582E43402F583EFF0A4
:102C15007874A6337873A6367876A6357875A63493
:102C25007875E6FE08E6FF7873E6FC08E6FDED2F0D
:102C3500FFEC3EFE7877A60608A6077878E6FF1231
:102C450037CE7873A60608A6077873E6FFAE31057A
:102C550031747C2EF582E43402F583EFF07874E666
:102C6500FFAE310531747C2EF582E43402F583EF35
:102C7500F07877E6FF1237CE7873A60608A60778B0
:102C850073E6FFAE310531747C2EF582E43402F52E
:102C950083EFF07874E6FFAE310531747C2EF58252
:072CA500E43402F583EFF0B7
:012CAC002205
:0237CE008F6CFE
:1037D000787B7600787BE6FF7E00C3EF9408EE648A
:1037E00080948050437879E6FE08E6FFEF7802C3C4
:1037F00033CE33CED8F9FF7879A60608A607E56C54
:1038000030E00E787AE6FFEF4402FF787AA6078070
:103810000C787AE6FFEF4401FF787AA607E56CC3DF
:0F38200013F56C787B0680AC7879E6FE08E6FF3E
:01382F002276
:10004E00020396E86480F8E933E83360110460F047
:10005E00ED33EC337009E8FCE9FDEAFEEBFF220418
:10006E0060DED3EB9FEA9EE99DE8C2E78CF0C2F713
:10007E0095F0400CE8CCF8E9CDF9EACEFAEBCFFBDF
:10008E0012036185D0F05804700320D5B3E80470D4
:10009E00075002B2D50203A092D5EC0460F7E4CC6F
:1000AE00C0E0C398F8603B94186008400DD0E0FBA8
:1000BE00020378E4FBFAC9FC8028E830E406E4C9C0
:1000CE00FBE4CAFCE830E305E4C9CACBFCE85407FC
:1000DE006010F8C3E913F9EA13FAEB13FBEC13FC07
:1000EE00D8F130F52FC3E49CFCEF9BFFEE9AFEEDAA
:1000FE0099FDD0E0FBEF4E4D4C701222DB03020354
:10010E009DEC2CFCEF33FFEE33FEED33FDED30E7CF
:10011E00EB020378EF2BFFEE3AFEED39FDD0E0FB5C
:10012E0050130BBB00030203A0ED13FDEE13FEEF05
:08013E0013FFEC13FC0203782F
:10014600EC4D6011E8497017ED33EC3304600DE4B3
:10015600FCFFFEFD22E933E8330470F80203961231
:10016600036158046009E4CC248150062850090232
:1001760003A028400302039DC0E0EB4A7044B98007
:1001860006D0E0FB02038CEF4E701CBD8008EBFF2F
:10019600EAFEE9FD80EBE98DF0A4FEE5F002022F10
:1001A600E9CDF9EAFEEBFFEF89F0A4FCE5F0CE8994
:1001B600F0A42EFFE435F0CD89F0A42DFEE435F051
:1001C6008067EF4E7005BD80D780C3EF8BF0A4AC7F
:1001D600F0EE8BF0A42CFCE435F0F8EF8AF0A42CBA
:1001E600E5F038FCE433CB8DF0A42CFCE5F03BF8CD
:1001F600EE8AF0A42CFCE5F038F8E433CF89F0A4BD
:100206002CFCE5F038CF3400CE89F0A42FFFE5F0C2
:100216003EFEE433C98DF0A42EFEE5F039CD8AF01A
:10022600A42FFFE5F03EFEE43DFD33D0E0FB500792
:100236000BBB000F0203A0EC2CFCEF33FFEE33FEEA
:06024600ED33FD02037818
:10024C000203A0EC5D046005E859047003020396F8
:10025C00120361580460F6EC4860F2EC7004FDFE89
:10026C00FF22C860DB2481C85009C3986002500685
:10027C0002039D9850CAF582E9294B4A7005AB825E
:10028C0002038C75F0007C1A7880C3EF9BEE9AED1C
:10029C0099400DC3EF9BFFEE9AFEED99FDE842F0FD
:1002AC00DC23ACF0D0E0FFD0E0FED0E0FDAB822050
:1002BC00E7101BEB60BAEC2CFCEF33FFEE33FEEDDA
:1002CC0033FD020378E803F830E705C0F075F00061
:1002DC00EF2FFFEE33FEED33FD40B830E7C280AABE
:1002EC0075F020800E75F010800575F0087D007E8D
:1002FC00007F003392D530D503120664EC334010E6
:10030C00EF33FFEE33FEED33FDEC33FCD5F0ED2295
:0E031C00E5F0247EA2D513CC92E7CDCEFF22D1
:10032A00EDD2E7CD33EC3392D524814006E4FFFECB
:10033A00FDFC22FCE4CFCECDCC24E0501174FF802A
:10034A00EDC3CC13CCCD13CDCE13CECF13CF0470C7
:07035A00F030D5DE0206645D
:10036100E9D2E7C933E833F892D5EDD2E7CD33ECE2
:0703710033FC5002B2D5225B
:10037800EC30E7100FBF000C0EBE00080DBD0004E6
:100388000BEB6014A2D5EB13FCED92E7FD2274FF92
:10039800FCFDFEFF22E480F8A2D574FF13FC7D80EB
:0303A800E480EFFF
:030000000235576F
:0C355700787FE4F6D8FD75817F02359E78
:1003AB00E709F608DFFA8046E709F208DFFA803E34
:1003BB0088828C83E709F0A3DFFA8032E309F60821
:1003CB00DFFA8078E309F208DFFA807088828C8389
:1003DB00E309F0A3DFFA806489828A83E0A3F6083D
:1003EB00DFFA805889828A83E0A3F208DFFA804C17
:1003FB0080D280FA80C680D4806980F280338010EE
:10040B0080A680EA809A80A880DA80E280CA803356
:10041B0089828A83ECFAE493A3C8C582C8CCC583CE
:10042B00CCF0A3C8C582C8CCC583CCDFE9DEE7809E
:10043B000D89828A83E493A3F608DFF9ECFAA9F01D
:10044B00EDFB2289828A83ECFAE0A3C8C582C8CC73
:10045B00C583CCF0A3C8C582C8CCC583CCDFEADE8C
:10046B00E880DB89828A83E493A3F208DFF980CCEE
:10047B0088F0EF60010E4E60C388F0ED2402B404E7
:10048B000050B9F582EB2402B4040050AF2323458E
:06049B0082239003FB73B5
:1004A100BB010689828A83E0225002E722BBFE0259
:0904B100E32289828A83E493228C
:1004BA00BB010CE58229F582E5833AF583E02250F7
:1004CA0006E92582F8E622BBFE06E92582F8E22241
:0D04DA00E58229F582E5833AF583E493225B
:1004E700BB010689828A83F0225002F722BBFE01F4
:0204F700F322EE
:1004F900F8BB010DE58229F582E5833AF583E8F039
:10050900225006E92582C8F622BBFE05E92582C8E4
:02051900F222CC
:10051B00C5F0F8A3E028F0C5F0F8E582158270026B
:06052B001583E038F02208
:10053100A3F8E0C5F025F0F0E5821582700215837D
:06054100E0C838F0E822DA
:10054700E88FF0A4CC8BF0A42CFCE98EF0A42CFC53
:100557008AF0EDA42CFCEA8EF0A4CDA8F08BF0A4D1
:100567002DCC3825F0FDE98FF0A42CCD35F0FCEB30
:100577008EF0A4FEA9F0EB8FF0A4CFC5F02ECD39F5
:0F058700FEE43CFCEAA42DCE35F0FDE43CFC2262
:1005960075F008758200EF2FFFEE33FECD33CDCC1C
:1005A60033CCC58233C5829BED9AEC99E58298409F
:1005B6000CF582EE9BFEED9AFDEC99FC0FD5F0D67C
:1005C600E4CEFBE4CDFAE4CCF9A88222B800C1B9A6
:1005D6000059BA002DEC8BF084CFCECDFCE5F0CBE4
:1005E600F97818EF2FFFEE33FEED33FDEC33FCEB1D
:1005F60033FB10D703994004EB99FB0FD8E5E4F9D8
:10060600FA227818EF2FFFEE33FEED33FDEC33FCC4
:10061600C933C910D7059BE99A4007EC9BFCE99AB8
:10062600F90FD8E0E4C9FAE4CCFB2275F010EF2FFD
:10063600FFEE33FEED33FDCC33CCC833C810D707FD
:100646009BEC9AE899400AED9BFDEC9AFCE899F838
:0E0656000FD5F0DAE4CDFBE4CCFAE4C8F922CB
:103B5200C2D5E830E70FB2D5E4C39BFBE49AFAE49E
:103B620099F9E498F8EC30E717B2D5123B881205C0
:103B7200D2E4C39BFBE49AFAE499F9E498F880034F
:103B82001205D230D50DE4C39FFFE49EFEE49DFDF5
:043B9200E49CFC2291
:0E066400C3E49FFFE49EFEE49DFDE49CFC22A7
:10067200EB9FF5F0EA9E42F0E99D42F0E89C45F0DE
:010682002255
:10068300E8600FECC313FCED13FDEE13FEEF13FF55
:03069300D8F12279
:0C069600ECF0A3EDF0A3EEF0A3EFF022D7
:1006A200A8828583F0D083D0821206B91206B912CD
:1006B20006B91206B9E473E493A3C583C5F0C583F2
:1006C200C8C582C8F0A3C583C5F0C583C8C582C8A2
:0106D2002205
:1006D300D083D082F8E4937012740193700DA3A3B6
:1006E30093F8740193F5828883E4737402936860CA
:0606F300EFA3A3A380DFCA
:10356300022DD2E493A3F8E493A34003F68001F27F
:1035730008DFF48029E493A3F85407240CC8C33369
:10358300C4540F4420C8834004F456800146F6DF38
:10359300E4800B0102040810204080901950E47E5F
:1035A300019360BCA3FF543F30E509541FFEE4932D
:1035B300A360010ECF54C025E060A840B8E493A3F4
:1035C300FAE493A3F8E493A3C8C582C8CAC583CA1F
:1035D300F0A3C8C582C8CAC583CADFE9DEE780BED7
:011BF10000F3
:00000001FF
