:102EDA00124223123E6F12428C1241341213AF1265
:102EEA003BF61241AC1241901239BE1242C6122769
:102EFA00C21242B6D2AF1242CA90024EE4F0A37492
:102F0A001EF01242C21223F212367412388C900248
:102F1A0031E0FF7E00EF4E70E990024BE0FF7E0049
:102F2A00EF4E70DE7871E6FFEFC4135407FFEF54DB
:102F3A0001FF7E00EF64014E70C8900239E0FEA3E3
:102F4A00E0FFEF64024E60BA7871E6FFEF5401FFCA
:102F5A007E00EF4E70AC7871E6FFEF54DFFF7871B8
:102F6A00A607C2E8786DE6FFEF4420FF786DA60752
:102F7A00786DE6FFEFC41313135401FFEF5401FFFA
:102F8A007E00EF64014E70051242C280E3786DE65E
:102F9A00FFEFC41313135401FFEF5401FF7E00EF38
:102FAA004E70CD90023CE0FF7E00C3EF9401EE64C8
:102FBA0080948040BB90023CE0FF7E00D3EF9404F3
:102FCA00EE6480948050A91223F21242C280A102B8
:032FDA002F0C2297
:103E6F0075E78075E30075E44075E50475E210753C
:103E7F00E64675E6B90075E50075E70075E78075EC
:103E8F00E30075E44175E50475E20A75E64675E6EB
:093E9F00B90075E50075E7002289
:10422300439701E5E154F8FFEF4404F5E143E180EE
:0442330043E1202221
:0442C20043E11022A2
:103BF6005391F1D291D292D29343B4045395FDD20C
:103C0600A14395815395DFD2A543B41043B420C296
:103C1600A053B1DF43B22043B301C2B4C2A7C2E886
:103C2600D2B55395A3C2A2C2A3C2A4C2A643B104ED
:093C360053B2FB53B3FDC2E922B5
:104237004391B05391BFD29643B40853B1EF43B201
:02424700102243
:1042490053910FC296C294C295C29743B11053B20B
:02425900EF2252
:0C00160053C13FD28A53A1FD43C1022216
:03000300023DBFFC
:103DBF00C0E0C0F0C083C082C0D075D000C000C0CA
:103DCF0001C002C003C004C005C006C007122FDD2A
:103DDF00D007D006D005D004D003D002D001D00038
:0B3DEF00D0D0D082D083D0F0D0E032E2
:03001300023DFAB1
:103DFA00C0E0C0F0C083C082C0D075D000C000C08F
:103E0A0001C002C003C004C005C006C007122FDDEE
:103E1A00D007D006D005D004D003D002D001D000FC
:0B3E2A00D0D0D082D083D0F0D0E032A6
:0642B600120016D2AA223C
:051A33004203BC0000AD
:10413400E58954FCFFEF4401F58953A1EF43A3043F
:104144005389FB5389F7758A48758CF4D28CD2A9AC
:014154002248
:03000B000235C8F3
:1035C800C0E0C083C082C0D075D000C000C006C0B3
:1035D80007758CF4758A487871E6FFEF4440FF78E8
:1035E80071A607900262E0FFEF6008900262E014A3
:1035F800F080129002627464F07871E6FFEF448004
:10360800FF7871A6079003BCE0FEA3E0FFEF4E60D1
:103618000E9003BDE024FFF09003BCE034FFF0906F
:103628000267E0FEA3E0FFEF4E60247872E6FFEF4A
:10363800C313FFEF5401FF7E00EF64014E701E902C
:103648000268E024FFF0900267E034FFF0800E90FB
:103658000243E0FFEF6006900243E014F0D007D089
:0C36680006D000D0D0D082D083D0E03259
:103C3F00E5D954F1FFEF440AF5D975AC0175DA02F5
:103C4F0075AC0075AC01E5F244C0F5F275AC0053EC
:103C5F00BC7F75AC01800543F203800975EA1275CC
:103C6F00FAFD53F2FC75AC0075F9FA75E92475CFBE
:053C7F00FA75CE2422BD
:0442C600123C3F2245
:0342CE00D2DE221B
:05000600C2DEC2A022D1
:10426D008F5BAF5B7E00EF4E60060000155B80F24A
:01427D00221E
:1041E2008F5CAF5C155CEF600C7F6412426D7F6484
:0641F20012426D80ED2277
:0E427E00284F4B292857472900000000000058
:101A38004103AB004103AD004103A1004103A300F2
:101A48004103A2006029034E0000000000000000CE
:101A5800000000000000000000000000000000007E
:101A6800000000000000000000000000000000006E
:101A7800006029037700000000000000000000005B
:101A8800000000000000000000000000000000004E
:101A980000000000000000000000000000004403F7
:101AA80048000000004103AF004303A402030041C3
:101AB80003A0004103AE004103AC0041034C0041C8
:0A1AC800034D004403A700000000D6
:103EE100539CEFC29FD29ED29CC2CDC2CC539C7F29
:103EF100438780539CBFE58954CFFFEF4420F58968
:103F010043A3085389BF53897F758DED758BEDD21E
:043F11008ED2AC227E
:05000E00C28EC2AC220D
:030023000234564E
:10345600C0E0C083C082C0D075D000C000C006C026
:01346600075E
:10346700787C7600C0AC75AC00309902C299209880
:1034770003023500C298787CA699787CE6FFEFB402
:103487002805900224E4F0787CE6FF900224E0FE11
:10349700746D2EF582E43402F583EFF0900224E098
:1034A700FFEF04FFEF541FFF900224EFF0787CE654
:1034B700FFEF64297043787C7600900224E0FF7860
:1034C7007CE6FEEEC39F5025787CE6FF746D2FF5F2
:1034D70082E43402F583E0FF787CE6FE74522EF531
:1034E70082E43402F583EFF0787C0680CD786DE6D0
:0B34F700FFEF4410FF786DA607D0AC7B
:0F350200D007D006D000D0D0D082D083D0E03216
:02420E008F5DC2
:10421000A2AC9200C2AC855D993099FDC299A20012
:0242200092AC5E
:014222002279
:083D09008B418A4289438D447D
:103D1100900332E4F0900332E4F0900332E0FFEFDD
:103D2100C39544501FAB41AA42A943900332E0FF1F
:103D31008F827583001204BAFF12420E900332E0A3
:043D410004F080D634
:013D4500225B
:02406C008F5E65
:10406E00AF5E7E00C3EF943AEE64809480500CE510
:10407E005E540FFF900333EFF0800AE55E24C9FF14
:0A408E00900333EFF0900333E0FFDE
:014098002205
:023FDD008F5FF4
:103FDF00535F0FAF5F7E00C3EF940AEE648094804F
:103FEF00500CE55F4430FF900334EFF0800AE55F3B
:0D3FFF002437FF900334EFF0900334E0FF0F
:01400C002291
:044155008F518D52A7
:10415900AF5112406CEFC454F0FDAF5212406CEFF6
:09416900540FFFED2FF553AF5385
:01417200222A
:1006F9007BFF7A42797EC003C002C0017B017A0385
:100709007939A801AC02AD03D001D002D0037E0033
:100719007F0412047B90033DE4F07BFF7A427982E7
:10072900C003C002C0017B017A03793EA801AC0273
:10073900AD03D001D002D0037E007F0A12047B787A
:100749006DE6FFEF20E403020BFB786DE6FFEF5443
:10075900EFFF786DA607900253E0FFEF1206D3086A
:10076900CB450907460B194B07F952089353077EE6
:100779005700000BFB900254E0FFEF64476003024F
:100789000BFB900335E4F0900270E0FF900271E0FA
:10079900FD124155900336EFF0900272E0FF90028E
:1007A90073E0FD124155900337EFF0900274E0FFBA
:1007B900900275E0FD124155900338EFF090033532
:1007C900E0FCA3E0FDA3E0FEA3E0FF9002181206FF
:1007D900967B017A037936751E00751F037FFB7EB0
:1007E9007F1221C67B017A0379397D04123D0922E2
:1007F900900254E0FFEF64476003020BFB90033E55
:100809007428F090033F7452F09003407447F090BD
:1008190003417429F0900219E0FFEFC4540FFF124D
:100829003FDD900342EFF0900219E0FFEF540FFF14
:10083900123FDD900343EFF090021AE0FFEFC4543A
:100849000FFF123FDD900344EFF090021AE0FFEF33
:10085900540FFF123FDD900345EFF090021BE0FFBC
:10086900EFC4540FFF123FDD900346EFF090021BD7
:10087900E0FFEF540FFF123FDD900347EFF07B01DC
:100889007A03793E7D0A123D09227872E6FFEF5418
:100899007FFF7872A6071242979002331206A219B7
:1008A9006563787B017A0279C775400C7D15120F53
:1008B900DA7F00123B597B017A0379397D04123DB5
:1008C9000922900254E0FFEF644E6003020BFB9093
:1008D9000255E0FFEF64446003020BFB7F03123013
:1008E900DF124249D2B57872E6FFEF547FFF787282
:1008F900A6077B017A0379397D04123D092290020A
:1009090054E0FFEF644D70387872E6FFEF4480FFE2
:100919007872A6071242979002331206A2196563EC
:10092900787B017A0279C775400C7D15120FDA7F41
:1009390001123B597B017A0379397D04123D092261
:10094900900254E0FFEF64437051900255E0FFEFCD
:10095900643F704790033E7428F090033F7446F05B
:100969009003407443F09003417429F09002EBE046
:10097900FFEFC4540FFF123FDD900342EFF09002E6
:10098900EBE0FFEF540FFF123FDD900343EFF07BE5
:10099900017A03793E7D06123D0922900254E0FF57
:1009A900EF64436003020BFB7872E6FFEFC4131395
:1009B900135401FFEF5401FF7E00EF64014E600301
:1009C900020BFB900270E0FF900271E0FD124155AD
:1009D90090033DEFF07F031230DF90033DE0FF7E8F
:1009E90000D3EF940AEE64809480507490033DE044
:1009F900FF9002EBEFF07B017A0279EB751E00752F
:100A09001F017FFA7E7F1221C690033DE0FF7E968B
:100A1900EF8EF0A4FFAEF0E4FCFDEF2478FFEE3496
:100A290063FEED3465FDEC3419FC9003A7120696BC
:100A39009003A7E0FCA3E0FDA3E0FEA3E0FF7B0198
:100A49007A0279C7121CD97B017A0279C77D011212
:100A590029537B017A0379397D04123D09020B136D
:100A690090033DE0FF7E00C3740A9FEE6480F8E4C2
:100A79006480984003020B1390033DE0FF7E00D38E
:100A8900EF9414EE648094804003020B1390033DAD
:100A9900E0FF9002EBEFF07B017A0279EB751E0023
:100AA900751F017FFA7E7F1221C690033DE024F66F
:100AB900F090033DE0FF7E96EF8EF0A4FFAEF0AB21
:100AC90007AA06E4F9F8C374789BFF74639AFE7465
:100AD9006599FD741998FC9003A71206969003A7CF
:100AE900E0FCA3E0FDA3E0FEA3E0FF7B017A02792D
:100AF900C7121CD97B017A0279C77D011229537B60
:100B0900017A0379397D04123D097F01123B59228B
:100B1900900254E0FFEF64596003020BFB90025509
:100B2900E0FFEF64296003020BFB90033E7428F099
:100B390090033F744BF09003407459F090023BE4EA
:100B4900F0A292E433FFEF5401FF90023BE0FEEE86
:100B590054FEFEEE4FFF90023BEFF0A291E433FF0B
:100B6900EF5401FFEF25E0FF90023BE0FEEE54FD5C
:100B7900FEEE4FFF90023BEFF0A2A5E433FFEF54E6
:100B890001FFEF25E025E0FF90023BE0FEEE54FB7C
:100B9900FEEE4FFF90023BEFF0A2A1E433FFEF54CA
:100BA90001FFEF33333354F8FF90023BE0FEEE547C
:100BB900F7FEEE4FFF90023BEFF090023BE0FFEFB4
:100BC90054FFFFEFC4540FFF123FDD900341EFF0D4
:100BD90090023BE0FFEF540FFF123FDD900342EF1D
:100BE900F09003437429F07B017A03793E7D061264
:020BF9003D09B4
:010BFB0022D7
:0B428C0075BF0B7D7C7F031240992260
:044099008F578D5858
:10409D00A2AF9201C2AF75E3008557E48558E27572
:1040AD00E50475E78075E64675E6B90075E50075BA
:0640BD00E700A20192AF32
:0140C30022DA
:0A21C6008E198F1A8B1B8A1C891DCD
:1021D000A2AF9202C2AF900202E4F0E51954FEFEF3
:1021E0007F00900203EEF0A3EFF0900200E4F0A372
:1021F000E4F0900200E0FEA3E0FFC3EE940250562C
:10220000900203E0FF8FE3900204E0FF8FE475E5A6
:102210000175E78075E64675E6B975E50075E70076
:10222000900204E004F07006900203E004F09002D3
:1022300000E0FEA3E0FF74002FF58274003EF583FA
:10224000E5E2F01242C2900201E004F07006900252
:1022500000E004F0809CE5195401FEAF1A900200E2
:10226000EEF0A3EFF0E51F451E6041AB1BAA1CA9D1
:102270001D1204A1FF900200E0FCA3E0FD74002DFC
:10228000F58274003CF583EFF07401251DF51DE423
:10229000351CF51C900201E004F07006900200E08D
:1022A00004F0E51F151F7002151E80B9E51954FED4
:1022B000FE7F00900203EEF0A3EFF0900203E0FF38
:1022C0008FE375E40075E50375E78075E64675E60E
:1022D000B90075E50075E700900200E4F0A3E4F0B2
:1022E000900200E0FEA3E0FFC3EE9402505890027B
:1022F00000E0FEA3E0FF74002FF58274003EF5833A
:10230000E0FF8FE2900203E0FF8FE3900204E0FF22
:102310008FE475E50275E78075E64675E6B90075E8
:10232000E50075E700900204E004F07006900203F7
:10233000E004F01242C2900201E004F07006900244
:1023400000E004F0809AE51954FEFE7F009002033D
:10235000EEF0A3EFF0900200E4F0A3E4F0900200AE
:10236000E0FEA3E0FFC3EE94025078900203E0FF8A
:102370008FE3900204E0FF8FE475E50175E7807557
:10238000E64675E6B975E50075E700900204E004DD
:10239000F07006900203E004F01242C2900200E0E6
:1023A000FEA3E0FF74002FF58274003EF583E0FF8A
:1023B000EF65E2601D900202E004F0900202E0FF8F
:1023C0007E00C3EF9403EE64809480501B0222AC25
:1023D0008016900201E004F07006900200E004F024
:1023E00002235D900202E4F0A20292AF900202E0AA
:0123F000FFED
:0123F10022C9
:1013AF00787D7600907FF9E493FF900222EFF09022
:1013BF000222E0FF7E00D3EF9401EE648094804020
:1013CF0005900222E4F0900205E4F0907FFBE49395
:1013DF00FF900206EFF0907FFCE493FF900207EF7F
:1013EF00F0907FFDE493FF900208EFF07F007E0006
:1013FF007D007C00900205E0F8A3E0F9A3E0FAA3DA
:10140F00E0FBC3120672601C7FFF7EFF7DFF7C0036
:10141F00900205E0F8A3E0F9A3E0FAA3E0FBC31202
:10142F000672700A9002051206A2000000009002D8
:10143F0005E0FCA3E0FDA3E0FEA3E0FF900218127D
:10144F000696907FFAE493FF787DA607787DE6FFF6
:10145F007E00C3E49FEE6480F8E46480984003024A
:10146F0015C0787DE6FF7E00D3EF940AEE6480947A
:10147F008040030215C0787DE6FF9002EBEFF07815
:10148F007DE6FF7E96EF8EF0A4FFAEF0E4FCFDEF5D
:10149F002478FFEE3463FEED3465FDEC3419FC90D7
:1014AF000233120696900233E0FCA3E0FDA3E0FEA8
:1014BF00A3E0FF7B017A0279C7121CD9787DE6FF82
:1014CF007E96EF8EF0A4FFAEF0E4FCFDEF2430FF2C
:1014DF00EE34B0FEED346FFDEC3419FC9002331294
:1014EF000696900233E0FCA3E0FDA3E0FEA3E0FF2D
:1014FF007B017A0279BF121CD9787DE6FF7E96EFC9
:10150F008EF0A4FFAEF0E4FCFDEF24D8FFEE34B074
:10151F00FEED3494FDEC3419FC90023312069690D4
:10152F000233E0FCA3E0FDA3E0FEA3E0FF7B017A22
:10153F000279D7121CD9787DE6FF7E96EF8EF0A444
:10154F00FFAEF0E4FCFDEF2470FFEE345CFEED34F3
:10155F0097FDEC3419FC900233120696900233E09B
:10156F00FCA3E0FDA3E0FEA3E0FF7B017A0279B7C5
:10157F00121CD9787DE6FF7E96EF8EF0A4FFAEF0B9
:10158F00E4FCFDEF24B0FFEE3469FEED349AFDEC80
:10159F003419FC900233120696900233E0FCA3E05C
:1015AF00FDA3E0FEA3E0FF7B017A0279CF121CD9E5
:1015BF0022787DE6FF7E00C3740A9FEE6480F8E414
:1015CF006480984003021744787DE6FF7E00D3EFD6
:1015DF009414EE648094804003021744787DE6FFF4
:1015EF009002EBEFF0787D74F626F6787DE6FF7EBD
:1015FF0096EF8EF0A4FFAEF0AB07AA06E4F9F8C39E
:10160F0074789BFF74639AFE746599FD741998FC46
:10161F00900233120696900233E0FCA3E0FDA3E0A4
:10162F00FEA3E0FF7B017A0279C7121CD9787DE611
:10163F00FF7E96EF8EF0A4FFAEF0AB07AA06E4F99B
:10164F00F8C374309BFF74B09AFE746F99FD7419D0
:10165F0098FC900233120696900233E0FCA3E0FD53
:10166F00A3E0FEA3E0FF7B017A0279BF121CD978B9
:10167F007DE6FF7E96EF8EF0A4FFAEF0AB07AA06D5
:10168F00E4F9F8C374D89BFF74B09AFE749499FD73
:10169F00741998FC900233120696900233E0FCA363
:1016AF00E0FDA3E0FEA3E0FF7B017A0279D7121CD5
:1016BF00D9787DE6FF7E96EF8EF0A4FFAEF0AB07F4
:1016CF00AA06E4F9F8C374709BFF745C9AFE7497D2
:1016DF0099FD741998FC900233120696900233E02C
:1016EF00FCA3E0FDA3E0FEA3E0FF7B017A0279B744
:1016FF00121CD9787DE6FF7E96EF8EF0A4FFAEF038
:10170F00AB07AA06E4F9F8C374B09BFF74699AFE9D
:10171F00749A99FD741998FC9002331206969002F0
:10172F0033E0FCA3E0FDA3E0FEA3E0FF7B017A0220
:05173F0079CF121CD956
:011744002282
:0A42A2008F60AF601560EF70F92225
:1041AC004385404385905385FC7584005385F753B4
:0B41BC0085DF5385FB53A2DFD2942265
:1041C7008F61E58420E5FB856186E5845480FF7E69
:0B41D70000EF4E60F5438480AF8622AD
:103F7B008F598D5A7F011242A2C2947F011242A225
:103F8B00E55925E0FFEF4401F559AF591241C7AF91
:103F9B005A1241C77F011242A2D2947F011242A250
:013FAB0022F3
:023E35008F629A
:103E37009003BEE4F07F011242A2C2947F011242B6
:103E4700A2E56225E0F562AF621241C77FFF12412A
:103E5700C79003BEEFF07F011242A2D2947F0112F6
:073E670042A29003BEE0FF40
:013E6E002231
:083815008F378B388A39893A9C
:10381D009003BFE4F07F011242A2C2947F011242D5
:10382D00A2E53725E0FFEF4401F537AF371241C769
:10383D00AB38AA39A93A1204A1FF1241C79003BFB0
:10384D007401F09003BFE0FFEFC3953B50247F025E
:10385D001242A2AB38AA39A93A9003BFE0FF8F827A
:10386D007583001204BAFF1241C79003BFE004F044
:0E387D0080D17F011242A2D2947F011242A29A
:01388B00221A
:101AD200016E00016F0041023B0048020A00000053
:101AE20000000000004402331965637801710001AF
:101AF2007200017000016D00410244004102460083
:101B02006028027D000000000000000000000000CC
:101B120000000000000000000000000000000000C3
:101B22000000000000000000000000004402180055
:101B32000000004402270000000041024C00420263
:101B420012000041023F004102450042022F000004
:101B52004202670000410243004202630000410268
:101B6200420041023E00410217004102620041026E
:101B720031004102240050026D000000000000000C
:101B820000000000000000000050025200000000AF
:101B920000000000000000000000000041023200CE
:101BA20041023D0041022D0042023700004202B1D3
:101BB200000041023C0041024B0041022E00410262
:101BC200090042022B0000420225000041022200CD
:101BD200420240000042026500004102140041023C
:101BE200A5004902A8000000000000000000410218
:101BF2004A004202A60000420215000044026900A7
:101C02000000004202470000410249004102230055
:101C120044021E0000000042021C0000420250006A
:0F1C220000420239000041024D0042024E000014
:1039BE009002627464F0900244741AF0900244E033
:1039CE00FFEF14FF900231EFF012425B90022D7464
:1039DE00FFF090023274FFF090023DE4F07870E652
:1039EE00FFEF4440FF7870A6077870E6FFEF547F34
:1039FE00FF7870A607123D469002B1E4F0A3E4F002
:093A0E00900265E4F0A3E4F0224B
:101C31004302E70000004802C723081999230791CE
:101C4100114802B7230C7777230BEEEF4802CF231D
:101C51000CBBBC230C33334802BF2309000023080B
:101C610077774802D7230C3BBC230BB3334102B532
:101C710000602802ED0000000000000000000000EC
:101C81000000000000000000000000000000000053
:101C9100000000000000000000000000004102EC14
:101CA100014102B600410331014102B4004102EA9F
:101CB100004102B3004102EB004802DF00000000D6
:041CC100000000001F
:100FDA008B3C8A3D893E8D3F1242371242AC7F0DCF
:100FEA00123E357E00EF30E0F5800280F17D117F00
:100FFA0000123F7B7DFF7F01123F7B7D9F7F0212A4
:10100A003F7B7DC37F03123F7B7D037F04123F7BBF
:10101A007D107F05123F7B7D007F06123F7B7D1589
:10102A007F07123F7B7D007F08123F7B7D007F098F
:10103A00123F7B7D187F0A123F7B7D887F0B123F10
:10104A007B7D007F0C123F7B7D087F0D123F7B7DED
:10105A00007F0E123F7B7D007F0F123F7B7D007F5A
:10106A0010123F7B7D007F11123F7B7D007F1212A1
:10107A003F7B7D007F13123F7B7D007F14123F7BF5
:10108A007D007F15123F7B7D007F16123F7B7D001E
:10109A007F17123F7B7D007F18123F7B7D007F19EF
:1010AA00123F7B7D007F1A123F7B7D067F2D123F08
:1010BA007B7D057F3F123F7B7D8B7F41123F7B7D8E
:1010CA00007F42123F7B7D307F43123F7B7D087F4A
:1010DA0045123F7B7D007F4E123F7B7D007F4F1282
:1010EA003F7B7D007F50123F7B7D007F51123F7B0B
:1010FA007D147F54123F7B7D067F60123F7B7D8883
:10110A007F63123F7B7D007F67123F7B7D007F6894
:10111A00123F7B7D007F69123F7B7D5B7F6E123FB2
:10112A007B7D007F7A123F7B7D0C7F7B123F7B7D2C
:10113A00007F7D123F7BAD407F7E123F7B7D227F09
:10114A0000123F7B7D077F02123F7B7DD07F031217
:10115A003F7B7D007F04123F7B7D507F05123F7BE2
:10116A007D277F11123F7B7D0C7F13123F7B7D020F
:10117A007F1A123F7BAB3CAA3DA93E1204A1FD7F18
:10118A001B123F7BAB3CAA3DA93E758201758300C9
:10119A001204BAFD7F1C123F7BAB3CAA3DA93E75E7
:1011AA0082027583001204BAFD7F1D123F7BAB3C9D
:1011BA00AA3DA93E7582037583001204BAFD7F1EFB
:1011CA00123F7BAB3CAA3DA93E1204A1FD7F1F1230
:1011DA003F7BAB3CAA3DA93E758201758300120490
:1011EA00BAFD7F20123F7BAB3CAA3DA93E75820225
:1011FA007583001204BAFD7F21123F7BAB3CAA3DE6
:10120A00A93E7582037583001204BAFD7F22123F3C
:10121A007B7D087F23123F7B7D887F24123F7B7D65
:10122A00107F25123F7B7D0F7F26123F7B7D007F3B
:10123A0027123F7B7D007F28123F7B7D547F291236
:10124A003F7B7D567F2A123F7B7D087F2F123F7B93
:10125A007D007F30123F7B7DC07F31123F7BAB3CEC
:10126A00AA3DA93E7582047583001204BAFD7F4D1A
:10127A00123F7BAB3CAA3DA93E75820575830012DD
:10128A0004BAFD7F4E123F7BAB3CAA3DA93E758254
:10129A00067583001204BAFD7F4F123F7BAB3CAA4E
:1012AA003DA93E7582077583001204BAFD7F50126C
:1012BA003F7B7D047F51123F7B7D5A7F52123F7BD9
:1012CA007D667F53123F7B7D157F5C123F7B7D1BC2
:1012DA007F5D123F7B7D057F5E123F7B7D677F5F6F
:1012EA00123F7B7D0C7F60123F7B123F497D447F1A
:1012FA0000123F7B7D0F7F2A123F7B7D447F0012C5
:10130A003F7B7D007F4F123F7B7D887F00123F7BB2
:10131A007D3F7F2F123F7B7D417F0C123F7B7D33C8
:10132A007F0D123F7B7D547F0E123F7B7D107F1411
:10133A00123F7B7D037F24123F7B7D007F7E123F1D
:10134A007B7F707E5C7D977C19900233E0F8A3E086
:10135A00F9A3E0FAA3E0FBC3120672601C7FB07E19
:10136A00697D9A7C19900233E0F8A3E0F9A3E0FAC8
:10137A00A3E0FBC312067270051233918003123583
:10138A00117D117F00123F7B7D017F6F123F7B7FB2
:10139A000D123E357E00EF30E1F5800280F11241F8
:0513AA00731241F8225E
:103B59008F637D117F00123F7BE5631206D33B77AC
:103B6900003B80013B89023B920300003B9B7D2186
:103B79007F76123F7B80227D117F76123F7B8019F1
:103B89007D097F76123F7B80107D057F76123F7B12
:0F3B990080077D037F76123F7B7F091230DF228A
:102FDD00787E76007F0F123E35787EA607787EE6E6
:102FED00FFEF5401FF7E00EF64014E60030230DEFF
:102FFD00787EE6FF7E00EF64FF4E70030230DE78D0
:10300D006EE6FFEF4440FF786EA6077F01123EA8E3
:10301D007871E6FFEF5401FF7E00EF64014E60030F
:10302D000230DE90023FE0FF7E00C3EF9403EE64BA
:10303D00809480503D786EE6FFEFC413135403FF68
:10304D00EF5401FF7E00EF64014E7026786EE6FFAF
:10305D00EF54BFFF786EA6077B017A02797D90024F
:10306D002FE0FEA3E0FFAD07123D8390023FE00489
:10307D00F02290023FE0FF7E00EF64034E70527825
:10308D006EE6FFEFC413135403FFEF5401FF7E00F0
:10309D00EF64014E703B786EE6FFEF54BFFF786E24
:1030AD00A6077871E6FFEF54FEFF7871A607786DDD
:1030BD00E6FFEF131313541FFFEF5401FF7E00EFD4
:1030CD004E7002C2A77F031230DFC2B4124249D242
:0130DD00B53D
:0130DE0022CF
:0B42970030B507C2B57F021241E222E1
:10403D008F647D117F00123F7BAF647E00EF6410B3
:10404D004E6014AF647E00EF64124E600AAF647E62
:0F405D0000EF641A4E7007AD647F0A123F7B229A
:0230DF008F65FB
:1030E1009003B0E4F07D117F00123F7B7F0B123E15
:1030F10035EFC4540FFF9003B0EFF09003B0E0FF41
:10310100EF656570030231C8AF657E00EF64094E5B
:103111006021AF657E00EF64064E6017AF657E00EB
:10312100EF64084E600DAF657E00EF64034E6003EF
:103131000231C8AD657F0B123F7B123CC89003B0D2
:10314100EFF09003B0E0FF7E00EF4E606BAF657E65
:1031510000EF64034E6061900233E0FCA3E0FDA345
:10316100E0FEA3E0FF7B017A0279DF121CD9124253
:10317100C27F407E057D927C19900233E0F8A3E086
:10318100F9A3E0FAA3E0FBC312067250107B017AA7
:103191000279DF75400C7D55120FDA800E7B017AC2
:1031A1000279DF75401C7D55120FDA1242C2AD65FE
:1031B1007F0B123F7B123CC87F0B123E35EFC4548C
:0C31C1000FFF9003B0EFF09003B0E0FFB0
:0131CD0022DF
:103CC8009003B1E4F0A3E4F07D117F00123F7B7F05
:103CD8000D123E35EF30E30A7D007F0D123F7B7FEA
:103CE80000229003B1E475F001120531AFF0FED364
:103CF800EF9488EE941340037F01221242C280CFD2
:013D08002298
:103EA8008F667D117F00123F7BAF667E00EF640155
:103EB8004E700F7D007F0F123F7B7D817F16123F72
:103EC8007B22AF667E00EF4E700E7D007F0E123FA4
:093ED8007B7D827F16123F7B22E4
:104173007D117F00123F7B7D007F0D123F7B7D0011
:0D4183007F0E123F7B7D007F0F123F7B22DD
:103391007D117F00123F7B7D227F06123F7B7D15D1
:1033A1007F07123F7B7D1E7F66123F7B7D227F0060
:1033B100123F7B7D937F0C123F7B7D357F0D123F4A
:1033C1007B7D277F11123F7B7D0C7F13123F7B7D1D
:1033D100087F2F123F7B7D507F56123F7B7D407FC0
:1033E10057123F7B7D017F58123F7B7D147F59121D
:1033F1003F7B7D007F5A123F7B7D007F5B123F7BCD
:103401007D157F5C123F7B7D0D7F5D123F7B7D05CE
:103411007F5E123F7B7D677F5F123F7B7D097F600F
:10342100123F7B7D887F00123F7B7D417F0C123FE5
:103431007B7D337F0D123F7B7D547F0E123F7B7D61
:10344100107F14123F7B7D037F24123F7B7D117F10
:0534510000123F7B2288
:103511007D117F00123F7B7D007F06123F7B7D1E68
:103521007F66123F7B7D227F00123F7B7D937F0C64
:10353100123F7B7D357F0D123F7B7D277F11123F2F
:103541007B7D0C7F13123F7B7D087F2F123F7B7D9C
:10355100407F57123F7B7D017F58123F7B7D147F57
:1035610059123F7B7D007F5A123F7B7D007F5B12AA
:103571003F7B7D157F5C123F7B7D1B7F5D123F7B17
:103581007D057F5E123F7B7D677F5F123F7B7D0CF8
:103591007F60123F7B7D887F00123F7B7D417F0CE6
:1035A100123F7B7D337F0D123F7B7D547F0E123F97
:1035B1007B7D107F14123F7B7D037F24123F7B7D37
:0735C100117F00123F7B2285
:0A42AC00C2B47F021241E2D2B42234
:102953008B458A4689478D48786EE6FFEF4408FF2A
:10296300786EA6077F001230DF7E00EF64084E60AA
:10297300057F031230DF7D227F00123F7BAB45AA28
:1029830046A9471204A1FD7F1B123F7BAB45AA4614
:10299300A9477582017583001204BAFD7F1C123F9B
:1029A3007BAB45AA46A9477582027583001204BA18
:1029B300FD7F1D123F7BAB45AA46A9477582037570
:1029C30083001204BAFD7F1E123F7BAB45AA46A9C2
:1029D300471204A1FD7F1F123F7BAB45AA46A947BF
:1029E3007582017583001204BAFD7F20123F7BAB11
:1029F30045AA46A9477582027583001204BAFD7F72
:102A030021123F7BAB45AA46A94775820375830014
:102A13001204BAFD7F22123F7BAB45AA46A9477534
:102A230082047583001204BAFD7F4D123F7BAB45D0
:102A3300AA46A9477582057583001204BAFD7F4E25
:102A4300123F7BAB45AA46A94775820675830012E0
:102A530004BAFD7F4F123F7BAB45AA46A947758257
:102A6300077583001204BAFD7F50123F7B7D227FDE
:102A730000123F7B7D087F25123F7B7D557F2A1205
:102A83003F7BAF487E00EF64014E70051235118025
:102A93000DAF487E00EF64024E70031233917D0147
:102AA3007F6F123F7B7F0D123E357E00EF30E1F5E5
:102AB300800280F17D117F00123F7B786EE6FFEF8D
:082AC30054F7FF786EA607220C
:1041F8007D117F00123F7B7D077F4E123F7B7D0143
:064208007F12123F7B2231
:103D83008B498A4A894B8D4CAF4C7E00D3EF9440CC
:103D9300EE648094804003754C407D117F00123F98
:103DA3007BAD4C7F7B123F7B7F1012403DAB49AA1A
:0C3DB3004AA94B854C3B7F7C123815223E
:0E1CD9008F2D8E2C8D2B8C2A8B2E8A2F8930EE
:101CE7009003B3E4F09003B41206A2000000009042
:101CF70003B81206A2000000007B007A1B79B778B0
:101D070000AF2DAE2CAD2BAC2A1205D29003B3EF4A
:101D1700F0AF2DAE2CAD2BAC2AE41202EC7B007A8F
:101D27001B7937784B12024FC004C005C006C007A5
:101D37009003B3E0FCE41202F6A804A905AA06ABD7
:101D470007D007D006D005D0041200519003B41273
:101D570006967F007E007D807C499003B4E0F8A35F
:101D6700E0F9A3E0FAA3E0FB12014612032A90036D
:101D7700B81206969003B3E0FFAB2EAA2FA930EF57
:101D87001204E79003B8E0FCA3E0FDA3E0FEA3E0A4
:101D9700FF7810120683EF54FFFFEE5400FEED5458
:101DA70000FDEC5400FCAB2EAA2FA93075820175FB
:101DB7008300EF1204F99003B8E0FCA3E0FDA3E071
:101DC700FEA3E0FF7808120683EF54FFFFEE5400EE
:101DD700FEED5400FDEC5400FCAB2EAA2FA9307584
:101DE7008202758300EF1204F99003B8E0FCA3E0C8
:101DF700FDA3E0FEA3E0FFEF54FFFFEE5400FEED6E
:101E07005400FDEC5400FCAB2EAA2FA930758203B9
:101E1700758300EF1204F9E52D2480F52DE52C34A8
:101E2700E5F52CE52B34F9F52BE52A34FFF52A7B6C
:101E3700007A1B79B77800AF2DAE2CAD2BAC2A12E8
:101E470005D29003B3EFF0AF2DAE2CAD2BAC2AE447
:101E57001202EC7B007A1B7937784B12024FC004D1
:101E6700C005C006C0079003B3E0FCE41202F6A861
:101E770004A905AA06AB07D007D006D005D00412DF
:101E870000519003B41206967F007E007D807C4946
:101E97009003B4E0F8A3E0F9A3E0FAA3E0FB120192
:101EA7004612032A9003B81206969003B3E0FFABDD
:101EB7002EAA2FA930758204758300EF1204F990BA
:101EC70003B8E0FCA3E0FDA3E0FEA3E0FF78101257
:101ED7000683EF54FFFFEE5400FEED5400FDEC5473
:101EE70000FCAB2EAA2FA930758205758300EF126F
:101EF70004F99003B8E0FCA3E0FDA3E0FEA3E0FF34
:101F07007808120683EF54FFFFEE5400FEED5400ED
:101F1700FDEC5400FCAB2EAA2FA930758206758301
:101F270000EF1204F99003B8E0FCA3E0FDA3E0FE84
:101F3700A3E0FFEF54FFFFEE5400FEED5400FDEC6D
:101F47005400FCAB2EAA2FA930758207758300EFCA
:031F57001204F978
:011F5A002264
:103F49007D227F00123F7B7D5A7F07123F7B7D8A4E
:103F59007F0C123F7B7D267F0D123F7B7D037F10F7
:103F6900123F7B7D837F15123F7B7D117F00123FBE
:023F79007B22A9
:1041900043920143C48053C31F53C3FC43C3105312
:0C41A000C3FB53BB9F53C4D843AD0222A5
:03004B000231CEB1
:1031CE00C0E0C0F0C083C082C0D075D000C000C0C7
:0D31DE0001C002C003C004C005C006C00748
:1031EB009003C0E5C6F09003C1E5C5F0900269E01D
:1031FB00F8A3E0F9A3E0FAA3E0FB9003C0E0FEA381
:10320B00E0FFEE540FFEE4FCFDEB2FFFEA3EFEE980
:10321B003DFDE83CFC900269120696900249E004E1
:10322B00F053C4EF43C408900249E0FF7E00C3EFA4
:10323B009414EE64809480405653ADFD53C47F903C
:10324B000249E4F07B147A0079007800900269E07F
:10325B00FCA3E0FDA3E0FEA3E0FF1205D290024722
:10326B00EEF0A3EFF0900247E0FEA3E0FFAB07AA5E
:10327B0006E4F9F87F007E107D0E7C00123C8490F2
:0F328B00021E1206969002691206A200000000B1
:10329A00D007D006D005D004D003D002D001D00088
:0B32AA00D0D0D082D083D0F0D0E03232
:0442CA0043C40822BF
:10388C0090024EE0FEA3E0FFEF4E60677F607E0982
:10389C007D007C0090021EE0F8A3E0F9A3E0FAA3FF
:1038AC00E0FBD31206724006900223E4F0227F6004
:1038BC007E097D007C0090021EE0F8A3E0F9A3E0F5
:1038CC00FAA3E0FBD312067250237F987E087D008A
:1038DC007C0090021EE0F8A3E0F9A3E0FAA3E0FB61
:1038EC00D312067240079002237401F02290022337
:0438FC007402F02240
:101CC5001108FBBFDFEFF79FAFB7BBCFDBEBE7F348
:031CD500FDFEFF12
:1023F2007871E6FFEF20E6030226117871E6FFEF1F
:1024020054BFFF7871A60790024EE0FEA3E0FFEFF3
:102412004E600E90024FE024FFF090024EE034FF37
:10242200F09002A6E0FEA3E0FFEF4E600E9002A73E
:10243200E024FFF09002A6E034FFF0900225E0FED7
:10244200A3E0FFEF4E600E900226E024FFF0900220
:1024520025E034FFF0900265E0FEA3E0FFEF4E605E
:102462000E900266E024FFF0900265E034FFF090E7
:10247200022BE0FEA3E0FFEF4E601090022CE0245E
:10248200FFF090022BE034FFF0800C786DE6FFEF56
:1024920054F7FF786DA607786DE6FFEF30E33590CD
:1024A200022BE0FEA3E0FFEF4E6029900241E00420
:1024B200F07006900240E004F0900240E0FEA3E0DB
:1024C200FFC3EF945AEE9400400A900240E4F0A356
:1024D200E4F0B2A79002B1E0FEA3E0FFEF4E600E7F
:1024E2009002B2E024FFF09002B1E034FFF09002DB
:1024F20067E0FEA3E0FFEF4E60407872E6FFEFC3B5
:1025020013FFEF5401FF7E00EF4E60030225EF78C8
:1025120072E6FFEF4402FF7872A6077872E6FFEFD9
:1025220054FBFF7872A6071242CE7872E6FFEF20C4
:10253200E3030225EFD2A70225EF900243E0FFEF6B
:10254200603E7872E6FFEF1313543FFFEF5401FF32
:102552007E00EF4E60030225EF7872E6FFEF44043F
:10256200FF7872A6077872E6FFEF54FDFF7872A635
:10257200071200067872E6FFEF30E371C2A7806DA2
:1025820090023EE0FFEF605990023EE014F09002AC
:1025920063E0FEA3E0FF900267EEF0A3EFF090028B
:1025A20042E0FF900243EFF07872E6FFEFC313FFC1
:1025B200EF5401FF7E00EF4E70337872E6FFEF4476
:1025C20002FF7872A6077872E6FFEF54FBFF78727B
:1025D200A6071242CE7872E6FFEF30E310D2A78050
:1025E2000C7872E6FFEF54F7FF7872A607121745D0
:1025F200786DE6FFEFC4135407FFEF5401FF7E002E
:10260200EF64014E6009122ACB120BFC1242C22265
:103674007871E6FFEF30E7497871E6FFEF547FFF9A
:103684007871A60790024DE0FFEF600690024DE0CE
:1036940014F07871E6FFEFC4135407FFEF5401FFF1
:1036A4007E00EF64014E7019900231E0FFEF60116B
:1036B40090024BE0FF7E00EF4E7006900231E01462
:1036C400F09003BCE0FEA3E0FFEF4E703F7871E69C
:1036D400FFEF5401FF7E00EF64014E702F7871E616
:1036E400FFEF54FEFF7871A607786DE6FFEF131322
:1036F40013541FFFEF5401FF7E00EF4E7002C2A768
:0D3704007F031230DFC2B4124249D2B52259
:1017450090023DE4F090023274FFF0900223E0FF36
:101755007E00EF64024E7003021A32A292E433FF58
:10176500124111A291E433FF124111A2A5E433FF06
:101775001241117F01124111A2A1E433FF1241115F
:101785007F011241117F0112411190022DE0FF905E
:101795000232E0FEEE6F6025900232E0FF90022DEE
:1017A500EFF012425B123D4690021C7413F0A374D5
:1017B50088F09002507427F0A37474F022900237D9
:1017C50074FF75F0FF12051BAFF0FEEF4E600302CC
:1017D5001A32900237E4F0A37401F0900232E0FF70
:1017E5007E00EF64FF4E70030218CF90021CE0FEEE
:1017F500A3E0FFEF4E600E90021DE024FFF0900283
:101805001CE034FFF0900250E0FEA3E0FFEF4E60D5
:101815000E900251E024FFF0900250E034FFF0906A
:101825000223E0FF7E00EF64014E6017786DE6FF4E
:10183500EF20E60F900250E0FEA3E0FFEF4E6003BD
:101845000218CF786DE6FFEFC413135403FFEF546E
:1018550001FF7E00EF4E705A786DE6FFEF4440FFC2
:10186500786DA607900250E0FEA3E0FFEF4E7011E1
:10187500900263E4F0A37467F09002427467F0800D
:101885000F900263E4F0A37428F0900242743CF0D8
:10189500900263E0FEA3E0FF900267EEF0A3EFF095
:1018A500900242E0FF900243EFF090023E7402F096
:1018B500801890023EE0FF7E00D3EF9401EE648035
:1018C5009480500690023E7402F0787F7600787F0F
:1018D500E6FF7E00C3EF9411EE6480948050237878
:1018E5007FE6FF74082FF8E6FF900232E0FEEEB5C2
:1018F500070B787FE6FF90023CEFF08005787F06C6
:1019050080CC787FE6FF7E00900239EEF0A3EFF001
:10191500786DE6FFEFC4135407FFEF5401FF7E0017
:10192500EF64014E7003021A32787FE6FF7E00EF06
:1019350064114E701F7870E6FFEF54BFFF7870A6F4
:1019450007123D467870E6FFEF4480FF7870A607E2
:101955001240EB227870E6FFEF30E75D900232E04F
:10196500FF7E00EF64FF4E6050787FE6FF7E00EF5C
:1019750064054E6033787FE6FF7E00EF64064E60B7
:1019850027787FE6FF7E00EF64074E601B787FE6D1
:10199500FF7E00EF64094E600F787FE6FF7E00EF63
:1019A500640C4E6003021A327871E6FFEF5401FFB2
:1019B5007E00EF4E7077800122787FE6FFEF1206FA
:1019C500D319FD001A01011A01021A01031A0104B3
:1019D5001A13051A13061A13071A17081A13091AE0
:1019E5001B0A1A1F0B1A130C1A230D1A270E1A2B72
:1019F5000F1A2F1000001A321232B5227871E6FF45
:101A0500EF5401FF7E00EF4E7023121F5B22123F41
:101A1500AC2212396222123B0922123A6922123A89
:0D1A2500B922120022221242D122123A17D9
:011A32002291
:103FAC001240EB90023DE4F090023CE0FF90023CAA
:103FBC00E0FD122612123D467870E6FFEF54BFFF6B
:103FCC007870A6077870E6FFEF4480FF7870A6073C
:013FDC0022C2
:103962001240EB7870E6FFEF54BFFF7870A607783D
:1039720070E6FFEF20E23F7870E6FFEF4404FF7845
:1039820070A6079002B1740BF0A374B8F07871E6D8
:10399200FFEFC4135407FFEF5401FF7E00EF4E7098
:1039A2001A7871E6FFEF4420FF7871A607D2E890FB
:0C39B2000231744EF0227F08123F1522F3
:103A69001240EB7870E6FFEF20E33F7870E6FFEF56
:103A79004408FF7870A6079002B1740BF0A374B8DC
:103A8900F07871E6FFEFC4135407FFEF5401FF7E8E
:103A990000EF4E701A7871E6FFEF4420FF7871A6A7
:103AA90007D2E8900231744EF0227F0B123F1522A3
:103AB9001240EB7870E6FFEF20E43F7870E6FFEF05
:103AC9004410FF7870A6079002B1740BF0A374B884
:103AD900F07871E6FFEFC4135407FFEF5401FF7E3E
:103AE90000EF4E701A7871E6FFEF4420FF7871A657
:103AF90007D2E8900231744EF0227F0D123F152251
:103B09001240EB7870E6FFEF20E13F7870E6FFEFB7
:103B19004402FF7870A6079002B1740BF0A374B841
:103B2900F07871E6FFEFC4135407FFEF5401FF7EED
:103B390000EF4E701A7871E6FFEF4420FF7871A606
:103B490007D2E8900231744EF0227F0A123F152203
:103F15008F679002B1E0FEA3E0FFEF4E60259002AF
:103F2500B174FF75F0FF12051BAFF0FEEF4E701375
:103F35007D00AF67122612786DE6FFEF4480FF78AB
:043F45006DA607223C
:1032B5001240EB7870E6FFEF20E603023354787096
:1032C500E6FFEF54BFFF7870A60790023D7405F046
:1032D500123D467870E6FFEF4401FF7870A607902F
:1032E50002B1740BF0A374B8F0900265E0FEA3E0A0
:1032F500FFEF4E70397871E6FFEFC4135407FFEF07
:103305005401FF7E00EF4E70147871E6FFEF442004
:10331500FF7871A607D2E89002317433F090026508
:103325007427F0A37410F09002147402F022900236
:1033350014E014FFF0EF70537F011240C490023D7A
:10334500E4F07870E6FFEF4480FF7870A6072278F6
:1033550070E6FFEF30E0349002B1E0FEA3E0FFEF4E
:103365004E60289002B174FF75F0FF12051BAFF097
:10337500FEEF4E70167F021240C490023DE4F078D5
:0C33850070E6FFEF4480FF7870A607227E
:101F5B00120026EF7003022072786DE6FFEF20E08F
:101F6B0013786DE6FFEF20E10B786DE6FFEF20E2D3
:101F7B00030221C59002B1E0FEA3E0FFEF4E600328
:101F8B000221C5786DE6FFEFC413135403FFEF5422
:101F9B0001FF7E00EF4E60030221C590021CE0FEA4
:101FAB00A3E0FFEF4E60030221C5786DE6FFEF2043
:101FBB00E008786DE6FFEF30E21890024B740AF000
:101FCB0090023DE4F07870E6FFEF4480FF7870A656
:101FDB00072290024B7401F07B017D677F677E00C7
:101FEB00123BA87872E6FFEF4408FF7872A60778D9
:101FFB0071E6FFEFC4135407FFEF5401FF7E00EFB0
:10200B004E70187871E6FFEF4420FF7871A607D267
:10201B00E8900244E0FF900231EFF0900225740F3C
:10202B00F0A374A0F090023DE4F07870E6FFEF545B
:10203B00BFFF7870A6077870E6FFEF4480FF7870DB
:10204B00A6077870E6FFEF4420FF7870A607786D3F
:10205B00E6FFEF20E0030221C57870E6FFEF54DFC7
:10206B00FF7870A607222290023CE0FF90023DEF22
:10207B00F090024BE0FFEF60030221C59002A5E058
:10208B00FFEF60012290023DE0FFEF1206D320A686
:10209B000120BE0220D603000020EC786DE6FFEF96
:1020AB004401FF786DA6079002B17413F0A37488F6
:1020BB00F0802E786DE6FFEF4402FF786DA6079057
:1020CB0002B17413F0A37488F08016786DE6FFEFFD
:1020DB004404FF786DA6079002B17413F0A37488C3
:1020EB00F0900222E0FFEF600D90023DE0FF7E00DA
:1020FB00EF64044E70191240EB90023CE0FF90022B
:10210B003CE0FD122612900265E4F0A3E4F022906D
:10211B00024BE0FFEF60030221C59002A5E0FFEF49
:10212B0060012290023DE0FF7E00EF64024E7037AB
:10213B001240EB90023CE0FF90023CE0FD122612B5
:10214B00900265E4F0A3E4F0786DE6FFEF4408FF3E
:10215B00786DA60790022B740BF0A374B8F0900265
:10216B0040E4F0A3E4F02290023DE0FFEF1206D32F
:10217B00218501218503000021C5786DE6FFEF3035
:10218B00E33890022BE0FEA3E0FFEF4E602C786D5E
:10219B00E6FFEF54F7FF786DA60790022BE4F0A350
:1021AB00E4F090023CE0FF90023CE0FD122612901E
:0B21BB000265E4F0A3E4F01240EB2208
:0100220022BB
:0142D10022CA
:103A1700786DE6FFEF54FEFF786DA607786DE6FF39
:103A2700EF54FDFF786DA607786DE6FFEF54FBFFB7
:103A3700786DA607786DE6FFEF54BFFF786DA60790
:103A4700123D467870E6FFEF4440FF7870A607788E
:103A570070E6FFEF547FFF7870A60790023D74FF72
:023A6700F0224B
:10425B00900237E4F0A3740AF09002B1E4F0A3E407
:02426B00F0223F
:103D46007870E6FFEF54FEFF7870A6077870E6FFFE
:103D5600EF54FDFF7870A6077870E6FFEF54FBFF7F
:103D66007870A6077870E6FFEF54F7FF7870A6071D
:0D3D76007870E6FFEF54EFFF7870A607228B
:1040EB0090024BE4F090022E7402F09002097402DD
:1040FB00F090022BE0FEA3E0FFEF4E600890022B46
:06410B00E4F0A3E4F02241
:100026007870E6FFEF20E6037F01227870E6FFEFA7
:1000360054BFFF7870A6079002B1E4F0A3E4F01273
:050046003D467F002291
:042612008F548D55FF
:10261600900246E0FF7E00C3EF9445EE648094800E
:10262600505A7871E6FFEFC4135407FFEF5401FFC9
:102636007E00EF64014E7044900231E0FF7E00C3DD
:10264600EF9419EE648094805032900231E0FFC31B
:1026560074199FF556900246E02556F0900246E022
:10266600FF7E00C374459FFFE49EFEC3EF941BEEFE
:102676006480948040069002317419F0900231E033
:10268600FF7E00C3EF9419EE64809480500E900292
:102696004DE0FF7E00EF4E60030227BF7871E6FF34
:1026A600EFC4135407FFEF5401FF7E00EF4E70187E
:1026B6007871E6FFEF4420FF7871A607D2E8900212
:1026C60044E0FF900231EFF0E5541206D326F501FF
:1026D60026FD02270503270D04271D0527250627A6
:1026E6002D0727350927150A273D0C00002743909B
:1026F600024C7408F0804690024C7404F0803E90C0
:10270600024C7402F0803690024C7401F0802E90D8
:10271600024C7414F0802690024C740CF0801E90CB
:10272600024C740AF0801690024C7409F0800E90E8
:10273600024C7406F0800690024C7403F0E55512C4
:1027460006D3275B01276802277503278204278F94
:10275600140000279A7B007D677F677E00123BA8E6
:1027660080327B017D677F677E00123BA880257BD8
:10277600027D677F677E00123BA880187B007D0A7A
:102786007FF47E01123BA8800B7B007D0A7FE87EEA
:1027960003123BA81242979002331206A2196563F0
:1027A600787B017A0279C775400C7D15120FDA1213
:0B27B6002DAB90024D7419F022C2A759
:0127C10022F5
:100BFC0090024BE0FFEF1206D30C27010C56020CAF
:100C0C00AB030D25040D5C050DE2060E19070E9FB6
:100C1C00080E9F090FCE0A00000FD97870E6FFEF7F
:100C2C0020E7119002257403F0A374E8F090024BB6
:100C3C00E004F022900225E0FEA3E0FFEF4E6003FB
:100C4C00020FD990024B740AF022900225E0FEA309
:100C5C00E0FFEF4E702790024BE004F090022574F9
:100C6C000BF0A374B8F07B007D677F677E00123BAE
:100C7C00A87872E6FFEF4408FF7872A60790023D51
:100C8C00E0FF7E00EF4E7003020FD990023DE0FFB3
:100C9C007E00EF64FF4E7003020FD91240EB2290DE
:100CAC000225E0FEA3E0FFEF4E70041240EB229011
:100CBC00023DE0FF7E00EF4E7003020FD990023D23
:100CCC00E0FF7E00EF64FF4E7001227870E6FFEFCC
:100CDC0030E52390023DE0FF7E00EF64024E701180
:100CEC009002257403F0A374E8F090024BE004F03A
:100CFC00221240EB222290023DE0FF7E00EF6401C5
:100D0C004E70119002257403F0A374E8F090024B1E
:100D1C00E004F0221240EB2222900225E0FEA3E038
:100D2C00FFEF4E6003020FD990024BE004F09002EB
:100D3C0025740BF0A374B8F07B007D677F677E0091
:100D4C00123BA87872E6FFEF4408FF7872A60722E0
:100D5C00900225E0FEA3E0FFEF4E70041240EB2260
:100D6C0090023DE0FF7E00EF4E7003020FD990021F
:100D7C003DE0FF7E00EF64FF4E7001227870E6FFCD
:100D8C00EF30E52F90023DE0FF7E00EF64024E70E5
:100D9C001D9002257403F0A374E8F090024BE0045C
:100DAC00F07870E6FFEF4480FF7870A607221240BF
:100DBC00EB222290023DE0FF7E00EF64014E7011A9
:100DCC009002257403F0A374E8F090024BE004F059
:100DDC00221240EB2222900225E0FEA3E0FFEF4E10
:100DEC006003020FD990024BE004F0900225740BC3
:100DFC00F0A374B8F07B027D677F677E00123BA87E
:100E0C007872E6FFEF4408FF7872A607229002255D
:100E1C00E0FEA3E0FFEF4E70041240EB2290023D87
:100E2C00E0FF7E00EF4E7003020FD990023DE0FF11
:100E3C007E00EF64FF4E7001227870E6FFEF30E524
:100E4C002F90023DE0FF7E00EF64024E701D900279
:100E5C00257427F0A37410F090024BE004F0787026
:100E6C00E6FFEF4480FF7870A607221240EB2222A7
:100E7C0090023DE0FF7E00EF64014E701190022560
:100E8C007427F0A37410F090024BE004F02212408F
:100E9C00EB2222900225E0FEA3E0FFEF4E7004123D
:100EAC0040EB2290023DE0FF7E00EF4E7003020FFC
:100EBC00D990023DE0FF7E00EF64FF4E7001227876
:100ECC0070E6FFEF20E503020F5590023DE0FF7E38
:100EDC0000EF64024E706D90024BE0FF7E00EF64F9
:100EEC00094E7059900222E0FF8F68E56860057525
:100EFC0068008003756801900222E568F07B017A36
:100F0C00027922751E00751F017FF97E7F1221C6A2
:100F1C007B047D677F677E00123BA87872E6FFEF4B
:100F2C004408FF7872A607786DE6FFEF54F7FF7858
:100F3C006DA6079002317414F01240EB2290024B14
:100F4C00E004F0221240EB222290023DE0FF7E00F2
:100F5C00EF64014E706790024BE0FF7E00EF640976
:100F6C004E7053900222E0FF8F68E568600575684B
:100F7C00008003756801900222E568F07B017A021B
:100F8C007922751E00751F017FF97E7F1221C67BA9
:100F9C00047D677F677E00123BA87872E6FFEF4402
:100FAC0008FF7872A607786DE6FFEF54F7FF786DAF
:100FBC00A6071240EB2290024BE004F0221240EB09
:0D0FCC0022227870E6FFEF20E7031240EBD1
:010FD90022F5
:102ACB001242BCEF7003022C407871E6FFEFC41387
:102ADB005407FFEF5401FF7E00EF4E700E7871E646
:102AEB00FFEF4420FF7871A607D2E89002A6E0FE24
:102AFB00A3E0FFEF4E60319002317433F09002414E
:102B0B00E004F07006900240E004F0900240E0FE1A
:102B1B00A3E0FFC3EF94F4EE9401401E900240E457
:102B2B00F0A3E4F0B2A780127B027DFA7FF47E0162
:102B3B00123BA8C2A79002A5E4F090023DE0FFEF84
:102B4B001206D32B5E012B9F022BD1032BEA050020
:102B5B00002C4090024AE0FF74A82FF582E4340267
:102B6B00F583E004FFF0EFD39439401290024AE072
:102B7B00FF74A82FF582E43402F5837430F07B00E8
:102B8B007D677F677E00123BA89002A674C3F0A3FB
:102B9B007450F02290024AE004FFF07E00D3EF94D1
:102BAB0008EE64809480400890024A7408F0800B11
:102BBB007B017D677F677E00123BA89002A674C3E2
:102BCB00F0A37450F02212400D7B007D0A7FE87E4B
:102BDB0003123BA89002A674C3F0A37450F022908A
:102BEB00024AE0FF7E00C3EF9408EE6480948040BD
:102BFB00447B017A0279A812379D90022712069620
:102C0B007FFE7EFF7DFF7C00900227E0F8A3E0F9BA
:102C1B00A3E0FAA3E0FBD3120672400D7B037D64A5
:102C2B007F647E00123BA880077D147F141226124E
:062C3B009002A5E4F02266
:06379D008B218A22892322
:1037A300752900752800752700752600752400AF5C
:1037B300247E00C3EF9408EE64809480504BAB21C9
:1037C300AA22A923AF248F827583001204BAFFEFC4
:1037D30024D0F5257F0A7E007D007C00AB29AA2832
:1037E300A927A826120547A804A905AA06AB07AF6F
:1037F30025E4FCFDFEEB2FF529EA3EF528E93DF52E
:1038030027E83CF526052480A6AF29AE28AD27ACD2
:01381300268E
:013814002291
:1040C4008F691242BCEF701E9002A5E569F01240A0
:1040D4000D7B007D0A7FE87E03123BA89002A67444
:0740E400C3F0A37450F022A9
:0642BC009002A5E0FF22C4
:10400D0090024AE4F0756A00AF6A7E00C3EF94082F
:10401D00EE648094805013AF6A74A82FF582E43457
:0F402D0002F5837430F0056A80DE9002B0E4F093
:01403C002261
:104111008F6B900232E0FFEF25E0FF900232EFF06B
:10412100E56B600E900232E0FFEF4401FF90023236
:03413100EFF0228A
:103BA8008E4D8F4E8D4F8B50786DE6FFEFC41313FB
:103BB8005403FFEF5401FF7E00EF4E703090026314
:103BC800E54DF0A3E54EF0900242E54FF090026318
:103BD800E0FEA3E0FF900267EEF0A3EFF090024250
:0E3BE800E0FF900243EFF090023EE550F02225
:1027C20030930302290B786FE6FFEF5401FF7E007E
:1027D200EF4E701E786FE6FFEF4401FF786FA60799
:1027E200D2E8D2A7123EE1D2AF1242CE9002437497
:1027F200C8F0900243E0FF7E00EF4E700312000625
:102802001242C220924A7871E6FFEFC313FFEF54DF
:1028120001FF7E00EF4E70387871E6FFEF4402FF51
:102822007871A6071242979002331206A2196563C5
:10283200787B017A0279C775400C7D15120FDA7820
:1028420072E6FFEF547FFF7872A6077F00123B59B2
:1028520030920C7871E6FFEF54FDFF7871A60720E5
:1028620091337871E6FFEF1313543FFFEF5401FFEA
:102872007E00EF4E701F7871E6FFEF4404FF78711F
:10288200A607C2B4124249D2B57872E6FFEF547F6E
:10289200FF7872A60730910C7871E6FFEF54FBFFC8
:1028A2007871A60720A54D7871E6FFEF1313135434
:1028B2001FFFEF5401FF7E00EF4E70387871E6FF84
:1028C200EF4408FF7871A60712429790023312066E
:1028D200A2196563787B017A0279C775400C7D1570
:1028E200120FDA7F01123B597872E6FFEF4480FF44
:1028F2007872A60730A50C7871E6FFEF54F7FF78DF
:1029020071A6071206F90227C2786FE6FFEF54019B
:10291200FF7E00EF64014E700F786FE6FFEF54FE0A
:10292200FF786FA60712000EC2E8C2A77871E6FF11
:10293200EF54FDFF7871A6077871E6FFEF54FBFFB5
:102942007871A6077871E6FFEF54F7FF7871A60752
:012952002262
:102DAB00D2A79002A5E0FF7E00EF4E704D7B017A1B
:102DBB00027918C003C002C0017B007A007932A8E7
:102DCB0001AC02AD03D001D002D0037E007F041210
:102DDB00047B90024CE0FF8F367F00122C41900257
:102DEB008974FFF090022FE4F0A3740DF09003BCF4
:102DFB007402F0A37426F0022EB47B017A027918C8
:102E0B00C003C002C0017B007A007932A801AC027A
:102E1B00AD03D001D002D0037E007F0412047B757A
:102E2B0036807F00122C419002A5E0FF7E00EF64FC
:102E3B00014E702F7B017A027927C003C002C001BB
:102E4B007B007A007932A801AC02AD03D001D0022D
:102E5B00D0037E007F0412047B7536FF7F0C122C8F
:102E6B0041802D7B017A027927C003C002C0017B10
:102E7B00007A007932A801AC02AD03D001D002D0A8
:102E8B00037E007F0412047B7536007F0C122C41ED
:102E9B0090029574FFF090022FE4F0A37419F09058
:102EAB0003BC7403F0A37420F07871E6FFEF4401C8
:102EBB00FF7871A6077B017A02797D90022FE0FEE5
:0F2ECB00A3E0FFAD07123D8390023F7401F02298
:022C41008F31D1
:102C4300AF351239007873A60608A6077873E6FF36
:102C5300AE310531747D2EF582E43402F583EFF055
:102C63007874E6FFAE310531747D2EF582E43402CB
:102C7300F583EFF0AF341239007873A60608A60780
:102C83007873E6FFAE310531747D2EF582E43402AC
:102C9300F583EFF07874E6FFAE310531747D2EF5E0
:102CA30082E43402F583EFF0AF331239007873A670
:102CB3000608A6077873E6FFAE310531747D2EF55D
:102CC30082E43402F583EFF07874E6FFAE31053128
:102CD300747D2EF582E43402F583EFF0AF361239BA
:102CE300007873A60608A6077873E6FFAE310531B0
:102CF300747D2EF582E43402F583EFF07874E6FFF9
:102D0300AE310531747D2EF582E43402F583EFF0A4
:102D13007874A6337873A6367876A6357875A63494
:102D23007875E6FE08E6FF7873E6FC08E6FDED2F0E
:102D3300FFEC3EFE7877A60608A6077878E6FF1232
:102D430039007873A60608A6077873E6FFAE310547
:102D530031747D2EF582E43402F583EFF07874E666
:102D6300FFAE310531747D2EF582E43402F583EF35
:102D7300F07877E6FF1239007873A60608A607787D
:102D830073E6FFAE310531747D2EF582E43402F52E
:102D930083EFF07874E6FFAE310531747D2EF58252
:072DA300E43402F583EFF0B8
:012DAA002206
:023900008F6CCA
:10390200787B7600787BE6FF7E00C3EF9408EE6456
:1039120080948050437879E6FE08E6FFEF7802C390
:1039220033CE33CED8F9FF7879A60608A607E56C20
:1039320030E00E787AE6FFEF4402FF787AA607803D
:103942000C787AE6FFEF4401FF787AA607E56CC3AC
:0F39520013F56C787B0680AC7879E6FE08E6FF0B
:013961002243
:10004E00020396E86480F8E933E83360110460F047
:10005E00ED33EC337009E8FCE9FDEAFEEBFF220418
:10006E0060DED3EB9FEA9EE99DE8C2E78CF0C2F713
:10007E0095F0400CE8CCF8E9CDF9EACEFAEBCFFBDF
:10008E0012036185D0F05804700320D5B3E80470D4
:10009E00075002B2D50203A092D5EC0460F7E4CC6F
:1000AE00C0E0C398F8603B94186008400DD0E0FBA8
:1000BE00020378E4FBFAC9FC8028E830E406E4C9C0
:1000CE00FBE4CAFCE830E305E4C9CACBFCE85407FC
:1000DE006010F8C3E913F9EA13FAEB13FBEC13FC07
:1000EE00D8F130F52FC3E49CFCEF9BFFEE9AFEEDAA
:1000FE0099FDD0E0FBEF4E4D4C701222DB03020354
:10010E009DEC2CFCEF33FFEE33FEED33FDED30E7CF
:10011E00EB020378EF2BFFEE3AFEED39FDD0E0FB5C
:10012E0050130BBB00030203A0ED13FDEE13FEEF05
:08013E0013FFEC13FC0203782F
:10014600EC4D6011E8497017ED33EC3304600DE4B3
:10015600FCFFFEFD22E933E8330470F80203961231
:10016600036158046009E4CC248150062850090232
:1001760003A028400302039DC0E0EB4A7044B98007
:1001860006D0E0FB02038CEF4E701CBD8008EBFF2F
:10019600EAFEE9FD80EBE98DF0A4FEE5F002022F10
:1001A600E9CDF9EAFEEBFFEF89F0A4FCE5F0CE8994
:1001B600F0A42EFFE435F0CD89F0A42DFEE435F051
:1001C6008067EF4E7005BD80D780C3EF8BF0A4AC7F
:1001D600F0EE8BF0A42CFCE435F0F8EF8AF0A42CBA
:1001E600E5F038FCE433CB8DF0A42CFCE5F03BF8CD
:1001F600EE8AF0A42CFCE5F038F8E433CF89F0A4BD
:100206002CFCE5F038CF3400CE89F0A42FFFE5F0C2
:100216003EFEE433C98DF0A42EFEE5F039CD8AF01A
:10022600A42FFFE5F03EFEE43DFD33D0E0FB500792
:100236000BBB000F0203A0EC2CFCEF33FFEE33FEEA
:06024600ED33FD02037818
:10024C000203A0EC5D046005E859047003020396F8
:10025C00120361580460F6EC4860F2EC7004FDFE89
:10026C00FF22C860DB2481C85009C3986002500685
:10027C0002039D9850CAF582E9294B4A7005AB825E
:10028C0002038C75F0007C1A7880C3EF9BEE9AED1C
:10029C0099400DC3EF9BFFEE9AFEED99FDE842F0FD
:1002AC00DC23ACF0D0E0FFD0E0FED0E0FDAB822050
:1002BC00E7101BEB60BAEC2CFCEF33FFEE33FEEDDA
:1002CC0033FD020378E803F830E705C0F075F00061
:1002DC00EF2FFFEE33FEED33FD40B830E7C280AABE
:1002EC0075F020800E75F010800575F0087D007E8D
:1002FC00007F003392D530D503120664EC334010E6
:10030C00EF33FFEE33FEED33FDEC33FCD5F0ED2295
:0E031C00E5F0247EA2D513CC92E7CDCEFF22D1
:10032A00EDD2E7CD33EC3392D524814006E4FFFECB
:10033A00FDFC22FCE4CFCECDCC24E0501174FF802A
:10034A00EDC3CC13CCCD13CDCE13CECF13CF0470C7
:07035A00F030D5DE0206645D
:10036100E9D2E7C933E833F892D5EDD2E7CD33ECE2
:0703710033FC5002B2D5225B
:10037800EC30E7100FBF000C0EBE00080DBD0004E6
:100388000BEB6014A2D5EB13FCED92E7FD2274FF92
:10039800FCFDFEFF22E480F8A2D574FF13FC7D80EB
:0303A800E480EFFF
:03000000023711B3
:0C371100787FE4F6D8FD75817F02375800
:1003AB00E709F608DFFA8046E709F208DFFA803E34
:1003BB0088828C83E709F0A3DFFA8032E309F60821
:1003CB00DFFA8078E309F208DFFA807088828C8389
:1003DB00E309F0A3DFFA806489828A83E0A3F6083D
:1003EB00DFFA805889828A83E0A3F208DFFA804C17
:1003FB0080D280FA80C680D4806980F280338010EE
:10040B0080A680EA809A80A880DA80E280CA803356
:10041B0089828A83ECFAE493A3C8C582C8CCC583CE
:10042B00CCF0A3C8C582C8CCC583CCDFE9DEE7809E
:10043B000D89828A83E493A3F608DFF9ECFAA9F01D
:10044B00EDFB2289828A83ECFAE0A3C8C582C8CC73
:10045B00C583CCF0A3C8C582C8CCC583CCDFEADE8C
:10046B00E880DB89828A83E493A3F208DFF980CCEE
:10047B0088F0EF60010E4E60C388F0ED2402B404E7
:10048B000050B9F582EB2402B4040050AF2323458E
:06049B0082239003FB73B5
:1004A100BB010689828A83E0225002E722BBFE0259
:0904B100E32289828A83E493228C
:1004BA00BB010CE58229F582E5833AF583E02250F7
:1004CA0006E92582F8E622BBFE06E92582F8E22241
:0D04DA00E58229F582E5833AF583E493225B
:1004E700BB010689828A83F0225002F722BBFE01F4
:0204F700F322EE
:1004F900F8BB010DE58229F582E5833AF583E8F039
:10050900225006E92582C8F622BBFE05E92582C8E4
:02051900F222CC
:10051B00C5F0F8A3E028F0C5F0F8E582158270026B
:06052B001583E038F02208
:10053100A3F8E0C5F025F0F0E5821582700215837D
:06054100E0C838F0E822DA
:10054700E88FF0A4CC8BF0A42CFCE98EF0A42CFC53
:100557008AF0EDA42CFCEA8EF0A4CDA8F08BF0A4D1
:100567002DCC3825F0FDE98FF0A42CCD35F0FCEB30
:100577008EF0A4FEA9F0EB8FF0A4CFC5F02ECD39F5
:0F058700FEE43CFCEAA42DCE35F0FDE43CFC2262
:1005960075F008758200EF2FFFEE33FECD33CDCC1C
:1005A60033CCC58233C5829BED9AEC99E58298409F
:1005B6000CF582EE9BFEED9AFDEC99FC0FD5F0D67C
:1005C600E4CEFBE4CDFAE4CCF9A88222B800C1B9A6
:1005D6000059BA002DEC8BF084CFCECDFCE5F0CBE4
:1005E600F97818EF2FFFEE33FEED33FDEC33FCEB1D
:1005F60033FB10D703994004EB99FB0FD8E5E4F9D8
:10060600FA227818EF2FFFEE33FEED33FDEC33FCC4
:10061600C933C910D7059BE99A4007EC9BFCE99AB8
:10062600F90FD8E0E4C9FAE4CCFB2275F010EF2FFD
:10063600FFEE33FEED33FDCC33CCC833C810D707FD
:100646009BEC9AE899400AED9BFDEC9AFCE899F838
:0E0656000FD5F0DAE4CDFBE4CCFAE4C8F922CB
:103C8400C2D5E830E70FB2D5E4C39BFBE49AFAE46B
:103C940099F9E498F8EC30E717B2D5123CBA12055A
:103CA400D2E4C39BFBE49AFAE499F9E498F880031C
:103CB4001205D230D50DE4C39FFFE49EFEE49DFDC2
:043CC400E49CFC225E
:0E066400C3E49FFFE49EFEE49DFDE49CFC22A7
:10067200EB9FF5F0EA9E42F0E99D42F0E89C45F0DE
:010682002255
:10068300E8600FECC313FCED13FDEE13FEEF13FF55
:03069300D8F12279
:0C069600ECF0A3EDF0A3EEF0A3EFF022D7
:1006A200A8828583F0D083D0821206B91206B912CD
:1006B20006B91206B9E473E493A3C583C5F0C583F2
:1006C200C8C582C8F0A3C583C5F0C583C8C582C8A2
:0106D2002205
:1006D300D083D082F8E4937012740193700DA3A3B6
:1006E30093F8740193F5828883E4737402936860CA
:0606F300EFA3A3A380DFCA
:10371D00022EDAE493A3F8E493A34003F68001F2BA
:10372D0008DFF48029E493A3F85407240CC8C333AD
:10373D00C4540F4420C8834004F456800146F6DF7C
:10374D00E4800B0102040810204080901A33E47EBF
:10375D00019360BCA3FF543F30E509541FFEE49371
:10376D00A360010ECF54C025E060A840B8E493A338
:10377D00FAE493A3F8E493A3C8C582C8CAC583CA63
:10378D00F0A3C8C582C8CAC583CADFE9DEE780BE1B
:011CD800000B
:00000001FF
