:102ED000124208123E3B1242711241001213AF120D
:102EE0003BC212417812415C12398A1242AB12275E
:102EF000C512429BD2AF1242AF90024EE4F0A374CF
:102F00001EF01242A71223F51236E1123858900231
:102F100031E0FF7E00EF4E70E990024BE0FF7E0053
:102F2000EF4E70DE7871E6FFEFC4135407FFEF54E5
:102F300001FF7E00EF64014E70C8900239E0FEA3ED
:102F4000E0FFEF64024E60BA7871E6FFEF5401FFD4
:102F50007E00EF4E70AC7871E6FFEF54DFFF7871C2
:102F6000A607C2E8786DE6FFEF4420FF786DA6075C
:102F7000786DE6FFEFC41313135401FFEF5401FF04
:102F80007E00EF64014E70051242A780E3786DE683
:102F9000FFEFC41313135401FFEF5401FF7E00EF42
:102FA0004E70CD90023CE0FF7E00C3EF9401EE64D2
:102FB00080948040BB90023CE0FF7E00D3EF9404FD
:102FC000EE6480948050A91223F51242A780A102DA
:032FD0002F0222AB
:103E3B0075E78075E30075E44075E50475E2107570
:103E4B00E64675E6B90075E50075E70075E7807520
:103E5B00E30075E44175E50475E20A75E64675E61F
:093E6B00B90075E50075E70022BD
:10420800439701E5E154F8FFEF4404F5E143E18009
:0442180043E120223C
:0442A70043E11022BD
:103BC2005391F1D291D292D29343B4045395FDD240
:103BD200A14395815395DFD2A543B41043B420C2CB
:103BE200A053B1DF43B22043B301C2B4C2A7C2E8BB
:103BF200D2B55395A3C2A2C2A3C2A4C2A643B10422
:093C020053B2FB53B3FDC2E922E9
:10421C004391B05391BFD29643B40853B1EF43B21C
:02422C0010225E
:10422E0053910FC296C294C295C29743B11053B226
:02423E00EF226D
:0C00160053C13FD28A53A1FD43C1022216
:03000300023D8B30
:103D8B00C0E0C0F0C083C082C0D075D000C000C0FE
:103D9B0001C002C003C004C005C006C0071230C278
:103DAB00D007D006D005D004D003D002D001D0006C
:0B3DBB00D0D0D082D083D0F0D0E03216
:03001300023DC6E5
:103DC600C0E0C0F0C083C082C0D075D000C000C0C3
:103DD60001C002C003C004C005C006C0071230C23D
:103DE600D007D006D005D004D003D002D001D00031
:0B3DF600D0D0D082D083D0F0D0E032DB
:06429B00120016D2AA2257
:051A36004203BC0000AA
:10410000E58954FCFFEF4401F58953A1EF43A30473
:104110005389FB5389F7758A48758CF4D28CD2A9E0
:01412000227C
:03000B000235A912
:1035A900C0E0C083C082C0D075D000C000C006C0D2
:1035B90007758CF4758A487871E6FFEF4440FF7807
:1035C90071A607900262E0FFEF6008900262E014C2
:1035D900F080129002627464F07871E6FFEF448023
:1035E900FF7871A6079003BCE0FEA3E0FFEF4E60F1
:1035F9000E9003BDE024FFF09003BCE034FFF0908F
:103609000267E0FEA3E0FFEF4E60247872E6FFEF69
:10361900C313FFEF5401FF7E00EF64014E701E904B
:103629000268E024FFF0900267E034FFF0800E901A
:103639000243E0FFEF6006900243E014F0D007D0A8
:0C36490006D000D0D0D082D083D0E03278
:103C0B00E5D954F1FFEF440AF5D975AC0175DA0229
:103C1B0075AC0075AC01E5F244C0F5F275AC005320
:103C2B00BC7F75AC01800543F203800975EA127500
:103C3B00FAFD53F2FC75AC0075F9FA75E92475CFF2
:053C4B00FA75CE2422F1
:0442AB00123C0B2294
:0342B300D2DE2236
:05000600C2DEC2A022D1
:104252008F5BAF5B7E00EF4E60060000155B80F265
:014262002239
:1041C7008F5CAF5C155CEF600C7F641242527F64BA
:0641D70012425280ED22AD
:0E426300284F4B292857472900000000000073
:101A3B004103AB004103AD004103A1004103A300EF
:101A4B004103A2006029034E0000000000000000CB
:101A5B00000000000000000000000000000000007B
:101A6B00000000000000000000000000000000006B
:101A7B000060290377000000000000000000000058
:101A8B00000000000000000000000000000000004B
:101A9B0000000000000000000000000000004403F4
:101AAB0048000000004103AF004303A402030041C0
:101ABB0003A0004103AE004103AC0041034C0041C5
:0A1ACB00034D004403A700000000D3
:103EAD00539CEFC29FD29ED29CC2CDC2CC539C7F5D
:103EBD00438780539CBFE58954CFFFEF4420F5899C
:103ECD0043A3085389BF53897F758DED758BEDD253
:043EDD008ED2AC22B3
:05000E00C28EC2AC220D
:030023000234376D
:10343700C0E0C083C082C0D075D000C000C006C045
:01344700077D
:10344800787C7600C0AC75AC00309902C29920989F
:10345800030234E1C298787CA699787CE6FFEFB441
:103468002805900224E4F0787CE6FF900224E0FE30
:10347800746D2EF582E43402F583EFF0900224E0B7
:10348800FFEF04FFEF541FFF900224EFF0787CE673
:10349800FFEF64297043787C7600900224E0FF787F
:1034A8007CE6FEEEC39F5025787CE6FF746D2FF511
:1034B80082E43402F583E0FF787CE6FE74522EF550
:1034C80082E43402F583EFF0787C0680CD786DE6EF
:0B34D800FFEF4410FF786DA607D0AC9A
:0F34E300D007D006D000D0D0D082D083D0E03236
:0241F3008F5DDE
:1041F500A2AC9200C2AC855D993099FDC299A2002E
:0242050092AC79
:014207002294
:083CD5008B418A4289438D44B2
:103CDD00900332E4F0900332E4F0900332E0FFEF12
:103CED00C39544501FAB41AA42A943900332E0FF54
:103CFD008F827583001204BAFF1241F3900332E0F4
:043D0D0004F080D668
:013D1100228F
:024038008F5E99
:10403A00AF5E7E00C3EF943AEE64809480500CE544
:10404A005E540FFF900333EFF0800AE55E24C9FF48
:0A405A00900333EFF0900333E0FF12
:014064002239
:023FA9008F5F28
:103FAB00535F0FAF5F7E00C3EF940AEE6480948083
:103FBB00500CE55F4430FF900334EFF0800AE55F6F
:0D3FCB002437FF900334EFF0900334E0FF43
:013FD80022C6
:044121008F518D52DB
:10412500AF51124038EFC454F0FDAF52124038EF92
:09413500540FFFED2FF553AF53B9
:01413E00225E
:1006F9007BFF7A427963C003C002C0017B017A03A0
:100709007939A801AC02AD03D001D002D0037E0033
:100719007F0412047B90033DE4F07BFF7A42796702
:10072900C003C002C0017B017A03793EA801AC0273
:10073900AD03D001D002D0037E007F0A12047B787A
:100749006DE6FFEF20E403020BFB786DE6FFEF5443
:10075900EFFF786DA607900253E0FFEF1206D3086A
:10076900CB450907460B194B07F952089353077EE6
:100779005700000BFB900254E0FFEF64476003024F
:100789000BFB900335E4F0900270E0FF900271E0FA
:10079900FD124121900336EFF0900272E0FF9002C2
:1007A90073E0FD124121900337EFF0900274E0FFEE
:1007B900900275E0FD124121900338EFF090033566
:1007C900E0FCA3E0FDA3E0FEA3E0FF9002181206FF
:1007D900967B017A037936751E00751F037FFB7EB0
:1007E9007F1221C97B017A0379397D04123CD52214
:1007F900900254E0FFEF64476003020BFB90033E55
:100809007428F090033F7452F09003407447F090BD
:1008190003417429F0900219E0FFEFC4540FFF124D
:100829003FA9900342EFF0900219E0FFEF540FFF48
:10083900123FA9900343EFF090021AE0FFEFC4546E
:100849000FFF123FA9900344EFF090021AE0FFEF67
:10085900540FFF123FA9900345EFF090021BE0FFF0
:10086900EFC4540FFF123FA9900346EFF090021B0B
:10087900E0FFEF540FFF123FA9900347EFF07B0110
:100889007A03793E7D0A123CD5227872E6FFEF544D
:100899007FFF7872A60712427C9002331206A219D2
:1008A9006563787B017A0279C775400C7D15120F53
:1008B900DA7F00123B257B017A0379397D04123CEA
:1008C900D522900254E0FFEF644E6003020BFB90C7
:1008D9000255E0FFEF64446003020BFB7F03122F14
:1008E900D312422ED2B57872E6FFEF547FFF7872A9
:1008F900A6077B017A0379397D04123CD52290023F
:1009090054E0FFEF644D70387872E6FFEF4480FFE2
:100919007872A60712427C9002331206A219656307
:10092900787B017A0279C775400C7D15120FDA7F41
:1009390001123B257B017A0379397D04123CD522CA
:10094900900254E0FFEF64437051900255E0FFEFCD
:10095900643F704790033E7428F090033F7446F05B
:100969009003407443F09003417429F09002EBE046
:10097900FFEFC4540FFF123FA9900342EFF090021A
:10098900EBE0FFEF540FFF123FA9900343EFF07B19
:10099900017A03793E7D06123CD522900254E0FF8C
:1009A900EF64436003020BFB7872E6FFEFC4131395
:1009B900135401FFEF5401FF7E00EF64014E600301
:1009C900020BFB900270E0FF900271E0FD124121E1
:1009D90090033DEFF07F03122FD390033DE0FF7E9C
:1009E90000D3EF940AEE64809480507490033DE044
:1009F900FF9002EBEFF07B017A0279EB751E00752F
:100A09001F017FFA7E7F1221C990033DE0FF7E9688
:100A1900EF8EF0A4FFAEF0E4FCFDEF2478FFEE3496
:100A290063FEED3465FDEC3419FC9003A7120696BC
:100A39009003A7E0FCA3E0FDA3E0FEA3E0FF7B0198
:100A49007A0279C7121CDC7B017A0279C77D01120F
:100A590029537B017A0379397D04123CD5020B13A2
:100A690090033DE0FF7E00C3740A9FEE6480F8E4C2
:100A79006480984003020B1390033DE0FF7E00D38E
:100A8900EF9414EE648094804003020B1390033DAD
:100A9900E0FF9002EBEFF07B017A0279EB751E0023
:100AA900751F017FFA7E7F1221C990033DE024F66C
:100AB900F090033DE0FF7E96EF8EF0A4FFAEF0AB21
:100AC90007AA06E4F9F8C374789BFF74639AFE7465
:100AD9006599FD741998FC9003A71206969003A7CF
:100AE900E0FCA3E0FDA3E0FEA3E0FF7B017A02792D
:100AF900C7121CDC7B017A0279C77D011229537B5D
:100B0900017A0379397D04123CD57F01123B2522F4
:100B1900900254E0FFEF64596003020BFB90025509
:100B2900E0FFEF64296003020BFB90033E7428F099
:100B390090033F744BF09003407459F090023BE4EA
:100B4900F0A292E433FFEF5401FF90023BE0FEEE86
:100B590054FEFEEE4FFF90023BEFF0A291E433FF0B
:100B6900EF5401FFEF25E0FF90023BE0FEEE54FD5C
:100B7900FEEE4FFF90023BEFF0A2A5E433FFEF54E6
:100B890001FFEF25E025E0FF90023BE0FEEE54FB7C
:100B9900FEEE4FFF90023BEFF0A2A1E433FFEF54CA
:100BA90001FFEF33333354F8FF90023BE0FEEE547C
:100BB900F7FEEE4FFF90023BEFF090023BE0FFEFB4
:100BC90054FFFFEFC4540FFF123FA9900341EFF008
:100BD90090023BE0FFEF540FFF123FA9900342EF51
:100BE900F09003437429F07B017A03793E7D061264
:020BF9003CD5E9
:010BFB0022D7
:0B42710075BF0B7D7C7F0312406522AF
:044065008F578D588C
:10406900A2AF9201C2AF75E3008557E48558E275A6
:10407900E50475E78075E64675E6B90075E50075EE
:06408900E700A20192AF66
:01408F00220E
:0A21C9008E198F1A8B1B8A1C891DCA
:1021D300A2AF9202C2AF900202E4F0E51954FEFEF0
:1021E3007F00900203EEF0A3EFF0900200E4F0A36F
:1021F300E4F0900200E0FEA3E0FFC3EE9402505629
:10220300900203E0FF8FE3900204E0FF8FE475E5A3
:102213000175E78075E64675E6B975E50075E70073
:10222300900204E004F07006900203E004F09002D0
:1022330000E0FEA3E0FF74002FF58274003EF583F7
:10224300E5E2F01242A7900201E004F0700690026A
:1022530000E004F0809CE5195401FEAF1A900200DF
:10226300EEF0A3EFF0E51F451E6041AB1BAA1CA9CE
:102273001D1204A1FF900200E0FCA3E0FD74002DF9
:10228300F58274003CF583EFF07401251DF51DE420
:10229300351CF51C900201E004F07006900200E08A
:1022A30004F0E51F151F7002151E80B9E51954FED1
:1022B300FE7F00900203EEF0A3EFF0900203E0FF35
:1022C3008FE375E40075E50375E78075E64675E60B
:1022D300B90075E50075E700900200E4F0A3E4F0AF
:1022E300900200E0FEA3E0FFC3EE94025058900278
:1022F30000E0FEA3E0FF74002FF58274003EF58337
:10230300E0FF8FE2900203E0FF8FE3900204E0FF1F
:102313008FE475E50275E78075E64675E6B90075E5
:10232300E50075E700900204E004F07006900203F4
:10233300E004F01242A7900201E004F0700690025C
:1023430000E004F0809AE51954FEFE7F009002033A
:10235300EEF0A3EFF0900200E4F0A3E4F0900200AB
:10236300E0FEA3E0FFC3EE94025078900203E0FF87
:102373008FE3900204E0FF8FE475E50175E7807554
:10238300E64675E6B975E50075E700900204E004DA
:10239300F07006900203E004F01242A7900200E0FE
:1023A300FEA3E0FF74002FF58274003EF583E0FF87
:1023B300EF65E2601D900202E004F0900202E0FF8C
:1023C3007E00C3EF9403EE64809480501B0222AF1F
:1023D3008016900201E004F07006900200E004F021
:1023E300022360900202E4F0A20292AF900202E0A4
:0123F300FFEA
:0123F40022C6
:1013AF00787D7600907FF9E493FF900222EFF09022
:1013BF000222E0FF7E00D3EF9401EE648094804020
:1013CF0005900222E4F0900205E4F0907FFBE49395
:1013DF00FF900206EFF0907FFCE493FF900207EF7F
:1013EF00F0907FFDE493FF900208EFF07F007E0006
:1013FF007D007C00900205E0F8A3E0F9A3E0FAA3DA
:10140F00E0FBC3120672601C7FFF7EFF7DFF7C0036
:10141F00900205E0F8A3E0F9A3E0FAA3E0FBC31202
:10142F000672700A9002051206A2000000009002D8
:10143F0005E0FCA3E0FDA3E0FEA3E0FF900218127D
:10144F000696907FFAE493FF787DA607787DE6FFF6
:10145F007E00C3E49FEE6480F8E46480984003024A
:10146F0015C0787DE6FF7E00D3EF940AEE6480947A
:10147F008040030215C0787DE6FF9002EBEFF07815
:10148F007DE6FF7E96EF8EF0A4FFAEF0E4FCFDEF5D
:10149F002478FFEE3463FEED3465FDEC3419FC90D7
:1014AF000233120696900233E0FCA3E0FDA3E0FEA8
:1014BF00A3E0FF7B017A0279C7121CDC787DE6FF7F
:1014CF007E96EF8EF0A4FFAEF0E4FCFDEF2430FF2C
:1014DF00EE34B0FEED346FFDEC3419FC9002331294
:1014EF000696900233E0FCA3E0FDA3E0FEA3E0FF2D
:1014FF007B017A0279BF121CDC787DE6FF7E96EFC6
:10150F008EF0A4FFAEF0E4FCFDEF24D8FFEE34B074
:10151F00FEED3494FDEC3419FC90023312069690D4
:10152F000233E0FCA3E0FDA3E0FEA3E0FF7B017A22
:10153F000279D7121CDC787DE6FF7E96EF8EF0A441
:10154F00FFAEF0E4FCFDEF2470FFEE345CFEED34F3
:10155F0097FDEC3419FC900233120696900233E09B
:10156F00FCA3E0FDA3E0FEA3E0FF7B017A0279B7C5
:10157F00121CDC787DE6FF7E96EF8EF0A4FFAEF0B6
:10158F00E4FCFDEF24B0FFEE3469FEED349AFDEC80
:10159F003419FC900233120696900233E0FCA3E05C
:1015AF00FDA3E0FEA3E0FF7B017A0279CF121CDCE2
:1015BF0022787DE6FF7E00C3740A9FEE6480F8E414
:1015CF006480984003021744787DE6FF7E00D3EFD6
:1015DF009414EE648094804003021744787DE6FFF4
:1015EF009002EBEFF0787D74F626F6787DE6FF7EBD
:1015FF0096EF8EF0A4FFAEF0AB07AA06E4F9F8C39E
:10160F0074789BFF74639AFE746599FD741998FC46
:10161F00900233120696900233E0FCA3E0FDA3E0A4
:10162F00FEA3E0FF7B017A0279C7121CDC787DE60E
:10163F00FF7E96EF8EF0A4FFAEF0AB07AA06E4F99B
:10164F00F8C374309BFF74B09AFE746F99FD7419D0
:10165F0098FC900233120696900233E0FCA3E0FD53
:10166F00A3E0FEA3E0FF7B017A0279BF121CDC78B6
:10167F007DE6FF7E96EF8EF0A4FFAEF0AB07AA06D5
:10168F00E4F9F8C374D89BFF74B09AFE749499FD73
:10169F00741998FC900233120696900233E0FCA363
:1016AF00E0FDA3E0FEA3E0FF7B017A0279D7121CD5
:1016BF00DC787DE6FF7E96EF8EF0A4FFAEF0AB07F1
:1016CF00AA06E4F9F8C374709BFF745C9AFE7497D2
:1016DF0099FD741998FC900233120696900233E02C
:1016EF00FCA3E0FDA3E0FEA3E0FF7B017A0279B744
:1016FF00121CDC787DE6FF7E96EF8EF0A4FFAEF035
:10170F00AB07AA06E4F9F8C374B09BFF74699AFE9D
:10171F00749A99FD741998FC9002331206969002F0
:10172F0033E0FCA3E0FDA3E0FEA3E0FF7B017A0220
:05173F0079CF121CDC53
:011744002282
:0A4287008F60AF601560EF70F92240
:104178004385404385905385FC7584005385F753E8
:0B41880085DF5385FB53A2DFD2942299
:104193008F61E58420E5FB856186E5845480FF7E9D
:0B41A30000EF4E60F5438480AF8622E1
:103F47008F598D5A7F01124287C2947F011242878F
:103F5700E55925E0FFEF4401F559AF59124193AFF9
:103F67005A1241937F01124287D2947F01124287EE
:013F77002227
:023E01008F62CE
:103E03009003BEE4F07F01124287C2947F01124205
:103E130087E56225E0F562AF621241937FFF1241AD
:103E2300939003BEEFF07F01124287D2947F011279
:073E330042879003BEE0FF8F
:013E3A002265
:0837E1008F378B388A39893AD1
:1037E9009003BFE4F07F01124287C2947F01124225
:1037F90087E53725E0FFEF4401F537AF37124193ED
:10380900AB38AA39A93A1204A1FF1241939003BF18
:103819007401F09003BFE0FFEFC3953B50247F0292
:10382900124287AB38AA39A93A9003BFE0FF8F82C9
:103839007583001204BAFF1241939003BFE004F0AC
:0E38490080D17F01124287D2947F0112428704
:01385700224E
:101AD500016E00016F0041023B0048020A00000050
:101AE50000000000004402331965637801710001AC
:101AF5007200017000016D00410244004102460080
:101B05006028027D000000000000000000000000C9
:101B150000000000000000000000000000000000C0
:101B25000000000000000000000000004402180052
:101B35000000004402270000000041024C00420260
:101B450012000041023F004102450042022F000001
:101B55004202670000410243004202630000410265
:101B6500420041023E00410217004102620041026B
:101B750031004102240050026D0000000000000009
:101B850000000000000000000050025200000000AC
:101B950000000000000000000000000041023200CB
:101BA50041023D0041022D0042023700004202B1D0
:101BB500000041023C0041024B0041022E0041025F
:101BC500090042022B0000420225000041022200CA
:101BD5004202400000420265000041021400410239
:101BE500A5004902A8000000000000000000410215
:101BF5004A004202A60000420215000044026900A4
:101C05000000004202470000410249004102230052
:101C150044021E0000000042021C00004202500067
:0F1C250000420239000041024D0042024E000011
:10398A009002627464F0900244741AF0900244E067
:10399A00FFEF14FF900231EFF012424090022D74B3
:1039AA00FFF090023274FFF090023DE4F07870E686
:1039BA00FFEF4440FF7870A6077870E6FFEF547F68
:1039CA00FF7870A607123D129002B1E4F0A3E4F06A
:0939DA00900265E4F0A3E4F02280
:101C34004302E70000004802C723081999230791CB
:101C4400114802B7230C7777230BEEEF4802CF231A
:101C54000CBBBC230C33334802BF23090000230808
:101C640077774802D7230C3BBC230BB3334102B52F
:101C740000602802ED0000000000000000000000E9
:101C84000000000000000000000000000000000050
:101C9400000000000000000000000000004102EC11
:101CA400014102B600410331014102B4004102EA9C
:101CB400004102B3004102EB004802DF00000000D3
:041CC400000000001C
:100FDA008B3C8A3D893E8D3F12421C1242917F0D05
:100FEA00123E017E00EF30E0F5800280F17D117F34
:100FFA0000123F477DFF7F01123F477D9F7F02120C
:10100A003F477DC37F03123F477D037F04123F475B
:10101A007D107F05123F477D007F06123F477D15F1
:10102A007F07123F477D007F08123F477D007F09F7
:10103A00123F477D187F0A123F477D887F0B123F78
:10104A00477D007F0C123F477D087F0D123F477D89
:10105A00007F0E123F477D007F0F123F477D007FC2
:10106A0010123F477D007F11123F477D007F121209
:10107A003F477D007F13123F477D007F14123F4791
:10108A007D007F15123F477D007F16123F477D0086
:10109A007F17123F477D007F18123F477D007F1957
:1010AA00123F477D007F1A123F477D067F2D123F70
:1010BA00477D057F3F123F477D8B7F41123F477D2A
:1010CA00007F42123F477D347F43123F477D087FAE
:1010DA0045123F477D007F4E123F477D007F4F12EA
:1010EA003F477D007F50123F477D007F51123F47A7
:1010FA007D147F54123F477D067F60123F477D88EB
:10110A007F63123F477D027F67123F477D107F68EA
:10111A00123F477D007F69123F477D5B7F6E123F1A
:10112A00477D007F7A123F477D0C7F7B123F477DC8
:10113A00007F7D123F47AD407F7E123F477D227F71
:10114A0000123F477D077F02123F477DD07F03127F
:10115A003F477D007F04123F477D507F05123F477E
:10116A007D277F11123F477D0C7F13123F477D0277
:10117A007F1A123F47AB3CAA3DA93E1204A1FD7F4C
:10118A001B123F47AB3CAA3DA93E758201758300FD
:10119A001204BAFD7F1C123F47AB3CAA3DA93E751B
:1011AA0082027583001204BAFD7F1D123F47AB3CD1
:1011BA00AA3DA93E7582037583001204BAFD7F1EFB
:1011CA00123F47AB3CAA3DA93E1204A1FD7F1F1264
:1011DA003F47AB3CAA3DA93E7582017583001204C4
:1011EA00BAFD7F20123F47AB3CAA3DA93E75820259
:1011FA007583001204BAFD7F21123F47AB3CAA3D1A
:10120A00A93E7582037583001204BAFD7F22123F3C
:10121A00477D087F23123F477D887F24123F477D01
:10122A00087F25123F477D0F7F26123F477D007FAB
:10123A0027123F477D007F28123F477D007F2912F2
:10124A003F47AD3F7F2A123F477D087F2F123F4716
:10125A007D007F30123F477DC07F31123F47AB3C54
:10126A00AA3DA93E7582047583001204BAFD7F4D1A
:10127A00123F47AB3CAA3DA93E7582057583001211
:10128A0004BAFD7F4E123F47AB3CAA3DA93E758288
:10129A00067583001204BAFD7F4F123F47AB3CAA82
:1012AA003DA93E7582077583001204BAFD7F50126C
:1012BA003F477D047F51123F477D5A7F52123F4775
:1012CA007D667F53123F477D157F5C123F477D1B2A
:1012DA007F5D123F477D057F5E123F477D677F5FD7
:1012EA00123F477D0C7F60123F47123F157D447FB6
:1012FA0000123F477D0F7F2A123F477D447F00122D
:10130A003F477D007F4F123F477D887F00123F474E
:10131A007D3F7F2F123F477D417F0C123F477D3330
:10132A007F0D123F477D547F0E123F477D107F1479
:10133A00123F477D037F24123F477D007F7E123F85
:10134A00477F707E5C7D977C19900233E0F8A3E0BA
:10135A00F9A3E0FAA3E0FBC3120672601C7FB07E19
:10136A00697D9A7C19900233E0F8A3E0F9A3E0FAC8
:10137A00A3E0FBC3120672700512337280031234A3
:10138A00F27D117F00123F477D017F6F123F477F39
:10139A000D123E017E00EF30E1F5800280F112412C
:0513AA003F1241DD22AD
:103B25008F637D117F00123F47E5631206D33B4348
:103B3500003B4C013B55023B5E0300003B677D218A
:103B45007F76123F4780227D117F76123F4780198D
:103B55007D097F76123F4780107D057F76123F47AE
:0F3B650080077D037F76123F477F09122FD322FF
:1030C200787E76007F0F123E01787EA607787EE634
:1030D200FFEF5401FF7E00EF64014E60030231AE48
:1030E200787EE6FF7E00EF64FF4E70030231AE7819
:1030F2006EE6FFEF4440FF786EA6077F01123E7432
:103102007871E6FFEF5401FF7E00EF64014E600329
:103112000231AE90023FE0FF7E00C3EF9403EE6403
:10312200809480503D786EE6FFEFC413135403FF82
:10313200EF5401FF7E00EF64014E7026786EE6FFC9
:10314200EF54BFFF786EA6077B017A02797D900269
:103152002FE0FEA3E0FFAD07123D4F90023FE004D7
:10316200F02290023FE0FF7E00EF64034E703D7854
:103172006EE6FFEFC413135403FFEF5401FF7E000A
:10318200EF64014E7026786EE6FFEF54BFFF786E53
:10319200A6077871E6FFEF54FEFF7871A607C2A773
:0C31A2007F03122FD3C2B412422ED2B50C
:0131AE0022FE
:0B427C0030B507C2B57F021241C72217
:1041AE0030B515C2B57F021241C77B017A0279C7BD
:0941BE0075400C7D15120FDA2288
:104009008F647D117F00123F47AF647E00EF64101B
:104019004E6014AF647E00EF64124E600AAF647E96
:0F40290000EF641A4E7007AD647F0A123F472202
:022FD3008F6508
:102FD5009003B0E4F07D117F00123F477F0B123E56
:102FE50001EFC4540FFF9003B0EFF09003B0E0FF82
:102FF500EF656570030230BCAF657E00EF64094E76
:103005006021AF657E00EF64064E6017AF657E00F8
:10301500EF64084E600DAF657E00EF64034E6003FC
:103025000230BCAD657F0B123F47123C949003B054
:10303500EFF09003B0E0FF7E00EF4E606BAF657E72
:1030450000EF64034E6061900233E0FCA3E0FDA352
:10305500E0FEA3E0FF7B017A0279DF121CDC12425D
:10306500A77F407E057D927C19900233E0F8A3E0AE
:10307500F9A3E0FAA3E0FBC312067250107B017AB4
:103085000279DF75400C7D55120FDA800E7B017ACF
:103095000279DF75401C7D55120FDA1242A7AD6526
:1030A5007F0B123F47123C947F0B123E01EFC45435
:0C30B5000FFF9003B0EFF09003B0E0FFBD
:0130C10022EC
:103C94009003B1E4F0A3E4F07D117F00123F477F6D
:103CA4000D123E01EF30E30A7D007F0D123F477F86
:103CB40000229003B1E475F001120531AFF0FED398
:103CC400EF9488EE941340037F01221242A780CF21
:013CD40022CD
:103E74008F667D117F00123F47AF667E00EF6401BD
:103E84004E700F7D007F0F123F477D817F16123FDA
:103E94004722AF667E00EF4E700E7D007F0E123F0C
:093EA400477D827F16123F472280
:10413F007D117F00123F477D007F0D123F477D00AD
:0D414F007F0E123F477D007F0F123F472279
:103372007D117F00123F477D227F06123F477D1558
:103382007F07123F477D1E7F66123F477D227F00E7
:10339200123F477D937F0C123F477D357F0D123FD1
:1033A200477D277F11123F477D0C7F13123F477DD8
:1033B200087F2F123F477D507F56123F477D407F47
:1033C20057123F477D017F58123F477D147F5912A4
:1033D2003F477D007F5A123F477D007F5B123F4788
:1033E2007D157F5C123F477D0D7F5D123F477D0556
:1033F2007F5E123F477D677F5F123F477D097F6097
:10340200123F477D887F00123F477D417F0C123F6C
:10341200477D337F0D123F477D547F0E123F477D1C
:10342200107F14123F477D037F24123F477D117F97
:0534320000123F4722DB
:1034F2007D117F00123F477D007F06123F477D1EF0
:103502007F66123F477D227F00123F477D937F0CEB
:10351200123F477D357F0D123F477D277F11123FB6
:10352200477D0C7F13123F477D087F2F123F477D57
:10353200407F57123F477D017F58123F477D147FDE
:1035420059123F477D007F5A123F477D007F5B1231
:103552003F477D157F5C123F477D1B7F5D123F47D2
:103562007D057F5E123F477D677F5F123F477D0C7F
:103572007F60123F477D887F00123F477D417F0C6D
:10358200123F477D337F0D123F477D547F0E123F1E
:10359200477D107F14123F477D037F24123F477DF2
:0735A200117F00123F4722D8
:0A429100C2B47F021241C7D2B4226A
:102953008B458A4689478D48786EE6FFEF4408FF2A
:10296300786EA6077F00122FD37E00EF64084E60B7
:10297300057F03122FD37D227F00123F47AB45AA69
:1029830046A9471204A1FD7F1B123F47AB45AA4648
:10299300A9477582017583001204BAFD7F1C123F9B
:1029A30047AB45AA46A9477582027583001204BA4C
:1029B300FD7F1D123F47AB45AA46A94775820375A4
:1029C30083001204BAFD7F1E123F47AB45AA46A9F6
:1029D300471204A1FD7F1F123F47AB45AA46A947F3
:1029E3007582017583001204BAFD7F20123F47AB45
:1029F30045AA46A9477582027583001204BAFD7F72
:102A030021123F47AB45AA46A94775820375830048
:102A13001204BAFD7F22123F47AB45AA46A9477568
:102A230082047583001204BAFD7F4D123F47AB4504
:102A3300AA46A9477582057583001204BAFD7F4E25
:102A4300123F47AB45AA46A9477582067583001214
:102A530004BAFD7F4F123F47AB45AA46A94775828B
:102A6300077583001204BAFD7F50123F477D227F12
:102A730000123F477D087F25123F477D557F2A126D
:102A83003F47AF487E00EF64014E70051234F28079
:102A93000DAF487E00EF64024E70031233727D0166
:102AA3007F6F123F477F0D123E017E00EF30E1F54D
:102AB300800280F17D117F00123F47786EE6FFEFC1
:082AC30054F7FF786EA607220C
:1041DD007D117F00123F477D077F4E123F477D01C6
:0641ED007F12123F472281
:103D4F008B498A4A894B8D4CAF4C7E00D3EF944000
:103D5F00EE648094804003754C407D117F00123FCC
:103D6F0047AD4C7F7B123F477F10124009AB49AAEA
:0C3D7F004AA94B854C3B7F7C1237E122A7
:0E1CDC008F2D8E2C8D2B8C2A8B2E8A2F8930EB
:101CEA009003B3E4F09003B41206A200000000903F
:101CFA0003B81206A2000000007B007A1B79B778AD
:101D0A0000AF2DAE2CAD2BAC2A1205D29003B3EF47
:101D1A00F0AF2DAE2CAD2BAC2AE41202EC7B007A8C
:101D2A001B7937784B12024FC004C005C006C007A2
:101D3A009003B3E0FCE41202F6A804A905AA06ABD4
:101D4A0007D007D006D005D0041200519003B41270
:101D5A0006967F007E007D807C499003B4E0F8A35C
:101D6A00E0F9A3E0FAA3E0FB12014612032A90036A
:101D7A00B81206969003B3E0FFAB2EAA2FA930EF54
:101D8A001204E79003B8E0FCA3E0FDA3E0FEA3E0A1
:101D9A00FF7810120683EF54FFFFEE5400FEED5455
:101DAA0000FDEC5400FCAB2EAA2FA93075820175F8
:101DBA008300EF1204F99003B8E0FCA3E0FDA3E06E
:101DCA00FEA3E0FF7808120683EF54FFFFEE5400EB
:101DDA00FEED5400FDEC5400FCAB2EAA2FA9307581
:101DEA008202758300EF1204F99003B8E0FCA3E0C5
:101DFA00FDA3E0FEA3E0FFEF54FFFFEE5400FEED6B
:101E0A005400FDEC5400FCAB2EAA2FA930758203B6
:101E1A00758300EF1204F9E52D2480F52DE52C34A5
:101E2A00E5F52CE52B34F9F52BE52A34FFF52A7B69
:101E3A00007A1B79B77800AF2DAE2CAD2BAC2A12E5
:101E4A0005D29003B3EFF0AF2DAE2CAD2BAC2AE444
:101E5A001202EC7B007A1B7937784B12024FC004CE
:101E6A00C005C006C0079003B3E0FCE41202F6A85E
:101E7A0004A905AA06AB07D007D006D005D00412DC
:101E8A0000519003B41206967F007E007D807C4943
:101E9A009003B4E0F8A3E0F9A3E0FAA3E0FB12018F
:101EAA004612032A9003B81206969003B3E0FFABDA
:101EBA002EAA2FA930758204758300EF1204F990B7
:101ECA0003B8E0FCA3E0FDA3E0FEA3E0FF78101254
:101EDA000683EF54FFFFEE5400FEED5400FDEC5470
:101EEA0000FCAB2EAA2FA930758205758300EF126C
:101EFA0004F99003B8E0FCA3E0FDA3E0FEA3E0FF31
:101F0A007808120683EF54FFFFEE5400FEED5400EA
:101F1A00FDEC5400FCAB2EAA2FA9307582067583FE
:101F2A0000EF1204F99003B8E0FCA3E0FDA3E0FE81
:101F3A00A3E0FFEF54FFFFEE5400FEED5400FDEC6A
:101F4A005400FCAB2EAA2FA930758207758300EFC7
:031F5A001204F975
:011F5D002261
:103F15007D227F00123F477D5A7F07123F477D8AEA
:103F25007F0C123F477D267F0D123F477D037F1093
:103F3500123F477D837F15123F477D117F00123F5A
:023F4500472211
:10415C0043920143C48053C31F53C3FC43C3105346
:0C416C00C3FB53BB9F53C4D843AD0222D9
:03004B000231AFD0
:1031AF00C0E0C0F0C083C082C0D075D000C000C0E6
:0D31BF0001C002C003C004C005C006C00767
:1031CC009003C0E5C6F09003C1E5C5F0900269E03C
:1031DC00F8A3E0F9A3E0FAA3E0FB9003C0E0FEA3A0
:1031EC00E0FFEE540FFEE4FCFDEB2FFFEA3EFEE9A0
:1031FC003DFDE83CFC900269120696900249E00401
:10320C00F053C4EF43C408900249E0FF7E00C3EFC3
:10321C009414EE64809480405653ADFD53C47F905B
:10322C000249E4F07B147A0079007800900269E09E
:10323C00FCA3E0FDA3E0FEA3E0FF1205D290024741
:10324C00EEF0A3EFF0900247E0FEA3E0FFAB07AA7D
:10325C0006E4F9F87F007E107D0E7C00123C509045
:0F326C00021E1206969002691206A200000000D0
:10327B00D007D006D005D004D003D002D001D000A7
:0B328B00D0D0D082D083D0F0D0E03251
:0442AF0043C40822DA
:1038580090024EE0FEA3E0FFEF4E60677F607E09B6
:103868007D007C0090021EE0F8A3E0F9A3E0FAA333
:10387800E0FBD31206724006900223E4F0227F6038
:103888007E097D007C0090021EE0F8A3E0F9A3E029
:10389800FAA3E0FBD312067250237F987E087D00BE
:1038A8007C0090021EE0F8A3E0F9A3E0FAA3E0FB95
:1038B800D312067240079002237401F0229002236B
:0438C8007402F02274
:101CC8001108FBBFDFEFF79FAFB7BBCFDBEBE7F345
:031CD800FDFEFF0F
:1023F5007871E6FFEF20E6030226147871E6FFEF19
:1024050054BFFF7871A60790024EE0FEA3E0FFEFF0
:102415004E600E90024FE024FFF090024EE034FF34
:10242500F09002A6E0FEA3E0FFEF4E600E9002A73B
:10243500E024FFF09002A6E034FFF0900225E0FED4
:10244500A3E0FFEF4E600E900226E024FFF090021D
:1024550025E034FFF0900265E0FEA3E0FFEF4E605B
:102465000E900266E024FFF0900265E034FFF090E4
:10247500022BE0FEA3E0FFEF4E601090022CE0245B
:10248500FFF090022BE034FFF0800C786DE6FFEF53
:1024950054F7FF786DA607786DE6FFEF30E33590CA
:1024A500022BE0FEA3E0FFEF4E6029900241E0041D
:1024B500F07006900240E004F0900240E0FEA3E0D8
:1024C500FFC3EF9464EE9400400A900240E4F0A349
:1024D500E4F0B2A79002B1E0FEA3E0FFEF4E600E7C
:1024E5009002B2E024FFF09002B1E034FFF09002D8
:1024F50067E0FEA3E0FFEF4E60407872E6FFEFC3B2
:1025050013FFEF5401FF7E00EF4E60030225F278C2
:1025150072E6FFEF4402FF7872A6077872E6FFEFD6
:1025250054FBFF7872A6071242B37872E6FFEF20DC
:10253500E3030225F2D2A70225F2900243E0FFEF62
:10254500603E7872E6FFEF1313543FFFEF5401FF2F
:102555007E00EF4E60030225F27872E6FFEF440439
:10256500FF7872A6077872E6FFEF54FDFF7872A632
:10257500071200067872E6FFEF30E371C2A7806D9F
:1025850090023EE0FFEF605990023EE014F09002A9
:1025950063E0FEA3E0FF900267EEF0A3EFF0900288
:1025A50042E0FF900243EFF07872E6FFEFC313FFBE
:1025B500EF5401FF7E00EF4E70337872E6FFEF4473
:1025C50002FF7872A6077872E6FFEF54FBFF787278
:1025D500A6071242B37872E6FFEF30E310D2A78068
:1025E5000C7872E6FFEF54F7FF7872A607121745CD
:1025F500786DE6FFEFC4135407FFEF5401FF7E002B
:10260500EF64014E6009122ACB120BFC1242A7227D
:1036E1007871E6FFEF30E7497871E6FFEF547FFF2D
:1036F1007871A60790024DE0FFEF600690024DE061
:1037010014F07871E6FFEFC4135407FFEF5401FF83
:103711007E00EF64014E7019900231E0FFEF6011FD
:1037210090024BE0FF7E00EF4E7006900231E014F4
:10373100F09003BCE0FEA3E0FFEF4E702A7871E643
:10374100FFEF5401FF7E00EF64014E701A7871E6BD
:10375100FFEF54FEFF7871A607C2A77F03122FD394
:08376100C2B412422ED2B522BF
:1017450090023DE4F090023274FFF0900223E0FF36
:101755007E00EF64024E7003021A35A292E433FF55
:101765001240DDA291E433FF1240DDA2A5E433FF70
:101775001240DD7F011240DDA2A1E433FF1240DDFE
:101785007F011240DD7F011240DD90022DE0FF90C8
:101795000232E0FEEE6F6025900232E0FF90022DEE
:1017A500EFF0124240123D1290021C7413F0A37424
:1017B50088F09002507427F0A37474F022900237D9
:1017C50074FF75F0FF12051BAFF0FEEF4E600302CC
:1017D5001A35900237E4F0A37401F0900232E0FF6D
:1017E5007E00EF64FF4E70030218D290021CE0FEEB
:1017F500A3E0FFEF4E600E90021DE024FFF0900283
:101805001CE034FFF0900250E0FEA3E0FFEF4E60D5
:101815000E900251E024FFF0900250E034FFF012E8
:1018250041AE900223E0FF7E00EF64014E60177821
:101835006DE6FFEF20E60F900250E0FEA3E0FFEF1C
:101845004E60030218D2786DE6FFEFC413135403FC
:10185500FFEF5401FF7E00EF4E705A786DE6FFEF03
:101865004440FF786DA607900250E0FEA3E0FFEF2D
:101875004E7011900263E4F0A37467F09002427415
:1018850067F0800F900263E4F0A37428F0900242A1
:10189500743CF0900263E0FEA3E0FF900267EEF077
:1018A500A3EFF0900242E0FF900243EFF090023E7A
:1018B5007402F0801890023EE0FF7E00D3EF9401A1
:1018C500EE64809480500690023E7402F0787F7634
:1018D50000787FE6FF7E00C3EF9411EE648094806C
:1018E5005023787FE6FF74082FF8E6FF900232E078
:1018F500FEEEB5070B787FE6FF90023CEFF0800522
:10190500787F0680CC787FE6FF7E00900239EEF086
:10191500A3EFF0786DE6FFEFC4135407FFEF540112
:10192500FF7E00EF64014E7003021A35787FE6FFF3
:101935007E00EF64114E701F7870E6FFEF54BFFF15
:101945007870A607123D127870E6FFEF4480FF78A5
:1019550070A6071240B7227870E6FFEF30E75D907A
:101965000232E0FF7E00EF64FF4E6050787FE6FFB5
:101975007E00EF64054E6033787FE6FF7E00EF64FE
:10198500064E6027787FE6FF7E00EF64074E601BFA
:10199500787FE6FF7E00EF64094E600F787FE6FFF3
:1019A5007E00EF640C4E6003021A357871E6FFEF96
:1019B5005401FF7E00EF4E7077800122787FE6FFAD
:1019C500EF1206D31A00001A04011A04021A0403BE
:1019D5001A04041A16051A16061A16071A1A081AE8
:1019E50016091A1E0A1A220B1A160C1A260D1A2A7D
:1019F5000E1A2E0F1A321000001A3512329622785E
:101A050071E6FFEF5401FF7E00EF4E7023121F5E5B
:101A150022123F782212392E22123AD522123A3555
:101A250022123A8522120022221242B6221239E3EC
:011A3500228E
:103F78001240B790023DE4F090023CE0FF90023C12
:103F8800E0FD122615123D127870E6FFEF54BFFFD0
:103F98007870A6077870E6FFEF4480FF7870A60770
:013FA80022F6
:10392E001240B77870E6FFEF54BFFF7870A60778A5
:10393E0070E6FFEF20E23F7870E6FFEF4404FF7879
:10394E0070A6079002B1740BF0A374B8F07871E60C
:10395E00FFEFC4135407FFEF5401FF7E00EF4E70CC
:10396E001A7871E6FFEF4420FF7871A607D2E8902F
:0C397E000231744EF0227F08123EE1225C
:103A35001240B77870E6FFEF20E33F7870E6FFEFBE
:103A45004408FF7870A6079002B1740BF0A374B810
:103A5500F07871E6FFEFC4135407FFEF5401FF7EC2
:103A650000EF4E701A7871E6FFEF4420FF7871A6DB
:103A750007D2E8900231744EF0227F0B123EE1220C
:103A85001240B77870E6FFEF20E43F7870E6FFEF6D
:103A95004410FF7870A6079002B1740BF0A374B8B8
:103AA500F07871E6FFEFC4135407FFEF5401FF7E72
:103AB50000EF4E701A7871E6FFEF4420FF7871A68B
:103AC50007D2E8900231744EF0227F0D123EE122BA
:103AD5001240B77870E6FFEF20E13F7870E6FFEF20
:103AE5004402FF7870A6079002B1740BF0A374B876
:103AF500F07871E6FFEFC4135407FFEF5401FF7E22
:103B050000EF4E701A7871E6FFEF4420FF7871A63A
:103B150007D2E8900231744EF0227F0A123EE1226C
:103EE1008F679002B1E0FEA3E0FFEF4E60259002E4
:103EF100B174FF75F0FF12051BAFF0FEEF4E7013AA
:103F01007D00AF67122615786DE6FFEF4480FF78DC
:043F11006DA6072270
:103296001240B77870E6FFEF20E603023335787008
:1032A600E6FFEF54BFFF7870A60790023D7405F065
:1032B600123D127870E6FFEF4401FF7870A6079082
:1032C60002B1740BF0A374B8F0900265E0FEA3E0BF
:1032D600FFEF4E70397871E6FFEFC4135407FFEF26
:1032E6005401FF7E00EF4E70147871E6FFEF442024
:1032F600FF7871A607D2E89002317433F090026528
:103306007427F0A37410F09002147402F022900255
:1033160014E014FFF0EF70537F0112409090023DCD
:10332600E4F07870E6FFEF4480FF7870A607227815
:1033360070E6FFEF30E0349002B1E0FEA3E0FFEF6D
:103346004E60289002B174FF75F0FF12051BAFF0B6
:10335600FEEF4E70167F0212409090023DE4F07828
:0C33660070E6FFEF4480FF7870A607229D
:101F5E00120026EF7003022075786DE6FFEF20E089
:101F6E0013786DE6FFEF20E10B786DE6FFEF20E2D0
:101F7E00030221C89002B1E0FEA3E0FFEF4E600322
:101F8E000221C8786DE6FFEFC413135403FFEF541C
:101F9E0001FF7E00EF4E60030221C890021CE0FE9E
:101FAE00A3E0FFEF4E60030221C8786DE6FFEF203D
:101FBE00E008786DE6FFEF30E21890024B740AF0FD
:101FCE0090023DE4F07870E6FFEF4480FF7870A653
:101FDE00072290024B7401F07B017D677F677E00C4
:101FEE00123B747872E6FFEF4408FF7872A607780A
:101FFE0071E6FFEFC4135407FFEF5401FF7E00EFAD
:10200E004E70187871E6FFEF4420FF7871A607D264
:10201E00E8900244E0FF900231EFF0900225740F39
:10202E00F0A374A0F090023DE4F07870E6FFEF5458
:10203E00BFFF7870A6077870E6FFEF4480FF7870D8
:10204E00A6077870E6FFEF4420FF7870A607786D3C
:10205E00E6FFEF20E0030221C87870E6FFEF54DFC1
:10206E00FF7870A607222290023CE0FF90023DEF1F
:10207E00F090024BE0FFEF60030221C89002A5E052
:10208E00FFEF60012290023DE0FFEF1206D320A980
:10209E000120C10220D903000020EF786DE6FFEF8A
:1020AE004401FF786DA6079002B17413F0A37488F3
:1020BE00F0802E786DE6FFEF4402FF786DA6079054
:1020CE0002B17413F0A37488F08016786DE6FFEFFA
:1020DE004404FF786DA6079002B17413F0A37488C0
:1020EE00F0900222E0FFEF600D90023DE0FF7E00D7
:1020FE00EF64044E70191240B790023CE0FF90025C
:10210E003CE0FD122615900265E4F0A3E4F0229067
:10211E00024BE0FFEF60030221C89002A5E0FFEF43
:10212E0060012290023DE0FF7E00EF64024E7037A8
:10213E001240B790023CE0FF90023CE0FD122615E3
:10214E00900265E4F0A3E4F0786DE6FFEF4408FF3B
:10215E00786DA60790022B740BF0A374B8F0900262
:10216E0040E4F0A3E4F02290023DE0FFEF1206D32C
:10217E00218801218803000021C8786DE6FFEF3029
:10218E00E33890022BE0FEA3E0FFEF4E602C786D5B
:10219E00E6FFEF54F7FF786DA60790022BE4F0A34D
:1021AE00E4F090023CE0FF90023CE0FD1226159018
:0B21BE000265E4F0A3E4F01240B72239
:0100220022BB
:0142B60022E5
:1039E300786DE6FFEF54FEFF786DA607786DE6FF6E
:1039F300EF54FDFF786DA607786DE6FFEF54FBFFEC
:103A0300786DA607786DE6FFEF54BFFF786DA607C4
:103A1300123D127870E6FFEF4440FF7870A60778F6
:103A230070E6FFEF547FFF7870A60790023D74FFA6
:023A3300F0227F
:10424000900237E4F0A3740AF09002B1E4F0A3E422
:02425000F0225A
:103D12007870E6FFEF54FEFF7870A6077870E6FF32
:103D2200EF54FDFF7870A6077870E6FFEF54FBFFB3
:103D32007870A6077870E6FFEF54F7FF7870A60751
:0D3D42007870E6FFEF54EFFF7870A60722BF
:1040B70090024BE4F090022E7402F0900209740211
:1040C700F090022BE0FEA3E0FFEF4E600890022B7A
:0640D700E4F0A3E4F02276
:100026007870E6FFEF20E6037F01227870E6FFEFA7
:1000360054BFFF7870A6079002B1E4F0A3E4F01273
:050046003D127F0022C5
:042615008F548D55FC
:10261900900246E0FF7E00C3EF9445EE648094800B
:10262900505A7871E6FFEFC4135407FFEF5401FFC6
:102639007E00EF64014E7044900231E0FF7E00C3DA
:10264900EF9419EE648094805032900231E0FFC318
:1026590074199FF556900246E02556F0900246E01F
:10266900FF7E00C374459FFFE49EFEC3EF941BEEFB
:102679006480948040069002317419F0900231E030
:10268900FF7E00C3EF9419EE64809480500E90028F
:102699004DE0FF7E00EF4E60030227C27871E6FF2E
:1026A900EFC4135407FFEF5401FF7E00EF4E70187B
:1026B9007871E6FFEF4420FF7871A607D2E890020F
:1026C90044E0FF900231EFF0E5541206D326F801F9
:1026D9002700022708032710042720052728062793
:1026E900300727380927180A27400C000027469089
:1026F900024C7408F0804690024C7404F0803E90BD
:10270900024C7402F0803690024C7401F0802E90D5
:10271900024C7414F0802690024C740CF0801E90C8
:10272900024C740AF0801690024C7409F0800E90E5
:10273900024C7406F0800690024C7403F0E55512C1
:1027490006D3275E01276B02277803278504279282
:10275900140000279D7B007D677F677E00123B7414
:1027690080327B017D677F677E00123B7480257B09
:10277900027D677F677E00123B7480187B007D0AAB
:102789007FF47E01123B74800B7B007D0A7FE87E1B
:1027990003123B7412427C9002331206A21965633C
:1027A900787B017A0279C775400C7D15120FDA1210
:0B27B9002DAB90024D7419F022C2A756
:0127C40022F2
:100BFC0090024BE0FFEF1206D30C27010C56020CAF
:100C0C00AB030D25040D5C050DE2060E19070E9FB6
:100C1C00080E9F090FCE0A00000FD97870E6FFEF7F
:100C2C0020E7119002257403F0A374E8F090024BB6
:100C3C00E004F022900225E0FEA3E0FFEF4E6003FB
:100C4C00020FD990024B740AF022900225E0FEA309
:100C5C00E0FFEF4E702790024BE004F090022574F9
:100C6C000BF0A374B8F07B007D677F677E00123BAE
:100C7C00747872E6FFEF4408FF7872A60790023D85
:100C8C00E0FF7E00EF4E7003020FD990023DE0FFB3
:100C9C007E00EF64FF4E7003020FD91240B7229012
:100CAC000225E0FEA3E0FFEF4E70041240B7229045
:100CBC00023DE0FF7E00EF4E7003020FD990023D23
:100CCC00E0FF7E00EF64FF4E7001227870E6FFEFCC
:100CDC0030E52390023DE0FF7E00EF64024E701180
:100CEC009002257403F0A374E8F090024BE004F03A
:100CFC00221240B7222290023DE0FF7E00EF6401F9
:100D0C004E70119002257403F0A374E8F090024B1E
:100D1C00E004F0221240B72222900225E0FEA3E06C
:100D2C00FFEF4E6003020FD990024BE004F09002EB
:100D3C0025740BF0A374B8F07B007D677F677E0091
:100D4C00123B747872E6FFEF4408FF7872A6072214
:100D5C00900225E0FEA3E0FFEF4E70041240B72294
:100D6C0090023DE0FF7E00EF4E7003020FD990021F
:100D7C003DE0FF7E00EF64FF4E7001227870E6FFCD
:100D8C00EF30E52F90023DE0FF7E00EF64024E70E5
:100D9C001D9002257403F0A374E8F090024BE0045C
:100DAC00F07870E6FFEF4480FF7870A607221240BF
:100DBC00B7222290023DE0FF7E00EF64014E7011DD
:100DCC009002257403F0A374E8F090024BE004F059
:100DDC00221240B72222900225E0FEA3E0FFEF4E44
:100DEC006003020FD990024BE004F0900225740BC3
:100DFC00F0A374B8F07B027D677F677E00123B74B2
:100E0C007872E6FFEF4408FF7872A607229002255D
:100E1C00E0FEA3E0FFEF4E70041240B72290023DBB
:100E2C00E0FF7E00EF4E7003020FD990023DE0FF11
:100E3C007E00EF64FF4E7001227870E6FFEF30E524
:100E4C002F90023DE0FF7E00EF64024E701D900279
:100E5C00257427F0A37410F090024BE004F0787026
:100E6C00E6FFEF4480FF7870A607221240B72222DB
:100E7C0090023DE0FF7E00EF64014E701190022560
:100E8C007427F0A37410F090024BE004F02212408F
:100E9C00B72222900225E0FEA3E0FFEF4E70041271
:100EAC0040B72290023DE0FF7E00EF4E7003020F30
:100EBC00D990023DE0FF7E00EF64FF4E7001227876
:100ECC0070E6FFEF20E503020F5590023DE0FF7E38
:100EDC0000EF64024E706D90024BE0FF7E00EF64F9
:100EEC00094E7059900222E0FF8F68E56860057525
:100EFC0068008003756801900222E568F07B017A36
:100F0C00027922751E00751F017FF97E7F1221C99F
:100F1C007B047D677F677E00123B747872E6FFEF7F
:100F2C004408FF7872A607786DE6FFEF54F7FF7858
:100F3C006DA6079002317414F01240B72290024B48
:100F4C00E004F0221240B7222290023DE0FF7E0026
:100F5C00EF64014E706790024BE0FF7E00EF640976
:100F6C004E7053900222E0FF8F68E568600575684B
:100F7C00008003756801900222E568F07B017A021B
:100F8C007922751E00751F017FF97E7F1221C97BA6
:100F9C00047D677F677E00123B747872E6FFEF4436
:100FAC0008FF7872A607786DE6FFEF54F7FF786DAF
:100FBC00A6071240B72290024BE004F0221240B771
:0D0FCC0022227870E6FFEF20E7031240B705
:010FD90022F5
:102ACB001242A1EF7003022C407871E6FFEFC413A2
:102ADB005407FFEF5401FF7E00EF4E700E7871E646
:102AEB00FFEF4420FF7871A607D2E89002A6E0FE24
:102AFB00A3E0FFEF4E60319002317433F09002414E
:102B0B00E004F07006900240E004F0900240E0FE1A
:102B1B00A3E0FFC3EF94F4EE9401401E900240E457
:102B2B00F0A3E4F0B2A780127B027DFA7FF47E0162
:102B3B00123B74C2A79002A5E4F090023DE0FFEFB8
:102B4B001206D32B5E012B9F022BD1032BEA050020
:102B5B00002C4090024AE0FF74A82FF582E4340267
:102B6B00F583E004FFF0EFD39439401290024AE072
:102B7B00FF74A82FF582E43402F5837430F07B00E8
:102B8B007D677F677E00123B749002A674C3F0A32F
:102B9B007450F02290024AE004FFF07E00D3EF94D1
:102BAB0008EE64809480400890024A7408F0800B11
:102BBB007B017D677F677E00123B749002A674C316
:102BCB00F0A37450F022123FD97B007D0A7FE87E80
:102BDB0003123B749002A674C3F0A37450F02290BE
:102BEB00024AE0FF7E00C3EF9408EE6480948040BD
:102BFB00447B017A0279A812376990022712069654
:102C0B007FFE7EFF7DFF7C00900227E0F8A3E0F9BA
:102C1B00A3E0FAA3E0FBD3120672400D7B037D64A5
:102C2B007F647E00123B7480077D147F141226157F
:062C3B009002A5E4F02266
:063769008B218A22892356
:10376F00752900752800752700752600752400AF90
:10377F00247E00C3EF9408EE64809480504BAB21FD
:10378F00AA22A923AF248F827583001204BAFFEFF8
:10379F0024D0F5257F0A7E007D007C00AB29AA2866
:1037AF00A927A826120547A804A905AA06AB07AFA3
:1037BF0025E4FCFDFEEB2FF529EA3EF528E93DF562
:1037CF0027E83CF526052480A6AF29AE28AD27AC07
:0137DF0026C3
:0137E00022C6
:104090008F691242A1EF701E9002A5E569F0123FF0
:1040A000D97B007D0A7FE87E03123B749002A674E0
:0740B000C3F0A37450F022DD
:0642A1009002A5E0FF22DF
:103FD90090024AE4F0756A00AF6A7E00C3EF940864
:103FE900EE648094805013AF6A74A82FF582E4348C
:0F3FF90002F5837430F0056A80DE9002B0E4F0C8
:014008002295
:1040DD008F6B900232E0FFEF25E0FF900232EFF0A0
:1040ED00E56B600E900232E0FFEF4401FF9002326B
:0340FD00EFF022BF
:103B74008E4D8F4E8D4F8B50786DE6FFEFC413132F
:103B84005403FFEF5401FF7E00EF4E703090026348
:103B9400E54DF0A3E54EF0900242E54FF09002634C
:103BA400E0FEA3E0FF900267EEF0A3EFF090024284
:0E3BB400E0FF900243EFF090023EE550F02259
:1027C50030930302290B786FE6FFEF5401FF7E007B
:1027D500EF4E7029786FE6FFEF4401FF786FA6078B
:1027E500D2E8D2A7123EADD2AF1242B390024374E3
:1027F500C8F0900243E0FFEF70F81200061242A7FE
:1028050020924A7871E6FFEFC313FFEF5401FF7E74
:1028150000EF4E70387871E6FFEF4402FF7871A63D
:102825000712427C9002331206A2196563787B0178
:102835007A0279C775400C7D15120FDA7872E6FFBA
:10284500EF547FFF7872A6077F00123B2530920C6C
:102855007871E6FFEF54FDFF7871A6072091337874
:1028650071E6FFEF1313543FFFEF5401FF7E00EFB6
:102875004E701F7871E6FFEF4404FF7871A607C21A
:10288500B412422ED2B57872E6FFEF547FFF78720C
:10289500A60730910C7871E6FFEF54FBFF7871A61F
:1028A5000720A54D7871E6FFEF131313541FFFEFB3
:1028B5005401FF7E00EF4E70387871E6FFEF440853
:1028C500FF7871A60712427C9002331206A21965A1
:1028D50063787B017A0279C775400C7D15120FDA92
:1028E5007F01123B257872E6FFEF4480FF7872A6E0
:1028F5000730A50C7871E6FFEF54F7FF7871A6074E
:102905001206F90227C5786FE6FFEF5401FF7E0036
:10291500EF64014E700F786FE6FFEF54FEFF786F9E
:10292500A60712000EC2E8C2A77871E6FFEF54FDB4
:10293500FF7871A6077871E6FFEF54FBFF7871A663
:0E294500077871E6FFEF54F7FF7871A60722BE
:102DAB00D2A79002A5E0FF7E00EF4E70437B017A25
:102DBB00027918C003C002C0017B007A007932A8E7
:102DCB0001AC02AD03D001D002D0037E007F041210
:102DDB00047B90024CE0FF8F367F00122C41900257
:102DEB008974FFF090022FE4F0A3740DF0022EA073
:102DFB007B017A027918C003C002C0017B007A0004
:102E0B007932A801AC02AD03D001D002D0037E0011
:102E1B007F0412047B7536807F00122C419002A533
:102E2B00E0FF7E00EF64014E702F7B017A02792761
:102E3B00C003C002C0017B007A007932A801AC024A
:102E4B00AD03D001D002D0037E007F0412047B754A
:102E5B0036FF7F0C122C41802D7B017A027927C023
:102E6B0003C002C0017B007A007932A801AC02AD2D
:102E7B0003D001D002D0037E007F0412047B753691
:102E8B00007F0C122C4190029574FFF090022FE4FE
:102E9B00F0A37419F07871E6FFEF4401FF7871A687
:102EAB00077B017A02797D90022FE0FEA3E0FFAD54
:102EBB0007123D4F9003BC7402F0A37426F09002EE
:052ECB003F7401F0223C
:022C41008F31D1
:102C4300AF351238CC7873A60608A6077873E6FF6B
:102C5300AE310531747D2EF582E43402F583EFF055
:102C63007874E6FFAE310531747D2EF582E43402CB
:102C7300F583EFF0AF341238CC7873A60608A607B5
:102C83007873E6FFAE310531747D2EF582E43402AC
:102C9300F583EFF07874E6FFAE310531747D2EF5E0
:102CA30082E43402F583EFF0AF331238CC7873A6A5
:102CB3000608A6077873E6FFAE310531747D2EF55D
:102CC30082E43402F583EFF07874E6FFAE31053128
:102CD300747D2EF582E43402F583EFF0AF361238BB
:102CE300CC7873A60608A6077873E6FFAE310531E4
:102CF300747D2EF582E43402F583EFF07874E6FFF9
:102D0300AE310531747D2EF582E43402F583EFF0A4
:102D13007874A6337873A6367876A6357875A63494
:102D23007875E6FE08E6FF7873E6FC08E6FDED2F0E
:102D3300FFEC3EFE7877A60608A6077878E6FF1232
:102D430038CC7873A60608A6077873E6FFAE31057C
:102D530031747D2EF582E43402F583EFF07874E666
:102D6300FFAE310531747D2EF582E43402F583EF35
:102D7300F07877E6FF1238CC7873A60608A60778B2
:102D830073E6FFAE310531747D2EF582E43402F52E
:102D930083EFF07874E6FFAE310531747D2EF58252
:072DA300E43402F583EFF0B8
:012DAA002206
:0238CC008F6CFF
:1038CE00787B7600787BE6FF7E00C3EF9408EE648B
:1038DE0080948050437879E6FE08E6FFEF7802C3C5
:1038EE0033CE33CED8F9FF7879A60608A607E56C55
:1038FE0030E00E787AE6FFEF4402FF787AA6078072
:10390E000C787AE6FFEF4401FF787AA607E56CC3E0
:0F391E0013F56C787B0680AC7879E6FE08E6FF3F
:01392D002277
:10004E00020396E86480F8E933E83360110460F047
:10005E00ED33EC337009E8FCE9FDEAFEEBFF220418
:10006E0060DED3EB9FEA9EE99DE8C2E78CF0C2F713
:10007E0095F0400CE8CCF8E9CDF9EACEFAEBCFFBDF
:10008E0012036185D0F05804700320D5B3E80470D4
:10009E00075002B2D50203A092D5EC0460F7E4CC6F
:1000AE00C0E0C398F8603B94186008400DD0E0FBA8
:1000BE00020378E4FBFAC9FC8028E830E406E4C9C0
:1000CE00FBE4CAFCE830E305E4C9CACBFCE85407FC
:1000DE006010F8C3E913F9EA13FAEB13FBEC13FC07
:1000EE00D8F130F52FC3E49CFCEF9BFFEE9AFEEDAA
:1000FE0099FDD0E0FBEF4E4D4C701222DB03020354
:10010E009DEC2CFCEF33FFEE33FEED33FDED30E7CF
:10011E00EB020378EF2BFFEE3AFEED39FDD0E0FB5C
:10012E0050130BBB00030203A0ED13FDEE13FEEF05
:08013E0013FFEC13FC0203782F
:10014600EC4D6011E8497017ED33EC3304600DE4B3
:10015600FCFFFEFD22E933E8330470F80203961231
:10016600036158046009E4CC248150062850090232
:1001760003A028400302039DC0E0EB4A7044B98007
:1001860006D0E0FB02038CEF4E701CBD8008EBFF2F
:10019600EAFEE9FD80EBE98DF0A4FEE5F002022F10
:1001A600E9CDF9EAFEEBFFEF89F0A4FCE5F0CE8994
:1001B600F0A42EFFE435F0CD89F0A42DFEE435F051
:1001C6008067EF4E7005BD80D780C3EF8BF0A4AC7F
:1001D600F0EE8BF0A42CFCE435F0F8EF8AF0A42CBA
:1001E600E5F038FCE433CB8DF0A42CFCE5F03BF8CD
:1001F600EE8AF0A42CFCE5F038F8E433CF89F0A4BD
:100206002CFCE5F038CF3400CE89F0A42FFFE5F0C2
:100216003EFEE433C98DF0A42EFEE5F039CD8AF01A
:10022600A42FFFE5F03EFEE43DFD33D0E0FB500792
:100236000BBB000F0203A0EC2CFCEF33FFEE33FEEA
:06024600ED33FD02037818
:10024C000203A0EC5D046005E859047003020396F8
:10025C00120361580460F6EC4860F2EC7004FDFE89
:10026C00FF22C860DB2481C85009C3986002500685
:10027C0002039D9850CAF582E9294B4A7005AB825E
:10028C0002038C75F0007C1A7880C3EF9BEE9AED1C
:10029C0099400DC3EF9BFFEE9AFEED99FDE842F0FD
:1002AC00DC23ACF0D0E0FFD0E0FED0E0FDAB822050
:1002BC00E7101BEB60BAEC2CFCEF33FFEE33FEEDDA
:1002CC0033FD020378E803F830E705C0F075F00061
:1002DC00EF2FFFEE33FEED33FD40B830E7C280AABE
:1002EC0075F020800E75F010800575F0087D007E8D
:1002FC00007F003392D530D503120664EC334010E6
:10030C00EF33FFEE33FEED33FDEC33FCD5F0ED2295
:0E031C00E5F0247EA2D513CC92E7CDCEFF22D1
:10032A00EDD2E7CD33EC3392D524814006E4FFFECB
:10033A00FDFC22FCE4CFCECDCC24E0501174FF802A
:10034A00EDC3CC13CCCD13CDCE13CECF13CF0470C7
:07035A00F030D5DE0206645D
:10036100E9D2E7C933E833F892D5EDD2E7CD33ECE2
:0703710033FC5002B2D5225B
:10037800EC30E7100FBF000C0EBE00080DBD0004E6
:100388000BEB6014A2D5EB13FCED92E7FD2274FF92
:10039800FCFDFEFF22E480F8A2D574FF13FC7D80EB
:0303A800E480EFFF
:0300000002365570
:0C365500787FE4F6D8FD75817F02369C7A
:1003AB00E709F608DFFA8046E709F208DFFA803E34
:1003BB0088828C83E709F0A3DFFA8032E309F60821
:1003CB00DFFA8078E309F208DFFA807088828C8389
:1003DB00E309F0A3DFFA806489828A83E0A3F6083D
:1003EB00DFFA805889828A83E0A3F208DFFA804C17
:1003FB0080D280FA80C680D4806980F280338010EE
:10040B0080A680EA809A80A880DA80E280CA803356
:10041B0089828A83ECFAE493A3C8C582C8CCC583CE
:10042B00CCF0A3C8C582C8CCC583CCDFE9DEE7809E
:10043B000D89828A83E493A3F608DFF9ECFAA9F01D
:10044B00EDFB2289828A83ECFAE0A3C8C582C8CC73
:10045B00C583CCF0A3C8C582C8CCC583CCDFEADE8C
:10046B00E880DB89828A83E493A3F208DFF980CCEE
:10047B0088F0EF60010E4E60C388F0ED2402B404E7
:10048B000050B9F582EB2402B4040050AF2323458E
:06049B0082239003FB73B5
:1004A100BB010689828A83E0225002E722BBFE0259
:0904B100E32289828A83E493228C
:1004BA00BB010CE58229F582E5833AF583E02250F7
:1004CA0006E92582F8E622BBFE06E92582F8E22241
:0D04DA00E58229F582E5833AF583E493225B
:1004E700BB010689828A83F0225002F722BBFE01F4
:0204F700F322EE
:1004F900F8BB010DE58229F582E5833AF583E8F039
:10050900225006E92582C8F622BBFE05E92582C8E4
:02051900F222CC
:10051B00C5F0F8A3E028F0C5F0F8E582158270026B
:06052B001583E038F02208
:10053100A3F8E0C5F025F0F0E5821582700215837D
:06054100E0C838F0E822DA
:10054700E88FF0A4CC8BF0A42CFCE98EF0A42CFC53
:100557008AF0EDA42CFCEA8EF0A4CDA8F08BF0A4D1
:100567002DCC3825F0FDE98FF0A42CCD35F0FCEB30
:100577008EF0A4FEA9F0EB8FF0A4CFC5F02ECD39F5
:0F058700FEE43CFCEAA42DCE35F0FDE43CFC2262
:1005960075F008758200EF2FFFEE33FECD33CDCC1C
:1005A60033CCC58233C5829BED9AEC99E58298409F
:1005B6000CF582EE9BFEED9AFDEC99FC0FD5F0D67C
:1005C600E4CEFBE4CDFAE4CCF9A88222B800C1B9A6
:1005D6000059BA002DEC8BF084CFCECDFCE5F0CBE4
:1005E600F97818EF2FFFEE33FEED33FDEC33FCEB1D
:1005F60033FB10D703994004EB99FB0FD8E5E4F9D8
:10060600FA227818EF2FFFEE33FEED33FDEC33FCC4
:10061600C933C910D7059BE99A4007EC9BFCE99AB8
:10062600F90FD8E0E4C9FAE4CCFB2275F010EF2FFD
:10063600FFEE33FEED33FDCC33CCC833C810D707FD
:100646009BEC9AE899400AED9BFDEC9AFCE899F838
:0E0656000FD5F0DAE4CDFBE4CCFAE4C8F922CB
:103C5000C2D5E830E70FB2D5E4C39BFBE49AFAE49F
:103C600099F9E498F8EC30E717B2D5123C861205C2
:103C7000D2E4C39BFBE49AFAE499F9E498F8800350
:103C80001205D230D50DE4C39FFFE49EFEE49DFDF6
:043C9000E49CFC2292
:0E066400C3E49FFFE49EFEE49DFDE49CFC22A7
:10067200EB9FF5F0EA9E42F0E99D42F0E89C45F0DE
:010682002255
:10068300E8600FECC313FCED13FDEE13FEEF13FF55
:03069300D8F12279
:0C069600ECF0A3EDF0A3EEF0A3EFF022D7
:1006A200A8828583F0D083D0821206B91206B912CD
:1006B20006B91206B9E473E493A3C583C5F0C583F2
:1006C200C8C582C8F0A3C583C5F0C583C8C582C8A2
:0106D2002205
:1006D300D083D082F8E4937012740193700DA3A3B6
:1006E30093F8740193F5828883E4737402936860CA
:0606F300EFA3A3A380DFCA
:10366100022ED0E493A3F8E493A34003F68001F281
:1036710008DFF48029E493A3F85407240CC8C3336A
:10368100C4540F4420C8834004F456800146F6DF39
:10369100E4800B0102040810204080901A36E47E79
:1036A100019360BCA3FF543F30E509541FFEE4932E
:1036B100A360010ECF54C025E060A840B8E493A3F5
:1036C100FAE493A3F8E493A3C8C582C8CAC583CA20
:1036D100F0A3C8C582C8CAC583CADFE9DEE780BED8
:011CDB000008
:00000001FF
