:1032E50012467B1242A21246C01245671214D3122F
:1032F50040FE1245DE1245F7123BAB1246FA122785
:103305006A1246EAD2AF1246FE900251E4F0A37467
:103315001EF01246F612298912254A123A82123DEA
:1033250023900231E0FF7E00EF4E70E690024EE002
:10333500FF7E00EF4E70DB7872E6FFEFC413540793
:10334500FFEF5401FF7E00EF64014E70C590023916
:10335500E0FEA3E0FFEF64024E60B77872E6FFEF90
:103365005401FF7E00EF4E70A97872E6FFEF54DF3F
:10337500FF7872A607C2E8786DE6FFEF4420FF7874
:103385006DA607786DE6FFEFC41313135401FFEF25
:103395005401FF7E00EF64014E70051246F680E38E
:1033A500786DE6FFEFC41313135401FFEF5401FFCB
:1033B5007E00EF4E70CD90023CE0FF7E00C3EF949F
:1033C50001EE6480948040BB90023CE0FF7E00D318
:1033D500EF9404EE6480948050A912254A1246F6B3
:0633E50080A10233172253
:1042A20075E78075E30075E44075E50475E2107505
:1042B200E64675E6B90075E50075E70075E78075B5
:1042C200E30075E44175E50475E20A75E64675E6B4
:0942D200B90075E50075E7002252
:10467B00439701E5E154F8FFEF4404F5E143E18092
:04468B0043E12022C5
:0446F60043E110226A
:1040FE0043B4045395FDD2A14395815395DFD2A5C8
:10410E0043B41043B420C2A053B1DF43B22043B333
:10411E0001C2B4C2A7C2E8D2B55395A7C2A3C2A426
:0E412E00C2A643B10453B2FB53B3FDC2E92253
:10463C004391A04395045391BFD29643B40853B110
:05464C00EF43B2102253
:1046510053911F5395FBC296C2A2C295C29743B113
:054661001053B2EF222E
:0C00160053C13FD28A53A1FD43C1022216
:030003000241F2C5
:1041F200C0E0C0F0C083C082C0D075D000C000C093
:1042020001C002C003C004C005C006C0071233EBE0
:10421200D007D006D005D004D003D002D001D00000
:0B422200D0D0D082D083D0F0D0E032AA
:0300130002422D79
:10422D00C0E0C0F0C083C082C0D075D000C000C057
:10423D0001C002C003C004C005C006C0071233EBA5
:10424D00D007D006D005D004D003D002D001D000C5
:0B425D00D0D0D082D083D0F0D0E0326F
:0646EA00120016D2AA2204
:051B74004203C800005F
:10456700E58954FCFFEF4401F58953A1EF43A30408
:104577005389FB5389F7758A48758CF4D28CD2A975
:014587002211
:03000B000239D6E1
:1039D600C0E0C083C082C0D075D000C000C006C0A1
:1039E60007758CF4758A487872E6FFEF4440FF78D5
:1039F60072A607900269E0FFEF6008900269E01482
:103A0600F080129002697464F07872E6FFEF4480E9
:103A1600FF7872A6079003C8E0FEA3E0FFEF4E60B2
:103A26000E9003C9E024FFF09003C8E034FFF09045
:103A3600026EE0FEA3E0FFEF4E60247873E6FFEF30
:103A4600C313FFEF5401FF7E00EF64014E701E901A
:103A5600026FE024FFF090026EE034FFF0800E90DB
:103A66000245E0FFEF6006900245E014F0D007D073
:0C3A760006D000D0D0D082D083D0E03247
:10403400E5D954F1FFEF440AF5D975AC0175DA02FC
:1040440075AC0075AC01E5F244C0F5F275AC0053F3
:10405400BC7F75AC01800543F203800975EA1275D3
:10406400FAFD53F2FC75AC0075F9FA75E92475CFC5
:05407400FA75CE2422C4
:0446FA001240342214
:03470200D2DE22E2
:05000600C2DEC2A022D1
:1046A1008F5BAF5B7E00EF4E60060000155B80F212
:0146B10022E6
:104610008F5CAF5C155CEF600C7F641246A17F6419
:064620001246A180ED220C
:0E46B200284F4B292857472900000000000020
:101B79004103B2004103B4004103A8004103AA0094
:101B89004103A9006029035500000000000000007E
:101B9900000000000000000000000000000000003C
:101BA900000000000000000000000000000000002C
:101BB900006029037E000000000000000000000012
:101BC900000000000000000000000000000000000C
:101BD90000000000000000000000000000004403B5
:101BE9004F000000004103B6004303AB020300416C
:101BF90003A7004103B5004103B30041035300416A
:0A1C09000354004403AE0000000085
:10431400539CEFC29FD29ED29CC2CDC2CC539C7FF1
:10432400438780539CBFE58954CFFFEF4420F58930
:1043340043A3085389BF53897F758DED758BEDD2E7
:044344008ED2AC2247
:05000E00C28EC2AC220D
:030023000238643C
:10386400C0E0C083C082C0D075D000C000C006C014
:01387400074C
:10387500787D7600C0AC75AC00309902C29920986D
:103885000302390EC298787DA699787DE6FFEFB4DC
:103895002805900224E4F0787DE6FF900224E0FEFE
:1038A50074742EF582E43402F583EFF0900224E07F
:1038B500FFEF04FFEF541FFF900224EFF0787DE641
:1038C500FFEF64297043787D7600900224E0FF784D
:1038D5007DE6FEEEC39F5025787DE6FF74742FF5D7
:1038E50082E43402F583E0FF787DE6FE74552EF51B
:1038F50082E43402F583EFF0787D0680CD786DE6BD
:0B390500FFEF4410FF786DA607D0AC68
:0F391000D007D006D000D0D0D082D083D0E03204
:024666008F5D66
:10466800A2AC9200C2AC855D993099FDC299A200B6
:0246780092AC02
:01467A00221D
:08413C008B418A4289438D4446
:10414400900339E4F0900339E4F0900339E0FFEF91
:10415400C39544501FAB41AA42A943900339E0FFE1
:104164008F827583001204BAFF124666900339E009
:0441740004F080D6FD
:014178002224
:02449F008F5E2E
:1044A100AF5E7E00C3EF943AEE64809480500CE5D9
:1044B1005E540FFF90033AEFF0800AE55E24C9FFD6
:0A44C10090033AEFF090033AE0FF99
:0144CB0022CE
:024410008F5FBC
:10441200535F0FAF5F7E00C3EF940AEE6480948017
:10442200500CE55F4430FF90033BEFF0800AE55FFC
:0D4432002437FF90033BEFF090033BE0FFC9
:01443F00225A
:044588008F518D5270
:10458C00AF5112449FEFC454F0FDAF5212449FEF51
:09459C00540FFFED2FF553AF534E
:0145A50022F3
:1006F9007BFF7A4679B2C003C002C0017B017A034D
:100709007940A801AC02AD03D001D002D0037E002C
:100719007F0412047B900344E4F07BFF7A4679B6A8
:10072900C003C002C0017B017A037945A801AC026C
:10073900AD03D001D002D0037E007F0A12047B787A
:100749006DE6FFEF20E403020D1F786DE6FFEF541D
:10075900EFFF786DA607900256E0FFEF1206D30768
:10076900EF5207725700000888900257E0FFEF64C4
:1007790047600302088890033CE4F0900277E0FFA9
:10078900900278E0FD12458890033DEFF0900279E0
:10079900E0FF90027AE0FD12458890033EEFF09069
:1007A900027BE0FF90027CE0FD12458890033FEF59
:1007B900F090033CE0FCA3E0FDA3E0FEA3E0FF9082
:1007C90002181206967B017A03793D751E00751F82
:1007D900037FFB7E7F12231E7B017A0379407D0410
:1007E90012413C020888900257E0FFEF644760031A
:1007F9000208889003457428F09003467452F090DB
:1008090003477447F09003487429F0900219E0FFF8
:10081900EFC4540FFF124410900349EFF0900219EE
:10082900E0FFEF540FFF12441090034AEFF09002DB
:100839001AE0FFEFC4540FFF12441090034BEFF07E
:1008490090021AE0FFEF540FFF12441090034CEF8F
:10085900F090021BE0FFEFC4540FFF124410900305
:100869004DEFF090021BE0FFEF540FFF1244109080
:10087900034EEFF07B017A0379457D0A12413C90E2
:100889000256E0FFEF6454704E900257E0FFEF64A8
:10089900457044900258E0FFEF6453703A90025952
:1008A900E0FFEF6454703090025AE0FFEFB429275B
:1008B900786FE6FFEF4408FF786FA6077873E6FFC5
:1008C900EF547FFF7873A607C2A7C2A07B017A0302
:1008D90079407D0412413C786FE6FFEF13131354FE
:1008E9001FFFEF5401FF7E00EF64014E6003020D0C
:1008F9001F900256E0FFEF1206D3094E45099646AE
:100909000BA84B0C765009165300000D1F7873E69F
:10091900FFEF547FFF7873A6071246CB900233127C
:1009290006A2196563787B017A0279CE75400C7D40
:10093900151210FE7F00123F977B017A0379407DE3
:100949000412413C22900257E0FFEF644E6003021B
:100959000D1F900258E0FFEF64446003020D1F78F9
:100969006FE6FFEF54F7FF786FA6077F031234EDA8
:10097900124651D2B57873E6FFEF547FFF7873A61C
:10098900077B017A0379407D0412413C229002578A
:10099900E0FFEF644D70387873E6FFEF4480FF782D
:1009A90073A6071246CB9002331206A21965637823
:1009B9007B017A0279CE75400C7D151210FE7F01FC
:1009C900123F977B017A0379407D0412413C2290C2
:1009D9000257E0FFEF64437051900258E0FFEF6463
:1009E9003F70479003457428F09003467446F09091
:1009F90003477443F09003487429F09002F2E0FF32
:100A0900EFC4540FFF124410900349EFF09002F223
:100A1900E0FFEF540FFF12441090034AEFF07B01FF
:100A29007A0379457D0612413C22900257E0FFEF97
:100A390064436003020D1F7873E6FFEFC4131313B9
:100A49005401FFEF5401FF7E00EF64014E60030281
:100A59000D1F900277E0FF900278E0FD1245889023
:100A69000344EFF07F031234ED900344E0FF7E006E
:100A7900D3EF940AEE648094805074900344E0FFAD
:100A89009002F2EFF07B017A0279F2751E00751F70
:100A9900017FFA7E7F12231E900344E0FF7E96EFCA
:100AA9008EF0A4FFAEF0E4FCFDEF2478FFEE346392
:100AB900FEED3465FDEC3419FC9003AE12069690F8
:100AC90003AEE0FCA3E0FDA3E0FEA3E0FF7B017A17
:100AD9000279CE121E317B017A0279CE7D01122D67
:100AE9005E7B017A0379407D0412413C020BA2909E
:100AF9000344E0FF7E00C3740A9FEE6480F8E46457
:100B090080984003020BA2900344E0FF7E00D3EFDC
:100B19009414EE648094804003020BA2900344E095
:100B2900FF9002F2EFF07B017A0279F2751E0075EF
:100B39001F017FFA7E7F12231E900344E024F6F002
:100B4900900344E0FF7E96EF8EF0A4FFAEF0AB0772
:100B5900AA06E4F9F8C374789BFF74639AFE746576
:100B690099FD741998FC9003AE1206969003AEE0B5
:100B7900FCA3E0FDA3E0FEA3E0FF7B017A0279CEAE
:100B8900121E317B017A0279CE7D01122D5E7B0125
:100B99007A0379407D0412413C7F01123F972290EC
:100BA9000257E0FFEF64596003020D1F900258E0FD
:100BB900FFEF64296003020D1F9003457428F0902C
:100BC9000346744BF09003477459F090023BE4F0EC
:100BD9007870E6FFEF5401FF90023BE0FEEE54FE11
:100BE900FEEE4FFF90023BEFF07870E6FFEF540204
:100BF900FF90023BE0FEEE54FDFEEE4FFF90023BFC
:100C0900EFF07870E6FFEF5404FF90023BE0FEEE50
:100C190054FBFEEE4FFF90023BEFF07870E6FFEFDA
:100C29005408FF90023BE0FEEE54F7FEEE4FFF90B2
:100C3900023BEFF090023BE0FFEF54FFFFEFC4549B
:100C49000FFF124410900348EFF090023BE0FFEFD2
:100C5900540FFF124410900349EFF090034A74298E
:100C6900F07B017A0379457D0612413C22900257B7
:100C7900E0FFEF6448704C90025AE0FFEF6429707E
:100C890042900258E0FFEFB43217900259E0FFEFAB
:100C9900B4370ED2A77B017A0379407D0412413C17
:100CA90022900258E0FFEF6432706B900259E0FF26
:100CB900EF64307061D2A07B017A0379407D041220
:100CC900413C22900257E0FFEF644C704990025A70
:100CD900E0FFEF6429703F900258E0FFEFB432174C
:100CE900900259E0FFEFB4370EC2A77B017A03796E
:100CF900407D0412413C22900258E0FFEFB43216C5
:100D0900900259E0FFEFB4300DC2A07B017A03795C
:060D1900407D0412413C84
:010D1F0022B1
:0B46C00075BF0B7D7C7F031244CC22F1
:0444CC008F578D5821
:1044D000A2AF9201C2AF75E3008557E48558E2753B
:1044E000E50475E78075E64675E6B90075E5007583
:0644F000E700A20192AFFB
:0144F60022A3
:0A231E008E198F1A8B1B8A1C891D73
:10232800A2AF9202C2AF900202E4F0E51954FEFE99
:102338007F00900203EEF0A3EFF0900200E4F0A318
:10234800E4F0900200E0FEA3E0FFC3EE94025056D2
:10235800900203E0FF8FE3900204E0FF8FE475E54D
:102368000175E78075E64675E6B975E50075E7001D
:10237800900204E004F07006900203E004F090027A
:1023880000E0FEA3E0FF74002FF58274003EF583A1
:10239800E5E2F01246F6900201E004F070069002C1
:1023A80000E004F0809CE5195401FEAF1A90020089
:1023B800EEF0A3EFF0E51F451E6041AB1BAA1CA978
:1023C8001D1204A1FF900200E0FCA3E0FD74002DA3
:1023D800F58274003CF583EFF07401251DF51DE4CA
:1023E800351CF51C900201E004F07006900200E034
:1023F80004F0E51F151F7002151E80B9E51954FE7B
:10240800FE7F00900203EEF0A3EFF0900203E0FFDE
:102418008FE375E40075E50375E78075E64675E6B4
:10242800B90075E50075E700900200E4F0A3E4F058
:10243800900200E0FEA3E0FFC3EE94025058900221
:1024480000E0FEA3E0FF74002FF58274003EF583E0
:10245800E0FF8FE2900203E0FF8FE3900204E0FFC9
:102468008FE475E50275E78075E64675E6B900758F
:10247800E50075E700900204E004F070069002039E
:10248800E004F01246F6900201E004F070069002B3
:1024980000E004F0809AE51954FEFE7F00900203E4
:1024A800EEF0A3EFF0900200E4F0A3E4F090020055
:1024B800E0FEA3E0FFC3EE94025078900203E0FF31
:1024C8008FE3900204E0FF8FE475E50175E78075FE
:1024D800E64675E6B975E50075E700900204E00484
:1024E800F07006900203E004F01246F6900200E055
:1024F800FEA3E0FF74002FF58274003EF583E0FF31
:10250800EF65E2601D900202E004F0900202E0FF35
:102518007E00C3EF9403EE64809480501B02240471
:102528008016900201E004F07006900200E004F0CA
:102538000224B5900202E4F0A20292AF900202E0F7
:01254800FF93
:01254900226F
:1014D300787E7600907FF9E493FF900222EFF090FC
:1014E3000222E0FF7E00D3EF9401EE6480948040FB
:1014F30005900222E4F0900205E4F0907FFBE49370
:10150300FF900206EFF0907FFCE493FF900207EF59
:10151300F0907FFDE493FF900208EFF07F007E00E0
:101523007D007C00900205E0F8A3E0F9A3E0FAA3B4
:10153300E0FBC3120672601C7FFF7EFF7DFF7C0011
:10154300900205E0F8A3E0F9A3E0FAA3E0FBC312DD
:101553000672700A9002051206A2000000009002B3
:1015630005E0FCA3E0FDA3E0FEA3E0FF9002181258
:101573000696907FFAE493FF787EA607787EE6FFCF
:101583007E00C3E49FEE6480F8E464809840030225
:1015930016E4787EE6FF7E00D3EF940AEE6480942F
:1015A3008040030216E4787EE6FF9002F2EFF078C3
:1015B3007EE6FF7E96EF8EF0A4FFAEF0E4FCFDEF37
:1015C3002478FFEE3463FEED3465FDEC3419FC90B2
:1015D3000233120696900233E0FCA3E0FDA3E0FE83
:1015E300A3E0FF7B017A0279CE121E31787EE6FFFB
:1015F3007E96EF8EF0A4FFAEF0E4FCFDEF2430FF07
:10160300EE34B0FEED346FFDEC3419FC900233126E
:101613000696900233E0FCA3E0FDA3E0FEA3E0FF07
:101623007B017A0279C6121E31787EE6FF7E96EF41
:101633008EF0A4FFAEF0E4FCFDEF24D8FFEE34B04F
:10164300FEED3494FDEC3419FC90023312069690AF
:101653000233E0FCA3E0FDA3E0FEA3E0FF7B017AFD
:101663000279DE121E31787EE6FF7E96EF8EF0A4BD
:10167300FFAEF0E4FCFDEF2470FFEE345CFEED34CE
:1016830097FDEC3419FC900233120696900233E076
:10169300FCA3E0FDA3E0FEA3E0FF7B017A0279BE99
:1016A300121E31787EE6FF7E96EF8EF0A4FFAEF039
:1016B300E4FCFDEF24B0FFEE3469FEED349AFDEC5B
:1016C3003419FC900233120696900233E0FCA3E037
:1016D300FDA3E0FEA3E0FF7B017A0279D6121E315F
:1016E30022787EE6FF7E00C3740A9FEE6480F8E4EE
:1016F3006480984003021868787EE6FF7E00D3EF8B
:101703009414EE648094804003021868787EE6FFA8
:101713009002F2EFF0787E74F626F6787EE6FF7E8E
:1017230096EF8EF0A4FFAEF0AB07AA06E4F9F8C378
:1017330074789BFF74639AFE746599FD741998FC21
:10174300900233120696900233E0FCA3E0FDA3E07F
:10175300FEA3E0FF7B017A0279CE121E31787EE68A
:10176300FF7E96EF8EF0A4FFAEF0AB07AA06E4F976
:10177300F8C374309BFF74B09AFE746F99FD7419AB
:1017830098FC900233120696900233E0FCA3E0FD2E
:10179300A3E0FEA3E0FF7B017A0279C6121E317833
:1017A3007EE6FF7E96EF8EF0A4FFAEF0AB07AA06AF
:1017B300E4F9F8C374D89BFF74B09AFE749499FD4E
:1017C300741998FC900233120696900233E0FCA33E
:1017D300E0FDA3E0FEA3E0FF7B017A0279DE121EA7
:1017E30031787EE6FF7E96EF8EF0A4FFAEF0AB0776
:1017F300AA06E4F9F8C374709BFF745C9AFE7497AD
:1018030099FD741998FC900233120696900233E006
:10181300FCA3E0FDA3E0FEA3E0FF7B017A0279BE17
:10182300121E31787EE6FF7E96EF8EF0A4FFAEF0B7
:10183300AB07AA06E4F9F8C374B09BFF74699AFE78
:10184300749A99FD741998FC9002331206969002CB
:1018530033E0FCA3E0FDA3E0FEA3E0FF7B017A02FB
:0518630079D6121E31D0
:01186800225D
:0A46D6008F60AF601560EF70F922ED
:1045DE004385404385905385FC7584005385F7537E
:0945EE0085DF5385FB53A2DF2297
:1045C3008F61E58420E5FB856186E5845480FF7E69
:0B45D30000EF4E60F5438480AF8622AD
:1043AE008F598D5A7F011246D6C2A27F011246D670
:1043BE00E55925E0FFEF4401F559AF591245C3AF5A
:1043CE005A1245C37F011246D6D2A27F011246D69B
:0143DE0022BC
:024268008F6263
:10426A009003CAE4F07F011246D6C2A27F01124629
:10427A00D6E56225E0F562AF621245C37FFF1245BB
:10428A00C39003CAEFF07F011246D6D2A27F011271
:07429A0046D69003CAE0FFC5
:0142A10022FA
:083CAC008F378B388A39893A01
:103CB4009003CBE4F07F011246D6C2A27F011246E4
:103CC400D6E53725E0FFEF4401F537AF371245C39A
:103CD400AB38AA39A93A1204A1FF1245C39003CB09
:103CE4007401F09003CBE0FFEFC3953B50247F02B7
:103CF4001246D6AB38AA39A93A9003CBE0FF8F829B
:103D04007583001204BAFF1245C39003CBE004F09C
:0E3D140080D17F011246D6D2A27F011246D680
:013D2200227E
:101C1300016E00016F0001700041023B0041024B65
:101C23000042023E000048020A00000000000000DB
:101C33000044023319656378017200017300017176
:101C430000016D0041024600410248006028028401
:101C53000000000000000000000000000000000081
:101C63000000000000000000000000000000000071
:101C730000000000000000004402180000000044BF
:101C830002270000000041024F00420212000041FF
:101C93000241004102470042022F000042026E004F
:101CA300004102450042026A000041024400410231
:101CB3004000410217004102690041023100410224
:101CC3002400500274000000000000000000000027
:101CD300000000000050025500000000000000005A
:101CE30000000000000000004102320041023D00FC
:101CF30041022D0042023700004202B800004102B7
:101D03003C0041024E0041022E0041020900420202
:101D13002B00004202250000410222004202420041
:101D23000042026C0000410214004102AC0049026F
:101D3300AF00000000000000000041024D0042021D
:101D4300AD00004202150000440270000000004292
:101D53000249000041024C004102230044021E00DC
:101D63000000004402650000000042021C00004223
:101D73000253000042023900004102500042025166
:021D830000005E
:103BAB009002697464F0900246741AF0900246E039
:103BBB00FFEF14FF900231EFF012468F90022D743D
:103BCB00FFF090023274FFF090023DE4F07871E662
:103BDB00FFEF4440FF7871A6077871E6FFEF547F43
:103BEB00FF7871A6071241799002B8E4F0A3E4F0D4
:103BFB0090026CE4F0A3E4F07870E6FFEF4401FF71
:103C0B007870A6077870E6FFEF4402FF7870A6077E
:103C1B007870E6FFEF4404FF7870A6077870E6FF34
:093C2B00EF4408FF7870A607229F
:101D85004302EE0000004802CE230819992307916B
:101D9500114802BE230C7777230BEEEF4802D623BA
:101DA5000CBBBC230C33334802C6230900002308AF
:101DB50077774802DE230C3BBC230BB3334102BCCF
:101DC50000602802F4000000000000000000000090
:101DD50000000000000000000000000000000000FE
:101DE500000000000000000000000000004102F3B8
:101DF500014102BD00410338014102BB004102F12E
:101E0500004102BA004102F2004802E6000000006B
:041E150000000000C9
:1010FE008B3C8A3D893E8D3F12463C1246E07F0D69
:10110E001242687E00EF30E0F5800280F17D117FA3
:10111E00001243AE7DFF7F011243AE7D9F7F021210
:10112E0043AE7DC37F031243AE7D037F041243AEF5
:10113E007D107F051243AE7D007F061243AE7D15F6
:10114E007F071243AE7D007F081243AE7D007F09FC
:10115E001243AE7D187F0A1243AE7D887F0B124379
:10116E00AE7D007F0C1243AE7D087F0D1243AE7D27
:10117E00007F0E1243AE7D007F0F1243AE7D007FC7
:10118E00101243AE7D007F111243AE7D007F12120E
:10119E0043AE7D007F131243AE7D007F141243AE2B
:1011AE007D007F151243AE7D007F161243AE7D008B
:1011BE007F171243AE7D007F181243AE7D007F195C
:1011CE001243AE7D007F1A1243AE7D067F2D124371
:1011DE00AE7D057F3F1243AE7D8B7F411243AE7DC8
:1011EE00007F421243AE7D307F431243AE7D087FB7
:1011FE00451243AE7D007F4E1243AE7D007F4F12EF
:10120E0043AE7D007F501243AE7D007F511243AE40
:10121E007D147F541243AE7D067F601243AE7D88EF
:10122E007F631243AE7D007F671243AE7D007F6801
:10123E001243AE7D007F691243AE7D5B7F6E12431B
:10124E00AE7D007F7A1243AE7D0C7F7B1243AE7D66
:10125E00007F7D1243AEAD407F7E1243AE7D227F76
:10126E00001243AE7D077F021243AE7DD07F031284
:10127E0043AE7D007F041243AE7D507F051243AE18
:10128E007D277F111243AE7D0C7F131243AE7D027C
:10129E007F1A1243AEAB3CAA3DA93E1204A1FD7FBC
:1012AE001B1243AEAB3CAA3DA93E7582017583006D
:1012BE001204BAFD7F1C1243AEAB3CAA3DA93E758B
:1012CE0082027583001204BAFD7F1D1243AEAB3C41
:1012DE00AA3DA93E7582037583001204BAFD7F1ED6
:1012EE001243AEAB3CAA3DA93E1204A1FD7F1F12D4
:1012FE0043AEAB3CAA3DA93E758201758300120434
:10130E00BAFD7F201243AEAB3CAA3DA93E758202C8
:10131E007583001204BAFD7F211243AEAB3CAA3D89
:10132E00A93E7582037583001204BAFD7F22124313
:10133E00AE7D087F231243AE7D887F241243AE7D9F
:10134E00107F251243AE7D0F7F261243AE7D007FA8
:10135E00271243AE7D007F281243AE7D557F2912A2
:10136E0043AEAD3F7F2A1243AE7D087F2F1243AEB0
:10137E007D007F301243AE7DC07F311243AEAB3C59
:10138E00AA3DA93E7582047583001204BAFD7F4DF5
:10139E001243AEAB3CAA3DA93E7582057583001281
:1013AE0004BAFD7F4E1243AEAB3CAA3DA93E7582F8
:1013BE00067583001204BAFD7F4F1243AEAB3CAAF2
:1013CE003DA93E7582077583001204BAFD7F501247
:1013DE0043AE7D047F511243AE7D5A7F521243AE0F
:1013EE007D667F531243AE7D157F5C1243AE7D1B2F
:1013FE007F5D1243AE7D057F5E1243AE7D677F5FDC
:10140E001243AE7D0C7F601243AE12437C7D447F4F
:10141E00001243AE7D0F7F2A1243AE7D447F001231
:10142E0043AE7D007F4F1243AE7D887F001243AEE8
:10143E007D3F7F2F1243AE7D417F0C1243AE7D3335
:10144E007F0D1243AE7D547F0E1243AE7D107F147E
:10145E001243AE7D037F241243AE7D007F7E124386
:10146E00AE7F707E5C7D977C19900233E0F8A3E02E
:10147E00F9A3E0FAA3E0FBC3120672601C7FB07EF4
:10148E00697D9A7C19900233E0F8A3E0F9A3E0FAA3
:10149E00A3E0FBC3120672700512379F8003123948
:1014AE001F7D117F001243AE7D017F6F1243AE7F11
:1014BE000D1242687E00EF30E1F5800280F1124598
:0514CE00A612462622D3
:103F97008F637D117F001243AEE5631206D33FB5F1
:103FA700003FBE013FC7023FD00300003FD97D213C
:103FB7007F761243AE80227D117F761243AE801941
:103FC7007D097F761243AE80107D057F761243AE62
:0F3FD70080077D037F761243AE7F091234ED22FF
:1033EB00787F76007F0F124268787FA607787FE69A
:1033FB00FFEF5401FF7E00EF64014E60030234ECDB
:10340B00787FE6FF7E00EF64FF4E70030234EC78AA
:10341B006EE6FFEF4440FF786EA6077F011242DB9A
:10342B007872E6FFEF5401FF7E00EF64014E6003FC
:10343B000234EC900241E0FF7E00C3EF9403EE6494
:10344B00809480503D786EE6FFEFC413135403FF56
:10345B00EF5401FF7E00EF64014E7026786EE6FF9D
:10346B00EF54BFFF786EA6077B017A027984900236
:10347B002FE0FEA3E0FFAD071241B6900241E0043E
:10348B00F022900241E0FF7E00EF64034E70527811
:10349B006EE6FFEFC413135403FFEF5401FF7E00DE
:1034AB00EF64014E703B786EE6FFEF54BFFF786E12
:1034BB00A6077872E6FFEF54FEFF7872A607786DC9
:1034CB00E6FFEF131313541FFFEF5401FF7E00EFC2
:1034DB004E7002C2A77F031234EDC2B4124651D212
:0134EB00B52B
:0134EC0022BD
:0B46CB0030B507C2B57F021246102276
:104470008F647D117F001243AEAF647E00EF641045
:104480004E6014AF647E00EF64124E600AAF647E2B
:0F44900000EF641A4E7007AD647F0A1243AE222C
:0234ED008F65E9
:1034EF009003B7E4F07D117F001243AE7F0B1242C1
:1034FF0068EFC4540FFF9003B7EFF09003B7E0FFEE
:10350F00EF656570030235D6AF657E00EF64094E37
:10351F006021AF657E00EF64064E6017AF657E00D9
:10352F00EF64084E600DAF657E00EF64034E6003DD
:10353F000235D6AD657F0B1243AE1240BD9003B777
:10354F00EFF09003B7E0FF7E00EF4E606BAF657E4C
:10355F0000EF64034E6061900233E0FCA3E0FDA333
:10356F00E0FEA3E0FF7B017A0279E6121E311246DC
:10357F00F67F407E057D927C19900233E0F8A3E040
:10358F00F9A3E0FAA3E0FBC312067250107B017A95
:10359F000279E675400C7D551210FE800E7B017A84
:1035AF000279E675401C7D551210FE1246F6AD6588
:1035BF007F0B1243AE1240BD7F0B124268EFC45413
:0C35CF000FFF9003B7EFF09003B7E0FF90
:0135DB0022CD
:1040BD009003B8E4F0A3E4F07D117F001243AE7FCE
:1040CD000D124268EF30E30A7D007F0D1243AE7F83
:1040DD0000229003B8E475F001120531AFF0FED364
:1040ED00EF9488EE941340037F01221246F680CFA1
:0140FD0022A0
:1042DB008F667D117F001243AEAF667E00EF6401E7
:1042EB004E700F7D007F0F1243AE7D817F16124300
:1042FB00AE22AF667E00EF4E700E7D007F0E124336
:09430B00AE7D827F161243AE2242
:1045A6007D117F001243AE7D007F0D1243AE7D006C
:0D45B6007F0E1243AE7D007F0F1243AE2238
:10379F007D117F001243AE7D227F061243AE7D1551
:1037AF007F071243AE7D1E7F661243AE7D227F00E0
:1037BF001243AE7D937F0C1243AE7D357F0D1243C6
:1037CF00AE7D277F111243AE7D0C7F131243AE7D6A
:1037DF00087F2F1243AE7D507F561243AE7D407F40
:1037EF00571243AE7D017F581243AE7D147F59129D
:1037FF0043AE7D007F5A1243AE7D007F5B1243AE16
:10380F007D157F5C1243AE7D0D7F5D1243AE7D054E
:10381F007F5E1243AE7D677F5F1243AE7D097F608F
:10382F001243AE7D887F001243AE7D417F0C124361
:10383F00AE7D337F0D1243AE7D547F0E1243AE7DAE
:10384F00107F141243AE7D037F241243AE7D117F90
:05385F00001243AE223F
:10391F007D117F001243AE7D007F061243AE7D1EE8
:10392F007F661243AE7D227F001243AE7D937F0CE4
:10393F001243AE7D357F0D1243AE7D277F111243AB
:10394F00AE7D0C7F131243AE7D087F2F1243AE7DE9
:10395F00407F571243AE7D017F581243AE7D147FD7
:10396F00591243AE7D007F5A1243AE7D007F5B122A
:10397F0043AE7D157F5C1243AE7D1B7F5D1243AE60
:10398F007D057F5E1243AE7D677F5F1243AE7D0C78
:10399F007F601243AE7D887F001243AE7D417F0C66
:1039AF001243AE7D337F0D1243AE7D547F0E124313
:1039BF00AE7D107F141243AE7D037F241243AE7D84
:0739CF00117F001243AE223C
:0A46E000C2B47F02124610D2B422C9
:102D5E008B458A4689478D48786EE6FFEF4408FF1B
:102D6E00786EA6077F001234ED7E00EF64084E6089
:102D7E00057F031234ED7D227F001243AEAB45AAD0
:102D8E0046A9471204A1FD7F1B1243AEAB45AA46CE
:102D9E00A9477582017583001204BAFD7F1C124388
:102DAE00AEAB45AA46A9477582027583001204BAD6
:102DBE00FD7F1D1243AEAB45AA46A947758203752A
:102DCE0083001204BAFD7F1E1243AEAB45AA46A97C
:102DDE00471204A1FD7F1F1243AEAB45AA46A94779
:102DEE007582017583001204BAFD7F201243AEABCB
:102DFE0045AA46A9477582027583001204BAFD7F63
:102E0E00211243AEAB45AA46A947758203758300CE
:102E1E001204BAFD7F221243AEAB45AA46A94775EE
:102E2E0082047583001204BAFD7F4D1243AEAB458A
:102E3E00AA46A9477582057583001204BAFD7F4E16
:102E4E001243AEAB45AA46A947758206758300129A
:102E5E0004BAFD7F4F1243AEAB45AA46A947758211
:102E6E00077583001204BAFD7F501243AE7D227F98
:102E7E00001243AE7D087F251243AE7D557F2A1288
:102E8E0043AEAF487E00EF64014E700512391F80CD
:102E9E000DAF487E00EF64024E700312379F7D0126
:102EAE007F6F1243AE7F0D1242687E00EF30E1F568
:102EBE00800280F17D117F001243AE786EE6FFEF47
:082ECE0054F7FF786EA60722FD
:104626007D117F001243AE7D077F4E1243AE7D01A2
:064636007F121243AE22C8
:1041B6008B498A4A894B8D4CAF4C7E00D3EF944095
:1041C600EE648094804003754C407D117F0012435D
:1041D600AEAD4C7F7B1243AE7F10124470AB49AA42
:0C41E6004AA94B854C3B7F7C123CAC226C
:0E1E31008F2D8E2C8D2B8C2A8B2E8A2F893094
:101E3F009003BAE4F09003BB1206A20000000090DA
:101E4F0003BF1206A2000000007B007A1B79B7784F
:101E5F0000AF2DAE2CAD2BAC2A1205D29003BAEFEA
:101E6F00F0AF2DAE2CAD2BAC2AE41202EC7B007A36
:101E7F001B7937784B12024FC004C005C006C0074C
:101E8F009003BAE0FCE41202F6A804A905AA06AB77
:101E9F0007D007D006D005D0041200519003BB1213
:101EAF0006967F007E007D807C499003BBE0F8A3FF
:101EBF00E0F9A3E0FAA3E0FB12014612032A900314
:101ECF00BF1206969003BAE0FFAB2EAA2FA930EFF0
:101EDF001204E79003BFE0FCA3E0FDA3E0FEA3E044
:101EEF00FF7810120683EF54FFFFEE5400FEED54FF
:101EFF0000FDEC5400FCAB2EAA2FA93075820175A2
:101F0F008300EF1204F99003BFE0FCA3E0FDA3E010
:101F1F00FEA3E0FF7808120683EF54FFFFEE540094
:101F2F00FEED5400FDEC5400FCAB2EAA2FA930752A
:101F3F008202758300EF1204F99003BFE0FCA3E067
:101F4F00FDA3E0FEA3E0FFEF54FFFFEE5400FEED14
:101F5F005400FDEC5400FCAB2EAA2FA93075820360
:101F6F00758300EF1204F9E52D2480F52DE52C344F
:101F7F00E5F52CE52B34F9F52BE52A34FFF52A7B13
:101F8F00007A1B79B77800AF2DAE2CAD2BAC2A128F
:101F9F0005D29003BAEFF0AF2DAE2CAD2BAC2AE4E7
:101FAF001202EC7B007A1B7937784B12024FC00478
:101FBF00C005C006C0079003BAE0FCE41202F6A801
:101FCF0004A905AA06AB07D007D006D005D0041286
:101FDF0000519003BB1206967F007E007D807C49E6
:101FEF009003BBE0F8A3E0F9A3E0FAA3E0FB120132
:101FFF004612032A9003BF1206969003BAE0FFAB76
:10200F002EAA2FA930758204758300EF1204F99060
:10201F0003BFE0FCA3E0FDA3E0FEA3E0FF781012F6
:10202F000683EF54FFFFEE5400FEED5400FDEC5419
:10203F0000FCAB2EAA2FA930758205758300EF1215
:10204F0004F99003BFE0FCA3E0FDA3E0FEA3E0FFD3
:10205F007808120683EF54FFFFEE5400FEED540094
:10206F00FDEC5400FCAB2EAA2FA9307582067583A8
:10207F0000EF1204F99003BFE0FCA3E0FDA3E0FE24
:10208F00A3E0FFEF54FFFFEE5400FEED5400FDEC14
:10209F005400FCAB2EAA2FA930758207758300EF71
:0320AF001204F91F
:0120B200220B
:10437C007D227F001243AE7D5A7F071243AE7D8AA9
:10438C007F0C1243AE7D267F0D1243AE7D037F1052
:10439C001243AE7D837F151243AE7D117F00124315
:0243AC00AE223F
:041E19004103C700BA
:1045F70043921F43C48053C31F53C3FC43C3105389
:09460700C3FB53BB9F53C4D8222E
:10298900E5C45410FF7E00EF4E7003022B979003AD
:10299900C3E5C6F09003C4E5C5F053C4EF9003C77F
:1029A900E0FFEF1206D329C2002A6B012A96022AF8
:1029B900C0032AEA0400002B12900270E0F8A3E099
:1029C900F9A3E0FAA3E0FB9003C3E0FEA3E0FFEE66
:1029D900540FFEE4FCFDEB2FFFEA3EFEE93DFDE866
:1029E9003CFC90027012069690024CE004F09002B2
:1029F9004CE0FF7E00C3EF9414EE64809480500392
:102A0900022B1290024CE4F07B147A0079007800D2
:102A1900900270E0FCA3E0FDA3E0FEA3E0FF120535
:102A2900D2900249EEF0A3EFF0900249E0FEA3E054
:102A3900FFAB07AA06E4F9F87F007E107D0E7C0043
:102A490012407990021E1206969002701206A20098
:102A59000000007870E6FFEF4410FF7870A60702C7
:102A69002B129003C3E0FEA3E0FFC3EE9402500FC4
:102A79007870E6FFEF54FDFF7870A607022B1278F5
:102A890070E6FFEF4402FF7870A607807C9003C3CD
:102A9900E0FEA3E0FFC3EE9402500E7870E6FFEF6C
:102AA90054FEFF7870A60780607870E6FFEF440156
:102AB900FF7870A60780529003C3E0FEA3E0FFC32E
:102AC900EE9402500E7870E6FFEF54FBFF7870A683
:102AD9000780367870E6FFEF4404FF7870A6078018
:102AE900289003C3E0FEA3E0FFC3EE9402500E78E2
:102AF90070E6FFEF54F7FF7870A607800C7870E650
:102B0900FFEF4408FF7870A6077870E6FFEFC4541A
:102B19000FFFEF5401FF7E00EF64014E7006900332
:102B2900C7E004F09003C7E0FF7E00D3EF9404EE02
:102B39006480948040069003C77401F09003C7E055
:102B4900FFEF1206D32B61002B66012B72022B7E3D
:102B5900032B8A0400002B9453C4D8802EE5C45457
:102B6900D8FFEF4401F5C48022E5C454D8FFEF44EF
:102B790002F5C48016E5C454D8FFEF4403F5C480B8
:0E2B89000AE5C454D8FFEF4404F5C443C40861
:012B9700221B
:03004B000235DC9F
:1035DC00C0E0C0F0C083C082C0D075D000C000C0B5
:0D35EC0001C002C003C004C005C006C00736
:1035F9009003C5E5C6F09003C6E5C5F0900270E0FA
:10360900F8A3E0F9A3E0FAA3E0FB9003C5E0FEA369
:10361900E0FFEE540FFEE4FCFDEB2FFFEA3EFEE96E
:103629003DFDE83CFC90027012069690024CE004C5
:10363900F053C4EF43C40890024CE0FF7E00C3EF8F
:103649009414EE64809480405653ADFD53C47F902A
:10365900024CE4F07B147A0079007800900270E063
:10366900FCA3E0FDA3E0FEA3E0FF1205D29002490E
:10367900EEF0A3EFF0900249E0FEA3E0FFAB07AA4A
:1036890006E4F9F87F007E107D0E7C0012407990E7
:0F369900021E1206969002701206A20000000098
:1036A800D007D006D005D004D003D002D001D00076
:0B36B800D0D0D082D083D0F0D0E03220
:0446FE0043C4082287
:103D2300900251E0FEA3E0FFEF4E60677F607E09E3
:103D33007D007C0090021EE0F8A3E0F9A3E0FAA363
:103D4300E0FBD31206724006900223E4F0227F6068
:103D53007E097D007C0090021EE0F8A3E0F9A3E059
:103D6300FAA3E0FBD312067250237F987E087D00EE
:103D73007C0090021EE0F8A3E0F9A3E0FAA3E0FBC5
:103D8300D312067240079002237401F0229002239B
:043D93007402F022A4
:101E1D001108FBBFDFEFF79FAFB7BBCFDBEBE7F3EE
:031E2D00FDFEFFB8
:10254A007872E6FFEF20E6030227697872E6FFEF6A
:10255A0054BFFF7872A607900251E0FEA3E0FFEF96
:10256A004E600E900252E024FFF0900251E034FFD8
:10257A00F09002ADE0FEA3E0FFEF4E600E9002AED7
:10258A00E024FFF09002ADE034FFF0900225E0FE77
:10259A00A3E0FFEF4E600E900226E024FFF09002C7
:1025AA0025E034FFF090026CE0FEA3E0FFEF4E60FE
:1025BA000E90026DE024FFF090026CE034FFF09080
:1025CA00022BE0FEA3E0FFEF4E601090022CE02405
:1025DA00FFF090022BE034FFF0800C786DE6FFEFFD
:1025EA0054F7FF786DA607786DE6FFEF30E3359074
:1025FA00022BE0FEA3E0FFEF4E6029900243E004C5
:10260A00F07006900242E004F0900242E0FEA3E07D
:10261A00FFC3EF9450EE9400400A900242E4F0A304
:10262A00E4F0B2A79002B8E0FEA3E0FFEF4E600E1E
:10263A009002B9E024FFF09002B8E034FFF0900273
:10264A006EE0FEA3E0FFEF4E60407873E6FFEFC353
:10265A0013FFEF5401FF7E00EF4E60030227477815
:10266A0073E6FFEF4402FF7873A6077873E6FFEF7D
:10267A0054FBFF7873A6071247027873E6FFEF2030
:10268A00E303022747D2A7022747900245E0FFEF5C
:10269A00603E7873E6FFEF1313543FFFEF5401FFD8
:1026AA007E00EF4E60030227477873E6FFEF44048B
:1026BA00FF7873A6077873E6FFEF54FDFF7873A6D9
:1026CA00071200067873E6FFEF30E371C2A7806D48
:1026DA00900240E0FFEF6059900240E014F090024F
:1026EA006AE0FEA3E0FF90026EEEF0A3EFF0900224
:1026FA0044E0FF900245EFF07873E6FFEFC313FF63
:10270A00EF5401FF7E00EF4E70337873E6FFEF441B
:10271A0002FF7873A6077873E6FFEF54FBFF78731E
:10272A00A6071247027873E6FFEF30E310D2A780BC
:10273A000C7873E6FFEF54F7FF7873A6071218694F
:10274A00786DE6FFEFC4135407FFEF5401FF7E00D4
:10275A00EF64014E6009122ED6120D201246F6229F
:103A82007872E6FFEF30E7497872E6FFEF547FFF86
:103A92007872A607900250E0FFEF6006900250E0B5
:103AA20014F07872E6FFEFC4135407FFEF5401FFDE
:103AB2007E00EF64014E7019900231E0FFEF601159
:103AC20090024EE0FF7E00EF4E7006900231E0144D
:103AD200F09003C8E0FEA3E0FFEF4E703F7872E67D
:103AE200FFEF5401FF7E00EF64014E702F7872E603
:103AF200FFEF54FEFF7872A607786DE6FFEF13130F
:103B020013541FFFEF5401FF7E00EF4E7002C2A755
:0D3B12007F031234EDC2B4124651D2B52229
:1018690090023DE4F090023274FFF0900223E0FF11
:101879007E00EF64024E7003021B737870E6FFEF7F
:101889005401FF1245447870E6FFEFC313FFEF548C
:1018990001FF1245447870E6FFEF1313543FFFEF41
:1018A9005401FF1245447F011245447870E6FFEF69
:1018B900131313541FFFEF5401FF1245447F011204
:1018C90045447F0112454490022DE0FF900232E029
:1018D900FEEE6F6025900232E0FF90022DEFF012CC
:1018E900468F12417990021C7413F0A37488F0900A
:1018F90002537427F0A37474F02290023774FF75B1
:10190900F0FF12051BAFF0FEEF4E6003021B739050
:101919000237E4F0A37401F0900232E0FF7E00EF99
:1019290064FF4E7003021A1090021CE0FEA3E0FF50
:10193900EF4E600E90021DE024FFF090021CE0348F
:10194900FFF0900253E0FEA3E0FFEF4E600E90021D
:1019590054E024FFF0900253E034FFF0900223E0BA
:10196900FF7E00EF64014E6017786DE6FFEF20E619
:101979000F900253E0FEA3E0FFEF4E6003021A103E
:10198900786DE6FFEFC413135403FFEF5401FF7E94
:1019990000EF4E705A786DE6FFEF4440FF786DA670
:1019A90007900253E0FEA3E0FFEF4E701190026A28
:1019B900E4F0A37467F09002447467F0800F90021A
:1019C9006AE4F0A37428F0900244743CF090026A2F
:1019D900E0FEA3E0FF90026EEEF0A3EFF090024468
:1019E900E0FF900245EFF09002407402F0801890F9
:1019F9000240E0FF7E00D3EF9401EE6480948050B2
:101A0900069002407402F0788076007880E6FF7EC6
:101A190000C3EF9411EE6480948050237880E6FF30
:101A290074082FF8E6FF900232E0FEEEB5070B7856
:101A390080E6FF90023CEFF0800578800680CC7844
:101A490080E6FF7E00900239EEF0A3EFF0786DE6B4
:101A5900FFEFC4135407FFEF5401FF7E00EF640149
:101A69004E7003021B737880E6FF7E00EF64114E0F
:101A7900701F7871E6FFEF54BFFF7871A607124116
:101A8900797871E6FFEF4480FF7871A60712451E49
:101A9900227871E6FFEF30E75D900232E0FF7E00C9
:101AA900EF64FF4E60507880E6FF7E00EF64054EDC
:101AB90060337880E6FF7E00EF64064E6027788009
:101AC900E6FF7E00EF64074E601B7880E6FF7E002C
:101AD900EF64094E600F7880E6FF7E00EF640C4EDC
:101AE9006003021B737872E6FFEF5401FF7E00EF7B
:101AF9004E70778001227880E6FFEF1206D31B3EF5
:101B0900001B42011B42021B42031B42041B5405DA
:101B19001B54061B54071B58081B54091B5C0A1B42
:101B2900600B1B540C1B640D1B680E1B6C0F1B7088
:101B39001000001B731236C3227872E6FFEF5401BE
:101B4900FF7E00EF4E70231220B3221243DF2212D0
:101B59003DF922123F4722123EA722123EF72212D6
:0A1B690000222212470522123E5509
:011B7300224F
:1043DF0012451E90023DE4F090023CE0FF90023C3B
:1043EF00E0FD122B981241797871E6FFEF54BFFF71
:1043FF007871A6077871E6FFEF4480FF7871A60702
:01440F00228A
:103DF90012451E7871E6FFEF54BFFF7871A6077868
:103E090071E6FFEF20E23F7871E6FFEF4404FF78A7
:103E190071A6079002B8740BF0A374B8F07872E633
:103E2900FFEFC4135407FFEF5401FF7E00EF4E70FC
:103E39001A7872E6FFEF4420FF7872A607D2E8905D
:0C3E49000231744EF0227F081243482220
:103EA70012451E7871E6FFEF20E33F7871E6FFEFDA
:103EB7004408FF7871A6079002B8740BF0A374B892
:103EC700F07872E6FFEFC4135407FFEF5401FF7E4B
:103ED70000EF4E701A7872E6FFEF4420FF7872A663
:103EE70007D2E8900231744EF0227F0B124348222A
:103EF70012451E7871E6FFEF20E43F7871E6FFEF89
:103F07004410FF7871A6079002B8740BF0A374B839
:103F1700F07872E6FFEFC4135407FFEF5401FF7EFA
:103F270000EF4E701A7872E6FFEF4420FF7872A612
:103F370007D2E8900231744EF0227F0D12434822D7
:103F470012451E7871E6FFEF20E13F7871E6FFEF3B
:103F57004402FF7871A6079002B8740BF0A374B8F7
:103F6700F07872E6FFEFC4135407FFEF5401FF7EAA
:103F770000EF4E701A7872E6FFEF4420FF7872A6C2
:103F870007D2E8900231744EF0227F0A124348228A
:104348008F679002B8E0FEA3E0FFEF4E6025900271
:10435800B874FF75F0FF12051BAFF0FEEF4E701337
:104368007D00AF67122B98786DE6FFEF4480FF78E9
:044378006DA6072205
:1036C30012451E7871E6FFEF20E603023762787138
:1036D300E6FFEF54BFFF7871A60790023D7405F033
:1036E3001241797871E6FFEF4401FF7871A60790E4
:1036F30002B8740BF0A374B8F090026CE0FEA3E080
:10370300FFEF4E70397872E6FFEFC4135407FFEFF3
:103713005401FF7E00EF4E70147872E6FFEF4420F1
:10372300FF7872A607D2E89002317433F090026CEE
:103733007427F0A37410F09002147402F022900224
:1037430014E014FFF0EF70537F011244F790023D31
:10375300E4F07871E6FFEF4480FF7871A6072278E2
:1037630071E6FFEF30E0349002B8E0FEA3E0FFEF34
:103773004E60289002B874FF75F0FF12051BAFF07E
:10378300FEEF4E70167F021244F790023DE4F0788C
:0C37930071E6FFEF4480FF7871A607226A
:1020B300120026EF70030221CA786DE6FFEF20E0DD
:1020C30013786DE6FFEF20E10B786DE6FFEF20E27A
:1020D3000302231D9002B8E0FEA3E0FFEF4E60036E
:1020E30002231D786DE6FFEFC413135403FFEF546F
:1020F30001FF7E00EF4E600302231D90021CE0FEF1
:10210300A3E0FFEF4E600302231D786DE6FFEF208F
:10211300E008786DE6FFEF30E21890024E740AF0A3
:1021230090023DE4F07871E6FFEF4480FF7871A6FA
:10213300072290024E7401F07B017D677F677E006A
:10214300123FE67873E6FFEF4408FF7873A607783B
:1021530072E6FFEFC4135407FFEF5401FF7E00EF55
:102163004E70187872E6FFEF4420FF7872A607D20C
:10217300E8900246E0FF900231EFF0900225740FE1
:10218300F0A374A0F090023DE4F07871E6FFEF5401
:10219300BFFF7871A6077871E6FFEF4480FF78717F
:1021A300A6077871E6FFEF4420FF7871A607786DE4
:1021B300E6FFEF20E00302231D7871E6FFEF54DF13
:1021C300FF7871A607222290023CE0FF90023DEFC8
:1021D300F090024EE0FFEF600302231D9002ACE09B
:1021E300FFEF60012290023DE0FFEF1206D321FED4
:1021F30001221602222E0300002244786DE6FFEF2F
:102203004401FF786DA6079002B87413F0A3748895
:10221300F0802E786DE6FFEF4402FF786DA60790FD
:1022230002B87413F0A37488F08016786DE6FFEF9C
:102233004404FF786DA6079002B87413F0A3748862
:10224300F0900222E0FFEF600D90023DE0FF7E0080
:10225300EF64044E701912451E90023CE0FF900299
:102263003CE0FD122B9890026CE4F0A3E4F0229082
:10227300024EE0FFEF600302231D9002ACE0FFEF8C
:1022830060012290023DE0FF7E00EF64024E703752
:1022930012451E90023CE0FF90023CE0FD122B9899
:1022A30090026CE4F0A3E4F0786DE6FFEF4408FFDE
:1022B300786DA60790022B740BF0A374B8F090020C
:1022C30042E4F0A3E4F02290023DE0FFEF1206D3D4
:1022D30022DD0122DD030000231D786DE6FFEF30D0
:1022E300E33890022BE0FEA3E0FFEF4E602C786D05
:1022F300E6FFEF54F7FF786DA60790022BE4F0A3F7
:10230300E4F090023CE0FF90023CE0FD122B989039
:0B231300026CE4F0A3E4F012451E226F
:0100220022BB
:014705002291
:103E5500786DE6FFEF54FEFF786DA607786DE6FFF7
:103E6500EF54FDFF786DA607786DE6FFEF54FBFF75
:103E7500786DA607786DE6FFEF54BFFF786DA6074E
:103E85001241797871E6FFEF4440FF7871A6077813
:103E950071E6FFEF547FFF7871A60790023D74FF2E
:023EA500F02209
:10468F00900237E4F0A3740AF09002B8E4F0A3E4C8
:02469F00F02207
:104179007871E6FFEF54FEFF7871A6077871E6FFC4
:10418900EF54FDFF7871A6077871E6FFEF54FBFF46
:104199007871A6077871E6FFEF54F7FF7871A607E3
:0D41A9007871E6FFEF54EFFF7871A6072252
:10451E0090024EE4F090022E7402F09002097402A2
:10452E00F090022BE0FEA3E0FFEF4E600890022B0E
:06453E00E4F0A3E4F0220A
:100026007871E6FFEF20E6037F01227871E6FFEFA5
:1000360054BFFF7871A6079002B8E4F0A3E4F0126B
:0500460041797F00225A
:042B98008F548D5574
:102B9C00900248E0FF7E00C3EF9445EE6480948081
:102BAC00505A7872E6FFEFC4135407FFEF5401FF3D
:102BBC007E00EF64014E7044900231E0FF7E00C352
:102BCC00EF9419EE648094805032900231E0FFC390
:102BDC0074199FF556900248E02556F0900248E093
:102BEC00FF7E00C374459FFFE49EFEC3EF941BEE73
:102BFC006480948040069002317419F0900231E0A8
:102C0C00FF7E00C3EF9419EE64809480500E900206
:102C1C0050E0FF7E00EF4E6003022D5B7872E6FF02
:102C2C00EFC4135407FFEF5401FF7E00EF4E7018F2
:102C3C007872E6FFEF4420FF7872A607D2E8900284
:102C4C0046E0FF900231EFF0E5541206D32C8101DF
:102C5C002C89022C91032C99042CA1052CA9062C4F
:102C6C00B1072CB9082CC1092CC90A2CD10B2CD9B1
:102C7C000C00002CDF90024F7408F0805690024F2D
:102C8C007404F0804E90024F7402F0804690024F14
:102C9C007401F0803E90024F740CF0803690024F1D
:102CAC00740AF0802E90024F7409F0802690024F27
:102CBC007418F0801E90024F7406F0801690024F2C
:102CCC007414F0800E90024F7412F0800690024F34
:102CDC007403F0E5551206D32CF7012D04022D11C7
:102CEC00032D1E042D2B1400002D367B007D677FD9
:102CFC00677E00123FE680327B017D677F677E0036
:102D0C00123FE680257B027D677F677E00123FE6DF
:102D1C0080187B007D0A7FF47E01123FE6800B7BDE
:102D2C00007D0A7FE87E03123FE61246CB90023309
:102D3C001206A2196563787B017A0279CE75400C74
:102D4C007D151210FE1231B69002507419F022C289
:012D5C00A7CF
:012D5D002253
:100D200090024EE0FFEF1206D30D4B010D7A020D3B
:100D3000CF030E49040E80050F06060F3D070FC3B3
:100D4000080FC30910F20A000010FD7871E6FFEFEA
:100D500020E7119002257403F0A374E8F090024E8E
:100D6000E004F022900225E0FEA3E0FFEF4E6003D6
:100D70000210FD90024E740AF022900225E0FEA3BC
:100D8000E0FFEF4E702790024EE004F090022574D1
:100D90000BF0A374B8F07B007D677F677E00123F85
:100DA000E67873E6FFEF4408FF7873A60790023DEC
:100DB000E0FF7E00EF4E70030210FD90023DE0FF69
:100DC0007E00EF64FF4E70030210FD12451E22905C
:100DD0000225E0FEA3E0FFEF4E700412451E2290B4
:100DE000023DE0FF7E00EF4E70030210FD90023DD9
:100DF000E0FF7E00EF64FF4E7001227871E6FFEFA6
:100E000030E52390023DE0FF7E00EF64024E70115A
:100E10009002257403F0A374E8F090024EE004F011
:100E20002212451E222290023DE0FF7E00EF640167
:100E30004E70119002257403F0A374E8F090024EF6
:100E4000E004F02212451E2222900225E0FEA3E0DB
:100E5000FFEF4E60030210FD90024EE004F090029E
:100E600025740BF0A374B8F07B007D677F677E006C
:100E7000123FE67873E6FFEF4408FF7873A6072277
:100E8000900225E0FEA3E0FFEF4E700412451E2203
:100E900090023DE0FF7E00EF4E70030210FD9002D5
:100EA0003DE0FF7E00EF64FF4E7001227871E6FFA7
:100EB000EF30E52F90023DE0FF7E00EF64024E70C0
:100EC0001D9002257403F0A374E8F090024EE00434
:100ED000F07871E6FFEF4480FF7871A60722124593
:100EE0001E222290023DE0FF7E00EF64014E701151
:100EF0009002257403F0A374E8F090024EE004F031
:100F00002212451E2222900225E0FEA3E0FFEF4EB2
:100F100060030210FD90024EE004F0900225740B75
:100F2000F0A374B8F07B027D677F677E00123FE616
:100F30007873E6FFEF4408FF7873A6072290022536
:100F4000E0FEA3E0FFEF4E700412451E2290023D2A
:100F5000E0FF7E00EF4E70030210FD90023DE0FFC7
:100F60007E00EF64FF4E7001227871E6FFEF30E5FE
:100F70002F90023DE0FF7E00EF64024E701D900254
:100F8000257427F0A37410F090024EE004F07871FD
:100F9000E6FFEF4480FF7871A6072212451E222249
:100FA00090023DE0FF7E00EF64014E70119002253B
:100FB0007427F0A37410F090024EE004F022124562
:100FC0001E2222900225E0FEA3E0FFEF4E700412E5
:100FD000451E2290023DE0FF7E00EF4E700302109E
:100FE000FD90023DE0FF7E00EF64FF4E700122782D
:100FF00071E6FFEF20E50302107990023DE0FF7EED
:1010000000EF64024E706D90024EE0FF7E00EF64D0
:10101000094E7059900222E0FF8F68E568600575FF
:1010200068008003756801900222E568F07B017A10
:10103000027922751E00751F017FF97E7F12231E23
:101040007B047D677F677E00123FE67873E6FFEFE3
:101050004408FF7873A607786DE6FFEF54F7FF7832
:101060006DA6079002317414F012451E2290024EB4
:10107000E004F02212451E222290023DE0FF7E0095
:10108000EF64014E706790024EE0FF7E00EF64094E
:101090004E7053900222E0FF8F68E5686005756826
:1010A000008003756801900222E568F07B017A02F6
:1010B0007922751E00751F017FF97E7F12231E7B2A
:1010C000047D677F677E00123FE67873E6FFEF449A
:1010D00008FF7873A607786DE6FFEF54F7FF786D89
:1010E000A60712451E2290024EE004F02212451E71
:0D10F00022227871E6FFEF20E70312451E73
:0110FD0022D0
:102ED6001246F0EF700302304B7872E6FFEFC41330
:102EE6005407FFEF5401FF7E00EF4E700E7872E636
:102EF600FFEF4420FF7872A607D2E89002ADE0FE0D
:102F0600A3E0FFEF4E60319002317433F09002433C
:102F1600E004F07006900242E004F0900242E0FE07
:102F2600A3E0FFC3EF9490EE9401401E900242E4AA
:102F3600F0A3E4F0B2A780127B027DFA7FF47E0153
:102F4600123FE6C2A79002ACE4F090023DE0FFEF2C
:102F56001206D32F69012FAA022FDC032FF50500D5
:102F660000304B90024DE0FF74AF2FF582E434023F
:102F7600F583E004FFF0EFD39439401290024DE060
:102F8600FF74AF2FF582E43402F5837430F07B00D2
:102F96007D677F677E00123FE69002AD74A7F0A3BF
:102FA60074F8F02290024DE004FFF07E00D3EF9417
:102FB60008EE64809480400890024D7408F0800BFF
:102FC6007B017D677F677E00123FE69002AD74A7A6
:102FD600F0A374F8F0221244407B007D0A7FE87E5D
:102FE60003123FE69002AD74A7F0A374F8F02290A6
:102FF600024DE0FF7E00C3EF9408EE6480948040AB
:10300600447B017A0279AF123C349002271206966D
:103016007FFE7EFF7DFF7C00900227E0F8A3E0F9AB
:10302600A3E0FAA3E0FBD3120672400D7B037D6496
:103036007F647E00123FE680077D147F14122B9872
:063046009002ACE4F02250
:063C34008B218A22892386
:103C3A00752900752800752700752600752400AFC0
:103C4A00247E00C3EF9408EE64809480504BAB212D
:103C5A00AA22A923AF248F827583001204BAFFEF28
:103C6A0024D0F5257F0A7E007D007C00AB29AA2896
:103C7A00A927A826120547A804A905AA06AB07AFD3
:103C8A0025E4FCFDFEEB2FF529EA3EF528E93DF592
:103C9A0027E83CF526052480A6AF29AE28AD27AC37
:013CAA0026F3
:013CAB0022F6
:1044F7008F691246F0EF701E9002ACE569F0124426
:10450700407B007D0A7FE87E03123FE69002AD7490
:07451700A7F0A374F8F022E5
:0646F0009002ACE0FF2285
:1044400090024DE4F0756A00AF6A7E00C3EF9408F5
:10445000EE648094805013AF6A74AF2FF582E43419
:0F44600002F5837430F0056A80DE9002B7E4F055
:01446F00222A
:104544008F6B900232E0FFEF25E0FF900232EFF034
:10455400E56B600E900232E0FFEF4401FF900232FF
:03456400EFF02253
:103FE6008E4D8F4E8D4F8B50786DE6FFEFC41313B9
:103FF6005403FFEF5401FF7E00EF4E703090026ACB
:10400600E54DF0A3E54EF0900244E54FF090026ACC
:10401600E0FEA3E0FF90026EEEF0A3EFF090024404
:0E402600E0FF900245EFF0900240E550F022DE
:10276A0030A503022941122989786FE6FFEF540147
:10277A00FF7E00EF4E702D786FE6FFEF4401FF7881
:10278A006FA607D2E8D2A7124314D2AF1246FE129E
:10279A00470290024574C8F0786FE6FFEF54DFFFF6
:1027AA00786FA607900245E0FF7E00EF4E7023780F
:1027BA006FE6FFEFC4135407FFEF5401FF7E00EFEB
:1027CA004E700F786FE6FFEF4420FF786FA607126E
:1027DA0000061246F67870E6FFEF5401FF7E00EF1E
:1027EA004E704A7872E6FFEFC313FFEF5401FF7E83
:1027FA0000EF4E70387872E6FFEF4402FF7872A657
:10280A00071246CB9002331206A2196563787B0140
:10281A007A0279CE75400C7D151210FE7873E6FFA8
:10282A00EF547FFF7873A6077F00123F977870E610
:10283A00FFEF5401FF7E00EF64014E700C7872E6E0
:10284A00FFEF54FDFF7872A6077870E6FFEFC31317
:10285A00FFEF5401FF7E00EF4E70337872E6FFEF10
:10286A001313543FFFEF5401FF7E00EF4E701F78A1
:10287A0072E6FFEF4404FF7872A607C2B41246510B
:10288A00D2B57873E6FFEF547FFF7873A6077870A6
:10289A00E6FFEFC313FFEF5401FF7E00EF64014E22
:1028AA00700C7872E6FFEF54FBFF7872A607787017
:1028BA00E6FFEF1313543FFFEF5401FF7E00EF4E84
:1028CA00704D7872E6FFEF131313541FFFEF540194
:1028DA00FF7E00EF4E70387872E6FFEF4408FF780B
:1028EA0072A6071246CB9002331206A219656378C4
:1028FA007B017A0279CE75400C7D151210FE7F019C
:10290A00123F977873E6FFEF4480FF7873A6077843
:10291A0070E6FFEF1313543FFFEF5401FF7E00EF01
:10292A0064014E700C7872E6FFEF54F7FF7872A6D6
:10293A00071206F902276A786FE6FFEF5401FF7E55
:10294A0000EF64014E700F786FE6FFEF54FEFF78D8
:10295A006FA60712000EC2E8C2A77872E6FFEF540C
:10296A00FDFF7872A6077872E6FFEF54FBFF7872D4
:0F297A00A6077872E6FFEF54F7FF7872A60722E0
:1031B600D2A79002ACE0FF7E00EF4E704D7B017A05
:1031C600027918C003C002C0017B007A007932A8D8
:1031D60001AC02AD03D001D002D0037E007F041201
:1031E600047B90024FE0FF8F367F0012304C900236
:1031F6009074FFF090022FE4F0A3740DF09003C8D2
:103206007402F0A37426F00232BF7B017A027918A9
:10321600C003C002C0017B007A007932A801AC026B
:10322600AD03D001D002D0037E007F0412047B756B
:1032360036807F0012304C9002ACE0FF7E00EF64D7
:10324600014E702F7B017A027927C003C002C001AC
:103256007B007A007932A801AC02AD03D001D0021E
:10326600D0037E007F0412047B7536FF7F0C12307C
:103276004C802D7B017A027927C003C002C0017BF6
:10328600007A007932A801AC02AD03D001D002D099
:10329600037E007F0412047B7536007F0C12304CCF
:1032A60090029C74FFF090022FE4F0A37419F09042
:1032B60003C87403F0A37420F07872E6FFEF4401AC
:1032C600FF7872A6077B017A02798490022FE0FECE
:0F32D600A3E0FFAD071241B69002417401F02250
:02304C008F31C2
:10304E00AF35123D977874A60608A6077874E6FF8A
:10305E00AE31053174842EF582E43402F583EFF03F
:10306E007875E6FFAE31053174842EF582E43402B4
:10307E00F583EFF0AF34123D977874A60608A607D5
:10308E007874E6FFAE31053174842EF582E4340295
:10309E00F583EFF07875E6FFAE31053174842EF5C9
:1030AE0082E43402F583EFF0AF33123D977874A6C5
:1030BE000608A6077874E6FFAE31053174842EF546
:1030CE0082E43402F583EFF07875E6FFAE31053118
:1030DE0074842EF582E43402F583EFF0AF36123DA0
:1030EE00977874A60608A6077874E6FFAE31053108
:1030FE0074842EF582E43402F583EFF07875E6FFE2
:10310E00AE31053174842EF582E43402F583EFF08E
:10311E007875A6337874A6367877A6357876A63481
:10312E007876E6FE08E6FF7874E6FC08E6FDED2FFD
:10313E00FFEC3EFE7878A60608A6077879E6FF1221
:10314E003D977874A60608A6077874E6FFAE31059B
:10315E003174842EF582E43402F583EFF07875E64F
:10316E00FFAE31053174842EF582E43402F583EF1F
:10317E00F07878E6FF123D977874A60608A60778D1
:10318E0074E6FFAE31053174842EF582E43402F517
:10319E0083EFF07875E6FFAE31053174842EF5823B
:0731AE00E43402F583EFF0A9
:0131B50022F7
:023D97008F6C2F
:103D9900787C7600787CE6FF7E00C3EF9408EE64B9
:103DA9008094805043787AE6FE08E6FFEF7802C3F4
:103DB90033CE33CED8F9FF787AA60608A607E56C84
:103DC90030E00E787BE6FFEF4402FF787BA60780A0
:103DD9000C787BE6FFEF4401FF787BA607E56CC30F
:0F3DE90013F56C787C0680AC787AE6FE08E6FF6E
:013DF80022A8
:10004E00020396E86480F8E933E83360110460F047
:10005E00ED33EC337009E8FCE9FDEAFEEBFF220418
:10006E0060DED3EB9FEA9EE99DE8C2E78CF0C2F713
:10007E0095F0400CE8CCF8E9CDF9EACEFAEBCFFBDF
:10008E0012036185D0F05804700320D5B3E80470D4
:10009E00075002B2D50203A092D5EC0460F7E4CC6F
:1000AE00C0E0C398F8603B94186008400DD0E0FBA8
:1000BE00020378E4FBFAC9FC8028E830E406E4C9C0
:1000CE00FBE4CAFCE830E305E4C9CACBFCE85407FC
:1000DE006010F8C3E913F9EA13FAEB13FBEC13FC07
:1000EE00D8F130F52FC3E49CFCEF9BFFEE9AFEEDAA
:1000FE0099FDD0E0FBEF4E4D4C701222DB03020354
:10010E009DEC2CFCEF33FFEE33FEED33FDED30E7CF
:10011E00EB020378EF2BFFEE3AFEED39FDD0E0FB5C
:10012E0050130BBB00030203A0ED13FDEE13FEEF05
:08013E0013FFEC13FC0203782F
:10014600EC4D6011E8497017ED33EC3304600DE4B3
:10015600FCFFFEFD22E933E8330470F80203961231
:10016600036158046009E4CC248150062850090232
:1001760003A028400302039DC0E0EB4A7044B98007
:1001860006D0E0FB02038CEF4E701CBD8008EBFF2F
:10019600EAFEE9FD80EBE98DF0A4FEE5F002022F10
:1001A600E9CDF9EAFEEBFFEF89F0A4FCE5F0CE8994
:1001B600F0A42EFFE435F0CD89F0A42DFEE435F051
:1001C6008067EF4E7005BD80D780C3EF8BF0A4AC7F
:1001D600F0EE8BF0A42CFCE435F0F8EF8AF0A42CBA
:1001E600E5F038FCE433CB8DF0A42CFCE5F03BF8CD
:1001F600EE8AF0A42CFCE5F038F8E433CF89F0A4BD
:100206002CFCE5F038CF3400CE89F0A42FFFE5F0C2
:100216003EFEE433C98DF0A42EFEE5F039CD8AF01A
:10022600A42FFFE5F03EFEE43DFD33D0E0FB500792
:100236000BBB000F0203A0EC2CFCEF33FFEE33FEEA
:06024600ED33FD02037818
:10024C000203A0EC5D046005E859047003020396F8
:10025C00120361580460F6EC4860F2EC7004FDFE89
:10026C00FF22C860DB2481C85009C3986002500685
:10027C0002039D9850CAF582E9294B4A7005AB825E
:10028C0002038C75F0007C1A7880C3EF9BEE9AED1C
:10029C0099400DC3EF9BFFEE9AFEED99FDE842F0FD
:1002AC00DC23ACF0D0E0FFD0E0FED0E0FDAB822050
:1002BC00E7101BEB60BAEC2CFCEF33FFEE33FEEDDA
:1002CC0033FD020378E803F830E705C0F075F00061
:1002DC00EF2FFFEE33FEED33FD40B830E7C280AABE
:1002EC0075F020800E75F010800575F0087D007E8D
:1002FC00007F003392D530D503120664EC334010E6
:10030C00EF33FFEE33FEED33FDEC33FCD5F0ED2295
:0E031C00E5F0247EA2D513CC92E7CDCEFF22D1
:10032A00EDD2E7CD33EC3392D524814006E4FFFECB
:10033A00FDFC22FCE4CFCECDCC24E0501174FF802A
:10034A00EDC3CC13CCCD13CDCE13CECF13CF0470C7
:07035A00F030D5DE0206645D
:10036100E9D2E7C933E833F892D5EDD2E7CD33ECE2
:0703710033FC5002B2D5225B
:10037800EC30E7100FBF000C0EBE00080DBD0004E6
:100388000BEB6014A2D5EB13FCED92E7FD2274FF92
:10039800FCFDFEFF22E480F8A2D574FF13FC7D80EB
:0303A800E480EFFF
:03000000023B1FA1
:0C3B1F00787FE4F6D8FD758180023B66DB
:1003AB00E709F608DFFA8046E709F208DFFA803E34
:1003BB0088828C83E709F0A3DFFA8032E309F60821
:1003CB00DFFA8078E309F208DFFA807088828C8389
:1003DB00E309F0A3DFFA806489828A83E0A3F6083D
:1003EB00DFFA805889828A83E0A3F208DFFA804C17
:1003FB0080D280FA80C680D4806980F280338010EE
:10040B0080A680EA809A80A880DA80E280CA803356
:10041B0089828A83ECFAE493A3C8C582C8CCC583CE
:10042B00CCF0A3C8C582C8CCC583CCDFE9DEE7809E
:10043B000D89828A83E493A3F608DFF9ECFAA9F01D
:10044B00EDFB2289828A83ECFAE0A3C8C582C8CC73
:10045B00C583CCF0A3C8C582C8CCC583CCDFEADE8C
:10046B00E880DB89828A83E493A3F208DFF980CCEE
:10047B0088F0EF60010E4E60C388F0ED2402B404E7
:10048B000050B9F582EB2402B4040050AF2323458E
:06049B0082239003FB73B5
:1004A100BB010689828A83E0225002E722BBFE0259
:0904B100E32289828A83E493228C
:1004BA00BB010CE58229F582E5833AF583E02250F7
:1004CA0006E92582F8E622BBFE06E92582F8E22241
:0D04DA00E58229F582E5833AF583E493225B
:1004E700BB010689828A83F0225002F722BBFE01F4
:0204F700F322EE
:1004F900F8BB010DE58229F582E5833AF583E8F039
:10050900225006E92582C8F622BBFE05E92582C8E4
:02051900F222CC
:10051B00C5F0F8A3E028F0C5F0F8E582158270026B
:06052B001583E038F02208
:10053100A3F8E0C5F025F0F0E5821582700215837D
:06054100E0C838F0E822DA
:10054700E88FF0A4CC8BF0A42CFCE98EF0A42CFC53
:100557008AF0EDA42CFCEA8EF0A4CDA8F08BF0A4D1
:100567002DCC3825F0FDE98FF0A42CCD35F0FCEB30
:100577008EF0A4FEA9F0EB8FF0A4CFC5F02ECD39F5
:0F058700FEE43CFCEAA42DCE35F0FDE43CFC2262
:1005960075F008758200EF2FFFEE33FECD33CDCC1C
:1005A60033CCC58233C5829BED9AEC99E58298409F
:1005B6000CF582EE9BFEED9AFDEC99FC0FD5F0D67C
:1005C600E4CEFBE4CDFAE4CCF9A88222B800C1B9A6
:1005D6000059BA002DEC8BF084CFCECDFCE5F0CBE4
:1005E600F97818EF2FFFEE33FEED33FDEC33FCEB1D
:1005F60033FB10D703994004EB99FB0FD8E5E4F9D8
:10060600FA227818EF2FFFEE33FEED33FDEC33FCC4
:10061600C933C910D7059BE99A4007EC9BFCE99AB8
:10062600F90FD8E0E4C9FAE4CCFB2275F010EF2FFD
:10063600FFEE33FEED33FDCC33CCC833C810D707FD
:100646009BEC9AE899400AED9BFDEC9AFCE899F838
:0E0656000FD5F0DAE4CDFBE4CCFAE4C8F922CB
:10407900C2D5E830E70FB2D5E4C39BFBE49AFAE472
:1040890099F9E498F8EC30E717B2D51240AF120568
:10409900D2E4C39BFBE49AFAE499F9E498F8800323
:1040A9001205D230D50DE4C39FFFE49EFEE49DFDC9
:0440B900E49CFC2265
:0E066400C3E49FFFE49EFEE49DFDE49CFC22A7
:10067200EB9FF5F0EA9E42F0E99D42F0E89C45F0DE
:010682002255
:10068300E8600FECC313FCED13FDEE13FEEF13FF55
:03069300D8F12279
:0C069600ECF0A3EDF0A3EEF0A3EFF022D7
:1006A200A8828583F0D083D0821206B91206B912CD
:1006B20006B91206B9E473E493A3C583C5F0C583F2
:1006C200C8C582C8F0A3C583C5F0C583C8C582C8A2
:0106D2002205
:1006D300D083D082F8E4937012740193700DA3A3B6
:1006E30093F8740193F5828883E4737402936860CA
:0606F300EFA3A3A380DFCA
:103B2B000232E5E493A3F8E493A34003F68001F299
:103B3B0008DFF48029E493A3F85407240CC8C3339B
:103B4B00C4540F4420C8834004F456800146F6DF6A
:103B5B00E4800B0102040810204080901B74E47E6B
:103B6B00019360BCA3FF543F30E509541FFEE4935F
:103B7B00A360010ECF54C025E060A840B8E493A326
:103B8B00FAE493A3F8E493A3C8C582C8CAC583CA51
:103B9B00F0A3C8C582C8CAC583CADFE9DEE780BE09
:011E300000B1
:00000001FF
